{
	"contracts/ensRegisty.sol": {
		"DecentralizedMail": {
			"abi": [
				{
					"inputs": [
						{
							"internalType": "string",
							"name": "reason",
							"type": "string"
						}
					],
					"name": "InvalidLabel",
					"type": "error"
				},
				{
					"inputs": [
						{
							"internalType": "string",
							"name": "label",
							"type": "string"
						}
					],
					"name": "computeNode",
					"outputs": [
						{
							"internalType": "bytes32",
							"name": "",
							"type": "bytes32"
						}
					],
					"stateMutability": "pure",
					"type": "function"
				},
				{
					"inputs": [
						{
							"internalType": "uint256",
							"name": "messageId",
							"type": "uint256"
						}
					],
					"name": "deleteMessage",
					"outputs": [],
					"stateMutability": "nonpayable",
					"type": "function"
				},
				{
					"inputs": [
						{
							"internalType": "string",
							"name": "label",
							"type": "string"
						}
					],
					"name": "getBasenameOwner",
					"outputs": [
						{
							"internalType": "address",
							"name": "",
							"type": "address"
						}
					],
					"stateMutability": "view",
					"type": "function"
				},
				{
					"inputs": [],
					"name": "getMessages",
					"outputs": [
						{
							"components": [
								{
									"internalType": "address",
									"name": "sender",
									"type": "address"
								},
								{
									"internalType": "address",
									"name": "receiver",
									"type": "address"
								},
								{
									"internalType": "string",
									"name": "content",
									"type": "string"
								},
								{
									"internalType": "uint256",
									"name": "timestamp",
									"type": "uint256"
								},
								{
									"internalType": "bool",
									"name": "isDeleted",
									"type": "bool"
								}
							],
							"internalType": "struct DecentralizedMail.Message[]",
							"name": "",
							"type": "tuple[]"
						}
					],
					"stateMutability": "view",
					"type": "function"
				},
				{
					"inputs": [
						{
							"internalType": "uint256",
							"name": "",
							"type": "uint256"
						}
					],
					"name": "messages",
					"outputs": [
						{
							"internalType": "address",
							"name": "sender",
							"type": "address"
						},
						{
							"internalType": "address",
							"name": "receiver",
							"type": "address"
						},
						{
							"internalType": "string",
							"name": "content",
							"type": "string"
						},
						{
							"internalType": "uint256",
							"name": "timestamp",
							"type": "uint256"
						},
						{
							"internalType": "bool",
							"name": "isDeleted",
							"type": "bool"
						}
					],
					"stateMutability": "view",
					"type": "function"
				},
				{
					"inputs": [
						{
							"internalType": "string",
							"name": "_receiverENS",
							"type": "string"
						},
						{
							"internalType": "string",
							"name": "_content",
							"type": "string"
						}
					],
					"name": "sendMessage",
					"outputs": [],
					"stateMutability": "nonpayable",
					"type": "function"
				}
			],
			"devdoc": {
				"kind": "dev",
				"methods": {
					"computeNode(string)": {
						"details": "Validates the label before conversion to prevent mistakes",
						"params": {
							"label": "The label part of the name (e.g., \"techwithmide\" for \"techwithmide.base.eth\")"
						}
					},
					"getBasenameOwner(string)": {
						"params": {
							"label": "The label part of the name (e.g., \"techwithmide\" for \"techwithmide.base.eth\")"
						},
						"returns": {
							"_0": "The address of the current owner, or address(0) if unregistered"
						}
					}
				},
				"version": 1
			},
			"evm": {
				"assembly": "    /* \"contracts/ensRegisty.sol\":351:4578  contract DecentralizedMail {... */\n  mstore(0x40, 0x80)\n  callvalue\n  dup1\n  iszero\n  tag_1\n  jumpi\n  0x00\n  dup1\n  revert\ntag_1:\n  pop\n  dataSize(sub_0)\n  dup1\n  dataOffset(sub_0)\n  0x00\n  codecopy\n  0x00\n  return\nstop\n\nsub_0: assembly {\n        /* \"contracts/ensRegisty.sol\":351:4578  contract DecentralizedMail {... */\n      mstore(0x40, 0x80)\n      callvalue\n      dup1\n      iszero\n      tag_1\n      jumpi\n      0x00\n      dup1\n      revert\n    tag_1:\n      pop\n      jumpi(tag_2, lt(calldatasize, 0x04))\n      shr(0xe0, calldataload(0x00))\n      dup1\n      0x0d80fefd\n      eq\n      tag_3\n      jumpi\n      dup1\n      0x467fba0f\n      eq\n      tag_4\n      jumpi\n      dup1\n      0x5ff6cbf3\n      eq\n      tag_5\n      jumpi\n      dup1\n      0xa97cde0c\n      eq\n      tag_6\n      jumpi\n      dup1\n      0xb888690a\n      eq\n      tag_7\n      jumpi\n      dup1\n      0xfda7362d\n      eq\n      tag_8\n      jumpi\n    tag_2:\n      0x00\n      dup1\n      revert\n        /* \"contracts/ensRegisty.sol\":537:562  Message[] public messages */\n    tag_3:\n      tag_9\n      0x04\n      dup1\n      calldatasize\n      sub\n      dup2\n      add\n      swap1\n      tag_10\n      swap2\n      swap1\n      tag_11\n      jump\t// in\n    tag_10:\n      tag_12\n      jump\t// in\n    tag_9:\n      mload(0x40)\n      tag_13\n      swap6\n      swap5\n      swap4\n      swap3\n      swap2\n      swap1\n      tag_14\n      jump\t// in\n    tag_13:\n      mload(0x40)\n      dup1\n      swap2\n      sub\n      swap1\n      return\n        /* \"contracts/ensRegisty.sol\":3586:4195  function sendMessage(string calldata _receiverENS, string memory _content)... */\n    tag_4:\n      tag_15\n      0x04\n      dup1\n      calldatasize\n      sub\n      dup2\n      add\n      swap1\n      tag_16\n      swap2\n      swap1\n      tag_17\n      jump\t// in\n    tag_16:\n      tag_18\n      jump\t// in\n    tag_15:\n      stop\n        /* \"contracts/ensRegisty.sol\":4201:4295  function getMessages() public view returns (Message[] memory) {... */\n    tag_5:\n      tag_19\n      tag_20\n      jump\t// in\n    tag_19:\n      mload(0x40)\n      tag_21\n      swap2\n      swap1\n      tag_22\n      jump\t// in\n    tag_21:\n      mload(0x40)\n      dup1\n      swap2\n      sub\n      swap1\n      return\n        /* \"contracts/ensRegisty.sol\":1825:2839  function computeNode(string calldata label) public pure returns (bytes32) {... */\n    tag_6:\n      tag_23\n      0x04\n      dup1\n      calldatasize\n      sub\n      dup2\n      add\n      swap1\n      tag_24\n      swap2\n      swap1\n      tag_25\n      jump\t// in\n    tag_24:\n      tag_26\n      jump\t// in\n    tag_23:\n      mload(0x40)\n      tag_27\n      swap2\n      swap1\n      tag_28\n      jump\t// in\n    tag_27:\n      mload(0x40)\n      dup1\n      swap2\n      sub\n      swap1\n      return\n        /* \"contracts/ensRegisty.sol\":4301:4576  function deleteMessage(uint256 messageId) public {... */\n    tag_7:\n      tag_29\n      0x04\n      dup1\n      calldatasize\n      sub\n      dup2\n      add\n      swap1\n      tag_30\n      swap2\n      swap1\n      tag_11\n      jump\t// in\n    tag_30:\n      tag_31\n      jump\t// in\n    tag_29:\n      stop\n        /* \"contracts/ensRegisty.sol\":3076:3543  function getBasenameOwner(string calldata label)... */\n    tag_8:\n      tag_32\n      0x04\n      dup1\n      calldatasize\n      sub\n      dup2\n      add\n      swap1\n      tag_33\n      swap2\n      swap1\n      tag_25\n      jump\t// in\n    tag_33:\n      tag_34\n      jump\t// in\n    tag_32:\n      mload(0x40)\n      tag_35\n      swap2\n      swap1\n      tag_36\n      jump\t// in\n    tag_35:\n      mload(0x40)\n      dup1\n      swap2\n      sub\n      swap1\n      return\n        /* \"contracts/ensRegisty.sol\":537:562  Message[] public messages */\n    tag_12:\n      0x00\n      dup2\n      dup2\n      sload\n      dup2\n      lt\n      tag_37\n      jumpi\n      0x00\n      dup1\n      revert\n    tag_37:\n      swap1\n      0x00\n      mstore\n      keccak256(0x00, 0x20)\n      swap1\n      0x05\n      mul\n      add\n      0x00\n      swap2\n      pop\n      swap1\n      pop\n      dup1\n      0x00\n      add\n      0x00\n      swap1\n      sload\n      swap1\n      0x0100\n      exp\n      swap1\n      div\n      0xffffffffffffffffffffffffffffffffffffffff\n      and\n      swap1\n      dup1\n      0x01\n      add\n      0x00\n      swap1\n      sload\n      swap1\n      0x0100\n      exp\n      swap1\n      div\n      0xffffffffffffffffffffffffffffffffffffffff\n      and\n      swap1\n      dup1\n      0x02\n      add\n      dup1\n      sload\n      tag_39\n      swap1\n      tag_40\n      jump\t// in\n    tag_39:\n      dup1\n      0x1f\n      add\n      0x20\n      dup1\n      swap2\n      div\n      mul\n      0x20\n      add\n      mload(0x40)\n      swap1\n      dup2\n      add\n      0x40\n      mstore\n      dup1\n      swap3\n      swap2\n      swap1\n      dup2\n      dup2\n      mstore\n      0x20\n      add\n      dup3\n      dup1\n      sload\n      tag_41\n      swap1\n      tag_40\n      jump\t// in\n    tag_41:\n      dup1\n      iszero\n      tag_42\n      jumpi\n      dup1\n      0x1f\n      lt\n      tag_43\n      jumpi\n      0x0100\n      dup1\n      dup4\n      sload\n      div\n      mul\n      dup4\n      mstore\n      swap2\n      0x20\n      add\n      swap2\n      jump(tag_42)\n    tag_43:\n      dup3\n      add\n      swap2\n      swap1\n      0x00\n      mstore\n      keccak256(0x00, 0x20)\n      swap1\n    tag_44:\n      dup2\n      sload\n      dup2\n      mstore\n      swap1\n      0x01\n      add\n      swap1\n      0x20\n      add\n      dup1\n      dup4\n      gt\n      tag_44\n      jumpi\n      dup3\n      swap1\n      sub\n      0x1f\n      and\n      dup3\n      add\n      swap2\n    tag_42:\n      pop\n      pop\n      pop\n      pop\n      pop\n      swap1\n      dup1\n      0x03\n      add\n      sload\n      swap1\n      dup1\n      0x04\n      add\n      0x00\n      swap1\n      sload\n      swap1\n      0x0100\n      exp\n      swap1\n      div\n      0xff\n      and\n      swap1\n      pop\n      dup6\n      jump\t// out\n        /* \"contracts/ensRegisty.sol\":3586:4195  function sendMessage(string calldata _receiverENS, string memory _content)... */\n    tag_18:\n        /* \"contracts/ensRegisty.sol\":3690:3706  address receiver */\n      0x00\n        /* \"contracts/ensRegisty.sol\":3709:3739  getBasenameOwner(_receiverENS) */\n      tag_46\n        /* \"contracts/ensRegisty.sol\":3726:3738  _receiverENS */\n      dup5\n      dup5\n        /* \"contracts/ensRegisty.sol\":3709:3725  getBasenameOwner */\n      tag_34\n        /* \"contracts/ensRegisty.sol\":3709:3739  getBasenameOwner(_receiverENS) */\n      jump\t// in\n    tag_46:\n        /* \"contracts/ensRegisty.sol\":3690:3739  address receiver = getBasenameOwner(_receiverENS) */\n      swap1\n      pop\n        /* \"contracts/ensRegisty.sol\":3791:3792  0 */\n      0x00\n        /* \"contracts/ensRegisty.sol\":3771:3793  receiver != address(0) */\n      0xffffffffffffffffffffffffffffffffffffffff\n      and\n        /* \"contracts/ensRegisty.sol\":3771:3779  receiver */\n      dup2\n        /* \"contracts/ensRegisty.sol\":3771:3793  receiver != address(0) */\n      0xffffffffffffffffffffffffffffffffffffffff\n      and\n      sub\n        /* \"contracts/ensRegisty.sol\":3750:3858  require(... */\n      tag_47\n      jumpi\n      mload(0x40)\n      0x08c379a000000000000000000000000000000000000000000000000000000000\n      dup2\n      mstore\n      0x04\n      add\n      tag_48\n      swap1\n      tag_49\n      jump\t// in\n    tag_48:\n      mload(0x40)\n      dup1\n      swap2\n      sub\n      swap1\n      revert\n    tag_47:\n        /* \"contracts/ensRegisty.sol\":3960:3970  msg.sender */\n      caller\n        /* \"contracts/ensRegisty.sol\":3948:3970  receiver == msg.sender */\n      0xffffffffffffffffffffffffffffffffffffffff\n      and\n        /* \"contracts/ensRegisty.sol\":3948:3956  receiver */\n      dup2\n        /* \"contracts/ensRegisty.sol\":3948:3970  receiver == msg.sender */\n      0xffffffffffffffffffffffffffffffffffffffff\n      and\n      eq\n        /* \"contracts/ensRegisty.sol\":3927:4034  require(... */\n      tag_50\n      jumpi\n      mload(0x40)\n      0x08c379a000000000000000000000000000000000000000000000000000000000\n      dup2\n      mstore\n      0x04\n      add\n      tag_51\n      swap1\n      tag_52\n      jump\t// in\n    tag_51:\n      mload(0x40)\n      dup1\n      swap2\n      sub\n      swap1\n      revert\n    tag_50:\n        /* \"contracts/ensRegisty.sol\":4088:4096  messages */\n      0x00\n        /* \"contracts/ensRegisty.sol\":4115:4178  Message(msg.sender, receiver, _content, block.timestamp, false) */\n      mload(0x40)\n      dup1\n      0xa0\n      add\n      0x40\n      mstore\n      dup1\n        /* \"contracts/ensRegisty.sol\":4123:4133  msg.sender */\n      caller\n        /* \"contracts/ensRegisty.sol\":4115:4178  Message(msg.sender, receiver, _content, block.timestamp, false) */\n      0xffffffffffffffffffffffffffffffffffffffff\n      and\n      dup2\n      mstore\n      0x20\n      add\n        /* \"contracts/ensRegisty.sol\":4135:4143  receiver */\n      dup4\n        /* \"contracts/ensRegisty.sol\":4115:4178  Message(msg.sender, receiver, _content, block.timestamp, false) */\n      0xffffffffffffffffffffffffffffffffffffffff\n      and\n      dup2\n      mstore\n      0x20\n      add\n        /* \"contracts/ensRegisty.sol\":4145:4153  _content */\n      dup5\n        /* \"contracts/ensRegisty.sol\":4115:4178  Message(msg.sender, receiver, _content, block.timestamp, false) */\n      dup2\n      mstore\n      0x20\n      add\n        /* \"contracts/ensRegisty.sol\":4155:4170  block.timestamp */\n      timestamp\n        /* \"contracts/ensRegisty.sol\":4115:4178  Message(msg.sender, receiver, _content, block.timestamp, false) */\n      dup2\n      mstore\n      0x20\n      add\n        /* \"contracts/ensRegisty.sol\":4172:4177  false */\n      0x00\n        /* \"contracts/ensRegisty.sol\":4115:4178  Message(msg.sender, receiver, _content, block.timestamp, false) */\n      iszero\n      iszero\n      dup2\n      mstore\n      pop\n        /* \"contracts/ensRegisty.sol\":4088:4188  messages.push(... */\n      swap1\n      dup1\n      0x01\n      dup2\n      sload\n      add\n      dup1\n      dup3\n      sstore\n      dup1\n      swap2\n      pop\n      pop\n      0x01\n      swap1\n      sub\n      swap1\n      0x00\n      mstore\n      keccak256(0x00, 0x20)\n      swap1\n      0x05\n      mul\n      add\n      0x00\n      swap1\n      swap2\n      swap1\n      swap2\n      swap1\n      swap2\n      pop\n      0x00\n      dup3\n      add\n      mload\n      dup2\n      0x00\n      add\n      exp(0x0100, 0x00)\n      dup2\n      sload\n      dup2\n      0xffffffffffffffffffffffffffffffffffffffff\n      mul\n      not\n      and\n      swap1\n      dup4\n      0xffffffffffffffffffffffffffffffffffffffff\n      and\n      mul\n      or\n      swap1\n      sstore\n      pop\n      0x20\n      dup3\n      add\n      mload\n      dup2\n      0x01\n      add\n      exp(0x0100, 0x00)\n      dup2\n      sload\n      dup2\n      0xffffffffffffffffffffffffffffffffffffffff\n      mul\n      not\n      and\n      swap1\n      dup4\n      0xffffffffffffffffffffffffffffffffffffffff\n      and\n      mul\n      or\n      swap1\n      sstore\n      pop\n      0x40\n      dup3\n      add\n      mload\n      dup2\n      0x02\n      add\n      swap1\n      dup2\n      tag_54\n      swap2\n      swap1\n      tag_55\n      jump\t// in\n    tag_54:\n      pop\n      0x60\n      dup3\n      add\n      mload\n      dup2\n      0x03\n      add\n      sstore\n      0x80\n      dup3\n      add\n      mload\n      dup2\n      0x04\n      add\n      exp(0x0100, 0x00)\n      dup2\n      sload\n      dup2\n      0xff\n      mul\n      not\n      and\n      swap1\n      dup4\n      iszero\n      iszero\n      mul\n      or\n      swap1\n      sstore\n      pop\n      pop\n      pop\n        /* \"contracts/ensRegisty.sol\":3680:4195  {... */\n      pop\n        /* \"contracts/ensRegisty.sol\":3586:4195  function sendMessage(string calldata _receiverENS, string memory _content)... */\n      pop\n      pop\n      pop\n      jump\t// out\n        /* \"contracts/ensRegisty.sol\":4201:4295  function getMessages() public view returns (Message[] memory) {... */\n    tag_20:\n        /* \"contracts/ensRegisty.sol\":4245:4261  Message[] memory */\n      0x60\n        /* \"contracts/ensRegisty.sol\":4280:4288  messages */\n      0x00\n        /* \"contracts/ensRegisty.sol\":4273:4288  return messages */\n      dup1\n      sload\n      dup1\n      0x20\n      mul\n      0x20\n      add\n      mload(0x40)\n      swap1\n      dup2\n      add\n      0x40\n      mstore\n      dup1\n      swap3\n      swap2\n      swap1\n      dup2\n      dup2\n      mstore\n      0x20\n      add\n      0x00\n      swap1\n    tag_57:\n      dup3\n      dup3\n      lt\n      iszero\n      tag_58\n      jumpi\n      dup4\n      dup3\n      swap1\n      0x00\n      mstore\n      keccak256(0x00, 0x20)\n      swap1\n      0x05\n      mul\n      add\n      mload(0x40)\n      dup1\n      0xa0\n      add\n      0x40\n      mstore\n      swap1\n      dup2\n      0x00\n      dup3\n      add\n      0x00\n      swap1\n      sload\n      swap1\n      0x0100\n      exp\n      swap1\n      div\n      0xffffffffffffffffffffffffffffffffffffffff\n      and\n      0xffffffffffffffffffffffffffffffffffffffff\n      and\n      0xffffffffffffffffffffffffffffffffffffffff\n      and\n      dup2\n      mstore\n      0x20\n      add\n      0x01\n      dup3\n      add\n      0x00\n      swap1\n      sload\n      swap1\n      0x0100\n      exp\n      swap1\n      div\n      0xffffffffffffffffffffffffffffffffffffffff\n      and\n      0xffffffffffffffffffffffffffffffffffffffff\n      and\n      0xffffffffffffffffffffffffffffffffffffffff\n      and\n      dup2\n      mstore\n      0x20\n      add\n      0x02\n      dup3\n      add\n      dup1\n      sload\n      tag_60\n      swap1\n      tag_40\n      jump\t// in\n    tag_60:\n      dup1\n      0x1f\n      add\n      0x20\n      dup1\n      swap2\n      div\n      mul\n      0x20\n      add\n      mload(0x40)\n      swap1\n      dup2\n      add\n      0x40\n      mstore\n      dup1\n      swap3\n      swap2\n      swap1\n      dup2\n      dup2\n      mstore\n      0x20\n      add\n      dup3\n      dup1\n      sload\n      tag_61\n      swap1\n      tag_40\n      jump\t// in\n    tag_61:\n      dup1\n      iszero\n      tag_62\n      jumpi\n      dup1\n      0x1f\n      lt\n      tag_63\n      jumpi\n      0x0100\n      dup1\n      dup4\n      sload\n      div\n      mul\n      dup4\n      mstore\n      swap2\n      0x20\n      add\n      swap2\n      jump(tag_62)\n    tag_63:\n      dup3\n      add\n      swap2\n      swap1\n      0x00\n      mstore\n      keccak256(0x00, 0x20)\n      swap1\n    tag_64:\n      dup2\n      sload\n      dup2\n      mstore\n      swap1\n      0x01\n      add\n      swap1\n      0x20\n      add\n      dup1\n      dup4\n      gt\n      tag_64\n      jumpi\n      dup3\n      swap1\n      sub\n      0x1f\n      and\n      dup3\n      add\n      swap2\n    tag_62:\n      pop\n      pop\n      pop\n      pop\n      pop\n      dup2\n      mstore\n      0x20\n      add\n      0x03\n      dup3\n      add\n      sload\n      dup2\n      mstore\n      0x20\n      add\n      0x04\n      dup3\n      add\n      0x00\n      swap1\n      sload\n      swap1\n      0x0100\n      exp\n      swap1\n      div\n      0xff\n      and\n      iszero\n      iszero\n      iszero\n      iszero\n      dup2\n      mstore\n      pop\n      pop\n      dup2\n      mstore\n      0x20\n      add\n      swap1\n      0x01\n      add\n      swap1\n      jump(tag_57)\n    tag_58:\n      pop\n      pop\n      pop\n      pop\n      swap1\n      pop\n        /* \"contracts/ensRegisty.sol\":4201:4295  function getMessages() public view returns (Message[] memory) {... */\n      swap1\n      jump\t// out\n        /* \"contracts/ensRegisty.sol\":1825:2839  function computeNode(string calldata label) public pure returns (bytes32) {... */\n    tag_26:\n        /* \"contracts/ensRegisty.sol\":1890:1897  bytes32 */\n      0x00\n        /* \"contracts/ensRegisty.sol\":1909:1932  bytes memory labelBytes */\n      dup1\n        /* \"contracts/ensRegisty.sol\":1941:1946  label */\n      dup4\n      dup4\n        /* \"contracts/ensRegisty.sol\":1909:1947  bytes memory labelBytes = bytes(label) */\n      dup1\n      dup1\n      0x1f\n      add\n      0x20\n      dup1\n      swap2\n      div\n      mul\n      0x20\n      add\n      mload(0x40)\n      swap1\n      dup2\n      add\n      0x40\n      mstore\n      dup1\n      swap4\n      swap3\n      swap2\n      swap1\n      dup2\n      dup2\n      mstore\n      0x20\n      add\n      dup4\n      dup4\n      dup1\n      dup3\n      dup5\n      calldatacopy\n      0x00\n      dup2\n      dup5\n      add\n      mstore\n      not(0x1f)\n      0x1f\n      dup3\n      add\n      and\n      swap1\n      pop\n      dup1\n      dup4\n      add\n      swap3\n      pop\n      pop\n      pop\n      pop\n      pop\n      pop\n      pop\n      swap1\n      pop\n        /* \"contracts/ensRegisty.sol\":1957:1971  uint256 length */\n      0x00\n        /* \"contracts/ensRegisty.sol\":1974:1984  labelBytes */\n      dup2\n        /* \"contracts/ensRegisty.sol\":1974:1991  labelBytes.length */\n      mload\n        /* \"contracts/ensRegisty.sol\":1957:1991  uint256 length = labelBytes.length */\n      swap1\n      pop\n        /* \"contracts/ensRegisty.sol\":2049:2050  0 */\n      0x00\n        /* \"contracts/ensRegisty.sol\":2039:2045  length */\n      dup2\n        /* \"contracts/ensRegisty.sol\":2039:2050  length == 0 */\n      sub\n        /* \"contracts/ensRegisty.sol\":2035:2096  if (length == 0) revert InvalidLabel(\"Label cannot be empty\") */\n      tag_66\n      jumpi\n        /* \"contracts/ensRegisty.sol\":2059:2096  InvalidLabel(\"Label cannot be empty\") */\n      mload(0x40)\n      0x0a9644cf00000000000000000000000000000000000000000000000000000000\n      dup2\n      mstore\n      0x04\n      add\n      tag_67\n      swap1\n      tag_68\n      jump\t// in\n    tag_67:\n      mload(0x40)\n      dup1\n      swap2\n      sub\n      swap1\n      revert\n        /* \"contracts/ensRegisty.sol\":2035:2096  if (length == 0) revert InvalidLabel(\"Label cannot be empty\") */\n    tag_66:\n        /* \"contracts/ensRegisty.sol\":2119:2121  63 */\n      0x3f\n        /* \"contracts/ensRegisty.sol\":2110:2116  length */\n      dup2\n        /* \"contracts/ensRegisty.sol\":2110:2121  length > 63 */\n      gt\n        /* \"contracts/ensRegisty.sol\":2106:2160  if (length > 63) revert InvalidLabel(\"Label too long\") */\n      iszero\n      tag_69\n      jumpi\n        /* \"contracts/ensRegisty.sol\":2130:2160  InvalidLabel(\"Label too long\") */\n      mload(0x40)\n      0x0a9644cf00000000000000000000000000000000000000000000000000000000\n      dup2\n      mstore\n      0x04\n      add\n      tag_70\n      swap1\n      tag_71\n      jump\t// in\n    tag_70:\n      mload(0x40)\n      dup1\n      swap2\n      sub\n      swap1\n      revert\n        /* \"contracts/ensRegisty.sol\":2106:2160  if (length > 63) revert InvalidLabel(\"Label too long\") */\n    tag_69:\n        /* \"contracts/ensRegisty.sol\":2220:2229  uint256 i */\n      0x00\n        /* \"contracts/ensRegisty.sol\":2215:2580  for (uint256 i = 0; i < length; i++) {... */\n    tag_72:\n        /* \"contracts/ensRegisty.sol\":2239:2245  length */\n      dup2\n        /* \"contracts/ensRegisty.sol\":2235:2236  i */\n      dup2\n        /* \"contracts/ensRegisty.sol\":2235:2245  i < length */\n      lt\n        /* \"contracts/ensRegisty.sol\":2215:2580  for (uint256 i = 0; i < length; i++) {... */\n      iszero\n      tag_73\n      jumpi\n        /* \"contracts/ensRegisty.sol\":2266:2277  bytes1 char */\n      0x00\n        /* \"contracts/ensRegisty.sol\":2280:2290  labelBytes */\n      dup4\n        /* \"contracts/ensRegisty.sol\":2291:2292  i */\n      dup3\n        /* \"contracts/ensRegisty.sol\":2280:2293  labelBytes[i] */\n      dup2\n      mload\n      dup2\n      lt\n      tag_75\n      jumpi\n      tag_76\n      tag_77\n      jump\t// in\n    tag_76:\n    tag_75:\n      0x20\n      add\n      add\n      mload\n      0xf8\n      shr\n      0xf8\n      shl\n        /* \"contracts/ensRegisty.sol\":2266:2293  bytes1 char = labelBytes[i] */\n      swap1\n      pop\n        /* \"contracts/ensRegisty.sol\":2338:2342  0x61 */\n      0x61\n        /* \"contracts/ensRegisty.sol\":2330:2342  char >= 0x61 */\n      0xf8\n      shl\n        /* \"contracts/ensRegisty.sol\":2330:2334  char */\n      dup2\n        /* \"contracts/ensRegisty.sol\":2330:2342  char >= 0x61 */\n      not(0xffffffffffffffffffffffffffffffffffffffffffffffffffffffffffffff)\n      and\n      lt\n      iszero\n        /* \"contracts/ensRegisty.sol\":2330:2358  char >= 0x61 && char <= 0x7A */\n      dup1\n      iszero\n      tag_78\n      jumpi\n      pop\n        /* \"contracts/ensRegisty.sol\":2354:2358  0x7A */\n      0x7a\n        /* \"contracts/ensRegisty.sol\":2346:2358  char <= 0x7A */\n      0xf8\n      shl\n        /* \"contracts/ensRegisty.sol\":2346:2350  char */\n      dup2\n        /* \"contracts/ensRegisty.sol\":2346:2358  char <= 0x7A */\n      not(0xffffffffffffffffffffffffffffffffffffffffffffffffffffffffffffff)\n      and\n      gt\n      iszero\n        /* \"contracts/ensRegisty.sol\":2330:2358  char >= 0x61 && char <= 0x7A */\n    tag_78:\n        /* \"contracts/ensRegisty.sol\":2328:2359  !(char >= 0x61 && char <= 0x7A) */\n      iszero\n        /* \"contracts/ensRegisty.sol\":2328:2417  !(char >= 0x61 && char <= 0x7A) && // a-z... */\n      dup1\n      iszero\n      tag_79\n      jumpi\n      pop\n        /* \"contracts/ensRegisty.sol\":2396:2400  0x30 */\n      0x30\n        /* \"contracts/ensRegisty.sol\":2388:2400  char >= 0x30 */\n      0xf8\n      shl\n        /* \"contracts/ensRegisty.sol\":2388:2392  char */\n      dup2\n        /* \"contracts/ensRegisty.sol\":2388:2400  char >= 0x30 */\n      not(0xffffffffffffffffffffffffffffffffffffffffffffffffffffffffffffff)\n      and\n      lt\n      iszero\n        /* \"contracts/ensRegisty.sol\":2388:2416  char >= 0x30 && char <= 0x39 */\n      dup1\n      iszero\n      tag_80\n      jumpi\n      pop\n        /* \"contracts/ensRegisty.sol\":2412:2416  0x39 */\n      0x39\n        /* \"contracts/ensRegisty.sol\":2404:2416  char <= 0x39 */\n      0xf8\n      shl\n        /* \"contracts/ensRegisty.sol\":2404:2408  char */\n      dup2\n        /* \"contracts/ensRegisty.sol\":2404:2416  char <= 0x39 */\n      not(0xffffffffffffffffffffffffffffffffffffffffffffffffffffffffffffff)\n      and\n      gt\n      iszero\n        /* \"contracts/ensRegisty.sol\":2388:2416  char >= 0x30 && char <= 0x39 */\n    tag_80:\n        /* \"contracts/ensRegisty.sol\":2386:2417  !(char >= 0x30 && char <= 0x39) */\n      iszero\n        /* \"contracts/ensRegisty.sol\":2328:2417  !(char >= 0x61 && char <= 0x7A) && // a-z... */\n    tag_79:\n        /* \"contracts/ensRegisty.sol\":2328:2459  !(char >= 0x61 && char <= 0x7A) && // a-z... */\n      dup1\n      iszero\n      tag_81\n      jumpi\n      pop\n        /* \"contracts/ensRegisty.sol\":2454:2458  0x2D */\n      0x2d\n        /* \"contracts/ensRegisty.sol\":2446:2458  char == 0x2D */\n      0xf8\n      shl\n        /* \"contracts/ensRegisty.sol\":2446:2450  char */\n      dup2\n        /* \"contracts/ensRegisty.sol\":2446:2458  char == 0x2D */\n      not(0xffffffffffffffffffffffffffffffffffffffffffffffffffffffffffffff)\n      and\n      eq\n        /* \"contracts/ensRegisty.sol\":2444:2459  !(char == 0x2D) */\n      iszero\n        /* \"contracts/ensRegisty.sol\":2328:2459  !(char >= 0x61 && char <= 0x7A) && // a-z... */\n    tag_81:\n        /* \"contracts/ensRegisty.sol\":2307:2570  if (... */\n      iszero\n      tag_82\n      jumpi\n        /* \"contracts/ensRegisty.sol\":2513:2555  InvalidLabel(\"Invalid character in label\") */\n      mload(0x40)\n      0x0a9644cf00000000000000000000000000000000000000000000000000000000\n      dup2\n      mstore\n      0x04\n      add\n      tag_83\n      swap1\n      tag_84\n      jump\t// in\n    tag_83:\n      mload(0x40)\n      dup1\n      swap2\n      sub\n      swap1\n      revert\n        /* \"contracts/ensRegisty.sol\":2307:2570  if (... */\n    tag_82:\n        /* \"contracts/ensRegisty.sol\":2252:2580  {... */\n      pop\n        /* \"contracts/ensRegisty.sol\":2247:2250  i++ */\n      dup1\n      dup1\n      0x01\n      add\n      swap2\n      pop\n      pop\n        /* \"contracts/ensRegisty.sol\":2215:2580  for (uint256 i = 0; i < length; i++) {... */\n      jump(tag_72)\n    tag_73:\n      pop\n        /* \"contracts/ensRegisty.sol\":2728:2756  abi.encodePacked(\"base.eth\") */\n      add(0x20, mload(0x40))\n      tag_85\n      swap1\n      tag_86\n      jump\t// in\n    tag_85:\n      mload(0x40)\n      0x20\n      dup2\n      dup4\n      sub\n      sub\n      dup2\n      mstore\n      swap1\n      0x40\n      mstore\n        /* \"contracts/ensRegisty.sol\":2718:2757  keccak256(abi.encodePacked(\"base.eth\")) */\n      dup1\n      mload\n      swap1\n      0x20\n      add\n      keccak256\n        /* \"contracts/ensRegisty.sol\":2789:2799  labelBytes */\n      dup3\n        /* \"contracts/ensRegisty.sol\":2779:2800  keccak256(labelBytes) */\n      dup1\n      mload\n      swap1\n      0x20\n      add\n      keccak256\n        /* \"contracts/ensRegisty.sol\":2680:2818  abi.encodePacked(... */\n      add(0x20, mload(0x40))\n      tag_87\n      swap3\n      swap2\n      swap1\n      tag_88\n      jump\t// in\n    tag_87:\n      mload(0x40)\n      0x20\n      dup2\n      dup4\n      sub\n      sub\n      dup2\n      mstore\n      swap1\n      0x40\n      mstore\n        /* \"contracts/ensRegisty.sol\":2653:2832  keccak256(... */\n      dup1\n      mload\n      swap1\n      0x20\n      add\n      keccak256\n        /* \"contracts/ensRegisty.sol\":2634:2832  return... */\n      swap3\n      pop\n      pop\n      pop\n        /* \"contracts/ensRegisty.sol\":1825:2839  function computeNode(string calldata label) public pure returns (bytes32) {... */\n      swap3\n      swap2\n      pop\n      pop\n      jump\t// out\n        /* \"contracts/ensRegisty.sol\":4301:4576  function deleteMessage(uint256 messageId) public {... */\n    tag_31:\n        /* \"contracts/ensRegisty.sol\":4411:4421  msg.sender */\n      caller\n        /* \"contracts/ensRegisty.sol\":4381:4421  messages[messageId].sender == msg.sender */\n      0xffffffffffffffffffffffffffffffffffffffff\n      and\n        /* \"contracts/ensRegisty.sol\":4381:4389  messages */\n      0x00\n        /* \"contracts/ensRegisty.sol\":4390:4399  messageId */\n      dup3\n        /* \"contracts/ensRegisty.sol\":4381:4400  messages[messageId] */\n      dup2\n      sload\n      dup2\n      lt\n      tag_90\n      jumpi\n      tag_91\n      tag_77\n      jump\t// in\n    tag_91:\n    tag_90:\n      swap1\n      0x00\n      mstore\n      keccak256(0x00, 0x20)\n      swap1\n      0x05\n      mul\n      add\n        /* \"contracts/ensRegisty.sol\":4381:4407  messages[messageId].sender */\n      0x00\n      add\n      0x00\n      swap1\n      sload\n      swap1\n      0x0100\n      exp\n      swap1\n      div\n      0xffffffffffffffffffffffffffffffffffffffff\n      and\n        /* \"contracts/ensRegisty.sol\":4381:4421  messages[messageId].sender == msg.sender */\n      0xffffffffffffffffffffffffffffffffffffffff\n      and\n      eq\n        /* \"contracts/ensRegisty.sol\":4381:4483  messages[messageId].sender == msg.sender ||... */\n      dup1\n      tag_93\n      jumpi\n      pop\n        /* \"contracts/ensRegisty.sol\":4473:4483  msg.sender */\n      caller\n        /* \"contracts/ensRegisty.sol\":4441:4483  messages[messageId].receiver == msg.sender */\n      0xffffffffffffffffffffffffffffffffffffffff\n      and\n        /* \"contracts/ensRegisty.sol\":4441:4449  messages */\n      0x00\n        /* \"contracts/ensRegisty.sol\":4450:4459  messageId */\n      dup3\n        /* \"contracts/ensRegisty.sol\":4441:4460  messages[messageId] */\n      dup2\n      sload\n      dup2\n      lt\n      tag_94\n      jumpi\n      tag_95\n      tag_77\n      jump\t// in\n    tag_95:\n    tag_94:\n      swap1\n      0x00\n      mstore\n      keccak256(0x00, 0x20)\n      swap1\n      0x05\n      mul\n      add\n        /* \"contracts/ensRegisty.sol\":4441:4469  messages[messageId].receiver */\n      0x01\n      add\n      0x00\n      swap1\n      sload\n      swap1\n      0x0100\n      exp\n      swap1\n      div\n      0xffffffffffffffffffffffffffffffffffffffff\n      and\n        /* \"contracts/ensRegisty.sol\":4441:4483  messages[messageId].receiver == msg.sender */\n      0xffffffffffffffffffffffffffffffffffffffff\n      and\n      eq\n        /* \"contracts/ensRegisty.sol\":4381:4483  messages[messageId].sender == msg.sender ||... */\n    tag_93:\n        /* \"contracts/ensRegisty.sol\":4360:4523  require(... */\n      tag_97\n      jumpi\n      mload(0x40)\n      0x08c379a000000000000000000000000000000000000000000000000000000000\n      dup2\n      mstore\n      0x04\n      add\n      tag_98\n      swap1\n      tag_99\n      jump\t// in\n    tag_98:\n      mload(0x40)\n      dup1\n      swap2\n      sub\n      swap1\n      revert\n    tag_97:\n        /* \"contracts/ensRegisty.sol\":4565:4569  true */\n      0x01\n        /* \"contracts/ensRegisty.sol\":4533:4541  messages */\n      0x00\n        /* \"contracts/ensRegisty.sol\":4542:4551  messageId */\n      dup3\n        /* \"contracts/ensRegisty.sol\":4533:4552  messages[messageId] */\n      dup2\n      sload\n      dup2\n      lt\n      tag_100\n      jumpi\n      tag_101\n      tag_77\n      jump\t// in\n    tag_101:\n    tag_100:\n      swap1\n      0x00\n      mstore\n      keccak256(0x00, 0x20)\n      swap1\n      0x05\n      mul\n      add\n        /* \"contracts/ensRegisty.sol\":4533:4562  messages[messageId].isDeleted */\n      0x04\n      add\n      0x00\n        /* \"contracts/ensRegisty.sol\":4533:4569  messages[messageId].isDeleted = true */\n      0x0100\n      exp\n      dup2\n      sload\n      dup2\n      0xff\n      mul\n      not\n      and\n      swap1\n      dup4\n      iszero\n      iszero\n      mul\n      or\n      swap1\n      sstore\n      pop\n        /* \"contracts/ensRegisty.sol\":4301:4576  function deleteMessage(uint256 messageId) public {... */\n      pop\n      jump\t// out\n        /* \"contracts/ensRegisty.sol\":3076:3543  function getBasenameOwner(string calldata label)... */\n    tag_34:\n        /* \"contracts/ensRegisty.sol\":3170:3177  address */\n      0x00\n        /* \"contracts/ensRegisty.sol\":3193:3205  bytes32 node */\n      dup1\n        /* \"contracts/ensRegisty.sol\":3208:3226  computeNode(label) */\n      tag_104\n        /* \"contracts/ensRegisty.sol\":3220:3225  label */\n      dup5\n      dup5\n        /* \"contracts/ensRegisty.sol\":3208:3219  computeNode */\n      tag_26\n        /* \"contracts/ensRegisty.sol\":3208:3226  computeNode(label) */\n      jump\t// in\n    tag_104:\n        /* \"contracts/ensRegisty.sol\":3193:3226  bytes32 node = computeNode(label) */\n      swap1\n      pop\n        /* \"contracts/ensRegisty.sol\":3236:3257  IENSRegistry registry */\n      0x00\n        /* \"contracts/ensRegisty.sol\":697:739  0x00000000000C2E074eC69A0dFb2997BA6C7d2e1e */\n      0x0c2e074ec69a0dfb2997ba6c7d2e1e\n        /* \"contracts/ensRegisty.sol\":3236:3286  IENSRegistry registry = IENSRegistry(ENS_REGISTRY) */\n      swap1\n      pop\n        /* \"contracts/ensRegisty.sol\":3296:3319  address resolverAddress */\n      0x00\n        /* \"contracts/ensRegisty.sol\":3322:3330  registry */\n      dup2\n        /* \"contracts/ensRegisty.sol\":3322:3339  registry.resolver */\n      0xffffffffffffffffffffffffffffffffffffffff\n      and\n      0x0178b8bf\n        /* \"contracts/ensRegisty.sol\":3340:3344  node */\n      dup5\n        /* \"contracts/ensRegisty.sol\":3322:3345  registry.resolver(node) */\n      mload(0x40)\n      dup3\n      0xffffffff\n      and\n      0xe0\n      shl\n      dup2\n      mstore\n      0x04\n      add\n      tag_105\n      swap2\n      swap1\n      tag_28\n      jump\t// in\n    tag_105:\n      0x20\n      mload(0x40)\n      dup1\n      dup4\n      sub\n      dup2\n      dup7\n      gas\n      staticcall\n      iszero\n      dup1\n      iszero\n      tag_107\n      jumpi\n      returndatasize\n      0x00\n      dup1\n      returndatacopy\n      revert(0x00, returndatasize)\n    tag_107:\n      pop\n      pop\n      pop\n      pop\n      mload(0x40)\n      returndatasize\n      not(0x1f)\n      0x1f\n      dup3\n      add\n      and\n      dup3\n      add\n      dup1\n      0x40\n      mstore\n      pop\n      dup2\n      add\n      swap1\n      tag_108\n      swap2\n      swap1\n      tag_109\n      jump\t// in\n    tag_108:\n        /* \"contracts/ensRegisty.sol\":3296:3345  address resolverAddress = registry.resolver(node) */\n      swap1\n      pop\n        /* \"contracts/ensRegisty.sol\":3386:3387  0 */\n      0x00\n        /* \"contracts/ensRegisty.sol\":3359:3388  resolverAddress == address(0) */\n      0xffffffffffffffffffffffffffffffffffffffff\n      and\n        /* \"contracts/ensRegisty.sol\":3359:3374  resolverAddress */\n      dup2\n        /* \"contracts/ensRegisty.sol\":3359:3388  resolverAddress == address(0) */\n      0xffffffffffffffffffffffffffffffffffffffff\n      and\n      sub\n        /* \"contracts/ensRegisty.sol\":3355:3407  if (resolverAddress == address(0)) return address(0) */\n      tag_110\n      jumpi\n        /* \"contracts/ensRegisty.sol\":3405:3406  0 */\n      0x00\n        /* \"contracts/ensRegisty.sol\":3390:3407  return address(0) */\n      swap4\n      pop\n      pop\n      pop\n      pop\n      jump(tag_103)\n        /* \"contracts/ensRegisty.sol\":3355:3407  if (resolverAddress == address(0)) return address(0) */\n    tag_110:\n        /* \"contracts/ensRegisty.sol\":3441:3465  IPublicResolver resolver */\n      0x00\n        /* \"contracts/ensRegisty.sol\":3484:3499  resolverAddress */\n      dup2\n        /* \"contracts/ensRegisty.sol\":3441:3500  IPublicResolver resolver = IPublicResolver(resolverAddress) */\n      swap1\n      pop\n        /* \"contracts/ensRegisty.sol\":3517:3525  resolver */\n      dup1\n        /* \"contracts/ensRegisty.sol\":3517:3530  resolver.addr */\n      0xffffffffffffffffffffffffffffffffffffffff\n      and\n      0x3b3b57de\n        /* \"contracts/ensRegisty.sol\":3531:3535  node */\n      dup6\n        /* \"contracts/ensRegisty.sol\":3517:3536  resolver.addr(node) */\n      mload(0x40)\n      dup3\n      0xffffffff\n      and\n      0xe0\n      shl\n      dup2\n      mstore\n      0x04\n      add\n      tag_111\n      swap2\n      swap1\n      tag_28\n      jump\t// in\n    tag_111:\n      0x20\n      mload(0x40)\n      dup1\n      dup4\n      sub\n      dup2\n      dup7\n      gas\n      staticcall\n      iszero\n      dup1\n      iszero\n      tag_113\n      jumpi\n      returndatasize\n      0x00\n      dup1\n      returndatacopy\n      revert(0x00, returndatasize)\n    tag_113:\n      pop\n      pop\n      pop\n      pop\n      mload(0x40)\n      returndatasize\n      not(0x1f)\n      0x1f\n      dup3\n      add\n      and\n      dup3\n      add\n      dup1\n      0x40\n      mstore\n      pop\n      dup2\n      add\n      swap1\n      tag_114\n      swap2\n      swap1\n      tag_109\n      jump\t// in\n    tag_114:\n        /* \"contracts/ensRegisty.sol\":3510:3536  return resolver.addr(node) */\n      swap5\n      pop\n      pop\n      pop\n      pop\n      pop\n        /* \"contracts/ensRegisty.sol\":3076:3543  function getBasenameOwner(string calldata label)... */\n    tag_103:\n      swap3\n      swap2\n      pop\n      pop\n      jump\t// out\n        /* \"#utility.yul\":7:82   */\n    tag_115:\n        /* \"#utility.yul\":40:46   */\n      0x00\n        /* \"#utility.yul\":73:75   */\n      0x40\n        /* \"#utility.yul\":67:76   */\n      mload\n        /* \"#utility.yul\":57:76   */\n      swap1\n      pop\n        /* \"#utility.yul\":7:82   */\n      swap1\n      jump\t// out\n        /* \"#utility.yul\":88:205   */\n    tag_116:\n        /* \"#utility.yul\":197:198   */\n      0x00\n        /* \"#utility.yul\":194:195   */\n      dup1\n        /* \"#utility.yul\":187:199   */\n      revert\n        /* \"#utility.yul\":211:328   */\n    tag_117:\n        /* \"#utility.yul\":320:321   */\n      0x00\n        /* \"#utility.yul\":317:318   */\n      dup1\n        /* \"#utility.yul\":310:322   */\n      revert\n        /* \"#utility.yul\":334:411   */\n    tag_118:\n        /* \"#utility.yul\":371:378   */\n      0x00\n        /* \"#utility.yul\":400:405   */\n      dup2\n        /* \"#utility.yul\":389:405   */\n      swap1\n      pop\n        /* \"#utility.yul\":334:411   */\n      swap2\n      swap1\n      pop\n      jump\t// out\n        /* \"#utility.yul\":417:539   */\n    tag_119:\n        /* \"#utility.yul\":490:514   */\n      tag_199\n        /* \"#utility.yul\":508:513   */\n      dup2\n        /* \"#utility.yul\":490:514   */\n      tag_118\n      jump\t// in\n    tag_199:\n        /* \"#utility.yul\":483:488   */\n      dup2\n        /* \"#utility.yul\":480:515   */\n      eq\n        /* \"#utility.yul\":470:533   */\n      tag_200\n      jumpi\n        /* \"#utility.yul\":529:530   */\n      0x00\n        /* \"#utility.yul\":526:527   */\n      dup1\n        /* \"#utility.yul\":519:531   */\n      revert\n        /* \"#utility.yul\":470:533   */\n    tag_200:\n        /* \"#utility.yul\":417:539   */\n      pop\n      jump\t// out\n        /* \"#utility.yul\":545:684   */\n    tag_120:\n        /* \"#utility.yul\":591:596   */\n      0x00\n        /* \"#utility.yul\":629:635   */\n      dup2\n        /* \"#utility.yul\":616:636   */\n      calldataload\n        /* \"#utility.yul\":607:636   */\n      swap1\n      pop\n        /* \"#utility.yul\":645:678   */\n      tag_202\n        /* \"#utility.yul\":672:677   */\n      dup2\n        /* \"#utility.yul\":645:678   */\n      tag_119\n      jump\t// in\n    tag_202:\n        /* \"#utility.yul\":545:684   */\n      swap3\n      swap2\n      pop\n      pop\n      jump\t// out\n        /* \"#utility.yul\":690:1019   */\n    tag_11:\n        /* \"#utility.yul\":749:755   */\n      0x00\n        /* \"#utility.yul\":798:800   */\n      0x20\n        /* \"#utility.yul\":786:795   */\n      dup3\n        /* \"#utility.yul\":777:784   */\n      dup5\n        /* \"#utility.yul\":773:796   */\n      sub\n        /* \"#utility.yul\":769:801   */\n      slt\n        /* \"#utility.yul\":766:885   */\n      iszero\n      tag_204\n      jumpi\n        /* \"#utility.yul\":804:883   */\n      tag_205\n      tag_116\n      jump\t// in\n    tag_205:\n        /* \"#utility.yul\":766:885   */\n    tag_204:\n        /* \"#utility.yul\":924:925   */\n      0x00\n        /* \"#utility.yul\":949:1002   */\n      tag_206\n        /* \"#utility.yul\":994:1001   */\n      dup5\n        /* \"#utility.yul\":985:991   */\n      dup3\n        /* \"#utility.yul\":974:983   */\n      dup6\n        /* \"#utility.yul\":970:992   */\n      add\n        /* \"#utility.yul\":949:1002   */\n      tag_120\n      jump\t// in\n    tag_206:\n        /* \"#utility.yul\":939:1002   */\n      swap2\n      pop\n        /* \"#utility.yul\":895:1012   */\n      pop\n        /* \"#utility.yul\":690:1019   */\n      swap3\n      swap2\n      pop\n      pop\n      jump\t// out\n        /* \"#utility.yul\":1025:1151   */\n    tag_121:\n        /* \"#utility.yul\":1062:1069   */\n      0x00\n        /* \"#utility.yul\":1102:1144   */\n      0xffffffffffffffffffffffffffffffffffffffff\n        /* \"#utility.yul\":1095:1100   */\n      dup3\n        /* \"#utility.yul\":1091:1145   */\n      and\n        /* \"#utility.yul\":1080:1145   */\n      swap1\n      pop\n        /* \"#utility.yul\":1025:1151   */\n      swap2\n      swap1\n      pop\n      jump\t// out\n        /* \"#utility.yul\":1157:1253   */\n    tag_122:\n        /* \"#utility.yul\":1194:1201   */\n      0x00\n        /* \"#utility.yul\":1223:1247   */\n      tag_209\n        /* \"#utility.yul\":1241:1246   */\n      dup3\n        /* \"#utility.yul\":1223:1247   */\n      tag_121\n      jump\t// in\n    tag_209:\n        /* \"#utility.yul\":1212:1247   */\n      swap1\n      pop\n        /* \"#utility.yul\":1157:1253   */\n      swap2\n      swap1\n      pop\n      jump\t// out\n        /* \"#utility.yul\":1259:1377   */\n    tag_123:\n        /* \"#utility.yul\":1346:1370   */\n      tag_211\n        /* \"#utility.yul\":1364:1369   */\n      dup2\n        /* \"#utility.yul\":1346:1370   */\n      tag_122\n      jump\t// in\n    tag_211:\n        /* \"#utility.yul\":1341:1344   */\n      dup3\n        /* \"#utility.yul\":1334:1371   */\n      mstore\n        /* \"#utility.yul\":1259:1377   */\n      pop\n      pop\n      jump\t// out\n        /* \"#utility.yul\":1383:1482   */\n    tag_124:\n        /* \"#utility.yul\":1435:1441   */\n      0x00\n        /* \"#utility.yul\":1469:1474   */\n      dup2\n        /* \"#utility.yul\":1463:1475   */\n      mload\n        /* \"#utility.yul\":1453:1475   */\n      swap1\n      pop\n        /* \"#utility.yul\":1383:1482   */\n      swap2\n      swap1\n      pop\n      jump\t// out\n        /* \"#utility.yul\":1488:1657   */\n    tag_125:\n        /* \"#utility.yul\":1572:1583   */\n      0x00\n        /* \"#utility.yul\":1606:1612   */\n      dup3\n        /* \"#utility.yul\":1601:1604   */\n      dup3\n        /* \"#utility.yul\":1594:1613   */\n      mstore\n        /* \"#utility.yul\":1646:1650   */\n      0x20\n        /* \"#utility.yul\":1641:1644   */\n      dup3\n        /* \"#utility.yul\":1637:1651   */\n      add\n        /* \"#utility.yul\":1622:1651   */\n      swap1\n      pop\n        /* \"#utility.yul\":1488:1657   */\n      swap3\n      swap2\n      pop\n      pop\n      jump\t// out\n        /* \"#utility.yul\":1663:1802   */\n    tag_126:\n        /* \"#utility.yul\":1752:1758   */\n      dup3\n        /* \"#utility.yul\":1747:1750   */\n      dup2\n        /* \"#utility.yul\":1742:1745   */\n      dup4\n        /* \"#utility.yul\":1736:1759   */\n      mcopy\n        /* \"#utility.yul\":1793:1794   */\n      0x00\n        /* \"#utility.yul\":1784:1790   */\n      dup4\n        /* \"#utility.yul\":1779:1782   */\n      dup4\n        /* \"#utility.yul\":1775:1791   */\n      add\n        /* \"#utility.yul\":1768:1795   */\n      mstore\n        /* \"#utility.yul\":1663:1802   */\n      pop\n      pop\n      pop\n      jump\t// out\n        /* \"#utility.yul\":1808:1910   */\n    tag_127:\n        /* \"#utility.yul\":1849:1855   */\n      0x00\n        /* \"#utility.yul\":1900:1902   */\n      0x1f\n        /* \"#utility.yul\":1896:1903   */\n      not\n        /* \"#utility.yul\":1891:1893   */\n      0x1f\n        /* \"#utility.yul\":1884:1889   */\n      dup4\n        /* \"#utility.yul\":1880:1894   */\n      add\n        /* \"#utility.yul\":1876:1904   */\n      and\n        /* \"#utility.yul\":1866:1904   */\n      swap1\n      pop\n        /* \"#utility.yul\":1808:1910   */\n      swap2\n      swap1\n      pop\n      jump\t// out\n        /* \"#utility.yul\":1916:2293   */\n    tag_128:\n        /* \"#utility.yul\":2004:2007   */\n      0x00\n        /* \"#utility.yul\":2032:2071   */\n      tag_217\n        /* \"#utility.yul\":2065:2070   */\n      dup3\n        /* \"#utility.yul\":2032:2071   */\n      tag_124\n      jump\t// in\n    tag_217:\n        /* \"#utility.yul\":2087:2158   */\n      tag_218\n        /* \"#utility.yul\":2151:2157   */\n      dup2\n        /* \"#utility.yul\":2146:2149   */\n      dup6\n        /* \"#utility.yul\":2087:2158   */\n      tag_125\n      jump\t// in\n    tag_218:\n        /* \"#utility.yul\":2080:2158   */\n      swap4\n      pop\n        /* \"#utility.yul\":2167:2232   */\n      tag_219\n        /* \"#utility.yul\":2225:2231   */\n      dup2\n        /* \"#utility.yul\":2220:2223   */\n      dup6\n        /* \"#utility.yul\":2213:2217   */\n      0x20\n        /* \"#utility.yul\":2206:2211   */\n      dup7\n        /* \"#utility.yul\":2202:2218   */\n      add\n        /* \"#utility.yul\":2167:2232   */\n      tag_126\n      jump\t// in\n    tag_219:\n        /* \"#utility.yul\":2257:2286   */\n      tag_220\n        /* \"#utility.yul\":2279:2285   */\n      dup2\n        /* \"#utility.yul\":2257:2286   */\n      tag_127\n      jump\t// in\n    tag_220:\n        /* \"#utility.yul\":2252:2255   */\n      dup5\n        /* \"#utility.yul\":2248:2287   */\n      add\n        /* \"#utility.yul\":2241:2287   */\n      swap2\n      pop\n        /* \"#utility.yul\":2008:2293   */\n      pop\n        /* \"#utility.yul\":1916:2293   */\n      swap3\n      swap2\n      pop\n      pop\n      jump\t// out\n        /* \"#utility.yul\":2299:2417   */\n    tag_129:\n        /* \"#utility.yul\":2386:2410   */\n      tag_222\n        /* \"#utility.yul\":2404:2409   */\n      dup2\n        /* \"#utility.yul\":2386:2410   */\n      tag_118\n      jump\t// in\n    tag_222:\n        /* \"#utility.yul\":2381:2384   */\n      dup3\n        /* \"#utility.yul\":2374:2411   */\n      mstore\n        /* \"#utility.yul\":2299:2417   */\n      pop\n      pop\n      jump\t// out\n        /* \"#utility.yul\":2423:2513   */\n    tag_130:\n        /* \"#utility.yul\":2457:2464   */\n      0x00\n        /* \"#utility.yul\":2500:2505   */\n      dup2\n        /* \"#utility.yul\":2493:2506   */\n      iszero\n        /* \"#utility.yul\":2486:2507   */\n      iszero\n        /* \"#utility.yul\":2475:2507   */\n      swap1\n      pop\n        /* \"#utility.yul\":2423:2513   */\n      swap2\n      swap1\n      pop\n      jump\t// out\n        /* \"#utility.yul\":2519:2628   */\n    tag_131:\n        /* \"#utility.yul\":2600:2621   */\n      tag_225\n        /* \"#utility.yul\":2615:2620   */\n      dup2\n        /* \"#utility.yul\":2600:2621   */\n      tag_130\n      jump\t// in\n    tag_225:\n        /* \"#utility.yul\":2595:2598   */\n      dup3\n        /* \"#utility.yul\":2588:2622   */\n      mstore\n        /* \"#utility.yul\":2519:2628   */\n      pop\n      pop\n      jump\t// out\n        /* \"#utility.yul\":2634:3377   */\n    tag_14:\n        /* \"#utility.yul\":2853:2857   */\n      0x00\n        /* \"#utility.yul\":2891:2894   */\n      0xa0\n        /* \"#utility.yul\":2880:2889   */\n      dup3\n        /* \"#utility.yul\":2876:2895   */\n      add\n        /* \"#utility.yul\":2868:2895   */\n      swap1\n      pop\n        /* \"#utility.yul\":2905:2976   */\n      tag_227\n        /* \"#utility.yul\":2973:2974   */\n      0x00\n        /* \"#utility.yul\":2962:2971   */\n      dup4\n        /* \"#utility.yul\":2958:2975   */\n      add\n        /* \"#utility.yul\":2949:2955   */\n      dup9\n        /* \"#utility.yul\":2905:2976   */\n      tag_123\n      jump\t// in\n    tag_227:\n        /* \"#utility.yul\":2986:3058   */\n      tag_228\n        /* \"#utility.yul\":3054:3056   */\n      0x20\n        /* \"#utility.yul\":3043:3052   */\n      dup4\n        /* \"#utility.yul\":3039:3057   */\n      add\n        /* \"#utility.yul\":3030:3036   */\n      dup8\n        /* \"#utility.yul\":2986:3058   */\n      tag_123\n      jump\t// in\n    tag_228:\n        /* \"#utility.yul\":3105:3114   */\n      dup2\n        /* \"#utility.yul\":3099:3103   */\n      dup2\n        /* \"#utility.yul\":3095:3115   */\n      sub\n        /* \"#utility.yul\":3090:3092   */\n      0x40\n        /* \"#utility.yul\":3079:3088   */\n      dup4\n        /* \"#utility.yul\":3075:3093   */\n      add\n        /* \"#utility.yul\":3068:3116   */\n      mstore\n        /* \"#utility.yul\":3133:3211   */\n      tag_229\n        /* \"#utility.yul\":3206:3210   */\n      dup2\n        /* \"#utility.yul\":3197:3203   */\n      dup7\n        /* \"#utility.yul\":3133:3211   */\n      tag_128\n      jump\t// in\n    tag_229:\n        /* \"#utility.yul\":3125:3211   */\n      swap1\n      pop\n        /* \"#utility.yul\":3221:3293   */\n      tag_230\n        /* \"#utility.yul\":3289:3291   */\n      0x60\n        /* \"#utility.yul\":3278:3287   */\n      dup4\n        /* \"#utility.yul\":3274:3292   */\n      add\n        /* \"#utility.yul\":3265:3271   */\n      dup6\n        /* \"#utility.yul\":3221:3293   */\n      tag_129\n      jump\t// in\n    tag_230:\n        /* \"#utility.yul\":3303:3370   */\n      tag_231\n        /* \"#utility.yul\":3365:3368   */\n      0x80\n        /* \"#utility.yul\":3354:3363   */\n      dup4\n        /* \"#utility.yul\":3350:3369   */\n      add\n        /* \"#utility.yul\":3341:3347   */\n      dup5\n        /* \"#utility.yul\":3303:3370   */\n      tag_131\n      jump\t// in\n    tag_231:\n        /* \"#utility.yul\":2634:3377   */\n      swap7\n      swap6\n      pop\n      pop\n      pop\n      pop\n      pop\n      pop\n      jump\t// out\n        /* \"#utility.yul\":3383:3500   */\n    tag_132:\n        /* \"#utility.yul\":3492:3493   */\n      0x00\n        /* \"#utility.yul\":3489:3490   */\n      dup1\n        /* \"#utility.yul\":3482:3494   */\n      revert\n        /* \"#utility.yul\":3506:3623   */\n    tag_133:\n        /* \"#utility.yul\":3615:3616   */\n      0x00\n        /* \"#utility.yul\":3612:3613   */\n      dup1\n        /* \"#utility.yul\":3605:3617   */\n      revert\n        /* \"#utility.yul\":3629:3746   */\n    tag_134:\n        /* \"#utility.yul\":3738:3739   */\n      0x00\n        /* \"#utility.yul\":3735:3736   */\n      dup1\n        /* \"#utility.yul\":3728:3740   */\n      revert\n        /* \"#utility.yul\":3766:4319   */\n    tag_135:\n        /* \"#utility.yul\":3824:3832   */\n      0x00\n        /* \"#utility.yul\":3834:3840   */\n      dup1\n        /* \"#utility.yul\":3884:3887   */\n      dup4\n        /* \"#utility.yul\":3877:3881   */\n      0x1f\n        /* \"#utility.yul\":3869:3875   */\n      dup5\n        /* \"#utility.yul\":3865:3882   */\n      add\n        /* \"#utility.yul\":3861:3888   */\n      slt\n        /* \"#utility.yul\":3851:3973   */\n      tag_236\n      jumpi\n        /* \"#utility.yul\":3892:3971   */\n      tag_237\n      tag_132\n      jump\t// in\n    tag_237:\n        /* \"#utility.yul\":3851:3973   */\n    tag_236:\n        /* \"#utility.yul\":4005:4011   */\n      dup3\n        /* \"#utility.yul\":3992:4012   */\n      calldataload\n        /* \"#utility.yul\":3982:4012   */\n      swap1\n      pop\n        /* \"#utility.yul\":4035:4053   */\n      0xffffffffffffffff\n        /* \"#utility.yul\":4027:4033   */\n      dup2\n        /* \"#utility.yul\":4024:4054   */\n      gt\n        /* \"#utility.yul\":4021:4138   */\n      iszero\n      tag_238\n      jumpi\n        /* \"#utility.yul\":4057:4136   */\n      tag_239\n      tag_133\n      jump\t// in\n    tag_239:\n        /* \"#utility.yul\":4021:4138   */\n    tag_238:\n        /* \"#utility.yul\":4171:4175   */\n      0x20\n        /* \"#utility.yul\":4163:4169   */\n      dup4\n        /* \"#utility.yul\":4159:4176   */\n      add\n        /* \"#utility.yul\":4147:4176   */\n      swap2\n      pop\n        /* \"#utility.yul\":4225:4228   */\n      dup4\n        /* \"#utility.yul\":4217:4221   */\n      0x01\n        /* \"#utility.yul\":4209:4215   */\n      dup3\n        /* \"#utility.yul\":4205:4222   */\n      mul\n        /* \"#utility.yul\":4195:4203   */\n      dup4\n        /* \"#utility.yul\":4191:4223   */\n      add\n        /* \"#utility.yul\":4188:4229   */\n      gt\n        /* \"#utility.yul\":4185:4313   */\n      iszero\n      tag_240\n      jumpi\n        /* \"#utility.yul\":4232:4311   */\n      tag_241\n      tag_134\n      jump\t// in\n    tag_241:\n        /* \"#utility.yul\":4185:4313   */\n    tag_240:\n        /* \"#utility.yul\":3766:4319   */\n      swap3\n      pop\n      swap3\n      swap1\n      pop\n      jump\t// out\n        /* \"#utility.yul\":4325:4442   */\n    tag_136:\n        /* \"#utility.yul\":4434:4435   */\n      0x00\n        /* \"#utility.yul\":4431:4432   */\n      dup1\n        /* \"#utility.yul\":4424:4436   */\n      revert\n        /* \"#utility.yul\":4448:4628   */\n    tag_137:\n        /* \"#utility.yul\":4496:4573   */\n      0x4e487b7100000000000000000000000000000000000000000000000000000000\n        /* \"#utility.yul\":4493:4494   */\n      0x00\n        /* \"#utility.yul\":4486:4574   */\n      mstore\n        /* \"#utility.yul\":4593:4597   */\n      0x41\n        /* \"#utility.yul\":4590:4591   */\n      0x04\n        /* \"#utility.yul\":4583:4598   */\n      mstore\n        /* \"#utility.yul\":4617:4621   */\n      0x24\n        /* \"#utility.yul\":4614:4615   */\n      0x00\n        /* \"#utility.yul\":4607:4622   */\n      revert\n        /* \"#utility.yul\":4634:4915   */\n    tag_138:\n        /* \"#utility.yul\":4717:4744   */\n      tag_245\n        /* \"#utility.yul\":4739:4743   */\n      dup3\n        /* \"#utility.yul\":4717:4744   */\n      tag_127\n      jump\t// in\n    tag_245:\n        /* \"#utility.yul\":4709:4715   */\n      dup2\n        /* \"#utility.yul\":4705:4745   */\n      add\n        /* \"#utility.yul\":4847:4853   */\n      dup2\n        /* \"#utility.yul\":4835:4845   */\n      dup2\n        /* \"#utility.yul\":4832:4854   */\n      lt\n        /* \"#utility.yul\":4811:4829   */\n      0xffffffffffffffff\n        /* \"#utility.yul\":4799:4809   */\n      dup3\n        /* \"#utility.yul\":4796:4830   */\n      gt\n        /* \"#utility.yul\":4793:4855   */\n      or\n        /* \"#utility.yul\":4790:4878   */\n      iszero\n      tag_246\n      jumpi\n        /* \"#utility.yul\":4858:4876   */\n      tag_247\n      tag_137\n      jump\t// in\n    tag_247:\n        /* \"#utility.yul\":4790:4878   */\n    tag_246:\n        /* \"#utility.yul\":4898:4908   */\n      dup1\n        /* \"#utility.yul\":4894:4896   */\n      0x40\n        /* \"#utility.yul\":4887:4909   */\n      mstore\n        /* \"#utility.yul\":4677:4915   */\n      pop\n        /* \"#utility.yul\":4634:4915   */\n      pop\n      pop\n      jump\t// out\n        /* \"#utility.yul\":4921:5050   */\n    tag_139:\n        /* \"#utility.yul\":4955:4961   */\n      0x00\n        /* \"#utility.yul\":4982:5002   */\n      tag_249\n      tag_115\n      jump\t// in\n    tag_249:\n        /* \"#utility.yul\":4972:5002   */\n      swap1\n      pop\n        /* \"#utility.yul\":5011:5044   */\n      tag_250\n        /* \"#utility.yul\":5039:5043   */\n      dup3\n        /* \"#utility.yul\":5031:5037   */\n      dup3\n        /* \"#utility.yul\":5011:5044   */\n      tag_138\n      jump\t// in\n    tag_250:\n        /* \"#utility.yul\":4921:5050   */\n      swap2\n      swap1\n      pop\n      jump\t// out\n        /* \"#utility.yul\":5056:5364   */\n    tag_140:\n        /* \"#utility.yul\":5118:5122   */\n      0x00\n        /* \"#utility.yul\":5208:5226   */\n      0xffffffffffffffff\n        /* \"#utility.yul\":5200:5206   */\n      dup3\n        /* \"#utility.yul\":5197:5227   */\n      gt\n        /* \"#utility.yul\":5194:5250   */\n      iszero\n      tag_252\n      jumpi\n        /* \"#utility.yul\":5230:5248   */\n      tag_253\n      tag_137\n      jump\t// in\n    tag_253:\n        /* \"#utility.yul\":5194:5250   */\n    tag_252:\n        /* \"#utility.yul\":5268:5297   */\n      tag_254\n        /* \"#utility.yul\":5290:5296   */\n      dup3\n        /* \"#utility.yul\":5268:5297   */\n      tag_127\n      jump\t// in\n    tag_254:\n        /* \"#utility.yul\":5260:5297   */\n      swap1\n      pop\n        /* \"#utility.yul\":5352:5356   */\n      0x20\n        /* \"#utility.yul\":5346:5350   */\n      dup2\n        /* \"#utility.yul\":5342:5357   */\n      add\n        /* \"#utility.yul\":5334:5357   */\n      swap1\n      pop\n        /* \"#utility.yul\":5056:5364   */\n      swap2\n      swap1\n      pop\n      jump\t// out\n        /* \"#utility.yul\":5370:5518   */\n    tag_141:\n        /* \"#utility.yul\":5468:5474   */\n      dup3\n        /* \"#utility.yul\":5463:5466   */\n      dup2\n        /* \"#utility.yul\":5458:5461   */\n      dup4\n        /* \"#utility.yul\":5445:5475   */\n      calldatacopy\n        /* \"#utility.yul\":5509:5510   */\n      0x00\n        /* \"#utility.yul\":5500:5506   */\n      dup4\n        /* \"#utility.yul\":5495:5498   */\n      dup4\n        /* \"#utility.yul\":5491:5507   */\n      add\n        /* \"#utility.yul\":5484:5511   */\n      mstore\n        /* \"#utility.yul\":5370:5518   */\n      pop\n      pop\n      pop\n      jump\t// out\n        /* \"#utility.yul\":5524:5949   */\n    tag_142:\n        /* \"#utility.yul\":5602:5607   */\n      0x00\n        /* \"#utility.yul\":5627:5693   */\n      tag_257\n        /* \"#utility.yul\":5643:5692   */\n      tag_258\n        /* \"#utility.yul\":5685:5691   */\n      dup5\n        /* \"#utility.yul\":5643:5692   */\n      tag_140\n      jump\t// in\n    tag_258:\n        /* \"#utility.yul\":5627:5693   */\n      tag_139\n      jump\t// in\n    tag_257:\n        /* \"#utility.yul\":5618:5693   */\n      swap1\n      pop\n        /* \"#utility.yul\":5716:5722   */\n      dup3\n        /* \"#utility.yul\":5709:5714   */\n      dup2\n        /* \"#utility.yul\":5702:5723   */\n      mstore\n        /* \"#utility.yul\":5754:5758   */\n      0x20\n        /* \"#utility.yul\":5747:5752   */\n      dup2\n        /* \"#utility.yul\":5743:5759   */\n      add\n        /* \"#utility.yul\":5792:5795   */\n      dup5\n        /* \"#utility.yul\":5783:5789   */\n      dup5\n        /* \"#utility.yul\":5778:5781   */\n      dup5\n        /* \"#utility.yul\":5774:5790   */\n      add\n        /* \"#utility.yul\":5771:5796   */\n      gt\n        /* \"#utility.yul\":5768:5880   */\n      iszero\n      tag_259\n      jumpi\n        /* \"#utility.yul\":5799:5878   */\n      tag_260\n      tag_136\n      jump\t// in\n    tag_260:\n        /* \"#utility.yul\":5768:5880   */\n    tag_259:\n        /* \"#utility.yul\":5889:5943   */\n      tag_261\n        /* \"#utility.yul\":5936:5942   */\n      dup5\n        /* \"#utility.yul\":5931:5934   */\n      dup3\n        /* \"#utility.yul\":5926:5929   */\n      dup6\n        /* \"#utility.yul\":5889:5943   */\n      tag_141\n      jump\t// in\n    tag_261:\n        /* \"#utility.yul\":5608:5949   */\n      pop\n        /* \"#utility.yul\":5524:5949   */\n      swap4\n      swap3\n      pop\n      pop\n      pop\n      jump\t// out\n        /* \"#utility.yul\":5969:6309   */\n    tag_143:\n        /* \"#utility.yul\":6025:6030   */\n      0x00\n        /* \"#utility.yul\":6074:6077   */\n      dup3\n        /* \"#utility.yul\":6067:6071   */\n      0x1f\n        /* \"#utility.yul\":6059:6065   */\n      dup4\n        /* \"#utility.yul\":6055:6072   */\n      add\n        /* \"#utility.yul\":6051:6078   */\n      slt\n        /* \"#utility.yul\":6041:6163   */\n      tag_263\n      jumpi\n        /* \"#utility.yul\":6082:6161   */\n      tag_264\n      tag_132\n      jump\t// in\n    tag_264:\n        /* \"#utility.yul\":6041:6163   */\n    tag_263:\n        /* \"#utility.yul\":6199:6205   */\n      dup2\n        /* \"#utility.yul\":6186:6206   */\n      calldataload\n        /* \"#utility.yul\":6224:6303   */\n      tag_265\n        /* \"#utility.yul\":6299:6302   */\n      dup5\n        /* \"#utility.yul\":6291:6297   */\n      dup3\n        /* \"#utility.yul\":6284:6288   */\n      0x20\n        /* \"#utility.yul\":6276:6282   */\n      dup7\n        /* \"#utility.yul\":6272:6289   */\n      add\n        /* \"#utility.yul\":6224:6303   */\n      tag_142\n      jump\t// in\n    tag_265:\n        /* \"#utility.yul\":6215:6303   */\n      swap2\n      pop\n        /* \"#utility.yul\":6031:6309   */\n      pop\n        /* \"#utility.yul\":5969:6309   */\n      swap3\n      swap2\n      pop\n      pop\n      jump\t// out\n        /* \"#utility.yul\":6315:7169   */\n    tag_17:\n        /* \"#utility.yul\":6405:6411   */\n      0x00\n        /* \"#utility.yul\":6413:6419   */\n      dup1\n        /* \"#utility.yul\":6421:6427   */\n      0x00\n        /* \"#utility.yul\":6470:6472   */\n      0x40\n        /* \"#utility.yul\":6458:6467   */\n      dup5\n        /* \"#utility.yul\":6449:6456   */\n      dup7\n        /* \"#utility.yul\":6445:6468   */\n      sub\n        /* \"#utility.yul\":6441:6473   */\n      slt\n        /* \"#utility.yul\":6438:6557   */\n      iszero\n      tag_267\n      jumpi\n        /* \"#utility.yul\":6476:6555   */\n      tag_268\n      tag_116\n      jump\t// in\n    tag_268:\n        /* \"#utility.yul\":6438:6557   */\n    tag_267:\n        /* \"#utility.yul\":6624:6625   */\n      0x00\n        /* \"#utility.yul\":6613:6622   */\n      dup5\n        /* \"#utility.yul\":6609:6626   */\n      add\n        /* \"#utility.yul\":6596:6627   */\n      calldataload\n        /* \"#utility.yul\":6654:6672   */\n      0xffffffffffffffff\n        /* \"#utility.yul\":6646:6652   */\n      dup2\n        /* \"#utility.yul\":6643:6673   */\n      gt\n        /* \"#utility.yul\":6640:6757   */\n      iszero\n      tag_269\n      jumpi\n        /* \"#utility.yul\":6676:6755   */\n      tag_270\n      tag_117\n      jump\t// in\n    tag_270:\n        /* \"#utility.yul\":6640:6757   */\n    tag_269:\n        /* \"#utility.yul\":6789:6854   */\n      tag_271\n        /* \"#utility.yul\":6846:6853   */\n      dup7\n        /* \"#utility.yul\":6837:6843   */\n      dup3\n        /* \"#utility.yul\":6826:6835   */\n      dup8\n        /* \"#utility.yul\":6822:6844   */\n      add\n        /* \"#utility.yul\":6789:6854   */\n      tag_135\n      jump\t// in\n    tag_271:\n        /* \"#utility.yul\":6771:6854   */\n      swap4\n      pop\n      swap4\n      pop\n        /* \"#utility.yul\":6567:6864   */\n      pop\n        /* \"#utility.yul\":6931:6933   */\n      0x20\n        /* \"#utility.yul\":6920:6929   */\n      dup5\n        /* \"#utility.yul\":6916:6934   */\n      add\n        /* \"#utility.yul\":6903:6935   */\n      calldataload\n        /* \"#utility.yul\":6962:6980   */\n      0xffffffffffffffff\n        /* \"#utility.yul\":6954:6960   */\n      dup2\n        /* \"#utility.yul\":6951:6981   */\n      gt\n        /* \"#utility.yul\":6948:7065   */\n      iszero\n      tag_272\n      jumpi\n        /* \"#utility.yul\":6984:7063   */\n      tag_273\n      tag_117\n      jump\t// in\n    tag_273:\n        /* \"#utility.yul\":6948:7065   */\n    tag_272:\n        /* \"#utility.yul\":7089:7152   */\n      tag_274\n        /* \"#utility.yul\":7144:7151   */\n      dup7\n        /* \"#utility.yul\":7135:7141   */\n      dup3\n        /* \"#utility.yul\":7124:7133   */\n      dup8\n        /* \"#utility.yul\":7120:7142   */\n      add\n        /* \"#utility.yul\":7089:7152   */\n      tag_143\n      jump\t// in\n    tag_274:\n        /* \"#utility.yul\":7079:7152   */\n      swap2\n      pop\n        /* \"#utility.yul\":6874:7162   */\n      pop\n        /* \"#utility.yul\":6315:7169   */\n      swap3\n      pop\n      swap3\n      pop\n      swap3\n      jump\t// out\n        /* \"#utility.yul\":7175:7312   */\n    tag_144:\n        /* \"#utility.yul\":7265:7271   */\n      0x00\n        /* \"#utility.yul\":7299:7304   */\n      dup2\n        /* \"#utility.yul\":7293:7305   */\n      mload\n        /* \"#utility.yul\":7283:7305   */\n      swap1\n      pop\n        /* \"#utility.yul\":7175:7312   */\n      swap2\n      swap1\n      pop\n      jump\t// out\n        /* \"#utility.yul\":7318:7525   */\n    tag_145:\n        /* \"#utility.yul\":7440:7451   */\n      0x00\n        /* \"#utility.yul\":7474:7480   */\n      dup3\n        /* \"#utility.yul\":7469:7472   */\n      dup3\n        /* \"#utility.yul\":7462:7481   */\n      mstore\n        /* \"#utility.yul\":7514:7518   */\n      0x20\n        /* \"#utility.yul\":7509:7512   */\n      dup3\n        /* \"#utility.yul\":7505:7519   */\n      add\n        /* \"#utility.yul\":7490:7519   */\n      swap1\n      pop\n        /* \"#utility.yul\":7318:7525   */\n      swap3\n      swap2\n      pop\n      pop\n      jump\t// out\n        /* \"#utility.yul\":7531:7686   */\n    tag_146:\n        /* \"#utility.yul\":7621:7625   */\n      0x00\n        /* \"#utility.yul\":7644:7647   */\n      dup2\n        /* \"#utility.yul\":7636:7647   */\n      swap1\n      pop\n        /* \"#utility.yul\":7674:7678   */\n      0x20\n        /* \"#utility.yul\":7669:7672   */\n      dup3\n        /* \"#utility.yul\":7665:7679   */\n      add\n        /* \"#utility.yul\":7657:7679   */\n      swap1\n      pop\n        /* \"#utility.yul\":7531:7686   */\n      swap2\n      swap1\n      pop\n      jump\t// out\n        /* \"#utility.yul\":7692:7800   */\n    tag_147:\n        /* \"#utility.yul\":7769:7793   */\n      tag_279\n        /* \"#utility.yul\":7787:7792   */\n      dup2\n        /* \"#utility.yul\":7769:7793   */\n      tag_122\n      jump\t// in\n    tag_279:\n        /* \"#utility.yul\":7764:7767   */\n      dup3\n        /* \"#utility.yul\":7757:7794   */\n      mstore\n        /* \"#utility.yul\":7692:7800   */\n      pop\n      pop\n      jump\t// out\n        /* \"#utility.yul\":7806:7965   */\n    tag_148:\n        /* \"#utility.yul\":7880:7891   */\n      0x00\n        /* \"#utility.yul\":7914:7920   */\n      dup3\n        /* \"#utility.yul\":7909:7912   */\n      dup3\n        /* \"#utility.yul\":7902:7921   */\n      mstore\n        /* \"#utility.yul\":7954:7958   */\n      0x20\n        /* \"#utility.yul\":7949:7952   */\n      dup3\n        /* \"#utility.yul\":7945:7959   */\n      add\n        /* \"#utility.yul\":7930:7959   */\n      swap1\n      pop\n        /* \"#utility.yul\":7806:7965   */\n      swap3\n      swap2\n      pop\n      pop\n      jump\t// out\n        /* \"#utility.yul\":7971:8328   */\n    tag_149:\n        /* \"#utility.yul\":8049:8052   */\n      0x00\n        /* \"#utility.yul\":8077:8116   */\n      tag_282\n        /* \"#utility.yul\":8110:8115   */\n      dup3\n        /* \"#utility.yul\":8077:8116   */\n      tag_124\n      jump\t// in\n    tag_282:\n        /* \"#utility.yul\":8132:8193   */\n      tag_283\n        /* \"#utility.yul\":8186:8192   */\n      dup2\n        /* \"#utility.yul\":8181:8184   */\n      dup6\n        /* \"#utility.yul\":8132:8193   */\n      tag_148\n      jump\t// in\n    tag_283:\n        /* \"#utility.yul\":8125:8193   */\n      swap4\n      pop\n        /* \"#utility.yul\":8202:8267   */\n      tag_284\n        /* \"#utility.yul\":8260:8266   */\n      dup2\n        /* \"#utility.yul\":8255:8258   */\n      dup6\n        /* \"#utility.yul\":8248:8252   */\n      0x20\n        /* \"#utility.yul\":8241:8246   */\n      dup7\n        /* \"#utility.yul\":8237:8253   */\n      add\n        /* \"#utility.yul\":8202:8267   */\n      tag_126\n      jump\t// in\n    tag_284:\n        /* \"#utility.yul\":8292:8321   */\n      tag_285\n        /* \"#utility.yul\":8314:8320   */\n      dup2\n        /* \"#utility.yul\":8292:8321   */\n      tag_127\n      jump\t// in\n    tag_285:\n        /* \"#utility.yul\":8287:8290   */\n      dup5\n        /* \"#utility.yul\":8283:8322   */\n      add\n        /* \"#utility.yul\":8276:8322   */\n      swap2\n      pop\n        /* \"#utility.yul\":8053:8328   */\n      pop\n        /* \"#utility.yul\":7971:8328   */\n      swap3\n      swap2\n      pop\n      pop\n      jump\t// out\n        /* \"#utility.yul\":8334:8442   */\n    tag_150:\n        /* \"#utility.yul\":8411:8435   */\n      tag_287\n        /* \"#utility.yul\":8429:8434   */\n      dup2\n        /* \"#utility.yul\":8411:8435   */\n      tag_118\n      jump\t// in\n    tag_287:\n        /* \"#utility.yul\":8406:8409   */\n      dup3\n        /* \"#utility.yul\":8399:8436   */\n      mstore\n        /* \"#utility.yul\":8334:8442   */\n      pop\n      pop\n      jump\t// out\n        /* \"#utility.yul\":8448:8547   */\n    tag_151:\n        /* \"#utility.yul\":8519:8540   */\n      tag_289\n        /* \"#utility.yul\":8534:8539   */\n      dup2\n        /* \"#utility.yul\":8519:8540   */\n      tag_130\n      jump\t// in\n    tag_289:\n        /* \"#utility.yul\":8514:8517   */\n      dup3\n        /* \"#utility.yul\":8507:8541   */\n      mstore\n        /* \"#utility.yul\":8448:8547   */\n      pop\n      pop\n      jump\t// out\n        /* \"#utility.yul\":8629:9756   */\n    tag_152:\n        /* \"#utility.yul\":8734:8737   */\n      0x00\n        /* \"#utility.yul\":8770:8774   */\n      0xa0\n        /* \"#utility.yul\":8765:8768   */\n      dup4\n        /* \"#utility.yul\":8761:8775   */\n      add\n        /* \"#utility.yul\":8859:8863   */\n      0x00\n        /* \"#utility.yul\":8852:8857   */\n      dup4\n        /* \"#utility.yul\":8848:8864   */\n      add\n        /* \"#utility.yul\":8842:8865   */\n      mload\n        /* \"#utility.yul\":8878:8941   */\n      tag_291\n        /* \"#utility.yul\":8935:8939   */\n      0x00\n        /* \"#utility.yul\":8930:8933   */\n      dup7\n        /* \"#utility.yul\":8926:8940   */\n      add\n        /* \"#utility.yul\":8912:8924   */\n      dup3\n        /* \"#utility.yul\":8878:8941   */\n      tag_147\n      jump\t// in\n    tag_291:\n        /* \"#utility.yul\":8785:8951   */\n      pop\n        /* \"#utility.yul\":9037:9041   */\n      0x20\n        /* \"#utility.yul\":9030:9035   */\n      dup4\n        /* \"#utility.yul\":9026:9042   */\n      add\n        /* \"#utility.yul\":9020:9043   */\n      mload\n        /* \"#utility.yul\":9056:9119   */\n      tag_292\n        /* \"#utility.yul\":9113:9117   */\n      0x20\n        /* \"#utility.yul\":9108:9111   */\n      dup7\n        /* \"#utility.yul\":9104:9118   */\n      add\n        /* \"#utility.yul\":9090:9102   */\n      dup3\n        /* \"#utility.yul\":9056:9119   */\n      tag_147\n      jump\t// in\n    tag_292:\n        /* \"#utility.yul\":8961:9129   */\n      pop\n        /* \"#utility.yul\":9214:9218   */\n      0x40\n        /* \"#utility.yul\":9207:9212   */\n      dup4\n        /* \"#utility.yul\":9203:9219   */\n      add\n        /* \"#utility.yul\":9197:9220   */\n      mload\n        /* \"#utility.yul\":9267:9270   */\n      dup5\n        /* \"#utility.yul\":9261:9265   */\n      dup3\n        /* \"#utility.yul\":9257:9271   */\n      sub\n        /* \"#utility.yul\":9250:9254   */\n      0x40\n        /* \"#utility.yul\":9245:9248   */\n      dup7\n        /* \"#utility.yul\":9241:9255   */\n      add\n        /* \"#utility.yul\":9234:9272   */\n      mstore\n        /* \"#utility.yul\":9293:9366   */\n      tag_293\n        /* \"#utility.yul\":9361:9365   */\n      dup3\n        /* \"#utility.yul\":9347:9359   */\n      dup3\n        /* \"#utility.yul\":9293:9366   */\n      tag_149\n      jump\t// in\n    tag_293:\n        /* \"#utility.yul\":9285:9366   */\n      swap2\n      pop\n        /* \"#utility.yul\":9139:9377   */\n      pop\n        /* \"#utility.yul\":9464:9468   */\n      0x60\n        /* \"#utility.yul\":9457:9462   */\n      dup4\n        /* \"#utility.yul\":9453:9469   */\n      add\n        /* \"#utility.yul\":9447:9470   */\n      mload\n        /* \"#utility.yul\":9483:9546   */\n      tag_294\n        /* \"#utility.yul\":9540:9544   */\n      0x60\n        /* \"#utility.yul\":9535:9538   */\n      dup7\n        /* \"#utility.yul\":9531:9545   */\n      add\n        /* \"#utility.yul\":9517:9529   */\n      dup3\n        /* \"#utility.yul\":9483:9546   */\n      tag_150\n      jump\t// in\n    tag_294:\n        /* \"#utility.yul\":9387:9556   */\n      pop\n        /* \"#utility.yul\":9643:9647   */\n      0x80\n        /* \"#utility.yul\":9636:9641   */\n      dup4\n        /* \"#utility.yul\":9632:9648   */\n      add\n        /* \"#utility.yul\":9626:9649   */\n      mload\n        /* \"#utility.yul\":9662:9719   */\n      tag_295\n        /* \"#utility.yul\":9713:9717   */\n      0x80\n        /* \"#utility.yul\":9708:9711   */\n      dup7\n        /* \"#utility.yul\":9704:9718   */\n      add\n        /* \"#utility.yul\":9690:9702   */\n      dup3\n        /* \"#utility.yul\":9662:9719   */\n      tag_151\n      jump\t// in\n    tag_295:\n        /* \"#utility.yul\":9566:9729   */\n      pop\n        /* \"#utility.yul\":9746:9750   */\n      dup1\n        /* \"#utility.yul\":9739:9750   */\n      swap2\n      pop\n        /* \"#utility.yul\":8739:9756   */\n      pop\n        /* \"#utility.yul\":8629:9756   */\n      swap3\n      swap2\n      pop\n      pop\n      jump\t// out\n        /* \"#utility.yul\":9762:10010   */\n    tag_153:\n        /* \"#utility.yul\":9877:9887   */\n      0x00\n        /* \"#utility.yul\":9912:10004   */\n      tag_297\n        /* \"#utility.yul\":10000:10003   */\n      dup4\n        /* \"#utility.yul\":9992:9998   */\n      dup4\n        /* \"#utility.yul\":9912:10004   */\n      tag_152\n      jump\t// in\n    tag_297:\n        /* \"#utility.yul\":9898:10004   */\n      swap1\n      pop\n        /* \"#utility.yul\":9762:10010   */\n      swap3\n      swap2\n      pop\n      pop\n      jump\t// out\n        /* \"#utility.yul\":10016:10152   */\n    tag_154:\n        /* \"#utility.yul\":10109:10113   */\n      0x00\n        /* \"#utility.yul\":10141:10145   */\n      0x20\n        /* \"#utility.yul\":10136:10139   */\n      dup3\n        /* \"#utility.yul\":10132:10146   */\n      add\n        /* \"#utility.yul\":10124:10146   */\n      swap1\n      pop\n        /* \"#utility.yul\":10016:10152   */\n      swap2\n      swap1\n      pop\n      jump\t// out\n        /* \"#utility.yul\":10238:11333   */\n    tag_155:\n        /* \"#utility.yul\":10403:10406   */\n      0x00\n        /* \"#utility.yul\":10432:10509   */\n      tag_300\n        /* \"#utility.yul\":10503:10508   */\n      dup3\n        /* \"#utility.yul\":10432:10509   */\n      tag_144\n      jump\t// in\n    tag_300:\n        /* \"#utility.yul\":10525:10634   */\n      tag_301\n        /* \"#utility.yul\":10627:10633   */\n      dup2\n        /* \"#utility.yul\":10622:10625   */\n      dup6\n        /* \"#utility.yul\":10525:10634   */\n      tag_145\n      jump\t// in\n    tag_301:\n        /* \"#utility.yul\":10518:10634   */\n      swap4\n      pop\n        /* \"#utility.yul\":10660:10663   */\n      dup4\n        /* \"#utility.yul\":10705:10709   */\n      0x20\n        /* \"#utility.yul\":10697:10703   */\n      dup3\n        /* \"#utility.yul\":10693:10710   */\n      mul\n        /* \"#utility.yul\":10688:10691   */\n      dup6\n        /* \"#utility.yul\":10684:10711   */\n      add\n        /* \"#utility.yul\":10735:10814   */\n      tag_302\n        /* \"#utility.yul\":10808:10813   */\n      dup6\n        /* \"#utility.yul\":10735:10814   */\n      tag_146\n      jump\t// in\n    tag_302:\n        /* \"#utility.yul\":10837:10844   */\n      dup1\n        /* \"#utility.yul\":10868:10869   */\n      0x00\n        /* \"#utility.yul\":10853:11288   */\n    tag_303:\n        /* \"#utility.yul\":10878:10884   */\n      dup6\n        /* \"#utility.yul\":10875:10876   */\n      dup2\n        /* \"#utility.yul\":10872:10885   */\n      lt\n        /* \"#utility.yul\":10853:11288   */\n      iszero\n      tag_305\n      jumpi\n        /* \"#utility.yul\":10949:10958   */\n      dup5\n        /* \"#utility.yul\":10943:10947   */\n      dup5\n        /* \"#utility.yul\":10939:10959   */\n      sub\n        /* \"#utility.yul\":10934:10937   */\n      dup10\n        /* \"#utility.yul\":10927:10960   */\n      mstore\n        /* \"#utility.yul\":11000:11006   */\n      dup2\n        /* \"#utility.yul\":10994:11007   */\n      mload\n        /* \"#utility.yul\":11028:11138   */\n      tag_306\n        /* \"#utility.yul\":11133:11137   */\n      dup6\n        /* \"#utility.yul\":11118:11131   */\n      dup3\n        /* \"#utility.yul\":11028:11138   */\n      tag_153\n      jump\t// in\n    tag_306:\n        /* \"#utility.yul\":11020:11138   */\n      swap5\n      pop\n        /* \"#utility.yul\":11161:11244   */\n      tag_307\n        /* \"#utility.yul\":11237:11243   */\n      dup4\n        /* \"#utility.yul\":11161:11244   */\n      tag_154\n      jump\t// in\n    tag_307:\n        /* \"#utility.yul\":11151:11244   */\n      swap3\n      pop\n        /* \"#utility.yul\":11273:11277   */\n      0x20\n        /* \"#utility.yul\":11268:11271   */\n      dup11\n        /* \"#utility.yul\":11264:11278   */\n      add\n        /* \"#utility.yul\":11257:11278   */\n      swap10\n      pop\n        /* \"#utility.yul\":10913:11288   */\n      pop\n        /* \"#utility.yul\":10900:10901   */\n      0x01\n        /* \"#utility.yul\":10897:10898   */\n      dup2\n        /* \"#utility.yul\":10893:10902   */\n      add\n        /* \"#utility.yul\":10888:10902   */\n      swap1\n      pop\n        /* \"#utility.yul\":10853:11288   */\n      jump(tag_303)\n    tag_305:\n        /* \"#utility.yul\":10857:10871   */\n      pop\n        /* \"#utility.yul\":11304:11308   */\n      dup3\n        /* \"#utility.yul\":11297:11308   */\n      swap8\n      pop\n        /* \"#utility.yul\":11324:11327   */\n      dup8\n        /* \"#utility.yul\":11317:11327   */\n      swap6\n      pop\n        /* \"#utility.yul\":10408:11333   */\n      pop\n      pop\n      pop\n      pop\n      pop\n        /* \"#utility.yul\":10238:11333   */\n      swap3\n      swap2\n      pop\n      pop\n      jump\t// out\n        /* \"#utility.yul\":11339:11804   */\n    tag_22:\n        /* \"#utility.yul\":11528:11532   */\n      0x00\n        /* \"#utility.yul\":11566:11568   */\n      0x20\n        /* \"#utility.yul\":11555:11564   */\n      dup3\n        /* \"#utility.yul\":11551:11569   */\n      add\n        /* \"#utility.yul\":11543:11569   */\n      swap1\n      pop\n        /* \"#utility.yul\":11615:11624   */\n      dup2\n        /* \"#utility.yul\":11609:11613   */\n      dup2\n        /* \"#utility.yul\":11605:11625   */\n      sub\n        /* \"#utility.yul\":11601:11602   */\n      0x00\n        /* \"#utility.yul\":11590:11599   */\n      dup4\n        /* \"#utility.yul\":11586:11603   */\n      add\n        /* \"#utility.yul\":11579:11626   */\n      mstore\n        /* \"#utility.yul\":11643:11797   */\n      tag_309\n        /* \"#utility.yul\":11792:11796   */\n      dup2\n        /* \"#utility.yul\":11783:11789   */\n      dup5\n        /* \"#utility.yul\":11643:11797   */\n      tag_155\n      jump\t// in\n    tag_309:\n        /* \"#utility.yul\":11635:11797   */\n      swap1\n      pop\n        /* \"#utility.yul\":11339:11804   */\n      swap3\n      swap2\n      pop\n      pop\n      jump\t// out\n        /* \"#utility.yul\":11810:12339   */\n    tag_25:\n        /* \"#utility.yul\":11881:11887   */\n      0x00\n        /* \"#utility.yul\":11889:11895   */\n      dup1\n        /* \"#utility.yul\":11938:11940   */\n      0x20\n        /* \"#utility.yul\":11926:11935   */\n      dup4\n        /* \"#utility.yul\":11917:11924   */\n      dup6\n        /* \"#utility.yul\":11913:11936   */\n      sub\n        /* \"#utility.yul\":11909:11941   */\n      slt\n        /* \"#utility.yul\":11906:12025   */\n      iszero\n      tag_311\n      jumpi\n        /* \"#utility.yul\":11944:12023   */\n      tag_312\n      tag_116\n      jump\t// in\n    tag_312:\n        /* \"#utility.yul\":11906:12025   */\n    tag_311:\n        /* \"#utility.yul\":12092:12093   */\n      0x00\n        /* \"#utility.yul\":12081:12090   */\n      dup4\n        /* \"#utility.yul\":12077:12094   */\n      add\n        /* \"#utility.yul\":12064:12095   */\n      calldataload\n        /* \"#utility.yul\":12122:12140   */\n      0xffffffffffffffff\n        /* \"#utility.yul\":12114:12120   */\n      dup2\n        /* \"#utility.yul\":12111:12141   */\n      gt\n        /* \"#utility.yul\":12108:12225   */\n      iszero\n      tag_313\n      jumpi\n        /* \"#utility.yul\":12144:12223   */\n      tag_314\n      tag_117\n      jump\t// in\n    tag_314:\n        /* \"#utility.yul\":12108:12225   */\n    tag_313:\n        /* \"#utility.yul\":12257:12322   */\n      tag_315\n        /* \"#utility.yul\":12314:12321   */\n      dup6\n        /* \"#utility.yul\":12305:12311   */\n      dup3\n        /* \"#utility.yul\":12294:12303   */\n      dup7\n        /* \"#utility.yul\":12290:12312   */\n      add\n        /* \"#utility.yul\":12257:12322   */\n      tag_135\n      jump\t// in\n    tag_315:\n        /* \"#utility.yul\":12239:12322   */\n      swap3\n      pop\n      swap3\n      pop\n        /* \"#utility.yul\":12035:12332   */\n      pop\n        /* \"#utility.yul\":11810:12339   */\n      swap3\n      pop\n      swap3\n      swap1\n      pop\n      jump\t// out\n        /* \"#utility.yul\":12345:12422   */\n    tag_156:\n        /* \"#utility.yul\":12382:12389   */\n      0x00\n        /* \"#utility.yul\":12411:12416   */\n      dup2\n        /* \"#utility.yul\":12400:12416   */\n      swap1\n      pop\n        /* \"#utility.yul\":12345:12422   */\n      swap2\n      swap1\n      pop\n      jump\t// out\n        /* \"#utility.yul\":12428:12546   */\n    tag_157:\n        /* \"#utility.yul\":12515:12539   */\n      tag_318\n        /* \"#utility.yul\":12533:12538   */\n      dup2\n        /* \"#utility.yul\":12515:12539   */\n      tag_156\n      jump\t// in\n    tag_318:\n        /* \"#utility.yul\":12510:12513   */\n      dup3\n        /* \"#utility.yul\":12503:12540   */\n      mstore\n        /* \"#utility.yul\":12428:12546   */\n      pop\n      pop\n      jump\t// out\n        /* \"#utility.yul\":12552:12774   */\n    tag_28:\n        /* \"#utility.yul\":12645:12649   */\n      0x00\n        /* \"#utility.yul\":12683:12685   */\n      0x20\n        /* \"#utility.yul\":12672:12681   */\n      dup3\n        /* \"#utility.yul\":12668:12686   */\n      add\n        /* \"#utility.yul\":12660:12686   */\n      swap1\n      pop\n        /* \"#utility.yul\":12696:12767   */\n      tag_320\n        /* \"#utility.yul\":12764:12765   */\n      0x00\n        /* \"#utility.yul\":12753:12762   */\n      dup4\n        /* \"#utility.yul\":12749:12766   */\n      add\n        /* \"#utility.yul\":12740:12746   */\n      dup5\n        /* \"#utility.yul\":12696:12767   */\n      tag_157\n      jump\t// in\n    tag_320:\n        /* \"#utility.yul\":12552:12774   */\n      swap3\n      swap2\n      pop\n      pop\n      jump\t// out\n        /* \"#utility.yul\":12780:13002   */\n    tag_36:\n        /* \"#utility.yul\":12873:12877   */\n      0x00\n        /* \"#utility.yul\":12911:12913   */\n      0x20\n        /* \"#utility.yul\":12900:12909   */\n      dup3\n        /* \"#utility.yul\":12896:12914   */\n      add\n        /* \"#utility.yul\":12888:12914   */\n      swap1\n      pop\n        /* \"#utility.yul\":12924:12995   */\n      tag_322\n        /* \"#utility.yul\":12992:12993   */\n      0x00\n        /* \"#utility.yul\":12981:12990   */\n      dup4\n        /* \"#utility.yul\":12977:12994   */\n      add\n        /* \"#utility.yul\":12968:12974   */\n      dup5\n        /* \"#utility.yul\":12924:12995   */\n      tag_123\n      jump\t// in\n    tag_322:\n        /* \"#utility.yul\":12780:13002   */\n      swap3\n      swap2\n      pop\n      pop\n      jump\t// out\n        /* \"#utility.yul\":13008:13188   */\n    tag_158:\n        /* \"#utility.yul\":13056:13133   */\n      0x4e487b7100000000000000000000000000000000000000000000000000000000\n        /* \"#utility.yul\":13053:13054   */\n      0x00\n        /* \"#utility.yul\":13046:13134   */\n      mstore\n        /* \"#utility.yul\":13153:13157   */\n      0x22\n        /* \"#utility.yul\":13150:13151   */\n      0x04\n        /* \"#utility.yul\":13143:13158   */\n      mstore\n        /* \"#utility.yul\":13177:13181   */\n      0x24\n        /* \"#utility.yul\":13174:13175   */\n      0x00\n        /* \"#utility.yul\":13167:13182   */\n      revert\n        /* \"#utility.yul\":13194:13514   */\n    tag_40:\n        /* \"#utility.yul\":13238:13244   */\n      0x00\n        /* \"#utility.yul\":13275:13276   */\n      0x02\n        /* \"#utility.yul\":13269:13273   */\n      dup3\n        /* \"#utility.yul\":13265:13277   */\n      div\n        /* \"#utility.yul\":13255:13277   */\n      swap1\n      pop\n        /* \"#utility.yul\":13322:13323   */\n      0x01\n        /* \"#utility.yul\":13316:13320   */\n      dup3\n        /* \"#utility.yul\":13312:13324   */\n      and\n        /* \"#utility.yul\":13343:13361   */\n      dup1\n        /* \"#utility.yul\":13333:13414   */\n      tag_325\n      jumpi\n        /* \"#utility.yul\":13399:13403   */\n      0x7f\n        /* \"#utility.yul\":13391:13397   */\n      dup3\n        /* \"#utility.yul\":13387:13404   */\n      and\n        /* \"#utility.yul\":13377:13404   */\n      swap2\n      pop\n        /* \"#utility.yul\":13333:13414   */\n    tag_325:\n        /* \"#utility.yul\":13461:13463   */\n      0x20\n        /* \"#utility.yul\":13453:13459   */\n      dup3\n        /* \"#utility.yul\":13450:13464   */\n      lt\n        /* \"#utility.yul\":13430:13448   */\n      dup2\n        /* \"#utility.yul\":13427:13465   */\n      sub\n        /* \"#utility.yul\":13424:13508   */\n      tag_326\n      jumpi\n        /* \"#utility.yul\":13480:13498   */\n      tag_327\n      tag_158\n      jump\t// in\n    tag_327:\n        /* \"#utility.yul\":13424:13508   */\n    tag_326:\n        /* \"#utility.yul\":13245:13514   */\n      pop\n        /* \"#utility.yul\":13194:13514   */\n      swap2\n      swap1\n      pop\n      jump\t// out\n        /* \"#utility.yul\":13520:13746   */\n    tag_159:\n        /* \"#utility.yul\":13660:13694   */\n      0x496e76616c696420454e53206e616d65206f72206e6f74206f776e6564206279\n        /* \"#utility.yul\":13656:13657   */\n      0x00\n        /* \"#utility.yul\":13648:13654   */\n      dup3\n        /* \"#utility.yul\":13644:13658   */\n      add\n        /* \"#utility.yul\":13637:13695   */\n      mstore\n        /* \"#utility.yul\":13729:13738   */\n      0x20616e796f6e6500000000000000000000000000000000000000000000000000\n        /* \"#utility.yul\":13724:13726   */\n      0x20\n        /* \"#utility.yul\":13716:13722   */\n      dup3\n        /* \"#utility.yul\":13712:13727   */\n      add\n        /* \"#utility.yul\":13705:13739   */\n      mstore\n        /* \"#utility.yul\":13520:13746   */\n      pop\n      jump\t// out\n        /* \"#utility.yul\":13752:14118   */\n    tag_160:\n        /* \"#utility.yul\":13894:13897   */\n      0x00\n        /* \"#utility.yul\":13915:13982   */\n      tag_330\n        /* \"#utility.yul\":13979:13981   */\n      0x27\n        /* \"#utility.yul\":13974:13977   */\n      dup4\n        /* \"#utility.yul\":13915:13982   */\n      tag_125\n      jump\t// in\n    tag_330:\n        /* \"#utility.yul\":13908:13982   */\n      swap2\n      pop\n        /* \"#utility.yul\":13991:14084   */\n      tag_331\n        /* \"#utility.yul\":14080:14083   */\n      dup3\n        /* \"#utility.yul\":13991:14084   */\n      tag_159\n      jump\t// in\n    tag_331:\n        /* \"#utility.yul\":14109:14111   */\n      0x40\n        /* \"#utility.yul\":14104:14107   */\n      dup3\n        /* \"#utility.yul\":14100:14112   */\n      add\n        /* \"#utility.yul\":14093:14112   */\n      swap1\n      pop\n        /* \"#utility.yul\":13752:14118   */\n      swap2\n      swap1\n      pop\n      jump\t// out\n        /* \"#utility.yul\":14124:14543   */\n    tag_49:\n        /* \"#utility.yul\":14290:14294   */\n      0x00\n        /* \"#utility.yul\":14328:14330   */\n      0x20\n        /* \"#utility.yul\":14317:14326   */\n      dup3\n        /* \"#utility.yul\":14313:14331   */\n      add\n        /* \"#utility.yul\":14305:14331   */\n      swap1\n      pop\n        /* \"#utility.yul\":14377:14386   */\n      dup2\n        /* \"#utility.yul\":14371:14375   */\n      dup2\n        /* \"#utility.yul\":14367:14387   */\n      sub\n        /* \"#utility.yul\":14363:14364   */\n      0x00\n        /* \"#utility.yul\":14352:14361   */\n      dup4\n        /* \"#utility.yul\":14348:14365   */\n      add\n        /* \"#utility.yul\":14341:14388   */\n      mstore\n        /* \"#utility.yul\":14405:14536   */\n      tag_333\n        /* \"#utility.yul\":14531:14535   */\n      dup2\n        /* \"#utility.yul\":14405:14536   */\n      tag_160\n      jump\t// in\n    tag_333:\n        /* \"#utility.yul\":14397:14536   */\n      swap1\n      pop\n        /* \"#utility.yul\":14124:14543   */\n      swap2\n      swap1\n      pop\n      jump\t// out\n        /* \"#utility.yul\":14549:14774   */\n    tag_161:\n        /* \"#utility.yul\":14689:14723   */\n      0x596f752063616e206e6f742073656e64206d6573736167657320746f20796f75\n        /* \"#utility.yul\":14685:14686   */\n      0x00\n        /* \"#utility.yul\":14677:14683   */\n      dup3\n        /* \"#utility.yul\":14673:14687   */\n      add\n        /* \"#utility.yul\":14666:14724   */\n      mstore\n        /* \"#utility.yul\":14758:14766   */\n      0x722073656c660000000000000000000000000000000000000000000000000000\n        /* \"#utility.yul\":14753:14755   */\n      0x20\n        /* \"#utility.yul\":14745:14751   */\n      dup3\n        /* \"#utility.yul\":14741:14756   */\n      add\n        /* \"#utility.yul\":14734:14767   */\n      mstore\n        /* \"#utility.yul\":14549:14774   */\n      pop\n      jump\t// out\n        /* \"#utility.yul\":14780:15146   */\n    tag_162:\n        /* \"#utility.yul\":14922:14925   */\n      0x00\n        /* \"#utility.yul\":14943:15010   */\n      tag_336\n        /* \"#utility.yul\":15007:15009   */\n      0x26\n        /* \"#utility.yul\":15002:15005   */\n      dup4\n        /* \"#utility.yul\":14943:15010   */\n      tag_125\n      jump\t// in\n    tag_336:\n        /* \"#utility.yul\":14936:15010   */\n      swap2\n      pop\n        /* \"#utility.yul\":15019:15112   */\n      tag_337\n        /* \"#utility.yul\":15108:15111   */\n      dup3\n        /* \"#utility.yul\":15019:15112   */\n      tag_161\n      jump\t// in\n    tag_337:\n        /* \"#utility.yul\":15137:15139   */\n      0x40\n        /* \"#utility.yul\":15132:15135   */\n      dup3\n        /* \"#utility.yul\":15128:15140   */\n      add\n        /* \"#utility.yul\":15121:15140   */\n      swap1\n      pop\n        /* \"#utility.yul\":14780:15146   */\n      swap2\n      swap1\n      pop\n      jump\t// out\n        /* \"#utility.yul\":15152:15571   */\n    tag_52:\n        /* \"#utility.yul\":15318:15322   */\n      0x00\n        /* \"#utility.yul\":15356:15358   */\n      0x20\n        /* \"#utility.yul\":15345:15354   */\n      dup3\n        /* \"#utility.yul\":15341:15359   */\n      add\n        /* \"#utility.yul\":15333:15359   */\n      swap1\n      pop\n        /* \"#utility.yul\":15405:15414   */\n      dup2\n        /* \"#utility.yul\":15399:15403   */\n      dup2\n        /* \"#utility.yul\":15395:15415   */\n      sub\n        /* \"#utility.yul\":15391:15392   */\n      0x00\n        /* \"#utility.yul\":15380:15389   */\n      dup4\n        /* \"#utility.yul\":15376:15393   */\n      add\n        /* \"#utility.yul\":15369:15416   */\n      mstore\n        /* \"#utility.yul\":15433:15564   */\n      tag_339\n        /* \"#utility.yul\":15559:15563   */\n      dup2\n        /* \"#utility.yul\":15433:15564   */\n      tag_162\n      jump\t// in\n    tag_339:\n        /* \"#utility.yul\":15425:15564   */\n      swap1\n      pop\n        /* \"#utility.yul\":15152:15571   */\n      swap2\n      swap1\n      pop\n      jump\t// out\n        /* \"#utility.yul\":15577:15718   */\n    tag_163:\n        /* \"#utility.yul\":15626:15630   */\n      0x00\n        /* \"#utility.yul\":15649:15652   */\n      dup2\n        /* \"#utility.yul\":15641:15652   */\n      swap1\n      pop\n        /* \"#utility.yul\":15672:15675   */\n      dup2\n        /* \"#utility.yul\":15669:15670   */\n      0x00\n        /* \"#utility.yul\":15662:15676   */\n      mstore\n        /* \"#utility.yul\":15706:15710   */\n      0x20\n        /* \"#utility.yul\":15703:15704   */\n      0x00\n        /* \"#utility.yul\":15693:15711   */\n      keccak256\n        /* \"#utility.yul\":15685:15711   */\n      swap1\n      pop\n        /* \"#utility.yul\":15577:15718   */\n      swap2\n      swap1\n      pop\n      jump\t// out\n        /* \"#utility.yul\":15724:15817   */\n    tag_164:\n        /* \"#utility.yul\":15761:15767   */\n      0x00\n        /* \"#utility.yul\":15808:15810   */\n      0x20\n        /* \"#utility.yul\":15803:15805   */\n      0x1f\n        /* \"#utility.yul\":15796:15801   */\n      dup4\n        /* \"#utility.yul\":15792:15806   */\n      add\n        /* \"#utility.yul\":15788:15811   */\n      div\n        /* \"#utility.yul\":15778:15811   */\n      swap1\n      pop\n        /* \"#utility.yul\":15724:15817   */\n      swap2\n      swap1\n      pop\n      jump\t// out\n        /* \"#utility.yul\":15823:15930   */\n    tag_165:\n        /* \"#utility.yul\":15867:15875   */\n      0x00\n        /* \"#utility.yul\":15917:15922   */\n      dup3\n        /* \"#utility.yul\":15911:15915   */\n      dup3\n        /* \"#utility.yul\":15907:15923   */\n      shl\n        /* \"#utility.yul\":15886:15923   */\n      swap1\n      pop\n        /* \"#utility.yul\":15823:15930   */\n      swap3\n      swap2\n      pop\n      pop\n      jump\t// out\n        /* \"#utility.yul\":15936:16329   */\n    tag_166:\n        /* \"#utility.yul\":16005:16011   */\n      0x00\n        /* \"#utility.yul\":16055:16056   */\n      0x08\n        /* \"#utility.yul\":16043:16053   */\n      dup4\n        /* \"#utility.yul\":16039:16057   */\n      mul\n        /* \"#utility.yul\":16078:16175   */\n      tag_344\n        /* \"#utility.yul\":16108:16174   */\n      0xffffffffffffffffffffffffffffffffffffffffffffffffffffffffffffffff\n        /* \"#utility.yul\":16097:16106   */\n      dup3\n        /* \"#utility.yul\":16078:16175   */\n      tag_165\n      jump\t// in\n    tag_344:\n        /* \"#utility.yul\":16196:16235   */\n      tag_345\n        /* \"#utility.yul\":16226:16234   */\n      dup7\n        /* \"#utility.yul\":16215:16224   */\n      dup4\n        /* \"#utility.yul\":16196:16235   */\n      tag_165\n      jump\t// in\n    tag_345:\n        /* \"#utility.yul\":16184:16235   */\n      swap6\n      pop\n        /* \"#utility.yul\":16268:16272   */\n      dup1\n        /* \"#utility.yul\":16264:16273   */\n      not\n        /* \"#utility.yul\":16257:16262   */\n      dup5\n        /* \"#utility.yul\":16253:16274   */\n      and\n        /* \"#utility.yul\":16244:16274   */\n      swap4\n      pop\n        /* \"#utility.yul\":16317:16321   */\n      dup1\n        /* \"#utility.yul\":16307:16315   */\n      dup7\n        /* \"#utility.yul\":16303:16322   */\n      and\n        /* \"#utility.yul\":16296:16301   */\n      dup5\n        /* \"#utility.yul\":16293:16323   */\n      or\n        /* \"#utility.yul\":16283:16323   */\n      swap3\n      pop\n        /* \"#utility.yul\":16012:16329   */\n      pop\n      pop\n        /* \"#utility.yul\":15936:16329   */\n      swap4\n      swap3\n      pop\n      pop\n      pop\n      jump\t// out\n        /* \"#utility.yul\":16335:16395   */\n    tag_167:\n        /* \"#utility.yul\":16363:16366   */\n      0x00\n        /* \"#utility.yul\":16384:16389   */\n      dup2\n        /* \"#utility.yul\":16377:16389   */\n      swap1\n      pop\n        /* \"#utility.yul\":16335:16395   */\n      swap2\n      swap1\n      pop\n      jump\t// out\n        /* \"#utility.yul\":16401:16543   */\n    tag_168:\n        /* \"#utility.yul\":16451:16460   */\n      0x00\n        /* \"#utility.yul\":16484:16537   */\n      tag_348\n        /* \"#utility.yul\":16502:16536   */\n      tag_349\n        /* \"#utility.yul\":16511:16535   */\n      tag_350\n        /* \"#utility.yul\":16529:16534   */\n      dup5\n        /* \"#utility.yul\":16511:16535   */\n      tag_118\n      jump\t// in\n    tag_350:\n        /* \"#utility.yul\":16502:16536   */\n      tag_167\n      jump\t// in\n    tag_349:\n        /* \"#utility.yul\":16484:16537   */\n      tag_118\n      jump\t// in\n    tag_348:\n        /* \"#utility.yul\":16471:16537   */\n      swap1\n      pop\n        /* \"#utility.yul\":16401:16543   */\n      swap2\n      swap1\n      pop\n      jump\t// out\n        /* \"#utility.yul\":16549:16624   */\n    tag_169:\n        /* \"#utility.yul\":16592:16595   */\n      0x00\n        /* \"#utility.yul\":16613:16618   */\n      dup2\n        /* \"#utility.yul\":16606:16618   */\n      swap1\n      pop\n        /* \"#utility.yul\":16549:16624   */\n      swap2\n      swap1\n      pop\n      jump\t// out\n        /* \"#utility.yul\":16630:16899   */\n    tag_170:\n        /* \"#utility.yul\":16740:16779   */\n      tag_353\n        /* \"#utility.yul\":16771:16778   */\n      dup4\n        /* \"#utility.yul\":16740:16779   */\n      tag_168\n      jump\t// in\n    tag_353:\n        /* \"#utility.yul\":16801:16892   */\n      tag_354\n        /* \"#utility.yul\":16850:16891   */\n      tag_355\n        /* \"#utility.yul\":16874:16890   */\n      dup3\n        /* \"#utility.yul\":16850:16891   */\n      tag_169\n      jump\t// in\n    tag_355:\n        /* \"#utility.yul\":16842:16848   */\n      dup5\n        /* \"#utility.yul\":16835:16839   */\n      dup5\n        /* \"#utility.yul\":16829:16840   */\n      sload\n        /* \"#utility.yul\":16801:16892   */\n      tag_166\n      jump\t// in\n    tag_354:\n        /* \"#utility.yul\":16795:16799   */\n      dup3\n        /* \"#utility.yul\":16788:16893   */\n      sstore\n        /* \"#utility.yul\":16706:16899   */\n      pop\n        /* \"#utility.yul\":16630:16899   */\n      pop\n      pop\n      pop\n      jump\t// out\n        /* \"#utility.yul\":16905:16978   */\n    tag_171:\n        /* \"#utility.yul\":16950:16953   */\n      0x00\n        /* \"#utility.yul\":16905:16978   */\n      swap1\n      jump\t// out\n        /* \"#utility.yul\":16984:17173   */\n    tag_172:\n        /* \"#utility.yul\":17061:17093   */\n      tag_358\n      tag_171\n      jump\t// in\n    tag_358:\n        /* \"#utility.yul\":17102:17167   */\n      tag_359\n        /* \"#utility.yul\":17160:17166   */\n      dup2\n        /* \"#utility.yul\":17152:17158   */\n      dup5\n        /* \"#utility.yul\":17146:17150   */\n      dup5\n        /* \"#utility.yul\":17102:17167   */\n      tag_170\n      jump\t// in\n    tag_359:\n        /* \"#utility.yul\":17037:17173   */\n      pop\n        /* \"#utility.yul\":16984:17173   */\n      pop\n      pop\n      jump\t// out\n        /* \"#utility.yul\":17179:17365   */\n    tag_173:\n        /* \"#utility.yul\":17239:17359   */\n    tag_361:\n        /* \"#utility.yul\":17256:17259   */\n      dup2\n        /* \"#utility.yul\":17249:17254   */\n      dup2\n        /* \"#utility.yul\":17246:17260   */\n      lt\n        /* \"#utility.yul\":17239:17359   */\n      iszero\n      tag_363\n      jumpi\n        /* \"#utility.yul\":17310:17349   */\n      tag_364\n        /* \"#utility.yul\":17347:17348   */\n      0x00\n        /* \"#utility.yul\":17340:17345   */\n      dup3\n        /* \"#utility.yul\":17310:17349   */\n      tag_172\n      jump\t// in\n    tag_364:\n        /* \"#utility.yul\":17283:17284   */\n      0x01\n        /* \"#utility.yul\":17276:17281   */\n      dup2\n        /* \"#utility.yul\":17272:17285   */\n      add\n        /* \"#utility.yul\":17263:17285   */\n      swap1\n      pop\n        /* \"#utility.yul\":17239:17359   */\n      jump(tag_361)\n    tag_363:\n        /* \"#utility.yul\":17179:17365   */\n      pop\n      pop\n      jump\t// out\n        /* \"#utility.yul\":17371:17914   */\n    tag_174:\n        /* \"#utility.yul\":17472:17474   */\n      0x1f\n        /* \"#utility.yul\":17467:17470   */\n      dup3\n        /* \"#utility.yul\":17464:17475   */\n      gt\n        /* \"#utility.yul\":17461:17907   */\n      iszero\n      tag_366\n      jumpi\n        /* \"#utility.yul\":17506:17544   */\n      tag_367\n        /* \"#utility.yul\":17538:17543   */\n      dup2\n        /* \"#utility.yul\":17506:17544   */\n      tag_163\n      jump\t// in\n    tag_367:\n        /* \"#utility.yul\":17590:17619   */\n      tag_368\n        /* \"#utility.yul\":17608:17618   */\n      dup5\n        /* \"#utility.yul\":17590:17619   */\n      tag_164\n      jump\t// in\n    tag_368:\n        /* \"#utility.yul\":17580:17588   */\n      dup2\n        /* \"#utility.yul\":17576:17620   */\n      add\n        /* \"#utility.yul\":17773:17775   */\n      0x20\n        /* \"#utility.yul\":17761:17771   */\n      dup6\n        /* \"#utility.yul\":17758:17776   */\n      lt\n        /* \"#utility.yul\":17755:17804   */\n      iszero\n      tag_369\n      jumpi\n        /* \"#utility.yul\":17794:17802   */\n      dup2\n        /* \"#utility.yul\":17779:17802   */\n      swap1\n      pop\n        /* \"#utility.yul\":17755:17804   */\n    tag_369:\n        /* \"#utility.yul\":17817:17897   */\n      tag_370\n        /* \"#utility.yul\":17873:17895   */\n      tag_371\n        /* \"#utility.yul\":17891:17894   */\n      dup6\n        /* \"#utility.yul\":17873:17895   */\n      tag_164\n      jump\t// in\n    tag_371:\n        /* \"#utility.yul\":17863:17871   */\n      dup4\n        /* \"#utility.yul\":17859:17896   */\n      add\n        /* \"#utility.yul\":17846:17857   */\n      dup3\n        /* \"#utility.yul\":17817:17897   */\n      tag_173\n      jump\t// in\n    tag_370:\n        /* \"#utility.yul\":17476:17907   */\n      pop\n      pop\n        /* \"#utility.yul\":17461:17907   */\n    tag_366:\n        /* \"#utility.yul\":17371:17914   */\n      pop\n      pop\n      pop\n      jump\t// out\n        /* \"#utility.yul\":17920:18037   */\n    tag_175:\n        /* \"#utility.yul\":17974:17982   */\n      0x00\n        /* \"#utility.yul\":18024:18029   */\n      dup3\n        /* \"#utility.yul\":18018:18022   */\n      dup3\n        /* \"#utility.yul\":18014:18030   */\n      shr\n        /* \"#utility.yul\":17993:18030   */\n      swap1\n      pop\n        /* \"#utility.yul\":17920:18037   */\n      swap3\n      swap2\n      pop\n      pop\n      jump\t// out\n        /* \"#utility.yul\":18043:18212   */\n    tag_176:\n        /* \"#utility.yul\":18087:18093   */\n      0x00\n        /* \"#utility.yul\":18120:18171   */\n      tag_374\n        /* \"#utility.yul\":18168:18169   */\n      0x00\n        /* \"#utility.yul\":18164:18170   */\n      not\n        /* \"#utility.yul\":18156:18161   */\n      dup5\n        /* \"#utility.yul\":18153:18154   */\n      0x08\n        /* \"#utility.yul\":18149:18162   */\n      mul\n        /* \"#utility.yul\":18120:18171   */\n      tag_175\n      jump\t// in\n    tag_374:\n        /* \"#utility.yul\":18116:18172   */\n      not\n        /* \"#utility.yul\":18201:18205   */\n      dup1\n        /* \"#utility.yul\":18195:18199   */\n      dup4\n        /* \"#utility.yul\":18191:18206   */\n      and\n        /* \"#utility.yul\":18181:18206   */\n      swap2\n      pop\n        /* \"#utility.yul\":18094:18212   */\n      pop\n        /* \"#utility.yul\":18043:18212   */\n      swap3\n      swap2\n      pop\n      pop\n      jump\t// out\n        /* \"#utility.yul\":18217:18512   */\n    tag_177:\n        /* \"#utility.yul\":18293:18297   */\n      0x00\n        /* \"#utility.yul\":18439:18468   */\n      tag_376\n        /* \"#utility.yul\":18464:18467   */\n      dup4\n        /* \"#utility.yul\":18458:18462   */\n      dup4\n        /* \"#utility.yul\":18439:18468   */\n      tag_176\n      jump\t// in\n    tag_376:\n        /* \"#utility.yul\":18431:18468   */\n      swap2\n      pop\n        /* \"#utility.yul\":18501:18504   */\n      dup3\n        /* \"#utility.yul\":18498:18499   */\n      0x02\n        /* \"#utility.yul\":18494:18505   */\n      mul\n        /* \"#utility.yul\":18488:18492   */\n      dup3\n        /* \"#utility.yul\":18485:18506   */\n      or\n        /* \"#utility.yul\":18477:18506   */\n      swap1\n      pop\n        /* \"#utility.yul\":18217:18512   */\n      swap3\n      swap2\n      pop\n      pop\n      jump\t// out\n        /* \"#utility.yul\":18517:19912   */\n    tag_55:\n        /* \"#utility.yul\":18634:18671   */\n      tag_378\n        /* \"#utility.yul\":18667:18670   */\n      dup3\n        /* \"#utility.yul\":18634:18671   */\n      tag_124\n      jump\t// in\n    tag_378:\n        /* \"#utility.yul\":18736:18754   */\n      0xffffffffffffffff\n        /* \"#utility.yul\":18728:18734   */\n      dup2\n        /* \"#utility.yul\":18725:18755   */\n      gt\n        /* \"#utility.yul\":18722:18778   */\n      iszero\n      tag_379\n      jumpi\n        /* \"#utility.yul\":18758:18776   */\n      tag_380\n      tag_137\n      jump\t// in\n    tag_380:\n        /* \"#utility.yul\":18722:18778   */\n    tag_379:\n        /* \"#utility.yul\":18802:18840   */\n      tag_381\n        /* \"#utility.yul\":18834:18838   */\n      dup3\n        /* \"#utility.yul\":18828:18839   */\n      sload\n        /* \"#utility.yul\":18802:18840   */\n      tag_40\n      jump\t// in\n    tag_381:\n        /* \"#utility.yul\":18887:18954   */\n      tag_382\n        /* \"#utility.yul\":18947:18953   */\n      dup3\n        /* \"#utility.yul\":18939:18945   */\n      dup3\n        /* \"#utility.yul\":18933:18937   */\n      dup6\n        /* \"#utility.yul\":18887:18954   */\n      tag_174\n      jump\t// in\n    tag_382:\n        /* \"#utility.yul\":18981:18982   */\n      0x00\n        /* \"#utility.yul\":19005:19009   */\n      0x20\n        /* \"#utility.yul\":18992:19009   */\n      swap1\n      pop\n        /* \"#utility.yul\":19037:19039   */\n      0x1f\n        /* \"#utility.yul\":19029:19035   */\n      dup4\n        /* \"#utility.yul\":19026:19040   */\n      gt\n        /* \"#utility.yul\":19054:19055   */\n      0x01\n        /* \"#utility.yul\":19049:19667   */\n      dup2\n      eq\n      tag_384\n      jumpi\n        /* \"#utility.yul\":19711:19712   */\n      0x00\n        /* \"#utility.yul\":19728:19734   */\n      dup5\n        /* \"#utility.yul\":19725:19802   */\n      iszero\n      tag_385\n      jumpi\n        /* \"#utility.yul\":19777:19786   */\n      dup3\n        /* \"#utility.yul\":19772:19775   */\n      dup8\n        /* \"#utility.yul\":19768:19787   */\n      add\n        /* \"#utility.yul\":19762:19788   */\n      mload\n        /* \"#utility.yul\":19753:19788   */\n      swap1\n      pop\n        /* \"#utility.yul\":19725:19802   */\n    tag_385:\n        /* \"#utility.yul\":19828:19895   */\n      tag_386\n        /* \"#utility.yul\":19888:19894   */\n      dup6\n        /* \"#utility.yul\":19881:19886   */\n      dup3\n        /* \"#utility.yul\":19828:19895   */\n      tag_177\n      jump\t// in\n    tag_386:\n        /* \"#utility.yul\":19822:19826   */\n      dup7\n        /* \"#utility.yul\":19815:19896   */\n      sstore\n        /* \"#utility.yul\":19684:19906   */\n      pop\n        /* \"#utility.yul\":19019:19906   */\n      jump(tag_383)\n        /* \"#utility.yul\":19049:19667   */\n    tag_384:\n        /* \"#utility.yul\":19101:19105   */\n      0x1f\n        /* \"#utility.yul\":19097:19106   */\n      not\n        /* \"#utility.yul\":19089:19095   */\n      dup5\n        /* \"#utility.yul\":19085:19107   */\n      and\n        /* \"#utility.yul\":19135:19172   */\n      tag_387\n        /* \"#utility.yul\":19167:19171   */\n      dup7\n        /* \"#utility.yul\":19135:19172   */\n      tag_163\n      jump\t// in\n    tag_387:\n        /* \"#utility.yul\":19194:19195   */\n      0x00\n        /* \"#utility.yul\":19208:19416   */\n    tag_388:\n        /* \"#utility.yul\":19222:19229   */\n      dup3\n        /* \"#utility.yul\":19219:19220   */\n      dup2\n        /* \"#utility.yul\":19216:19230   */\n      lt\n        /* \"#utility.yul\":19208:19416   */\n      iszero\n      tag_390\n      jumpi\n        /* \"#utility.yul\":19301:19310   */\n      dup5\n        /* \"#utility.yul\":19296:19299   */\n      dup10\n        /* \"#utility.yul\":19292:19311   */\n      add\n        /* \"#utility.yul\":19286:19312   */\n      mload\n        /* \"#utility.yul\":19278:19284   */\n      dup3\n        /* \"#utility.yul\":19271:19313   */\n      sstore\n        /* \"#utility.yul\":19352:19353   */\n      0x01\n        /* \"#utility.yul\":19344:19350   */\n      dup3\n        /* \"#utility.yul\":19340:19354   */\n      add\n        /* \"#utility.yul\":19330:19354   */\n      swap2\n      pop\n        /* \"#utility.yul\":19399:19401   */\n      0x20\n        /* \"#utility.yul\":19388:19397   */\n      dup6\n        /* \"#utility.yul\":19384:19402   */\n      add\n        /* \"#utility.yul\":19371:19402   */\n      swap5\n      pop\n        /* \"#utility.yul\":19245:19249   */\n      0x20\n        /* \"#utility.yul\":19242:19243   */\n      dup2\n        /* \"#utility.yul\":19238:19250   */\n      add\n        /* \"#utility.yul\":19233:19250   */\n      swap1\n      pop\n        /* \"#utility.yul\":19208:19416   */\n      jump(tag_388)\n    tag_390:\n        /* \"#utility.yul\":19444:19450   */\n      dup7\n        /* \"#utility.yul\":19435:19442   */\n      dup4\n        /* \"#utility.yul\":19432:19451   */\n      lt\n        /* \"#utility.yul\":19429:19608   */\n      iszero\n      tag_391\n      jumpi\n        /* \"#utility.yul\":19502:19511   */\n      dup5\n        /* \"#utility.yul\":19497:19500   */\n      dup10\n        /* \"#utility.yul\":19493:19512   */\n      add\n        /* \"#utility.yul\":19487:19513   */\n      mload\n        /* \"#utility.yul\":19545:19593   */\n      tag_392\n        /* \"#utility.yul\":19587:19591   */\n      0x1f\n        /* \"#utility.yul\":19579:19585   */\n      dup10\n        /* \"#utility.yul\":19575:19592   */\n      and\n        /* \"#utility.yul\":19564:19573   */\n      dup3\n        /* \"#utility.yul\":19545:19593   */\n      tag_176\n      jump\t// in\n    tag_392:\n        /* \"#utility.yul\":19537:19543   */\n      dup4\n        /* \"#utility.yul\":19530:19594   */\n      sstore\n        /* \"#utility.yul\":19452:19608   */\n      pop\n        /* \"#utility.yul\":19429:19608   */\n    tag_391:\n        /* \"#utility.yul\":19654:19655   */\n      0x01\n        /* \"#utility.yul\":19650:19651   */\n      0x02\n        /* \"#utility.yul\":19642:19648   */\n      dup9\n        /* \"#utility.yul\":19638:19652   */\n      mul\n        /* \"#utility.yul\":19634:19656   */\n      add\n        /* \"#utility.yul\":19628:19632   */\n      dup9\n        /* \"#utility.yul\":19621:19657   */\n      sstore\n        /* \"#utility.yul\":19056:19667   */\n      pop\n      pop\n      pop\n        /* \"#utility.yul\":19019:19906   */\n    tag_383:\n      pop\n        /* \"#utility.yul\":18609:19912   */\n      pop\n      pop\n      pop\n        /* \"#utility.yul\":18517:19912   */\n      pop\n      pop\n      jump\t// out\n        /* \"#utility.yul\":19918:20089   */\n    tag_178:\n        /* \"#utility.yul\":20058:20081   */\n      0x4c6162656c2063616e6e6f7420626520656d7074790000000000000000000000\n        /* \"#utility.yul\":20054:20055   */\n      0x00\n        /* \"#utility.yul\":20046:20052   */\n      dup3\n        /* \"#utility.yul\":20042:20056   */\n      add\n        /* \"#utility.yul\":20035:20082   */\n      mstore\n        /* \"#utility.yul\":19918:20089   */\n      pop\n      jump\t// out\n        /* \"#utility.yul\":20095:20461   */\n    tag_179:\n        /* \"#utility.yul\":20237:20240   */\n      0x00\n        /* \"#utility.yul\":20258:20325   */\n      tag_395\n        /* \"#utility.yul\":20322:20324   */\n      0x15\n        /* \"#utility.yul\":20317:20320   */\n      dup4\n        /* \"#utility.yul\":20258:20325   */\n      tag_125\n      jump\t// in\n    tag_395:\n        /* \"#utility.yul\":20251:20325   */\n      swap2\n      pop\n        /* \"#utility.yul\":20334:20427   */\n      tag_396\n        /* \"#utility.yul\":20423:20426   */\n      dup3\n        /* \"#utility.yul\":20334:20427   */\n      tag_178\n      jump\t// in\n    tag_396:\n        /* \"#utility.yul\":20452:20454   */\n      0x20\n        /* \"#utility.yul\":20447:20450   */\n      dup3\n        /* \"#utility.yul\":20443:20455   */\n      add\n        /* \"#utility.yul\":20436:20455   */\n      swap1\n      pop\n        /* \"#utility.yul\":20095:20461   */\n      swap2\n      swap1\n      pop\n      jump\t// out\n        /* \"#utility.yul\":20467:20886   */\n    tag_68:\n        /* \"#utility.yul\":20633:20637   */\n      0x00\n        /* \"#utility.yul\":20671:20673   */\n      0x20\n        /* \"#utility.yul\":20660:20669   */\n      dup3\n        /* \"#utility.yul\":20656:20674   */\n      add\n        /* \"#utility.yul\":20648:20674   */\n      swap1\n      pop\n        /* \"#utility.yul\":20720:20729   */\n      dup2\n        /* \"#utility.yul\":20714:20718   */\n      dup2\n        /* \"#utility.yul\":20710:20730   */\n      sub\n        /* \"#utility.yul\":20706:20707   */\n      0x00\n        /* \"#utility.yul\":20695:20704   */\n      dup4\n        /* \"#utility.yul\":20691:20708   */\n      add\n        /* \"#utility.yul\":20684:20731   */\n      mstore\n        /* \"#utility.yul\":20748:20879   */\n      tag_398\n        /* \"#utility.yul\":20874:20878   */\n      dup2\n        /* \"#utility.yul\":20748:20879   */\n      tag_179\n      jump\t// in\n    tag_398:\n        /* \"#utility.yul\":20740:20879   */\n      swap1\n      pop\n        /* \"#utility.yul\":20467:20886   */\n      swap2\n      swap1\n      pop\n      jump\t// out\n        /* \"#utility.yul\":20892:21056   */\n    tag_180:\n        /* \"#utility.yul\":21032:21048   */\n      0x4c6162656c20746f6f206c6f6e67000000000000000000000000000000000000\n        /* \"#utility.yul\":21028:21029   */\n      0x00\n        /* \"#utility.yul\":21020:21026   */\n      dup3\n        /* \"#utility.yul\":21016:21030   */\n      add\n        /* \"#utility.yul\":21009:21049   */\n      mstore\n        /* \"#utility.yul\":20892:21056   */\n      pop\n      jump\t// out\n        /* \"#utility.yul\":21062:21428   */\n    tag_181:\n        /* \"#utility.yul\":21204:21207   */\n      0x00\n        /* \"#utility.yul\":21225:21292   */\n      tag_401\n        /* \"#utility.yul\":21289:21291   */\n      0x0e\n        /* \"#utility.yul\":21284:21287   */\n      dup4\n        /* \"#utility.yul\":21225:21292   */\n      tag_125\n      jump\t// in\n    tag_401:\n        /* \"#utility.yul\":21218:21292   */\n      swap2\n      pop\n        /* \"#utility.yul\":21301:21394   */\n      tag_402\n        /* \"#utility.yul\":21390:21393   */\n      dup3\n        /* \"#utility.yul\":21301:21394   */\n      tag_180\n      jump\t// in\n    tag_402:\n        /* \"#utility.yul\":21419:21421   */\n      0x20\n        /* \"#utility.yul\":21414:21417   */\n      dup3\n        /* \"#utility.yul\":21410:21422   */\n      add\n        /* \"#utility.yul\":21403:21422   */\n      swap1\n      pop\n        /* \"#utility.yul\":21062:21428   */\n      swap2\n      swap1\n      pop\n      jump\t// out\n        /* \"#utility.yul\":21434:21853   */\n    tag_71:\n        /* \"#utility.yul\":21600:21604   */\n      0x00\n        /* \"#utility.yul\":21638:21640   */\n      0x20\n        /* \"#utility.yul\":21627:21636   */\n      dup3\n        /* \"#utility.yul\":21623:21641   */\n      add\n        /* \"#utility.yul\":21615:21641   */\n      swap1\n      pop\n        /* \"#utility.yul\":21687:21696   */\n      dup2\n        /* \"#utility.yul\":21681:21685   */\n      dup2\n        /* \"#utility.yul\":21677:21697   */\n      sub\n        /* \"#utility.yul\":21673:21674   */\n      0x00\n        /* \"#utility.yul\":21662:21671   */\n      dup4\n        /* \"#utility.yul\":21658:21675   */\n      add\n        /* \"#utility.yul\":21651:21698   */\n      mstore\n        /* \"#utility.yul\":21715:21846   */\n      tag_404\n        /* \"#utility.yul\":21841:21845   */\n      dup2\n        /* \"#utility.yul\":21715:21846   */\n      tag_181\n      jump\t// in\n    tag_404:\n        /* \"#utility.yul\":21707:21846   */\n      swap1\n      pop\n        /* \"#utility.yul\":21434:21853   */\n      swap2\n      swap1\n      pop\n      jump\t// out\n        /* \"#utility.yul\":21859:22039   */\n    tag_77:\n        /* \"#utility.yul\":21907:21984   */\n      0x4e487b7100000000000000000000000000000000000000000000000000000000\n        /* \"#utility.yul\":21904:21905   */\n      0x00\n        /* \"#utility.yul\":21897:21985   */\n      mstore\n        /* \"#utility.yul\":22004:22008   */\n      0x32\n        /* \"#utility.yul\":22001:22002   */\n      0x04\n        /* \"#utility.yul\":21994:22009   */\n      mstore\n        /* \"#utility.yul\":22028:22032   */\n      0x24\n        /* \"#utility.yul\":22025:22026   */\n      0x00\n        /* \"#utility.yul\":22018:22033   */\n      revert\n        /* \"#utility.yul\":22045:22221   */\n    tag_182:\n        /* \"#utility.yul\":22185:22213   */\n      0x496e76616c69642063686172616374657220696e206c6162656c000000000000\n        /* \"#utility.yul\":22181:22182   */\n      0x00\n        /* \"#utility.yul\":22173:22179   */\n      dup3\n        /* \"#utility.yul\":22169:22183   */\n      add\n        /* \"#utility.yul\":22162:22214   */\n      mstore\n        /* \"#utility.yul\":22045:22221   */\n      pop\n      jump\t// out\n        /* \"#utility.yul\":22227:22593   */\n    tag_183:\n        /* \"#utility.yul\":22369:22372   */\n      0x00\n        /* \"#utility.yul\":22390:22457   */\n      tag_408\n        /* \"#utility.yul\":22454:22456   */\n      0x1a\n        /* \"#utility.yul\":22449:22452   */\n      dup4\n        /* \"#utility.yul\":22390:22457   */\n      tag_125\n      jump\t// in\n    tag_408:\n        /* \"#utility.yul\":22383:22457   */\n      swap2\n      pop\n        /* \"#utility.yul\":22466:22559   */\n      tag_409\n        /* \"#utility.yul\":22555:22558   */\n      dup3\n        /* \"#utility.yul\":22466:22559   */\n      tag_182\n      jump\t// in\n    tag_409:\n        /* \"#utility.yul\":22584:22586   */\n      0x20\n        /* \"#utility.yul\":22579:22582   */\n      dup3\n        /* \"#utility.yul\":22575:22587   */\n      add\n        /* \"#utility.yul\":22568:22587   */\n      swap1\n      pop\n        /* \"#utility.yul\":22227:22593   */\n      swap2\n      swap1\n      pop\n      jump\t// out\n        /* \"#utility.yul\":22599:23018   */\n    tag_84:\n        /* \"#utility.yul\":22765:22769   */\n      0x00\n        /* \"#utility.yul\":22803:22805   */\n      0x20\n        /* \"#utility.yul\":22792:22801   */\n      dup3\n        /* \"#utility.yul\":22788:22806   */\n      add\n        /* \"#utility.yul\":22780:22806   */\n      swap1\n      pop\n        /* \"#utility.yul\":22852:22861   */\n      dup2\n        /* \"#utility.yul\":22846:22850   */\n      dup2\n        /* \"#utility.yul\":22842:22862   */\n      sub\n        /* \"#utility.yul\":22838:22839   */\n      0x00\n        /* \"#utility.yul\":22827:22836   */\n      dup4\n        /* \"#utility.yul\":22823:22840   */\n      add\n        /* \"#utility.yul\":22816:22863   */\n      mstore\n        /* \"#utility.yul\":22880:23011   */\n      tag_411\n        /* \"#utility.yul\":23006:23010   */\n      dup2\n        /* \"#utility.yul\":22880:23011   */\n      tag_183\n      jump\t// in\n    tag_411:\n        /* \"#utility.yul\":22872:23011   */\n      swap1\n      pop\n        /* \"#utility.yul\":22599:23018   */\n      swap2\n      swap1\n      pop\n      jump\t// out\n        /* \"#utility.yul\":23024:23172   */\n    tag_184:\n        /* \"#utility.yul\":23126:23137   */\n      0x00\n        /* \"#utility.yul\":23163:23166   */\n      dup2\n        /* \"#utility.yul\":23148:23166   */\n      swap1\n      pop\n        /* \"#utility.yul\":23024:23172   */\n      swap3\n      swap2\n      pop\n      pop\n      jump\t// out\n        /* \"#utility.yul\":23178:23336   */\n    tag_185:\n        /* \"#utility.yul\":23318:23328   */\n      0x626173652e657468000000000000000000000000000000000000000000000000\n        /* \"#utility.yul\":23314:23315   */\n      0x00\n        /* \"#utility.yul\":23306:23312   */\n      dup3\n        /* \"#utility.yul\":23302:23316   */\n      add\n        /* \"#utility.yul\":23295:23329   */\n      mstore\n        /* \"#utility.yul\":23178:23336   */\n      pop\n      jump\t// out\n        /* \"#utility.yul\":23342:23742   */\n    tag_186:\n        /* \"#utility.yul\":23502:23505   */\n      0x00\n        /* \"#utility.yul\":23523:23607   */\n      tag_415\n        /* \"#utility.yul\":23605:23606   */\n      0x08\n        /* \"#utility.yul\":23600:23603   */\n      dup4\n        /* \"#utility.yul\":23523:23607   */\n      tag_184\n      jump\t// in\n    tag_415:\n        /* \"#utility.yul\":23516:23607   */\n      swap2\n      pop\n        /* \"#utility.yul\":23616:23709   */\n      tag_416\n        /* \"#utility.yul\":23705:23708   */\n      dup3\n        /* \"#utility.yul\":23616:23709   */\n      tag_185\n      jump\t// in\n    tag_416:\n        /* \"#utility.yul\":23734:23735   */\n      0x08\n        /* \"#utility.yul\":23729:23732   */\n      dup3\n        /* \"#utility.yul\":23725:23736   */\n      add\n        /* \"#utility.yul\":23718:23736   */\n      swap1\n      pop\n        /* \"#utility.yul\":23342:23742   */\n      swap2\n      swap1\n      pop\n      jump\t// out\n        /* \"#utility.yul\":23748:24129   */\n    tag_86:\n        /* \"#utility.yul\":23933:23936   */\n      0x00\n        /* \"#utility.yul\":23955:24103   */\n      tag_418\n        /* \"#utility.yul\":24099:24102   */\n      dup3\n        /* \"#utility.yul\":23955:24103   */\n      tag_186\n      jump\t// in\n    tag_418:\n        /* \"#utility.yul\":23948:24103   */\n      swap2\n      pop\n        /* \"#utility.yul\":24120:24123   */\n      dup2\n        /* \"#utility.yul\":24113:24123   */\n      swap1\n      pop\n        /* \"#utility.yul\":23748:24129   */\n      swap2\n      swap1\n      pop\n      jump\t// out\n        /* \"#utility.yul\":24135:24214   */\n    tag_187:\n        /* \"#utility.yul\":24174:24181   */\n      0x00\n        /* \"#utility.yul\":24203:24208   */\n      dup2\n        /* \"#utility.yul\":24192:24208   */\n      swap1\n      pop\n        /* \"#utility.yul\":24135:24214   */\n      swap2\n      swap1\n      pop\n      jump\t// out\n        /* \"#utility.yul\":24220:24377   */\n    tag_188:\n        /* \"#utility.yul\":24325:24370   */\n      tag_421\n        /* \"#utility.yul\":24345:24369   */\n      tag_422\n        /* \"#utility.yul\":24363:24368   */\n      dup3\n        /* \"#utility.yul\":24345:24369   */\n      tag_156\n      jump\t// in\n    tag_422:\n        /* \"#utility.yul\":24325:24370   */\n      tag_187\n      jump\t// in\n    tag_421:\n        /* \"#utility.yul\":24320:24323   */\n      dup3\n        /* \"#utility.yul\":24313:24371   */\n      mstore\n        /* \"#utility.yul\":24220:24377   */\n      pop\n      pop\n      jump\t// out\n        /* \"#utility.yul\":24383:24780   */\n    tag_88:\n        /* \"#utility.yul\":24523:24526   */\n      0x00\n        /* \"#utility.yul\":24538:24613   */\n      tag_424\n        /* \"#utility.yul\":24609:24612   */\n      dup3\n        /* \"#utility.yul\":24600:24606   */\n      dup6\n        /* \"#utility.yul\":24538:24613   */\n      tag_188\n      jump\t// in\n    tag_424:\n        /* \"#utility.yul\":24638:24640   */\n      0x20\n        /* \"#utility.yul\":24633:24636   */\n      dup3\n        /* \"#utility.yul\":24629:24641   */\n      add\n        /* \"#utility.yul\":24622:24641   */\n      swap2\n      pop\n        /* \"#utility.yul\":24651:24726   */\n      tag_425\n        /* \"#utility.yul\":24722:24725   */\n      dup3\n        /* \"#utility.yul\":24713:24719   */\n      dup5\n        /* \"#utility.yul\":24651:24726   */\n      tag_188\n      jump\t// in\n    tag_425:\n        /* \"#utility.yul\":24751:24753   */\n      0x20\n        /* \"#utility.yul\":24746:24749   */\n      dup3\n        /* \"#utility.yul\":24742:24754   */\n      add\n        /* \"#utility.yul\":24735:24754   */\n      swap2\n      pop\n        /* \"#utility.yul\":24771:24774   */\n      dup2\n        /* \"#utility.yul\":24764:24774   */\n      swap1\n      pop\n        /* \"#utility.yul\":24383:24780   */\n      swap4\n      swap3\n      pop\n      pop\n      pop\n      jump\t// out\n        /* \"#utility.yul\":24786:24950   */\n    tag_189:\n        /* \"#utility.yul\":24926:24942   */\n      0x4e6f7420617574686f72697a6564000000000000000000000000000000000000\n        /* \"#utility.yul\":24922:24923   */\n      0x00\n        /* \"#utility.yul\":24914:24920   */\n      dup3\n        /* \"#utility.yul\":24910:24924   */\n      add\n        /* \"#utility.yul\":24903:24943   */\n      mstore\n        /* \"#utility.yul\":24786:24950   */\n      pop\n      jump\t// out\n        /* \"#utility.yul\":24956:25322   */\n    tag_190:\n        /* \"#utility.yul\":25098:25101   */\n      0x00\n        /* \"#utility.yul\":25119:25186   */\n      tag_428\n        /* \"#utility.yul\":25183:25185   */\n      0x0e\n        /* \"#utility.yul\":25178:25181   */\n      dup4\n        /* \"#utility.yul\":25119:25186   */\n      tag_125\n      jump\t// in\n    tag_428:\n        /* \"#utility.yul\":25112:25186   */\n      swap2\n      pop\n        /* \"#utility.yul\":25195:25288   */\n      tag_429\n        /* \"#utility.yul\":25284:25287   */\n      dup3\n        /* \"#utility.yul\":25195:25288   */\n      tag_189\n      jump\t// in\n    tag_429:\n        /* \"#utility.yul\":25313:25315   */\n      0x20\n        /* \"#utility.yul\":25308:25311   */\n      dup3\n        /* \"#utility.yul\":25304:25316   */\n      add\n        /* \"#utility.yul\":25297:25316   */\n      swap1\n      pop\n        /* \"#utility.yul\":24956:25322   */\n      swap2\n      swap1\n      pop\n      jump\t// out\n        /* \"#utility.yul\":25328:25747   */\n    tag_99:\n        /* \"#utility.yul\":25494:25498   */\n      0x00\n        /* \"#utility.yul\":25532:25534   */\n      0x20\n        /* \"#utility.yul\":25521:25530   */\n      dup3\n        /* \"#utility.yul\":25517:25535   */\n      add\n        /* \"#utility.yul\":25509:25535   */\n      swap1\n      pop\n        /* \"#utility.yul\":25581:25590   */\n      dup2\n        /* \"#utility.yul\":25575:25579   */\n      dup2\n        /* \"#utility.yul\":25571:25591   */\n      sub\n        /* \"#utility.yul\":25567:25568   */\n      0x00\n        /* \"#utility.yul\":25556:25565   */\n      dup4\n        /* \"#utility.yul\":25552:25569   */\n      add\n        /* \"#utility.yul\":25545:25592   */\n      mstore\n        /* \"#utility.yul\":25609:25740   */\n      tag_431\n        /* \"#utility.yul\":25735:25739   */\n      dup2\n        /* \"#utility.yul\":25609:25740   */\n      tag_190\n      jump\t// in\n    tag_431:\n        /* \"#utility.yul\":25601:25740   */\n      swap1\n      pop\n        /* \"#utility.yul\":25328:25747   */\n      swap2\n      swap1\n      pop\n      jump\t// out\n        /* \"#utility.yul\":25753:25875   */\n    tag_191:\n        /* \"#utility.yul\":25826:25850   */\n      tag_433\n        /* \"#utility.yul\":25844:25849   */\n      dup2\n        /* \"#utility.yul\":25826:25850   */\n      tag_122\n      jump\t// in\n    tag_433:\n        /* \"#utility.yul\":25819:25824   */\n      dup2\n        /* \"#utility.yul\":25816:25851   */\n      eq\n        /* \"#utility.yul\":25806:25869   */\n      tag_434\n      jumpi\n        /* \"#utility.yul\":25865:25866   */\n      0x00\n        /* \"#utility.yul\":25862:25863   */\n      dup1\n        /* \"#utility.yul\":25855:25867   */\n      revert\n        /* \"#utility.yul\":25806:25869   */\n    tag_434:\n        /* \"#utility.yul\":25753:25875   */\n      pop\n      jump\t// out\n        /* \"#utility.yul\":25881:26024   */\n    tag_192:\n        /* \"#utility.yul\":25938:25943   */\n      0x00\n        /* \"#utility.yul\":25969:25975   */\n      dup2\n        /* \"#utility.yul\":25963:25976   */\n      mload\n        /* \"#utility.yul\":25954:25976   */\n      swap1\n      pop\n        /* \"#utility.yul\":25985:26018   */\n      tag_436\n        /* \"#utility.yul\":26012:26017   */\n      dup2\n        /* \"#utility.yul\":25985:26018   */\n      tag_191\n      jump\t// in\n    tag_436:\n        /* \"#utility.yul\":25881:26024   */\n      swap3\n      swap2\n      pop\n      pop\n      jump\t// out\n        /* \"#utility.yul\":26030:26381   */\n    tag_109:\n        /* \"#utility.yul\":26100:26106   */\n      0x00\n        /* \"#utility.yul\":26149:26151   */\n      0x20\n        /* \"#utility.yul\":26137:26146   */\n      dup3\n        /* \"#utility.yul\":26128:26135   */\n      dup5\n        /* \"#utility.yul\":26124:26147   */\n      sub\n        /* \"#utility.yul\":26120:26152   */\n      slt\n        /* \"#utility.yul\":26117:26236   */\n      iszero\n      tag_438\n      jumpi\n        /* \"#utility.yul\":26155:26234   */\n      tag_439\n      tag_116\n      jump\t// in\n    tag_439:\n        /* \"#utility.yul\":26117:26236   */\n    tag_438:\n        /* \"#utility.yul\":26275:26276   */\n      0x00\n        /* \"#utility.yul\":26300:26364   */\n      tag_440\n        /* \"#utility.yul\":26356:26363   */\n      dup5\n        /* \"#utility.yul\":26347:26353   */\n      dup3\n        /* \"#utility.yul\":26336:26345   */\n      dup6\n        /* \"#utility.yul\":26332:26354   */\n      add\n        /* \"#utility.yul\":26300:26364   */\n      tag_192\n      jump\t// in\n    tag_440:\n        /* \"#utility.yul\":26290:26364   */\n      swap2\n      pop\n        /* \"#utility.yul\":26246:26374   */\n      pop\n        /* \"#utility.yul\":26030:26381   */\n      swap3\n      swap2\n      pop\n      pop\n      jump\t// out\n\n    auxdata: 0xa2646970667358221220ffb16b3e37406bafb41e8d022bc69fd2e6d3404a95dda15e2ccd906bd23791eb64736f6c634300081a0033\n}\n",
				"bytecode": {
					"linkReferences": {},
					"object": "6080604052348015600e575f80fd5b506118998061001c5f395ff3fe608060405234801561000f575f80fd5b5060043610610060575f3560e01c80630d80fefd14610064578063467fba0f146100985780635ff6cbf3146100b4578063a97cde0c146100d2578063b888690a14610102578063fda7362d1461011e575b5f80fd5b61007e60048036038101906100799190610bf4565b61014e565b60405161008f959493929190610cf7565b60405180910390f35b6100b260048036038101906100ad9190610ed8565b61025e565b005b6100bc610494565b6040516100c991906110f4565b60405180910390f35b6100ec60048036038101906100e79190611114565b61064c565b6040516100f99190611177565b60405180910390f35b61011c60048036038101906101179190610bf4565b6108eb565b005b61013860048036038101906101339190611114565b610a4d565b6040516101459190611190565b60405180910390f35b5f818154811061015c575f80fd5b905f5260205f2090600502015f91509050805f015f9054906101000a900473ffffffffffffffffffffffffffffffffffffffff1690806001015f9054906101000a900473ffffffffffffffffffffffffffffffffffffffff16908060020180546101c5906111d6565b80601f01602080910402602001604051908101604052809291908181526020018280546101f1906111d6565b801561023c5780601f106102135761010080835404028352916020019161023c565b820191905f5260205f20905b81548152906001019060200180831161021f57829003601f168201915b505050505090806003015490806004015f9054906101000a900460ff16905085565b5f6102698484610a4d565b90505f73ffffffffffffffffffffffffffffffffffffffff168173ffffffffffffffffffffffffffffffffffffffff16036102d9576040517f08c379a00000000000000000000000000000000000000000000000000000000081526004016102d090611276565b60405180910390fd5b3373ffffffffffffffffffffffffffffffffffffffff168173ffffffffffffffffffffffffffffffffffffffff1614610347576040517f08c379a000000000000000000000000000000000000000000000000000000000815260040161033e90611304565b60405180910390fd5b5f6040518060a001604052803373ffffffffffffffffffffffffffffffffffffffff1681526020018373ffffffffffffffffffffffffffffffffffffffff1681526020018481526020014281526020015f1515815250908060018154018082558091505060019003905f5260205f2090600502015f909190919091505f820151815f015f6101000a81548173ffffffffffffffffffffffffffffffffffffffff021916908373ffffffffffffffffffffffffffffffffffffffff1602179055506020820151816001015f6101000a81548173ffffffffffffffffffffffffffffffffffffffff021916908373ffffffffffffffffffffffffffffffffffffffff160217905550604082015181600201908161046291906114bf565b50606082015181600301556080820151816004015f6101000a81548160ff021916908315150217905550505050505050565b60605f805480602002602001604051908101604052809291908181526020015f905b82821015610643578382905f5260205f2090600502016040518060a00160405290815f82015f9054906101000a900473ffffffffffffffffffffffffffffffffffffffff1673ffffffffffffffffffffffffffffffffffffffff1673ffffffffffffffffffffffffffffffffffffffff168152602001600182015f9054906101000a900473ffffffffffffffffffffffffffffffffffffffff1673ffffffffffffffffffffffffffffffffffffffff1673ffffffffffffffffffffffffffffffffffffffff168152602001600282018054610590906111d6565b80601f01602080910402602001604051908101604052809291908181526020018280546105bc906111d6565b80156106075780601f106105de57610100808354040283529160200191610607565b820191905f5260205f20905b8154815290600101906020018083116105ea57829003601f168201915b5050505050815260200160038201548152602001600482015f9054906101000a900460ff161515151581525050815260200190600101906104b6565b50505050905090565b5f8083838080601f0160208091040260200160405190810160405280939291908181526020018383808284375f81840152601f19601f8201169050808301925050505050505090505f815190505f81036106db576040517f0a9644cf0000000000000000000000000000000000000000000000000000000081526004016106d2906115d8565b60405180910390fd5b603f81111561071f576040517f0a9644cf00000000000000000000000000000000000000000000000000000000815260040161071690611640565b60405180910390fd5b5f5b8181101561088c575f83828151811061073d5761073c61165e565b5b602001015160f81c60f81b9050606160f81b817effffffffffffffffffffffffffffffffffffffffffffffffffffffffffffff1916101580156107a65750607a60f81b817effffffffffffffffffffffffffffffffffffffffffffffffffffffffffffff191611155b15801561080c5750603060f81b817effffffffffffffffffffffffffffffffffffffffffffffffffffffffffffff19161015801561080a5750603960f81b817effffffffffffffffffffffffffffffffffffffffffffffffffffffffffffff191611155b155b801561083e5750602d60f81b817effffffffffffffffffffffffffffffffffffffffffffffffffffffffffffff191614155b1561087e576040517f0a9644cf000000000000000000000000000000000000000000000000000000008152600401610875906116d5565b60405180910390fd5b508080600101915050610721565b5060405160200161089c90611747565b6040516020818303038152906040528051906020012082805190602001206040516020016108cb92919061177b565b604051602081830303815290604052805190602001209250505092915050565b3373ffffffffffffffffffffffffffffffffffffffff165f82815481106109155761091461165e565b5b905f5260205f2090600502015f015f9054906101000a900473ffffffffffffffffffffffffffffffffffffffff1673ffffffffffffffffffffffffffffffffffffffff1614806109d157503373ffffffffffffffffffffffffffffffffffffffff165f828154811061098a5761098961165e565b5b905f5260205f2090600502016001015f9054906101000a900473ffffffffffffffffffffffffffffffffffffffff1673ffffffffffffffffffffffffffffffffffffffff16145b610a10576040517f08c379a0000000000000000000000000000000000000000000000000000000008152600401610a07906117f0565b60405180910390fd5b60015f8281548110610a2557610a2461165e565b5b905f5260205f2090600502016004015f6101000a81548160ff02191690831515021790555050565b5f80610a59848461064c565b90505f6e0c2e074ec69a0dfb2997ba6c7d2e1e90505f8173ffffffffffffffffffffffffffffffffffffffff16630178b8bf846040518263ffffffff1660e01b8152600401610aa89190611177565b602060405180830381865afa158015610ac3573d5f803e3d5ffd5b505050506040513d601f19601f82011682018060405250810190610ae79190611838565b90505f73ffffffffffffffffffffffffffffffffffffffff168173ffffffffffffffffffffffffffffffffffffffff1603610b27575f9350505050610baa565b5f8190508073ffffffffffffffffffffffffffffffffffffffff16633b3b57de856040518263ffffffff1660e01b8152600401610b649190611177565b602060405180830381865afa158015610b7f573d5f803e3d5ffd5b505050506040513d601f19601f82011682018060405250810190610ba39190611838565b9450505050505b92915050565b5f604051905090565b5f80fd5b5f80fd5b5f819050919050565b610bd381610bc1565b8114610bdd575f80fd5b50565b5f81359050610bee81610bca565b92915050565b5f60208284031215610c0957610c08610bb9565b5b5f610c1684828501610be0565b91505092915050565b5f73ffffffffffffffffffffffffffffffffffffffff82169050919050565b5f610c4882610c1f565b9050919050565b610c5881610c3e565b82525050565b5f81519050919050565b5f82825260208201905092915050565b8281835e5f83830152505050565b5f601f19601f8301169050919050565b5f610ca082610c5e565b610caa8185610c68565b9350610cba818560208601610c78565b610cc381610c86565b840191505092915050565b610cd781610bc1565b82525050565b5f8115159050919050565b610cf181610cdd565b82525050565b5f60a082019050610d0a5f830188610c4f565b610d176020830187610c4f565b8181036040830152610d298186610c96565b9050610d386060830185610cce565b610d456080830184610ce8565b9695505050505050565b5f80fd5b5f80fd5b5f80fd5b5f8083601f840112610d7057610d6f610d4f565b5b8235905067ffffffffffffffff811115610d8d57610d8c610d53565b5b602083019150836001820283011115610da957610da8610d57565b5b9250929050565b5f80fd5b7f4e487b71000000000000000000000000000000000000000000000000000000005f52604160045260245ffd5b610dea82610c86565b810181811067ffffffffffffffff82111715610e0957610e08610db4565b5b80604052505050565b5f610e1b610bb0565b9050610e278282610de1565b919050565b5f67ffffffffffffffff821115610e4657610e45610db4565b5b610e4f82610c86565b9050602081019050919050565b828183375f83830152505050565b5f610e7c610e7784610e2c565b610e12565b905082815260208101848484011115610e9857610e97610db0565b5b610ea3848285610e5c565b509392505050565b5f82601f830112610ebf57610ebe610d4f565b5b8135610ecf848260208601610e6a565b91505092915050565b5f805f60408486031215610eef57610eee610bb9565b5b5f84013567ffffffffffffffff811115610f0c57610f0b610bbd565b5b610f1886828701610d5b565b9350935050602084013567ffffffffffffffff811115610f3b57610f3a610bbd565b5b610f4786828701610eab565b9150509250925092565b5f81519050919050565b5f82825260208201905092915050565b5f819050602082019050919050565b610f8381610c3e565b82525050565b5f82825260208201905092915050565b5f610fa382610c5e565b610fad8185610f89565b9350610fbd818560208601610c78565b610fc681610c86565b840191505092915050565b610fda81610bc1565b82525050565b610fe981610cdd565b82525050565b5f60a083015f8301516110045f860182610f7a565b5060208301516110176020860182610f7a565b506040830151848203604086015261102f8282610f99565b91505060608301516110446060860182610fd1565b5060808301516110576080860182610fe0565b508091505092915050565b5f61106d8383610fef565b905092915050565b5f602082019050919050565b5f61108b82610f51565b6110958185610f5b565b9350836020820285016110a785610f6b565b805f5b858110156110e257848403895281516110c38582611062565b94506110ce83611075565b925060208a019950506001810190506110aa565b50829750879550505050505092915050565b5f6020820190508181035f83015261110c8184611081565b905092915050565b5f806020838503121561112a57611129610bb9565b5b5f83013567ffffffffffffffff81111561114757611146610bbd565b5b61115385828601610d5b565b92509250509250929050565b5f819050919050565b6111718161115f565b82525050565b5f60208201905061118a5f830184611168565b92915050565b5f6020820190506111a35f830184610c4f565b92915050565b7f4e487b71000000000000000000000000000000000000000000000000000000005f52602260045260245ffd5b5f60028204905060018216806111ed57607f821691505b602082108103611200576111ff6111a9565b5b50919050565b7f496e76616c696420454e53206e616d65206f72206e6f74206f776e65642062795f8201527f20616e796f6e6500000000000000000000000000000000000000000000000000602082015250565b5f611260602783610c68565b915061126b82611206565b604082019050919050565b5f6020820190508181035f83015261128d81611254565b9050919050565b7f596f752063616e206e6f742073656e64206d6573736167657320746f20796f755f8201527f722073656c660000000000000000000000000000000000000000000000000000602082015250565b5f6112ee602683610c68565b91506112f982611294565b604082019050919050565b5f6020820190508181035f83015261131b816112e2565b9050919050565b5f819050815f5260205f209050919050565b5f6020601f8301049050919050565b5f82821b905092915050565b5f6008830261137e7fffffffffffffffffffffffffffffffffffffffffffffffffffffffffffffffff82611343565b6113888683611343565b95508019841693508086168417925050509392505050565b5f819050919050565b5f6113c36113be6113b984610bc1565b6113a0565b610bc1565b9050919050565b5f819050919050565b6113dc836113a9565b6113f06113e8826113ca565b84845461134f565b825550505050565b5f90565b6114046113f8565b61140f8184846113d3565b505050565b5b81811015611432576114275f826113fc565b600181019050611415565b5050565b601f8211156114775761144881611322565b61145184611334565b81016020851015611460578190505b61147461146c85611334565b830182611414565b50505b505050565b5f82821c905092915050565b5f6114975f198460080261147c565b1980831691505092915050565b5f6114af8383611488565b9150826002028217905092915050565b6114c882610c5e565b67ffffffffffffffff8111156114e1576114e0610db4565b5b6114eb82546111d6565b6114f6828285611436565b5f60209050601f831160018114611527575f8415611515578287015190505b61151f85826114a4565b865550611586565b601f19841661153586611322565b5f5b8281101561155c57848901518255600182019150602085019450602081019050611537565b868310156115795784890151611575601f891682611488565b8355505b6001600288020188555050505b505050505050565b7f4c6162656c2063616e6e6f7420626520656d70747900000000000000000000005f82015250565b5f6115c2601583610c68565b91506115cd8261158e565b602082019050919050565b5f6020820190508181035f8301526115ef816115b6565b9050919050565b7f4c6162656c20746f6f206c6f6e670000000000000000000000000000000000005f82015250565b5f61162a600e83610c68565b9150611635826115f6565b602082019050919050565b5f6020820190508181035f8301526116578161161e565b9050919050565b7f4e487b71000000000000000000000000000000000000000000000000000000005f52603260045260245ffd5b7f496e76616c69642063686172616374657220696e206c6162656c0000000000005f82015250565b5f6116bf601a83610c68565b91506116ca8261168b565b602082019050919050565b5f6020820190508181035f8301526116ec816116b3565b9050919050565b5f81905092915050565b7f626173652e6574680000000000000000000000000000000000000000000000005f82015250565b5f6117316008836116f3565b915061173c826116fd565b600882019050919050565b5f61175182611725565b9150819050919050565b5f819050919050565b6117756117708261115f565b61175b565b82525050565b5f6117868285611764565b6020820191506117968284611764565b6020820191508190509392505050565b7f4e6f7420617574686f72697a65640000000000000000000000000000000000005f82015250565b5f6117da600e83610c68565b91506117e5826117a6565b602082019050919050565b5f6020820190508181035f830152611807816117ce565b9050919050565b61181781610c3e565b8114611821575f80fd5b50565b5f815190506118328161180e565b92915050565b5f6020828403121561184d5761184c610bb9565b5b5f61185a84828501611824565b9150509291505056fea2646970667358221220ffb16b3e37406bafb41e8d022bc69fd2e6d3404a95dda15e2ccd906bd23791eb64736f6c634300081a0033",
					"opcodes": "PUSH1 0x80 PUSH1 0x40 MSTORE CALLVALUE DUP1 ISZERO PUSH1 0xE JUMPI PUSH0 DUP1 REVERT JUMPDEST POP PUSH2 0x1899 DUP1 PUSH2 0x1C PUSH0 CODECOPY PUSH0 RETURN INVALID PUSH1 0x80 PUSH1 0x40 MSTORE CALLVALUE DUP1 ISZERO PUSH2 0xF JUMPI PUSH0 DUP1 REVERT JUMPDEST POP PUSH1 0x4 CALLDATASIZE LT PUSH2 0x60 JUMPI PUSH0 CALLDATALOAD PUSH1 0xE0 SHR DUP1 PUSH4 0xD80FEFD EQ PUSH2 0x64 JUMPI DUP1 PUSH4 0x467FBA0F EQ PUSH2 0x98 JUMPI DUP1 PUSH4 0x5FF6CBF3 EQ PUSH2 0xB4 JUMPI DUP1 PUSH4 0xA97CDE0C EQ PUSH2 0xD2 JUMPI DUP1 PUSH4 0xB888690A EQ PUSH2 0x102 JUMPI DUP1 PUSH4 0xFDA7362D EQ PUSH2 0x11E JUMPI JUMPDEST PUSH0 DUP1 REVERT JUMPDEST PUSH2 0x7E PUSH1 0x4 DUP1 CALLDATASIZE SUB DUP2 ADD SWAP1 PUSH2 0x79 SWAP2 SWAP1 PUSH2 0xBF4 JUMP JUMPDEST PUSH2 0x14E JUMP JUMPDEST PUSH1 0x40 MLOAD PUSH2 0x8F SWAP6 SWAP5 SWAP4 SWAP3 SWAP2 SWAP1 PUSH2 0xCF7 JUMP JUMPDEST PUSH1 0x40 MLOAD DUP1 SWAP2 SUB SWAP1 RETURN JUMPDEST PUSH2 0xB2 PUSH1 0x4 DUP1 CALLDATASIZE SUB DUP2 ADD SWAP1 PUSH2 0xAD SWAP2 SWAP1 PUSH2 0xED8 JUMP JUMPDEST PUSH2 0x25E JUMP JUMPDEST STOP JUMPDEST PUSH2 0xBC PUSH2 0x494 JUMP JUMPDEST PUSH1 0x40 MLOAD PUSH2 0xC9 SWAP2 SWAP1 PUSH2 0x10F4 JUMP JUMPDEST PUSH1 0x40 MLOAD DUP1 SWAP2 SUB SWAP1 RETURN JUMPDEST PUSH2 0xEC PUSH1 0x4 DUP1 CALLDATASIZE SUB DUP2 ADD SWAP1 PUSH2 0xE7 SWAP2 SWAP1 PUSH2 0x1114 JUMP JUMPDEST PUSH2 0x64C JUMP JUMPDEST PUSH1 0x40 MLOAD PUSH2 0xF9 SWAP2 SWAP1 PUSH2 0x1177 JUMP JUMPDEST PUSH1 0x40 MLOAD DUP1 SWAP2 SUB SWAP1 RETURN JUMPDEST PUSH2 0x11C PUSH1 0x4 DUP1 CALLDATASIZE SUB DUP2 ADD SWAP1 PUSH2 0x117 SWAP2 SWAP1 PUSH2 0xBF4 JUMP JUMPDEST PUSH2 0x8EB JUMP JUMPDEST STOP JUMPDEST PUSH2 0x138 PUSH1 0x4 DUP1 CALLDATASIZE SUB DUP2 ADD SWAP1 PUSH2 0x133 SWAP2 SWAP1 PUSH2 0x1114 JUMP JUMPDEST PUSH2 0xA4D JUMP JUMPDEST PUSH1 0x40 MLOAD PUSH2 0x145 SWAP2 SWAP1 PUSH2 0x1190 JUMP JUMPDEST PUSH1 0x40 MLOAD DUP1 SWAP2 SUB SWAP1 RETURN JUMPDEST PUSH0 DUP2 DUP2 SLOAD DUP2 LT PUSH2 0x15C JUMPI PUSH0 DUP1 REVERT JUMPDEST SWAP1 PUSH0 MSTORE PUSH1 0x20 PUSH0 KECCAK256 SWAP1 PUSH1 0x5 MUL ADD PUSH0 SWAP2 POP SWAP1 POP DUP1 PUSH0 ADD PUSH0 SWAP1 SLOAD SWAP1 PUSH2 0x100 EXP SWAP1 DIV PUSH20 0xFFFFFFFFFFFFFFFFFFFFFFFFFFFFFFFFFFFFFFFF AND SWAP1 DUP1 PUSH1 0x1 ADD PUSH0 SWAP1 SLOAD SWAP1 PUSH2 0x100 EXP SWAP1 DIV PUSH20 0xFFFFFFFFFFFFFFFFFFFFFFFFFFFFFFFFFFFFFFFF AND SWAP1 DUP1 PUSH1 0x2 ADD DUP1 SLOAD PUSH2 0x1C5 SWAP1 PUSH2 0x11D6 JUMP JUMPDEST DUP1 PUSH1 0x1F ADD PUSH1 0x20 DUP1 SWAP2 DIV MUL PUSH1 0x20 ADD PUSH1 0x40 MLOAD SWAP1 DUP2 ADD PUSH1 0x40 MSTORE DUP1 SWAP3 SWAP2 SWAP1 DUP2 DUP2 MSTORE PUSH1 0x20 ADD DUP3 DUP1 SLOAD PUSH2 0x1F1 SWAP1 PUSH2 0x11D6 JUMP JUMPDEST DUP1 ISZERO PUSH2 0x23C JUMPI DUP1 PUSH1 0x1F LT PUSH2 0x213 JUMPI PUSH2 0x100 DUP1 DUP4 SLOAD DIV MUL DUP4 MSTORE SWAP2 PUSH1 0x20 ADD SWAP2 PUSH2 0x23C JUMP JUMPDEST DUP3 ADD SWAP2 SWAP1 PUSH0 MSTORE PUSH1 0x20 PUSH0 KECCAK256 SWAP1 JUMPDEST DUP2 SLOAD DUP2 MSTORE SWAP1 PUSH1 0x1 ADD SWAP1 PUSH1 0x20 ADD DUP1 DUP4 GT PUSH2 0x21F JUMPI DUP3 SWAP1 SUB PUSH1 0x1F AND DUP3 ADD SWAP2 JUMPDEST POP POP POP POP POP SWAP1 DUP1 PUSH1 0x3 ADD SLOAD SWAP1 DUP1 PUSH1 0x4 ADD PUSH0 SWAP1 SLOAD SWAP1 PUSH2 0x100 EXP SWAP1 DIV PUSH1 0xFF AND SWAP1 POP DUP6 JUMP JUMPDEST PUSH0 PUSH2 0x269 DUP5 DUP5 PUSH2 0xA4D JUMP JUMPDEST SWAP1 POP PUSH0 PUSH20 0xFFFFFFFFFFFFFFFFFFFFFFFFFFFFFFFFFFFFFFFF AND DUP2 PUSH20 0xFFFFFFFFFFFFFFFFFFFFFFFFFFFFFFFFFFFFFFFF AND SUB PUSH2 0x2D9 JUMPI PUSH1 0x40 MLOAD PUSH32 0x8C379A000000000000000000000000000000000000000000000000000000000 DUP2 MSTORE PUSH1 0x4 ADD PUSH2 0x2D0 SWAP1 PUSH2 0x1276 JUMP JUMPDEST PUSH1 0x40 MLOAD DUP1 SWAP2 SUB SWAP1 REVERT JUMPDEST CALLER PUSH20 0xFFFFFFFFFFFFFFFFFFFFFFFFFFFFFFFFFFFFFFFF AND DUP2 PUSH20 0xFFFFFFFFFFFFFFFFFFFFFFFFFFFFFFFFFFFFFFFF AND EQ PUSH2 0x347 JUMPI PUSH1 0x40 MLOAD PUSH32 0x8C379A000000000000000000000000000000000000000000000000000000000 DUP2 MSTORE PUSH1 0x4 ADD PUSH2 0x33E SWAP1 PUSH2 0x1304 JUMP JUMPDEST PUSH1 0x40 MLOAD DUP1 SWAP2 SUB SWAP1 REVERT JUMPDEST PUSH0 PUSH1 0x40 MLOAD DUP1 PUSH1 0xA0 ADD PUSH1 0x40 MSTORE DUP1 CALLER PUSH20 0xFFFFFFFFFFFFFFFFFFFFFFFFFFFFFFFFFFFFFFFF AND DUP2 MSTORE PUSH1 0x20 ADD DUP4 PUSH20 0xFFFFFFFFFFFFFFFFFFFFFFFFFFFFFFFFFFFFFFFF AND DUP2 MSTORE PUSH1 0x20 ADD DUP5 DUP2 MSTORE PUSH1 0x20 ADD TIMESTAMP DUP2 MSTORE PUSH1 0x20 ADD PUSH0 ISZERO ISZERO DUP2 MSTORE POP SWAP1 DUP1 PUSH1 0x1 DUP2 SLOAD ADD DUP1 DUP3 SSTORE DUP1 SWAP2 POP POP PUSH1 0x1 SWAP1 SUB SWAP1 PUSH0 MSTORE PUSH1 0x20 PUSH0 KECCAK256 SWAP1 PUSH1 0x5 MUL ADD PUSH0 SWAP1 SWAP2 SWAP1 SWAP2 SWAP1 SWAP2 POP PUSH0 DUP3 ADD MLOAD DUP2 PUSH0 ADD PUSH0 PUSH2 0x100 EXP DUP2 SLOAD DUP2 PUSH20 0xFFFFFFFFFFFFFFFFFFFFFFFFFFFFFFFFFFFFFFFF MUL NOT AND SWAP1 DUP4 PUSH20 0xFFFFFFFFFFFFFFFFFFFFFFFFFFFFFFFFFFFFFFFF AND MUL OR SWAP1 SSTORE POP PUSH1 0x20 DUP3 ADD MLOAD DUP2 PUSH1 0x1 ADD PUSH0 PUSH2 0x100 EXP DUP2 SLOAD DUP2 PUSH20 0xFFFFFFFFFFFFFFFFFFFFFFFFFFFFFFFFFFFFFFFF MUL NOT AND SWAP1 DUP4 PUSH20 0xFFFFFFFFFFFFFFFFFFFFFFFFFFFFFFFFFFFFFFFF AND MUL OR SWAP1 SSTORE POP PUSH1 0x40 DUP3 ADD MLOAD DUP2 PUSH1 0x2 ADD SWAP1 DUP2 PUSH2 0x462 SWAP2 SWAP1 PUSH2 0x14BF JUMP JUMPDEST POP PUSH1 0x60 DUP3 ADD MLOAD DUP2 PUSH1 0x3 ADD SSTORE PUSH1 0x80 DUP3 ADD MLOAD DUP2 PUSH1 0x4 ADD PUSH0 PUSH2 0x100 EXP DUP2 SLOAD DUP2 PUSH1 0xFF MUL NOT AND SWAP1 DUP4 ISZERO ISZERO MUL OR SWAP1 SSTORE POP POP POP POP POP POP POP JUMP JUMPDEST PUSH1 0x60 PUSH0 DUP1 SLOAD DUP1 PUSH1 0x20 MUL PUSH1 0x20 ADD PUSH1 0x40 MLOAD SWAP1 DUP2 ADD PUSH1 0x40 MSTORE DUP1 SWAP3 SWAP2 SWAP1 DUP2 DUP2 MSTORE PUSH1 0x20 ADD PUSH0 SWAP1 JUMPDEST DUP3 DUP3 LT ISZERO PUSH2 0x643 JUMPI DUP4 DUP3 SWAP1 PUSH0 MSTORE PUSH1 0x20 PUSH0 KECCAK256 SWAP1 PUSH1 0x5 MUL ADD PUSH1 0x40 MLOAD DUP1 PUSH1 0xA0 ADD PUSH1 0x40 MSTORE SWAP1 DUP2 PUSH0 DUP3 ADD PUSH0 SWAP1 SLOAD SWAP1 PUSH2 0x100 EXP SWAP1 DIV PUSH20 0xFFFFFFFFFFFFFFFFFFFFFFFFFFFFFFFFFFFFFFFF AND PUSH20 0xFFFFFFFFFFFFFFFFFFFFFFFFFFFFFFFFFFFFFFFF AND PUSH20 0xFFFFFFFFFFFFFFFFFFFFFFFFFFFFFFFFFFFFFFFF AND DUP2 MSTORE PUSH1 0x20 ADD PUSH1 0x1 DUP3 ADD PUSH0 SWAP1 SLOAD SWAP1 PUSH2 0x100 EXP SWAP1 DIV PUSH20 0xFFFFFFFFFFFFFFFFFFFFFFFFFFFFFFFFFFFFFFFF AND PUSH20 0xFFFFFFFFFFFFFFFFFFFFFFFFFFFFFFFFFFFFFFFF AND PUSH20 0xFFFFFFFFFFFFFFFFFFFFFFFFFFFFFFFFFFFFFFFF AND DUP2 MSTORE PUSH1 0x20 ADD PUSH1 0x2 DUP3 ADD DUP1 SLOAD PUSH2 0x590 SWAP1 PUSH2 0x11D6 JUMP JUMPDEST DUP1 PUSH1 0x1F ADD PUSH1 0x20 DUP1 SWAP2 DIV MUL PUSH1 0x20 ADD PUSH1 0x40 MLOAD SWAP1 DUP2 ADD PUSH1 0x40 MSTORE DUP1 SWAP3 SWAP2 SWAP1 DUP2 DUP2 MSTORE PUSH1 0x20 ADD DUP3 DUP1 SLOAD PUSH2 0x5BC SWAP1 PUSH2 0x11D6 JUMP JUMPDEST DUP1 ISZERO PUSH2 0x607 JUMPI DUP1 PUSH1 0x1F LT PUSH2 0x5DE JUMPI PUSH2 0x100 DUP1 DUP4 SLOAD DIV MUL DUP4 MSTORE SWAP2 PUSH1 0x20 ADD SWAP2 PUSH2 0x607 JUMP JUMPDEST DUP3 ADD SWAP2 SWAP1 PUSH0 MSTORE PUSH1 0x20 PUSH0 KECCAK256 SWAP1 JUMPDEST DUP2 SLOAD DUP2 MSTORE SWAP1 PUSH1 0x1 ADD SWAP1 PUSH1 0x20 ADD DUP1 DUP4 GT PUSH2 0x5EA JUMPI DUP3 SWAP1 SUB PUSH1 0x1F AND DUP3 ADD SWAP2 JUMPDEST POP POP POP POP POP DUP2 MSTORE PUSH1 0x20 ADD PUSH1 0x3 DUP3 ADD SLOAD DUP2 MSTORE PUSH1 0x20 ADD PUSH1 0x4 DUP3 ADD PUSH0 SWAP1 SLOAD SWAP1 PUSH2 0x100 EXP SWAP1 DIV PUSH1 0xFF AND ISZERO ISZERO ISZERO ISZERO DUP2 MSTORE POP POP DUP2 MSTORE PUSH1 0x20 ADD SWAP1 PUSH1 0x1 ADD SWAP1 PUSH2 0x4B6 JUMP JUMPDEST POP POP POP POP SWAP1 POP SWAP1 JUMP JUMPDEST PUSH0 DUP1 DUP4 DUP4 DUP1 DUP1 PUSH1 0x1F ADD PUSH1 0x20 DUP1 SWAP2 DIV MUL PUSH1 0x20 ADD PUSH1 0x40 MLOAD SWAP1 DUP2 ADD PUSH1 0x40 MSTORE DUP1 SWAP4 SWAP3 SWAP2 SWAP1 DUP2 DUP2 MSTORE PUSH1 0x20 ADD DUP4 DUP4 DUP1 DUP3 DUP5 CALLDATACOPY PUSH0 DUP2 DUP5 ADD MSTORE PUSH1 0x1F NOT PUSH1 0x1F DUP3 ADD AND SWAP1 POP DUP1 DUP4 ADD SWAP3 POP POP POP POP POP POP POP SWAP1 POP PUSH0 DUP2 MLOAD SWAP1 POP PUSH0 DUP2 SUB PUSH2 0x6DB JUMPI PUSH1 0x40 MLOAD PUSH32 0xA9644CF00000000000000000000000000000000000000000000000000000000 DUP2 MSTORE PUSH1 0x4 ADD PUSH2 0x6D2 SWAP1 PUSH2 0x15D8 JUMP JUMPDEST PUSH1 0x40 MLOAD DUP1 SWAP2 SUB SWAP1 REVERT JUMPDEST PUSH1 0x3F DUP2 GT ISZERO PUSH2 0x71F JUMPI PUSH1 0x40 MLOAD PUSH32 0xA9644CF00000000000000000000000000000000000000000000000000000000 DUP2 MSTORE PUSH1 0x4 ADD PUSH2 0x716 SWAP1 PUSH2 0x1640 JUMP JUMPDEST PUSH1 0x40 MLOAD DUP1 SWAP2 SUB SWAP1 REVERT JUMPDEST PUSH0 JUMPDEST DUP2 DUP2 LT ISZERO PUSH2 0x88C JUMPI PUSH0 DUP4 DUP3 DUP2 MLOAD DUP2 LT PUSH2 0x73D JUMPI PUSH2 0x73C PUSH2 0x165E JUMP JUMPDEST JUMPDEST PUSH1 0x20 ADD ADD MLOAD PUSH1 0xF8 SHR PUSH1 0xF8 SHL SWAP1 POP PUSH1 0x61 PUSH1 0xF8 SHL DUP2 PUSH31 0xFFFFFFFFFFFFFFFFFFFFFFFFFFFFFFFFFFFFFFFFFFFFFFFFFFFFFFFFFFFFFF NOT AND LT ISZERO DUP1 ISZERO PUSH2 0x7A6 JUMPI POP PUSH1 0x7A PUSH1 0xF8 SHL DUP2 PUSH31 0xFFFFFFFFFFFFFFFFFFFFFFFFFFFFFFFFFFFFFFFFFFFFFFFFFFFFFFFFFFFFFF NOT AND GT ISZERO JUMPDEST ISZERO DUP1 ISZERO PUSH2 0x80C JUMPI POP PUSH1 0x30 PUSH1 0xF8 SHL DUP2 PUSH31 0xFFFFFFFFFFFFFFFFFFFFFFFFFFFFFFFFFFFFFFFFFFFFFFFFFFFFFFFFFFFFFF NOT AND LT ISZERO DUP1 ISZERO PUSH2 0x80A JUMPI POP PUSH1 0x39 PUSH1 0xF8 SHL DUP2 PUSH31 0xFFFFFFFFFFFFFFFFFFFFFFFFFFFFFFFFFFFFFFFFFFFFFFFFFFFFFFFFFFFFFF NOT AND GT ISZERO JUMPDEST ISZERO JUMPDEST DUP1 ISZERO PUSH2 0x83E JUMPI POP PUSH1 0x2D PUSH1 0xF8 SHL DUP2 PUSH31 0xFFFFFFFFFFFFFFFFFFFFFFFFFFFFFFFFFFFFFFFFFFFFFFFFFFFFFFFFFFFFFF NOT AND EQ ISZERO JUMPDEST ISZERO PUSH2 0x87E JUMPI PUSH1 0x40 MLOAD PUSH32 0xA9644CF00000000000000000000000000000000000000000000000000000000 DUP2 MSTORE PUSH1 0x4 ADD PUSH2 0x875 SWAP1 PUSH2 0x16D5 JUMP JUMPDEST PUSH1 0x40 MLOAD DUP1 SWAP2 SUB SWAP1 REVERT JUMPDEST POP DUP1 DUP1 PUSH1 0x1 ADD SWAP2 POP POP PUSH2 0x721 JUMP JUMPDEST POP PUSH1 0x40 MLOAD PUSH1 0x20 ADD PUSH2 0x89C SWAP1 PUSH2 0x1747 JUMP JUMPDEST PUSH1 0x40 MLOAD PUSH1 0x20 DUP2 DUP4 SUB SUB DUP2 MSTORE SWAP1 PUSH1 0x40 MSTORE DUP1 MLOAD SWAP1 PUSH1 0x20 ADD KECCAK256 DUP3 DUP1 MLOAD SWAP1 PUSH1 0x20 ADD KECCAK256 PUSH1 0x40 MLOAD PUSH1 0x20 ADD PUSH2 0x8CB SWAP3 SWAP2 SWAP1 PUSH2 0x177B JUMP JUMPDEST PUSH1 0x40 MLOAD PUSH1 0x20 DUP2 DUP4 SUB SUB DUP2 MSTORE SWAP1 PUSH1 0x40 MSTORE DUP1 MLOAD SWAP1 PUSH1 0x20 ADD KECCAK256 SWAP3 POP POP POP SWAP3 SWAP2 POP POP JUMP JUMPDEST CALLER PUSH20 0xFFFFFFFFFFFFFFFFFFFFFFFFFFFFFFFFFFFFFFFF AND PUSH0 DUP3 DUP2 SLOAD DUP2 LT PUSH2 0x915 JUMPI PUSH2 0x914 PUSH2 0x165E JUMP JUMPDEST JUMPDEST SWAP1 PUSH0 MSTORE PUSH1 0x20 PUSH0 KECCAK256 SWAP1 PUSH1 0x5 MUL ADD PUSH0 ADD PUSH0 SWAP1 SLOAD SWAP1 PUSH2 0x100 EXP SWAP1 DIV PUSH20 0xFFFFFFFFFFFFFFFFFFFFFFFFFFFFFFFFFFFFFFFF AND PUSH20 0xFFFFFFFFFFFFFFFFFFFFFFFFFFFFFFFFFFFFFFFF AND EQ DUP1 PUSH2 0x9D1 JUMPI POP CALLER PUSH20 0xFFFFFFFFFFFFFFFFFFFFFFFFFFFFFFFFFFFFFFFF AND PUSH0 DUP3 DUP2 SLOAD DUP2 LT PUSH2 0x98A JUMPI PUSH2 0x989 PUSH2 0x165E JUMP JUMPDEST JUMPDEST SWAP1 PUSH0 MSTORE PUSH1 0x20 PUSH0 KECCAK256 SWAP1 PUSH1 0x5 MUL ADD PUSH1 0x1 ADD PUSH0 SWAP1 SLOAD SWAP1 PUSH2 0x100 EXP SWAP1 DIV PUSH20 0xFFFFFFFFFFFFFFFFFFFFFFFFFFFFFFFFFFFFFFFF AND PUSH20 0xFFFFFFFFFFFFFFFFFFFFFFFFFFFFFFFFFFFFFFFF AND EQ JUMPDEST PUSH2 0xA10 JUMPI PUSH1 0x40 MLOAD PUSH32 0x8C379A000000000000000000000000000000000000000000000000000000000 DUP2 MSTORE PUSH1 0x4 ADD PUSH2 0xA07 SWAP1 PUSH2 0x17F0 JUMP JUMPDEST PUSH1 0x40 MLOAD DUP1 SWAP2 SUB SWAP1 REVERT JUMPDEST PUSH1 0x1 PUSH0 DUP3 DUP2 SLOAD DUP2 LT PUSH2 0xA25 JUMPI PUSH2 0xA24 PUSH2 0x165E JUMP JUMPDEST JUMPDEST SWAP1 PUSH0 MSTORE PUSH1 0x20 PUSH0 KECCAK256 SWAP1 PUSH1 0x5 MUL ADD PUSH1 0x4 ADD PUSH0 PUSH2 0x100 EXP DUP2 SLOAD DUP2 PUSH1 0xFF MUL NOT AND SWAP1 DUP4 ISZERO ISZERO MUL OR SWAP1 SSTORE POP POP JUMP JUMPDEST PUSH0 DUP1 PUSH2 0xA59 DUP5 DUP5 PUSH2 0x64C JUMP JUMPDEST SWAP1 POP PUSH0 PUSH15 0xC2E074EC69A0DFB2997BA6C7D2E1E SWAP1 POP PUSH0 DUP2 PUSH20 0xFFFFFFFFFFFFFFFFFFFFFFFFFFFFFFFFFFFFFFFF AND PUSH4 0x178B8BF DUP5 PUSH1 0x40 MLOAD DUP3 PUSH4 0xFFFFFFFF AND PUSH1 0xE0 SHL DUP2 MSTORE PUSH1 0x4 ADD PUSH2 0xAA8 SWAP2 SWAP1 PUSH2 0x1177 JUMP JUMPDEST PUSH1 0x20 PUSH1 0x40 MLOAD DUP1 DUP4 SUB DUP2 DUP7 GAS STATICCALL ISZERO DUP1 ISZERO PUSH2 0xAC3 JUMPI RETURNDATASIZE PUSH0 DUP1 RETURNDATACOPY RETURNDATASIZE PUSH0 REVERT JUMPDEST POP POP POP POP PUSH1 0x40 MLOAD RETURNDATASIZE PUSH1 0x1F NOT PUSH1 0x1F DUP3 ADD AND DUP3 ADD DUP1 PUSH1 0x40 MSTORE POP DUP2 ADD SWAP1 PUSH2 0xAE7 SWAP2 SWAP1 PUSH2 0x1838 JUMP JUMPDEST SWAP1 POP PUSH0 PUSH20 0xFFFFFFFFFFFFFFFFFFFFFFFFFFFFFFFFFFFFFFFF AND DUP2 PUSH20 0xFFFFFFFFFFFFFFFFFFFFFFFFFFFFFFFFFFFFFFFF AND SUB PUSH2 0xB27 JUMPI PUSH0 SWAP4 POP POP POP POP PUSH2 0xBAA JUMP JUMPDEST PUSH0 DUP2 SWAP1 POP DUP1 PUSH20 0xFFFFFFFFFFFFFFFFFFFFFFFFFFFFFFFFFFFFFFFF AND PUSH4 0x3B3B57DE DUP6 PUSH1 0x40 MLOAD DUP3 PUSH4 0xFFFFFFFF AND PUSH1 0xE0 SHL DUP2 MSTORE PUSH1 0x4 ADD PUSH2 0xB64 SWAP2 SWAP1 PUSH2 0x1177 JUMP JUMPDEST PUSH1 0x20 PUSH1 0x40 MLOAD DUP1 DUP4 SUB DUP2 DUP7 GAS STATICCALL ISZERO DUP1 ISZERO PUSH2 0xB7F JUMPI RETURNDATASIZE PUSH0 DUP1 RETURNDATACOPY RETURNDATASIZE PUSH0 REVERT JUMPDEST POP POP POP POP PUSH1 0x40 MLOAD RETURNDATASIZE PUSH1 0x1F NOT PUSH1 0x1F DUP3 ADD AND DUP3 ADD DUP1 PUSH1 0x40 MSTORE POP DUP2 ADD SWAP1 PUSH2 0xBA3 SWAP2 SWAP1 PUSH2 0x1838 JUMP JUMPDEST SWAP5 POP POP POP POP POP JUMPDEST SWAP3 SWAP2 POP POP JUMP JUMPDEST PUSH0 PUSH1 0x40 MLOAD SWAP1 POP SWAP1 JUMP JUMPDEST PUSH0 DUP1 REVERT JUMPDEST PUSH0 DUP1 REVERT JUMPDEST PUSH0 DUP2 SWAP1 POP SWAP2 SWAP1 POP JUMP JUMPDEST PUSH2 0xBD3 DUP2 PUSH2 0xBC1 JUMP JUMPDEST DUP2 EQ PUSH2 0xBDD JUMPI PUSH0 DUP1 REVERT JUMPDEST POP JUMP JUMPDEST PUSH0 DUP2 CALLDATALOAD SWAP1 POP PUSH2 0xBEE DUP2 PUSH2 0xBCA JUMP JUMPDEST SWAP3 SWAP2 POP POP JUMP JUMPDEST PUSH0 PUSH1 0x20 DUP3 DUP5 SUB SLT ISZERO PUSH2 0xC09 JUMPI PUSH2 0xC08 PUSH2 0xBB9 JUMP JUMPDEST JUMPDEST PUSH0 PUSH2 0xC16 DUP5 DUP3 DUP6 ADD PUSH2 0xBE0 JUMP JUMPDEST SWAP2 POP POP SWAP3 SWAP2 POP POP JUMP JUMPDEST PUSH0 PUSH20 0xFFFFFFFFFFFFFFFFFFFFFFFFFFFFFFFFFFFFFFFF DUP3 AND SWAP1 POP SWAP2 SWAP1 POP JUMP JUMPDEST PUSH0 PUSH2 0xC48 DUP3 PUSH2 0xC1F JUMP JUMPDEST SWAP1 POP SWAP2 SWAP1 POP JUMP JUMPDEST PUSH2 0xC58 DUP2 PUSH2 0xC3E JUMP JUMPDEST DUP3 MSTORE POP POP JUMP JUMPDEST PUSH0 DUP2 MLOAD SWAP1 POP SWAP2 SWAP1 POP JUMP JUMPDEST PUSH0 DUP3 DUP3 MSTORE PUSH1 0x20 DUP3 ADD SWAP1 POP SWAP3 SWAP2 POP POP JUMP JUMPDEST DUP3 DUP2 DUP4 MCOPY PUSH0 DUP4 DUP4 ADD MSTORE POP POP POP JUMP JUMPDEST PUSH0 PUSH1 0x1F NOT PUSH1 0x1F DUP4 ADD AND SWAP1 POP SWAP2 SWAP1 POP JUMP JUMPDEST PUSH0 PUSH2 0xCA0 DUP3 PUSH2 0xC5E JUMP JUMPDEST PUSH2 0xCAA DUP2 DUP6 PUSH2 0xC68 JUMP JUMPDEST SWAP4 POP PUSH2 0xCBA DUP2 DUP6 PUSH1 0x20 DUP7 ADD PUSH2 0xC78 JUMP JUMPDEST PUSH2 0xCC3 DUP2 PUSH2 0xC86 JUMP JUMPDEST DUP5 ADD SWAP2 POP POP SWAP3 SWAP2 POP POP JUMP JUMPDEST PUSH2 0xCD7 DUP2 PUSH2 0xBC1 JUMP JUMPDEST DUP3 MSTORE POP POP JUMP JUMPDEST PUSH0 DUP2 ISZERO ISZERO SWAP1 POP SWAP2 SWAP1 POP JUMP JUMPDEST PUSH2 0xCF1 DUP2 PUSH2 0xCDD JUMP JUMPDEST DUP3 MSTORE POP POP JUMP JUMPDEST PUSH0 PUSH1 0xA0 DUP3 ADD SWAP1 POP PUSH2 0xD0A PUSH0 DUP4 ADD DUP9 PUSH2 0xC4F JUMP JUMPDEST PUSH2 0xD17 PUSH1 0x20 DUP4 ADD DUP8 PUSH2 0xC4F JUMP JUMPDEST DUP2 DUP2 SUB PUSH1 0x40 DUP4 ADD MSTORE PUSH2 0xD29 DUP2 DUP7 PUSH2 0xC96 JUMP JUMPDEST SWAP1 POP PUSH2 0xD38 PUSH1 0x60 DUP4 ADD DUP6 PUSH2 0xCCE JUMP JUMPDEST PUSH2 0xD45 PUSH1 0x80 DUP4 ADD DUP5 PUSH2 0xCE8 JUMP JUMPDEST SWAP7 SWAP6 POP POP POP POP POP POP JUMP JUMPDEST PUSH0 DUP1 REVERT JUMPDEST PUSH0 DUP1 REVERT JUMPDEST PUSH0 DUP1 REVERT JUMPDEST PUSH0 DUP1 DUP4 PUSH1 0x1F DUP5 ADD SLT PUSH2 0xD70 JUMPI PUSH2 0xD6F PUSH2 0xD4F JUMP JUMPDEST JUMPDEST DUP3 CALLDATALOAD SWAP1 POP PUSH8 0xFFFFFFFFFFFFFFFF DUP2 GT ISZERO PUSH2 0xD8D JUMPI PUSH2 0xD8C PUSH2 0xD53 JUMP JUMPDEST JUMPDEST PUSH1 0x20 DUP4 ADD SWAP2 POP DUP4 PUSH1 0x1 DUP3 MUL DUP4 ADD GT ISZERO PUSH2 0xDA9 JUMPI PUSH2 0xDA8 PUSH2 0xD57 JUMP JUMPDEST JUMPDEST SWAP3 POP SWAP3 SWAP1 POP JUMP JUMPDEST PUSH0 DUP1 REVERT JUMPDEST PUSH32 0x4E487B7100000000000000000000000000000000000000000000000000000000 PUSH0 MSTORE PUSH1 0x41 PUSH1 0x4 MSTORE PUSH1 0x24 PUSH0 REVERT JUMPDEST PUSH2 0xDEA DUP3 PUSH2 0xC86 JUMP JUMPDEST DUP2 ADD DUP2 DUP2 LT PUSH8 0xFFFFFFFFFFFFFFFF DUP3 GT OR ISZERO PUSH2 0xE09 JUMPI PUSH2 0xE08 PUSH2 0xDB4 JUMP JUMPDEST JUMPDEST DUP1 PUSH1 0x40 MSTORE POP POP POP JUMP JUMPDEST PUSH0 PUSH2 0xE1B PUSH2 0xBB0 JUMP JUMPDEST SWAP1 POP PUSH2 0xE27 DUP3 DUP3 PUSH2 0xDE1 JUMP JUMPDEST SWAP2 SWAP1 POP JUMP JUMPDEST PUSH0 PUSH8 0xFFFFFFFFFFFFFFFF DUP3 GT ISZERO PUSH2 0xE46 JUMPI PUSH2 0xE45 PUSH2 0xDB4 JUMP JUMPDEST JUMPDEST PUSH2 0xE4F DUP3 PUSH2 0xC86 JUMP JUMPDEST SWAP1 POP PUSH1 0x20 DUP2 ADD SWAP1 POP SWAP2 SWAP1 POP JUMP JUMPDEST DUP3 DUP2 DUP4 CALLDATACOPY PUSH0 DUP4 DUP4 ADD MSTORE POP POP POP JUMP JUMPDEST PUSH0 PUSH2 0xE7C PUSH2 0xE77 DUP5 PUSH2 0xE2C JUMP JUMPDEST PUSH2 0xE12 JUMP JUMPDEST SWAP1 POP DUP3 DUP2 MSTORE PUSH1 0x20 DUP2 ADD DUP5 DUP5 DUP5 ADD GT ISZERO PUSH2 0xE98 JUMPI PUSH2 0xE97 PUSH2 0xDB0 JUMP JUMPDEST JUMPDEST PUSH2 0xEA3 DUP5 DUP3 DUP6 PUSH2 0xE5C JUMP JUMPDEST POP SWAP4 SWAP3 POP POP POP JUMP JUMPDEST PUSH0 DUP3 PUSH1 0x1F DUP4 ADD SLT PUSH2 0xEBF JUMPI PUSH2 0xEBE PUSH2 0xD4F JUMP JUMPDEST JUMPDEST DUP2 CALLDATALOAD PUSH2 0xECF DUP5 DUP3 PUSH1 0x20 DUP7 ADD PUSH2 0xE6A JUMP JUMPDEST SWAP2 POP POP SWAP3 SWAP2 POP POP JUMP JUMPDEST PUSH0 DUP1 PUSH0 PUSH1 0x40 DUP5 DUP7 SUB SLT ISZERO PUSH2 0xEEF JUMPI PUSH2 0xEEE PUSH2 0xBB9 JUMP JUMPDEST JUMPDEST PUSH0 DUP5 ADD CALLDATALOAD PUSH8 0xFFFFFFFFFFFFFFFF DUP2 GT ISZERO PUSH2 0xF0C JUMPI PUSH2 0xF0B PUSH2 0xBBD JUMP JUMPDEST JUMPDEST PUSH2 0xF18 DUP7 DUP3 DUP8 ADD PUSH2 0xD5B JUMP JUMPDEST SWAP4 POP SWAP4 POP POP PUSH1 0x20 DUP5 ADD CALLDATALOAD PUSH8 0xFFFFFFFFFFFFFFFF DUP2 GT ISZERO PUSH2 0xF3B JUMPI PUSH2 0xF3A PUSH2 0xBBD JUMP JUMPDEST JUMPDEST PUSH2 0xF47 DUP7 DUP3 DUP8 ADD PUSH2 0xEAB JUMP JUMPDEST SWAP2 POP POP SWAP3 POP SWAP3 POP SWAP3 JUMP JUMPDEST PUSH0 DUP2 MLOAD SWAP1 POP SWAP2 SWAP1 POP JUMP JUMPDEST PUSH0 DUP3 DUP3 MSTORE PUSH1 0x20 DUP3 ADD SWAP1 POP SWAP3 SWAP2 POP POP JUMP JUMPDEST PUSH0 DUP2 SWAP1 POP PUSH1 0x20 DUP3 ADD SWAP1 POP SWAP2 SWAP1 POP JUMP JUMPDEST PUSH2 0xF83 DUP2 PUSH2 0xC3E JUMP JUMPDEST DUP3 MSTORE POP POP JUMP JUMPDEST PUSH0 DUP3 DUP3 MSTORE PUSH1 0x20 DUP3 ADD SWAP1 POP SWAP3 SWAP2 POP POP JUMP JUMPDEST PUSH0 PUSH2 0xFA3 DUP3 PUSH2 0xC5E JUMP JUMPDEST PUSH2 0xFAD DUP2 DUP6 PUSH2 0xF89 JUMP JUMPDEST SWAP4 POP PUSH2 0xFBD DUP2 DUP6 PUSH1 0x20 DUP7 ADD PUSH2 0xC78 JUMP JUMPDEST PUSH2 0xFC6 DUP2 PUSH2 0xC86 JUMP JUMPDEST DUP5 ADD SWAP2 POP POP SWAP3 SWAP2 POP POP JUMP JUMPDEST PUSH2 0xFDA DUP2 PUSH2 0xBC1 JUMP JUMPDEST DUP3 MSTORE POP POP JUMP JUMPDEST PUSH2 0xFE9 DUP2 PUSH2 0xCDD JUMP JUMPDEST DUP3 MSTORE POP POP JUMP JUMPDEST PUSH0 PUSH1 0xA0 DUP4 ADD PUSH0 DUP4 ADD MLOAD PUSH2 0x1004 PUSH0 DUP7 ADD DUP3 PUSH2 0xF7A JUMP JUMPDEST POP PUSH1 0x20 DUP4 ADD MLOAD PUSH2 0x1017 PUSH1 0x20 DUP7 ADD DUP3 PUSH2 0xF7A JUMP JUMPDEST POP PUSH1 0x40 DUP4 ADD MLOAD DUP5 DUP3 SUB PUSH1 0x40 DUP7 ADD MSTORE PUSH2 0x102F DUP3 DUP3 PUSH2 0xF99 JUMP JUMPDEST SWAP2 POP POP PUSH1 0x60 DUP4 ADD MLOAD PUSH2 0x1044 PUSH1 0x60 DUP7 ADD DUP3 PUSH2 0xFD1 JUMP JUMPDEST POP PUSH1 0x80 DUP4 ADD MLOAD PUSH2 0x1057 PUSH1 0x80 DUP7 ADD DUP3 PUSH2 0xFE0 JUMP JUMPDEST POP DUP1 SWAP2 POP POP SWAP3 SWAP2 POP POP JUMP JUMPDEST PUSH0 PUSH2 0x106D DUP4 DUP4 PUSH2 0xFEF JUMP JUMPDEST SWAP1 POP SWAP3 SWAP2 POP POP JUMP JUMPDEST PUSH0 PUSH1 0x20 DUP3 ADD SWAP1 POP SWAP2 SWAP1 POP JUMP JUMPDEST PUSH0 PUSH2 0x108B DUP3 PUSH2 0xF51 JUMP JUMPDEST PUSH2 0x1095 DUP2 DUP6 PUSH2 0xF5B JUMP JUMPDEST SWAP4 POP DUP4 PUSH1 0x20 DUP3 MUL DUP6 ADD PUSH2 0x10A7 DUP6 PUSH2 0xF6B JUMP JUMPDEST DUP1 PUSH0 JUMPDEST DUP6 DUP2 LT ISZERO PUSH2 0x10E2 JUMPI DUP5 DUP5 SUB DUP10 MSTORE DUP2 MLOAD PUSH2 0x10C3 DUP6 DUP3 PUSH2 0x1062 JUMP JUMPDEST SWAP5 POP PUSH2 0x10CE DUP4 PUSH2 0x1075 JUMP JUMPDEST SWAP3 POP PUSH1 0x20 DUP11 ADD SWAP10 POP POP PUSH1 0x1 DUP2 ADD SWAP1 POP PUSH2 0x10AA JUMP JUMPDEST POP DUP3 SWAP8 POP DUP8 SWAP6 POP POP POP POP POP POP SWAP3 SWAP2 POP POP JUMP JUMPDEST PUSH0 PUSH1 0x20 DUP3 ADD SWAP1 POP DUP2 DUP2 SUB PUSH0 DUP4 ADD MSTORE PUSH2 0x110C DUP2 DUP5 PUSH2 0x1081 JUMP JUMPDEST SWAP1 POP SWAP3 SWAP2 POP POP JUMP JUMPDEST PUSH0 DUP1 PUSH1 0x20 DUP4 DUP6 SUB SLT ISZERO PUSH2 0x112A JUMPI PUSH2 0x1129 PUSH2 0xBB9 JUMP JUMPDEST JUMPDEST PUSH0 DUP4 ADD CALLDATALOAD PUSH8 0xFFFFFFFFFFFFFFFF DUP2 GT ISZERO PUSH2 0x1147 JUMPI PUSH2 0x1146 PUSH2 0xBBD JUMP JUMPDEST JUMPDEST PUSH2 0x1153 DUP6 DUP3 DUP7 ADD PUSH2 0xD5B JUMP JUMPDEST SWAP3 POP SWAP3 POP POP SWAP3 POP SWAP3 SWAP1 POP JUMP JUMPDEST PUSH0 DUP2 SWAP1 POP SWAP2 SWAP1 POP JUMP JUMPDEST PUSH2 0x1171 DUP2 PUSH2 0x115F JUMP JUMPDEST DUP3 MSTORE POP POP JUMP JUMPDEST PUSH0 PUSH1 0x20 DUP3 ADD SWAP1 POP PUSH2 0x118A PUSH0 DUP4 ADD DUP5 PUSH2 0x1168 JUMP JUMPDEST SWAP3 SWAP2 POP POP JUMP JUMPDEST PUSH0 PUSH1 0x20 DUP3 ADD SWAP1 POP PUSH2 0x11A3 PUSH0 DUP4 ADD DUP5 PUSH2 0xC4F JUMP JUMPDEST SWAP3 SWAP2 POP POP JUMP JUMPDEST PUSH32 0x4E487B7100000000000000000000000000000000000000000000000000000000 PUSH0 MSTORE PUSH1 0x22 PUSH1 0x4 MSTORE PUSH1 0x24 PUSH0 REVERT JUMPDEST PUSH0 PUSH1 0x2 DUP3 DIV SWAP1 POP PUSH1 0x1 DUP3 AND DUP1 PUSH2 0x11ED JUMPI PUSH1 0x7F DUP3 AND SWAP2 POP JUMPDEST PUSH1 0x20 DUP3 LT DUP2 SUB PUSH2 0x1200 JUMPI PUSH2 0x11FF PUSH2 0x11A9 JUMP JUMPDEST JUMPDEST POP SWAP2 SWAP1 POP JUMP JUMPDEST PUSH32 0x496E76616C696420454E53206E616D65206F72206E6F74206F776E6564206279 PUSH0 DUP3 ADD MSTORE PUSH32 0x20616E796F6E6500000000000000000000000000000000000000000000000000 PUSH1 0x20 DUP3 ADD MSTORE POP JUMP JUMPDEST PUSH0 PUSH2 0x1260 PUSH1 0x27 DUP4 PUSH2 0xC68 JUMP JUMPDEST SWAP2 POP PUSH2 0x126B DUP3 PUSH2 0x1206 JUMP JUMPDEST PUSH1 0x40 DUP3 ADD SWAP1 POP SWAP2 SWAP1 POP JUMP JUMPDEST PUSH0 PUSH1 0x20 DUP3 ADD SWAP1 POP DUP2 DUP2 SUB PUSH0 DUP4 ADD MSTORE PUSH2 0x128D DUP2 PUSH2 0x1254 JUMP JUMPDEST SWAP1 POP SWAP2 SWAP1 POP JUMP JUMPDEST PUSH32 0x596F752063616E206E6F742073656E64206D6573736167657320746F20796F75 PUSH0 DUP3 ADD MSTORE PUSH32 0x722073656C660000000000000000000000000000000000000000000000000000 PUSH1 0x20 DUP3 ADD MSTORE POP JUMP JUMPDEST PUSH0 PUSH2 0x12EE PUSH1 0x26 DUP4 PUSH2 0xC68 JUMP JUMPDEST SWAP2 POP PUSH2 0x12F9 DUP3 PUSH2 0x1294 JUMP JUMPDEST PUSH1 0x40 DUP3 ADD SWAP1 POP SWAP2 SWAP1 POP JUMP JUMPDEST PUSH0 PUSH1 0x20 DUP3 ADD SWAP1 POP DUP2 DUP2 SUB PUSH0 DUP4 ADD MSTORE PUSH2 0x131B DUP2 PUSH2 0x12E2 JUMP JUMPDEST SWAP1 POP SWAP2 SWAP1 POP JUMP JUMPDEST PUSH0 DUP2 SWAP1 POP DUP2 PUSH0 MSTORE PUSH1 0x20 PUSH0 KECCAK256 SWAP1 POP SWAP2 SWAP1 POP JUMP JUMPDEST PUSH0 PUSH1 0x20 PUSH1 0x1F DUP4 ADD DIV SWAP1 POP SWAP2 SWAP1 POP JUMP JUMPDEST PUSH0 DUP3 DUP3 SHL SWAP1 POP SWAP3 SWAP2 POP POP JUMP JUMPDEST PUSH0 PUSH1 0x8 DUP4 MUL PUSH2 0x137E PUSH32 0xFFFFFFFFFFFFFFFFFFFFFFFFFFFFFFFFFFFFFFFFFFFFFFFFFFFFFFFFFFFFFFFF DUP3 PUSH2 0x1343 JUMP JUMPDEST PUSH2 0x1388 DUP7 DUP4 PUSH2 0x1343 JUMP JUMPDEST SWAP6 POP DUP1 NOT DUP5 AND SWAP4 POP DUP1 DUP7 AND DUP5 OR SWAP3 POP POP POP SWAP4 SWAP3 POP POP POP JUMP JUMPDEST PUSH0 DUP2 SWAP1 POP SWAP2 SWAP1 POP JUMP JUMPDEST PUSH0 PUSH2 0x13C3 PUSH2 0x13BE PUSH2 0x13B9 DUP5 PUSH2 0xBC1 JUMP JUMPDEST PUSH2 0x13A0 JUMP JUMPDEST PUSH2 0xBC1 JUMP JUMPDEST SWAP1 POP SWAP2 SWAP1 POP JUMP JUMPDEST PUSH0 DUP2 SWAP1 POP SWAP2 SWAP1 POP JUMP JUMPDEST PUSH2 0x13DC DUP4 PUSH2 0x13A9 JUMP JUMPDEST PUSH2 0x13F0 PUSH2 0x13E8 DUP3 PUSH2 0x13CA JUMP JUMPDEST DUP5 DUP5 SLOAD PUSH2 0x134F JUMP JUMPDEST DUP3 SSTORE POP POP POP POP JUMP JUMPDEST PUSH0 SWAP1 JUMP JUMPDEST PUSH2 0x1404 PUSH2 0x13F8 JUMP JUMPDEST PUSH2 0x140F DUP2 DUP5 DUP5 PUSH2 0x13D3 JUMP JUMPDEST POP POP POP JUMP JUMPDEST JUMPDEST DUP2 DUP2 LT ISZERO PUSH2 0x1432 JUMPI PUSH2 0x1427 PUSH0 DUP3 PUSH2 0x13FC JUMP JUMPDEST PUSH1 0x1 DUP2 ADD SWAP1 POP PUSH2 0x1415 JUMP JUMPDEST POP POP JUMP JUMPDEST PUSH1 0x1F DUP3 GT ISZERO PUSH2 0x1477 JUMPI PUSH2 0x1448 DUP2 PUSH2 0x1322 JUMP JUMPDEST PUSH2 0x1451 DUP5 PUSH2 0x1334 JUMP JUMPDEST DUP2 ADD PUSH1 0x20 DUP6 LT ISZERO PUSH2 0x1460 JUMPI DUP2 SWAP1 POP JUMPDEST PUSH2 0x1474 PUSH2 0x146C DUP6 PUSH2 0x1334 JUMP JUMPDEST DUP4 ADD DUP3 PUSH2 0x1414 JUMP JUMPDEST POP POP JUMPDEST POP POP POP JUMP JUMPDEST PUSH0 DUP3 DUP3 SHR SWAP1 POP SWAP3 SWAP2 POP POP JUMP JUMPDEST PUSH0 PUSH2 0x1497 PUSH0 NOT DUP5 PUSH1 0x8 MUL PUSH2 0x147C JUMP JUMPDEST NOT DUP1 DUP4 AND SWAP2 POP POP SWAP3 SWAP2 POP POP JUMP JUMPDEST PUSH0 PUSH2 0x14AF DUP4 DUP4 PUSH2 0x1488 JUMP JUMPDEST SWAP2 POP DUP3 PUSH1 0x2 MUL DUP3 OR SWAP1 POP SWAP3 SWAP2 POP POP JUMP JUMPDEST PUSH2 0x14C8 DUP3 PUSH2 0xC5E JUMP JUMPDEST PUSH8 0xFFFFFFFFFFFFFFFF DUP2 GT ISZERO PUSH2 0x14E1 JUMPI PUSH2 0x14E0 PUSH2 0xDB4 JUMP JUMPDEST JUMPDEST PUSH2 0x14EB DUP3 SLOAD PUSH2 0x11D6 JUMP JUMPDEST PUSH2 0x14F6 DUP3 DUP3 DUP6 PUSH2 0x1436 JUMP JUMPDEST PUSH0 PUSH1 0x20 SWAP1 POP PUSH1 0x1F DUP4 GT PUSH1 0x1 DUP2 EQ PUSH2 0x1527 JUMPI PUSH0 DUP5 ISZERO PUSH2 0x1515 JUMPI DUP3 DUP8 ADD MLOAD SWAP1 POP JUMPDEST PUSH2 0x151F DUP6 DUP3 PUSH2 0x14A4 JUMP JUMPDEST DUP7 SSTORE POP PUSH2 0x1586 JUMP JUMPDEST PUSH1 0x1F NOT DUP5 AND PUSH2 0x1535 DUP7 PUSH2 0x1322 JUMP JUMPDEST PUSH0 JUMPDEST DUP3 DUP2 LT ISZERO PUSH2 0x155C JUMPI DUP5 DUP10 ADD MLOAD DUP3 SSTORE PUSH1 0x1 DUP3 ADD SWAP2 POP PUSH1 0x20 DUP6 ADD SWAP5 POP PUSH1 0x20 DUP2 ADD SWAP1 POP PUSH2 0x1537 JUMP JUMPDEST DUP7 DUP4 LT ISZERO PUSH2 0x1579 JUMPI DUP5 DUP10 ADD MLOAD PUSH2 0x1575 PUSH1 0x1F DUP10 AND DUP3 PUSH2 0x1488 JUMP JUMPDEST DUP4 SSTORE POP JUMPDEST PUSH1 0x1 PUSH1 0x2 DUP9 MUL ADD DUP9 SSTORE POP POP POP JUMPDEST POP POP POP POP POP POP JUMP JUMPDEST PUSH32 0x4C6162656C2063616E6E6F7420626520656D7074790000000000000000000000 PUSH0 DUP3 ADD MSTORE POP JUMP JUMPDEST PUSH0 PUSH2 0x15C2 PUSH1 0x15 DUP4 PUSH2 0xC68 JUMP JUMPDEST SWAP2 POP PUSH2 0x15CD DUP3 PUSH2 0x158E JUMP JUMPDEST PUSH1 0x20 DUP3 ADD SWAP1 POP SWAP2 SWAP1 POP JUMP JUMPDEST PUSH0 PUSH1 0x20 DUP3 ADD SWAP1 POP DUP2 DUP2 SUB PUSH0 DUP4 ADD MSTORE PUSH2 0x15EF DUP2 PUSH2 0x15B6 JUMP JUMPDEST SWAP1 POP SWAP2 SWAP1 POP JUMP JUMPDEST PUSH32 0x4C6162656C20746F6F206C6F6E67000000000000000000000000000000000000 PUSH0 DUP3 ADD MSTORE POP JUMP JUMPDEST PUSH0 PUSH2 0x162A PUSH1 0xE DUP4 PUSH2 0xC68 JUMP JUMPDEST SWAP2 POP PUSH2 0x1635 DUP3 PUSH2 0x15F6 JUMP JUMPDEST PUSH1 0x20 DUP3 ADD SWAP1 POP SWAP2 SWAP1 POP JUMP JUMPDEST PUSH0 PUSH1 0x20 DUP3 ADD SWAP1 POP DUP2 DUP2 SUB PUSH0 DUP4 ADD MSTORE PUSH2 0x1657 DUP2 PUSH2 0x161E JUMP JUMPDEST SWAP1 POP SWAP2 SWAP1 POP JUMP JUMPDEST PUSH32 0x4E487B7100000000000000000000000000000000000000000000000000000000 PUSH0 MSTORE PUSH1 0x32 PUSH1 0x4 MSTORE PUSH1 0x24 PUSH0 REVERT JUMPDEST PUSH32 0x496E76616C69642063686172616374657220696E206C6162656C000000000000 PUSH0 DUP3 ADD MSTORE POP JUMP JUMPDEST PUSH0 PUSH2 0x16BF PUSH1 0x1A DUP4 PUSH2 0xC68 JUMP JUMPDEST SWAP2 POP PUSH2 0x16CA DUP3 PUSH2 0x168B JUMP JUMPDEST PUSH1 0x20 DUP3 ADD SWAP1 POP SWAP2 SWAP1 POP JUMP JUMPDEST PUSH0 PUSH1 0x20 DUP3 ADD SWAP1 POP DUP2 DUP2 SUB PUSH0 DUP4 ADD MSTORE PUSH2 0x16EC DUP2 PUSH2 0x16B3 JUMP JUMPDEST SWAP1 POP SWAP2 SWAP1 POP JUMP JUMPDEST PUSH0 DUP2 SWAP1 POP SWAP3 SWAP2 POP POP JUMP JUMPDEST PUSH32 0x626173652E657468000000000000000000000000000000000000000000000000 PUSH0 DUP3 ADD MSTORE POP JUMP JUMPDEST PUSH0 PUSH2 0x1731 PUSH1 0x8 DUP4 PUSH2 0x16F3 JUMP JUMPDEST SWAP2 POP PUSH2 0x173C DUP3 PUSH2 0x16FD JUMP JUMPDEST PUSH1 0x8 DUP3 ADD SWAP1 POP SWAP2 SWAP1 POP JUMP JUMPDEST PUSH0 PUSH2 0x1751 DUP3 PUSH2 0x1725 JUMP JUMPDEST SWAP2 POP DUP2 SWAP1 POP SWAP2 SWAP1 POP JUMP JUMPDEST PUSH0 DUP2 SWAP1 POP SWAP2 SWAP1 POP JUMP JUMPDEST PUSH2 0x1775 PUSH2 0x1770 DUP3 PUSH2 0x115F JUMP JUMPDEST PUSH2 0x175B JUMP JUMPDEST DUP3 MSTORE POP POP JUMP JUMPDEST PUSH0 PUSH2 0x1786 DUP3 DUP6 PUSH2 0x1764 JUMP JUMPDEST PUSH1 0x20 DUP3 ADD SWAP2 POP PUSH2 0x1796 DUP3 DUP5 PUSH2 0x1764 JUMP JUMPDEST PUSH1 0x20 DUP3 ADD SWAP2 POP DUP2 SWAP1 POP SWAP4 SWAP3 POP POP POP JUMP JUMPDEST PUSH32 0x4E6F7420617574686F72697A6564000000000000000000000000000000000000 PUSH0 DUP3 ADD MSTORE POP JUMP JUMPDEST PUSH0 PUSH2 0x17DA PUSH1 0xE DUP4 PUSH2 0xC68 JUMP JUMPDEST SWAP2 POP PUSH2 0x17E5 DUP3 PUSH2 0x17A6 JUMP JUMPDEST PUSH1 0x20 DUP3 ADD SWAP1 POP SWAP2 SWAP1 POP JUMP JUMPDEST PUSH0 PUSH1 0x20 DUP3 ADD SWAP1 POP DUP2 DUP2 SUB PUSH0 DUP4 ADD MSTORE PUSH2 0x1807 DUP2 PUSH2 0x17CE JUMP JUMPDEST SWAP1 POP SWAP2 SWAP1 POP JUMP JUMPDEST PUSH2 0x1817 DUP2 PUSH2 0xC3E JUMP JUMPDEST DUP2 EQ PUSH2 0x1821 JUMPI PUSH0 DUP1 REVERT JUMPDEST POP JUMP JUMPDEST PUSH0 DUP2 MLOAD SWAP1 POP PUSH2 0x1832 DUP2 PUSH2 0x180E JUMP JUMPDEST SWAP3 SWAP2 POP POP JUMP JUMPDEST PUSH0 PUSH1 0x20 DUP3 DUP5 SUB SLT ISZERO PUSH2 0x184D JUMPI PUSH2 0x184C PUSH2 0xBB9 JUMP JUMPDEST JUMPDEST PUSH0 PUSH2 0x185A DUP5 DUP3 DUP6 ADD PUSH2 0x1824 JUMP JUMPDEST SWAP2 POP POP SWAP3 SWAP2 POP POP JUMP INVALID LOG2 PUSH5 0x6970667358 0x22 SLT KECCAK256 SELFDESTRUCT 0xB1 PUSH12 0x3E37406BAFB41E8D022BC69F 0xD2 0xE6 0xD3 BLOCKHASH BLOBBASEFEE SWAP6 0xDD LOG1 MCOPY 0x2C 0xCD SWAP1 PUSH12 0xD23791EB64736F6C63430008 BYTE STOP CALLER "
				},
				"gasEstimates": {
					"creation": {
						"codeDepositCost": "1259400",
						"executionCost": "1306",
						"totalCost": "1260706"
					},
					"external": {
						"computeNode(string)": "infinite",
						"deleteMessage(uint256)": "35657",
						"getBasenameOwner(string)": "infinite",
						"getMessages()": "infinite",
						"messages(uint256)": "infinite",
						"sendMessage(string,string)": "infinite"
					}
				},
				"methodIdentifiers": {
					"computeNode(string)": "a97cde0c",
					"deleteMessage(uint256)": "b888690a",
					"getBasenameOwner(string)": "fda7362d",
					"getMessages()": "5ff6cbf3",
					"messages(uint256)": "0d80fefd",
					"sendMessage(string,string)": "467fba0f"
				}
			},
			"storageLayout": {
				"storage": [
					{
						"astId": 40,
						"contract": "contracts/ensRegisty.sol:DecentralizedMail",
						"label": "messages",
						"offset": 0,
						"slot": "0",
						"type": "t_array(t_struct(Message)36_storage)dyn_storage"
					}
				],
				"types": {
					"t_address": {
						"encoding": "inplace",
						"label": "address",
						"numberOfBytes": "20"
					},
					"t_array(t_struct(Message)36_storage)dyn_storage": {
						"base": "t_struct(Message)36_storage",
						"encoding": "dynamic_array",
						"label": "struct DecentralizedMail.Message[]",
						"numberOfBytes": "32"
					},
					"t_bool": {
						"encoding": "inplace",
						"label": "bool",
						"numberOfBytes": "1"
					},
					"t_string_storage": {
						"encoding": "bytes",
						"label": "string",
						"numberOfBytes": "32"
					},
					"t_struct(Message)36_storage": {
						"encoding": "inplace",
						"label": "struct DecentralizedMail.Message",
						"members": [
							{
								"astId": 27,
								"contract": "contracts/ensRegisty.sol:DecentralizedMail",
								"label": "sender",
								"offset": 0,
								"slot": "0",
								"type": "t_address"
							},
							{
								"astId": 29,
								"contract": "contracts/ensRegisty.sol:DecentralizedMail",
								"label": "receiver",
								"offset": 0,
								"slot": "1",
								"type": "t_address"
							},
							{
								"astId": 31,
								"contract": "contracts/ensRegisty.sol:DecentralizedMail",
								"label": "content",
								"offset": 0,
								"slot": "2",
								"type": "t_string_storage"
							},
							{
								"astId": 33,
								"contract": "contracts/ensRegisty.sol:DecentralizedMail",
								"label": "timestamp",
								"offset": 0,
								"slot": "3",
								"type": "t_uint256"
							},
							{
								"astId": 35,
								"contract": "contracts/ensRegisty.sol:DecentralizedMail",
								"label": "isDeleted",
								"offset": 0,
								"slot": "4",
								"type": "t_bool"
							}
						],
						"numberOfBytes": "160"
					},
					"t_uint256": {
						"encoding": "inplace",
						"label": "uint256",
						"numberOfBytes": "32"
					}
				}
			},
			"userdoc": {
				"kind": "user",
				"methods": {
					"computeNode(string)": {
						"notice": "Converts a label to its ENS node hash for \".base.eth\""
					},
					"getBasenameOwner(string)": {
						"notice": "Get the owner of a \".base.eth\" name"
					}
				},
				"version": 1
			}
		}
	}
}