{
	"contracts/withdrawDeposit.sol": {
		"P2PLending": {
			"abi": [
				{
					"inputs": [
						{
							"internalType": "address",
							"name": "_usdc",
							"type": "address"
						},
						{
							"internalType": "address",
							"name": "_usdt",
							"type": "address"
						},
						{
							"internalType": "address",
							"name": "_wbtc",
							"type": "address"
						},
						{
							"internalType": "address",
							"name": "_weth",
							"type": "address"
						}
					],
					"stateMutability": "nonpayable",
					"type": "constructor"
				},
				{
					"anonymous": false,
					"inputs": [
						{
							"indexed": false,
							"internalType": "uint256",
							"name": "loanId",
							"type": "uint256"
						},
						{
							"indexed": false,
							"internalType": "address",
							"name": "token",
							"type": "address"
						},
						{
							"indexed": false,
							"internalType": "uint256",
							"name": "amount",
							"type": "uint256"
						}
					],
					"name": "CollateralLiquidated",
					"type": "event"
				},
				{
					"anonymous": false,
					"inputs": [
						{
							"indexed": false,
							"internalType": "uint256",
							"name": "loanId",
							"type": "uint256"
						},
						{
							"indexed": false,
							"internalType": "address",
							"name": "token",
							"type": "address"
						},
						{
							"indexed": false,
							"internalType": "uint256",
							"name": "amount",
							"type": "uint256"
						}
					],
					"name": "CollateralReturned",
					"type": "event"
				},
				{
					"anonymous": false,
					"inputs": [
						{
							"indexed": false,
							"internalType": "uint256",
							"name": "loanId",
							"type": "uint256"
						},
						{
							"indexed": false,
							"internalType": "uint256",
							"name": "amount",
							"type": "uint256"
						},
						{
							"indexed": false,
							"internalType": "uint256",
							"name": "interest",
							"type": "uint256"
						},
						{
							"indexed": false,
							"internalType": "uint256",
							"name": "duration",
							"type": "uint256"
						},
						{
							"indexed": false,
							"internalType": "uint256",
							"name": "fundingDeadline",
							"type": "uint256"
						},
						{
							"indexed": false,
							"internalType": "address",
							"name": "borrower",
							"type": "address"
						},
						{
							"indexed": false,
							"internalType": "address",
							"name": "lender",
							"type": "address"
						},
						{
							"indexed": false,
							"internalType": "address",
							"name": "collateralToken",
							"type": "address"
						},
						{
							"indexed": false,
							"internalType": "uint256",
							"name": "collateralAmount",
							"type": "uint256"
						}
					],
					"name": "LoanCreated",
					"type": "event"
				},
				{
					"anonymous": false,
					"inputs": [
						{
							"indexed": false,
							"internalType": "uint256",
							"name": "loanId",
							"type": "uint256"
						},
						{
							"indexed": false,
							"internalType": "address",
							"name": "funder",
							"type": "address"
						},
						{
							"indexed": false,
							"internalType": "uint256",
							"name": "amount",
							"type": "uint256"
						}
					],
					"name": "LoanFunded",
					"type": "event"
				},
				{
					"anonymous": false,
					"inputs": [
						{
							"indexed": false,
							"internalType": "uint256",
							"name": "loanId",
							"type": "uint256"
						},
						{
							"indexed": false,
							"internalType": "uint256",
							"name": "amount",
							"type": "uint256"
						}
					],
					"name": "LoanRepaid",
					"type": "event"
				},
				{
					"inputs": [],
					"name": "MAX_INTEREST_RATE",
					"outputs": [
						{
							"internalType": "uint256",
							"name": "",
							"type": "uint256"
						}
					],
					"stateMutability": "view",
					"type": "function"
				},
				{
					"inputs": [],
					"name": "MAX_LOAN_AMOUNT",
					"outputs": [
						{
							"internalType": "uint256",
							"name": "",
							"type": "uint256"
						}
					],
					"stateMutability": "view",
					"type": "function"
				},
				{
					"inputs": [],
					"name": "MIN_INTEREST_RATE",
					"outputs": [
						{
							"internalType": "uint256",
							"name": "",
							"type": "uint256"
						}
					],
					"stateMutability": "view",
					"type": "function"
				},
				{
					"inputs": [],
					"name": "MIN_LOAN_AMOUNT",
					"outputs": [
						{
							"internalType": "uint256",
							"name": "",
							"type": "uint256"
						}
					],
					"stateMutability": "view",
					"type": "function"
				},
				{
					"inputs": [],
					"name": "USDC",
					"outputs": [
						{
							"internalType": "contract IERC20",
							"name": "",
							"type": "address"
						}
					],
					"stateMutability": "view",
					"type": "function"
				},
				{
					"inputs": [],
					"name": "USDT",
					"outputs": [
						{
							"internalType": "contract IERC20",
							"name": "",
							"type": "address"
						}
					],
					"stateMutability": "view",
					"type": "function"
				},
				{
					"inputs": [],
					"name": "WBTC",
					"outputs": [
						{
							"internalType": "contract IERC20",
							"name": "",
							"type": "address"
						}
					],
					"stateMutability": "view",
					"type": "function"
				},
				{
					"inputs": [],
					"name": "WETH",
					"outputs": [
						{
							"internalType": "contract IWETH",
							"name": "",
							"type": "address"
						}
					],
					"stateMutability": "view",
					"type": "function"
				},
				{
					"inputs": [
						{
							"internalType": "address",
							"name": "_collateralToken",
							"type": "address"
						},
						{
							"internalType": "uint256",
							"name": "_loanAmount",
							"type": "uint256"
						}
					],
					"name": "calculateCollateralAmount",
					"outputs": [
						{
							"internalType": "uint256",
							"name": "",
							"type": "uint256"
						}
					],
					"stateMutability": "view",
					"type": "function"
				},
				{
					"inputs": [
						{
							"internalType": "address",
							"name": "",
							"type": "address"
						}
					],
					"name": "collateralRatios",
					"outputs": [
						{
							"internalType": "uint256",
							"name": "",
							"type": "uint256"
						}
					],
					"stateMutability": "view",
					"type": "function"
				},
				{
					"inputs": [
						{
							"internalType": "uint256",
							"name": "_amount",
							"type": "uint256"
						},
						{
							"internalType": "uint256",
							"name": "_interest",
							"type": "uint256"
						},
						{
							"internalType": "uint256",
							"name": "_duration",
							"type": "uint256"
						},
						{
							"internalType": "address",
							"name": "_collateralToken",
							"type": "address"
						}
					],
					"name": "createLoan",
					"outputs": [],
					"stateMutability": "payable",
					"type": "function"
				},
				{
					"inputs": [
						{
							"internalType": "uint256",
							"name": "_loanId",
							"type": "uint256"
						}
					],
					"name": "fundLoan",
					"outputs": [],
					"stateMutability": "payable",
					"type": "function"
				},
				{
					"inputs": [
						{
							"internalType": "uint256",
							"name": "_loanId",
							"type": "uint256"
						}
					],
					"name": "getLoanInfo",
					"outputs": [
						{
							"internalType": "uint256",
							"name": "amount",
							"type": "uint256"
						},
						{
							"internalType": "uint256",
							"name": "interest",
							"type": "uint256"
						},
						{
							"internalType": "uint256",
							"name": "duration",
							"type": "uint256"
						},
						{
							"internalType": "uint256",
							"name": "repaymentAmount",
							"type": "uint256"
						},
						{
							"internalType": "uint256",
							"name": "fundingDeadline",
							"type": "uint256"
						},
						{
							"internalType": "address",
							"name": "borrower",
							"type": "address"
						},
						{
							"internalType": "address",
							"name": "lender",
							"type": "address"
						},
						{
							"internalType": "bool",
							"name": "active",
							"type": "bool"
						},
						{
							"internalType": "bool",
							"name": "repaid",
							"type": "bool"
						},
						{
							"internalType": "address",
							"name": "collateralToken",
							"type": "address"
						},
						{
							"internalType": "uint256",
							"name": "collateralAmount",
							"type": "uint256"
						}
					],
					"stateMutability": "view",
					"type": "function"
				},
				{
					"inputs": [
						{
							"internalType": "uint256",
							"name": "_loanId",
							"type": "uint256"
						}
					],
					"name": "liquidateLoan",
					"outputs": [],
					"stateMutability": "nonpayable",
					"type": "function"
				},
				{
					"inputs": [],
					"name": "loanCount",
					"outputs": [
						{
							"internalType": "uint256",
							"name": "",
							"type": "uint256"
						}
					],
					"stateMutability": "view",
					"type": "function"
				},
				{
					"inputs": [
						{
							"internalType": "uint256",
							"name": "",
							"type": "uint256"
						}
					],
					"name": "loans",
					"outputs": [
						{
							"internalType": "uint256",
							"name": "amount",
							"type": "uint256"
						},
						{
							"internalType": "uint256",
							"name": "interest",
							"type": "uint256"
						},
						{
							"internalType": "uint256",
							"name": "duration",
							"type": "uint256"
						},
						{
							"internalType": "uint256",
							"name": "repaymentAmount",
							"type": "uint256"
						},
						{
							"internalType": "uint256",
							"name": "fundingDeadline",
							"type": "uint256"
						},
						{
							"internalType": "address",
							"name": "borrower",
							"type": "address"
						},
						{
							"internalType": "address payable",
							"name": "lender",
							"type": "address"
						},
						{
							"internalType": "bool",
							"name": "active",
							"type": "bool"
						},
						{
							"internalType": "bool",
							"name": "repaid",
							"type": "bool"
						},
						{
							"internalType": "address",
							"name": "collateralToken",
							"type": "address"
						},
						{
							"internalType": "uint256",
							"name": "collateralAmount",
							"type": "uint256"
						}
					],
					"stateMutability": "view",
					"type": "function"
				},
				{
					"inputs": [
						{
							"internalType": "uint256",
							"name": "_loanId",
							"type": "uint256"
						}
					],
					"name": "repayLoan",
					"outputs": [],
					"stateMutability": "payable",
					"type": "function"
				},
				{
					"inputs": [
						{
							"internalType": "address",
							"name": "",
							"type": "address"
						}
					],
					"name": "tokenPrices",
					"outputs": [
						{
							"internalType": "uint256",
							"name": "",
							"type": "uint256"
						}
					],
					"stateMutability": "view",
					"type": "function"
				},
				{
					"stateMutability": "payable",
					"type": "receive"
				}
			],
			"devdoc": {
				"kind": "dev",
				"methods": {},
				"version": 1
			},
			"evm": {
				"assembly": "    /* \"contracts/withdrawDeposit.sol\":1138:9817  contract P2PLending is LendingBase {... */\n  mstore(0x40, 0x0100)\n    /* \"contracts/withdrawDeposit.sol\":2806:3545  constructor(... */\n  callvalue\n  dup1\n  iszero\n  tag_1\n  jumpi\n  revert(0x00, 0x00)\ntag_1:\n  pop\n  mload(0x40)\n  sub(codesize, bytecodeSize)\n  dup1\n  bytecodeSize\n  dup4\n  codecopy\n  dup2\n  dup2\n  add\n  0x40\n  mstore\n  dup2\n  add\n  swap1\n  tag_2\n  swap2\n  swap1\n  tag_3\n  jump\t// in\ntag_2:\n    /* \"contracts/withdrawDeposit.sol\":2979:2984  _usdc */\n  dup4\n    /* \"contracts/withdrawDeposit.sol\":2965:2985  USDC = IERC20(_usdc) */\n  0xffffffffffffffffffffffffffffffffffffffff\n  and\n  0x80\n  dup2\n  0xffffffffffffffffffffffffffffffffffffffff\n  and\n  dup2\n  mstore\n  pop\n  pop\n    /* \"contracts/withdrawDeposit.sol\":3009:3014  _usdt */\n  dup3\n    /* \"contracts/withdrawDeposit.sol\":2995:3015  USDT = IERC20(_usdt) */\n  0xffffffffffffffffffffffffffffffffffffffff\n  and\n  0xa0\n  dup2\n  0xffffffffffffffffffffffffffffffffffffffff\n  and\n  dup2\n  mstore\n  pop\n  pop\n    /* \"contracts/withdrawDeposit.sol\":3039:3044  _wbtc */\n  dup2\n    /* \"contracts/withdrawDeposit.sol\":3025:3045  WBTC = IERC20(_wbtc) */\n  0xffffffffffffffffffffffffffffffffffffffff\n  and\n  0xc0\n  dup2\n  0xffffffffffffffffffffffffffffffffffffffff\n  and\n  dup2\n  mstore\n  pop\n  pop\n    /* \"contracts/withdrawDeposit.sol\":3068:3073  _weth */\n  dup1\n    /* \"contracts/withdrawDeposit.sol\":3055:3074  WETH = IWETH(_weth) */\n  0xffffffffffffffffffffffffffffffffffffffff\n  and\n  0xe0\n  dup2\n  0xffffffffffffffffffffffffffffffffffffffff\n  and\n  dup2\n  mstore\n  pop\n  pop\n    /* \"contracts/withdrawDeposit.sol\":3159:3164  15000 */\n  0x3a98\n    /* \"contracts/withdrawDeposit.sol\":3133:3149  collateralRatios */\n  0x00\n    /* \"contracts/withdrawDeposit.sol\":3133:3156  collateralRatios[_usdc] */\n  0x00\n    /* \"contracts/withdrawDeposit.sol\":3150:3155  _usdc */\n  dup7\n    /* \"contracts/withdrawDeposit.sol\":3133:3156  collateralRatios[_usdc] */\n  0xffffffffffffffffffffffffffffffffffffffff\n  and\n  0xffffffffffffffffffffffffffffffffffffffff\n  and\n  dup2\n  mstore\n  0x20\n  add\n  swap1\n  dup2\n  mstore\n  0x20\n  add\n  0x00\n  keccak256\n    /* \"contracts/withdrawDeposit.sol\":3133:3164  collateralRatios[_usdc] = 15000 */\n  dup2\n  swap1\n  sstore\n  pop\n    /* \"contracts/withdrawDeposit.sol\":3200:3205  15000 */\n  0x3a98\n    /* \"contracts/withdrawDeposit.sol\":3174:3190  collateralRatios */\n  0x00\n    /* \"contracts/withdrawDeposit.sol\":3174:3197  collateralRatios[_usdt] */\n  0x00\n    /* \"contracts/withdrawDeposit.sol\":3191:3196  _usdt */\n  dup6\n    /* \"contracts/withdrawDeposit.sol\":3174:3197  collateralRatios[_usdt] */\n  0xffffffffffffffffffffffffffffffffffffffff\n  and\n  0xffffffffffffffffffffffffffffffffffffffff\n  and\n  dup2\n  mstore\n  0x20\n  add\n  swap1\n  dup2\n  mstore\n  0x20\n  add\n  0x00\n  keccak256\n    /* \"contracts/withdrawDeposit.sol\":3174:3205  collateralRatios[_usdt] = 15000 */\n  dup2\n  swap1\n  sstore\n  pop\n    /* \"contracts/withdrawDeposit.sol\":3241:3246  15000 */\n  0x3a98\n    /* \"contracts/withdrawDeposit.sol\":3215:3231  collateralRatios */\n  0x00\n    /* \"contracts/withdrawDeposit.sol\":3215:3238  collateralRatios[_wbtc] */\n  0x00\n    /* \"contracts/withdrawDeposit.sol\":3232:3237  _wbtc */\n  dup5\n    /* \"contracts/withdrawDeposit.sol\":3215:3238  collateralRatios[_wbtc] */\n  0xffffffffffffffffffffffffffffffffffffffff\n  and\n  0xffffffffffffffffffffffffffffffffffffffff\n  and\n  dup2\n  mstore\n  0x20\n  add\n  swap1\n  dup2\n  mstore\n  0x20\n  add\n  0x00\n  keccak256\n    /* \"contracts/withdrawDeposit.sol\":3215:3246  collateralRatios[_wbtc] = 15000 */\n  dup2\n  swap1\n  sstore\n  pop\n    /* \"contracts/withdrawDeposit.sol\":3282:3287  15000 */\n  0x3a98\n    /* \"contracts/withdrawDeposit.sol\":3256:3272  collateralRatios */\n  0x00\n    /* \"contracts/withdrawDeposit.sol\":3256:3279  collateralRatios[_weth] */\n  0x00\n    /* \"contracts/withdrawDeposit.sol\":3273:3278  _weth */\n  dup4\n    /* \"contracts/withdrawDeposit.sol\":3256:3279  collateralRatios[_weth] */\n  0xffffffffffffffffffffffffffffffffffffffff\n  and\n  0xffffffffffffffffffffffffffffffffffffffff\n  and\n  dup2\n  mstore\n  0x20\n  add\n  swap1\n  dup2\n  mstore\n  0x20\n  add\n  0x00\n  keccak256\n    /* \"contracts/withdrawDeposit.sol\":3256:3287  collateralRatios[_weth] = 15000 */\n  dup2\n  swap1\n  sstore\n  pop\n    /* \"contracts/withdrawDeposit.sol\":3387:3390  100 */\n  0x64\n    /* \"contracts/withdrawDeposit.sol\":3366:3377  tokenPrices */\n  0x03\n    /* \"contracts/withdrawDeposit.sol\":3366:3384  tokenPrices[_usdc] */\n  0x00\n    /* \"contracts/withdrawDeposit.sol\":3378:3383  _usdc */\n  dup7\n    /* \"contracts/withdrawDeposit.sol\":3366:3384  tokenPrices[_usdc] */\n  0xffffffffffffffffffffffffffffffffffffffff\n  and\n  0xffffffffffffffffffffffffffffffffffffffff\n  and\n  dup2\n  mstore\n  0x20\n  add\n  swap1\n  dup2\n  mstore\n  0x20\n  add\n  0x00\n  keccak256\n    /* \"contracts/withdrawDeposit.sol\":3366:3390  tokenPrices[_usdc] = 100 */\n  dup2\n  swap1\n  sstore\n  pop\n    /* \"contracts/withdrawDeposit.sol\":3430:3433  100 */\n  0x64\n    /* \"contracts/withdrawDeposit.sol\":3409:3420  tokenPrices */\n  0x03\n    /* \"contracts/withdrawDeposit.sol\":3409:3427  tokenPrices[_usdt] */\n  0x00\n    /* \"contracts/withdrawDeposit.sol\":3421:3426  _usdt */\n  dup6\n    /* \"contracts/withdrawDeposit.sol\":3409:3427  tokenPrices[_usdt] */\n  0xffffffffffffffffffffffffffffffffffffffff\n  and\n  0xffffffffffffffffffffffffffffffffffffffff\n  and\n  dup2\n  mstore\n  0x20\n  add\n  swap1\n  dup2\n  mstore\n  0x20\n  add\n  0x00\n  keccak256\n    /* \"contracts/withdrawDeposit.sol\":3409:3433  tokenPrices[_usdt] = 100 */\n  dup2\n  swap1\n  sstore\n  pop\n    /* \"contracts/withdrawDeposit.sol\":3473:3480  5000000 */\n  0x4c4b40\n    /* \"contracts/withdrawDeposit.sol\":3452:3463  tokenPrices */\n  0x03\n    /* \"contracts/withdrawDeposit.sol\":3452:3470  tokenPrices[_wbtc] */\n  0x00\n    /* \"contracts/withdrawDeposit.sol\":3464:3469  _wbtc */\n  dup5\n    /* \"contracts/withdrawDeposit.sol\":3452:3470  tokenPrices[_wbtc] */\n  0xffffffffffffffffffffffffffffffffffffffff\n  and\n  0xffffffffffffffffffffffffffffffffffffffff\n  and\n  dup2\n  mstore\n  0x20\n  add\n  swap1\n  dup2\n  mstore\n  0x20\n  add\n  0x00\n  keccak256\n    /* \"contracts/withdrawDeposit.sol\":3452:3480  tokenPrices[_wbtc] = 5000000 */\n  dup2\n  swap1\n  sstore\n  pop\n    /* \"contracts/withdrawDeposit.sol\":3522:3528  300000 */\n  0x0493e0\n    /* \"contracts/withdrawDeposit.sol\":3501:3512  tokenPrices */\n  0x03\n    /* \"contracts/withdrawDeposit.sol\":3501:3519  tokenPrices[_weth] */\n  0x00\n    /* \"contracts/withdrawDeposit.sol\":3513:3518  _weth */\n  dup4\n    /* \"contracts/withdrawDeposit.sol\":3501:3519  tokenPrices[_weth] */\n  0xffffffffffffffffffffffffffffffffffffffff\n  and\n  0xffffffffffffffffffffffffffffffffffffffff\n  and\n  dup2\n  mstore\n  0x20\n  add\n  swap1\n  dup2\n  mstore\n  0x20\n  add\n  0x00\n  keccak256\n    /* \"contracts/withdrawDeposit.sol\":3501:3528  tokenPrices[_weth] = 300000 */\n  dup2\n  swap1\n  sstore\n  pop\n    /* \"contracts/withdrawDeposit.sol\":2806:3545  constructor(... */\n  pop\n  pop\n  pop\n  pop\n    /* \"contracts/withdrawDeposit.sol\":1138:9817  contract P2PLending is LendingBase {... */\n  jump(tag_6)\n    /* \"#utility.yul\":88:205   */\ntag_8:\n    /* \"#utility.yul\":197:198   */\n  0x00\n    /* \"#utility.yul\":194:195   */\n  0x00\n    /* \"#utility.yul\":187:199   */\n  revert\n    /* \"#utility.yul\":334:460   */\ntag_10:\n    /* \"#utility.yul\":371:378   */\n  0x00\n    /* \"#utility.yul\":411:453   */\n  0xffffffffffffffffffffffffffffffffffffffff\n    /* \"#utility.yul\":404:409   */\n  dup3\n    /* \"#utility.yul\":400:454   */\n  and\n    /* \"#utility.yul\":389:454   */\n  swap1\n  pop\n    /* \"#utility.yul\":334:460   */\n  swap2\n  swap1\n  pop\n  jump\t// out\n    /* \"#utility.yul\":466:562   */\ntag_11:\n    /* \"#utility.yul\":503:510   */\n  0x00\n    /* \"#utility.yul\":532:556   */\n  tag_20\n    /* \"#utility.yul\":550:555   */\n  dup3\n    /* \"#utility.yul\":532:556   */\n  tag_10\n  jump\t// in\ntag_20:\n    /* \"#utility.yul\":521:556   */\n  swap1\n  pop\n    /* \"#utility.yul\":466:562   */\n  swap2\n  swap1\n  pop\n  jump\t// out\n    /* \"#utility.yul\":568:690   */\ntag_12:\n    /* \"#utility.yul\":641:665   */\n  tag_22\n    /* \"#utility.yul\":659:664   */\n  dup2\n    /* \"#utility.yul\":641:665   */\n  tag_11\n  jump\t// in\ntag_22:\n    /* \"#utility.yul\":634:639   */\n  dup2\n    /* \"#utility.yul\":631:666   */\n  eq\n    /* \"#utility.yul\":621:684   */\n  tag_23\n  jumpi\n    /* \"#utility.yul\":680:681   */\n  0x00\n    /* \"#utility.yul\":677:678   */\n  0x00\n    /* \"#utility.yul\":670:682   */\n  revert\n    /* \"#utility.yul\":621:684   */\ntag_23:\n    /* \"#utility.yul\":568:690   */\n  pop\n  jump\t// out\n    /* \"#utility.yul\":696:839   */\ntag_13:\n    /* \"#utility.yul\":753:758   */\n  0x00\n    /* \"#utility.yul\":784:790   */\n  dup2\n    /* \"#utility.yul\":778:791   */\n  mload\n    /* \"#utility.yul\":769:791   */\n  swap1\n  pop\n    /* \"#utility.yul\":800:833   */\n  tag_25\n    /* \"#utility.yul\":827:832   */\n  dup2\n    /* \"#utility.yul\":800:833   */\n  tag_12\n  jump\t// in\ntag_25:\n    /* \"#utility.yul\":696:839   */\n  swap3\n  swap2\n  pop\n  pop\n  jump\t// out\n    /* \"#utility.yul\":845:1665   */\ntag_3:\n    /* \"#utility.yul\":942:948   */\n  0x00\n    /* \"#utility.yul\":950:956   */\n  0x00\n    /* \"#utility.yul\":958:964   */\n  0x00\n    /* \"#utility.yul\":966:972   */\n  0x00\n    /* \"#utility.yul\":1015:1018   */\n  0x80\n    /* \"#utility.yul\":1003:1012   */\n  dup6\n    /* \"#utility.yul\":994:1001   */\n  dup8\n    /* \"#utility.yul\":990:1013   */\n  sub\n    /* \"#utility.yul\":986:1019   */\n  slt\n    /* \"#utility.yul\":983:1103   */\n  iszero\n  tag_27\n  jumpi\n    /* \"#utility.yul\":1022:1101   */\n  tag_28\n  tag_8\n  jump\t// in\ntag_28:\n    /* \"#utility.yul\":983:1103   */\ntag_27:\n    /* \"#utility.yul\":1142:1143   */\n  0x00\n    /* \"#utility.yul\":1167:1231   */\n  tag_29\n    /* \"#utility.yul\":1223:1230   */\n  dup8\n    /* \"#utility.yul\":1214:1220   */\n  dup3\n    /* \"#utility.yul\":1203:1212   */\n  dup9\n    /* \"#utility.yul\":1199:1221   */\n  add\n    /* \"#utility.yul\":1167:1231   */\n  tag_13\n  jump\t// in\ntag_29:\n    /* \"#utility.yul\":1157:1231   */\n  swap5\n  pop\n    /* \"#utility.yul\":1113:1241   */\n  pop\n    /* \"#utility.yul\":1280:1282   */\n  0x20\n    /* \"#utility.yul\":1306:1370   */\n  tag_30\n    /* \"#utility.yul\":1362:1369   */\n  dup8\n    /* \"#utility.yul\":1353:1359   */\n  dup3\n    /* \"#utility.yul\":1342:1351   */\n  dup9\n    /* \"#utility.yul\":1338:1360   */\n  add\n    /* \"#utility.yul\":1306:1370   */\n  tag_13\n  jump\t// in\ntag_30:\n    /* \"#utility.yul\":1296:1370   */\n  swap4\n  pop\n    /* \"#utility.yul\":1251:1380   */\n  pop\n    /* \"#utility.yul\":1419:1421   */\n  0x40\n    /* \"#utility.yul\":1445:1509   */\n  tag_31\n    /* \"#utility.yul\":1501:1508   */\n  dup8\n    /* \"#utility.yul\":1492:1498   */\n  dup3\n    /* \"#utility.yul\":1481:1490   */\n  dup9\n    /* \"#utility.yul\":1477:1499   */\n  add\n    /* \"#utility.yul\":1445:1509   */\n  tag_13\n  jump\t// in\ntag_31:\n    /* \"#utility.yul\":1435:1509   */\n  swap3\n  pop\n    /* \"#utility.yul\":1390:1519   */\n  pop\n    /* \"#utility.yul\":1558:1560   */\n  0x60\n    /* \"#utility.yul\":1584:1648   */\n  tag_32\n    /* \"#utility.yul\":1640:1647   */\n  dup8\n    /* \"#utility.yul\":1631:1637   */\n  dup3\n    /* \"#utility.yul\":1620:1629   */\n  dup9\n    /* \"#utility.yul\":1616:1638   */\n  add\n    /* \"#utility.yul\":1584:1648   */\n  tag_13\n  jump\t// in\ntag_32:\n    /* \"#utility.yul\":1574:1648   */\n  swap2\n  pop\n    /* \"#utility.yul\":1529:1658   */\n  pop\n    /* \"#utility.yul\":845:1665   */\n  swap3\n  swap6\n  swap2\n  swap5\n  pop\n  swap3\n  pop\n  jump\t// out\n    /* \"contracts/withdrawDeposit.sol\":1138:9817  contract P2PLending is LendingBase {... */\ntag_6:\n  mload(0x80)\n  mload(0xa0)\n  mload(0xc0)\n  mload(0xe0)\n  codecopy(0x00, dataOffset(sub_0), dataSize(sub_0))\n  0x00\n  assignImmutable(\"0x56fd040903fcc2e59c9b9f09df6ca51a830f066826ddedecdd2eb17dc3f3f289\")\n  0x00\n  assignImmutable(\"0x5b9d82bdb7ae056a203cf64bdf26f3fdec584cdfaca2ac8b4c3d0c5b66e90969\")\n  0x00\n  assignImmutable(\"0xaf057546d61dd28804ca035e688a36db5f311bb8c4c9d2e1e5e44c0555cfe3bf\")\n  0x00\n  assignImmutable(\"0x5ad0f966e4dd8863f27c0e6ee7d684c0c8f4319efed210fe15662a0d29bcd615\")\n  return(0x00, dataSize(sub_0))\nstop\n\nsub_0: assembly {\n        /* \"contracts/withdrawDeposit.sol\":1138:9817  contract P2PLending is LendingBase {... */\n      mstore(0x40, 0x80)\n      jumpi(tag_1, lt(calldatasize, 0x04))\n      shr(0xe0, calldataload(0x00))\n      dup1\n      0xab7b1c89\n      gt\n      tag_21\n      jumpi\n      dup1\n      0xccdd9f5d\n      gt\n      tag_22\n      jumpi\n      dup1\n      0xccdd9f5d\n      eq\n      tag_16\n      jumpi\n      dup1\n      0xce63094d\n      eq\n      tag_17\n      jumpi\n      dup1\n      0xceba1794\n      eq\n      tag_18\n      jumpi\n      dup1\n      0xd14a3321\n      eq\n      tag_19\n      jumpi\n      dup1\n      0xe1ec3c68\n      eq\n      tag_20\n      jumpi\n      jump(tag_2)\n    tag_22:\n      dup1\n      0xab7b1c89\n      eq\n      tag_12\n      jumpi\n      dup1\n      0xad5c4648\n      eq\n      tag_13\n      jumpi\n      dup1\n      0xc54e44eb\n      eq\n      tag_14\n      jumpi\n      dup1\n      0xc918efec\n      eq\n      tag_15\n      jumpi\n      jump(tag_2)\n    tag_21:\n      dup1\n      0x4dede3de\n      gt\n      tag_23\n      jumpi\n      dup1\n      0x4dede3de\n      eq\n      tag_7\n      jumpi\n      dup1\n      0x846b909a\n      eq\n      tag_8\n      jumpi\n      dup1\n      0x89a30271\n      eq\n      tag_9\n      jumpi\n      dup1\n      0x96fa212f\n      eq\n      tag_10\n      jumpi\n      dup1\n      0x9b9a7966\n      eq\n      tag_11\n      jumpi\n      jump(tag_2)\n    tag_23:\n      dup1\n      0x034cc760\n      eq\n      tag_3\n      jumpi\n      dup1\n      0x0714012c\n      eq\n      tag_4\n      jumpi\n      dup1\n      0x204120bc\n      eq\n      tag_5\n      jumpi\n      dup1\n      0x34855d14\n      eq\n      tag_6\n      jumpi\n      jump(tag_2)\n    tag_1:\n      jumpi(tag_2, calldatasize)\n      stop\n    tag_2:\n      revert(0x00, 0x00)\n        /* \"contracts/withdrawDeposit.sol\":3892:4491  function calculateCollateralAmount(... */\n    tag_3:\n      callvalue\n      dup1\n      iszero\n      tag_26\n      jumpi\n      revert(0x00, 0x00)\n    tag_26:\n      pop\n      tag_27\n      0x04\n      dup1\n      calldatasize\n      sub\n      dup2\n      add\n      swap1\n      tag_28\n      swap2\n      swap1\n      tag_29\n      jump\t// in\n    tag_28:\n      tag_30\n      jump\t// in\n    tag_27:\n      mload(0x40)\n      tag_31\n      swap2\n      swap1\n      tag_32\n      jump\t// in\n    tag_31:\n      mload(0x40)\n      dup1\n      swap2\n      sub\n      swap1\n      return\n        /* \"contracts/withdrawDeposit.sol\":8944:9780  function getLoanInfo(uint _loanId)... */\n    tag_4:\n      callvalue\n      dup1\n      iszero\n      tag_33\n      jumpi\n      revert(0x00, 0x00)\n    tag_33:\n      pop\n      tag_34\n      0x04\n      dup1\n      calldatasize\n      sub\n      dup2\n      add\n      swap1\n      tag_35\n      swap2\n      swap1\n      tag_36\n      jump\t// in\n    tag_35:\n      tag_37\n      jump\t// in\n    tag_34:\n      mload(0x40)\n      tag_38\n      swap12\n      swap11\n      swap10\n      swap9\n      swap8\n      swap7\n      swap6\n      swap5\n      swap4\n      swap3\n      swap2\n      swap1\n      tag_39\n      jump\t// in\n    tag_38:\n      mload(0x40)\n      dup1\n      swap2\n      sub\n      swap1\n      return\n        /* \"contracts/withdrawDeposit.sol\":2235:2281  mapping(address => uint256) public tokenPrices */\n    tag_5:\n      callvalue\n      dup1\n      iszero\n      tag_40\n      jumpi\n      revert(0x00, 0x00)\n    tag_40:\n      pop\n      tag_41\n      0x04\n      dup1\n      calldatasize\n      sub\n      dup2\n      add\n      swap1\n      tag_42\n      swap2\n      swap1\n      tag_43\n      jump\t// in\n    tag_42:\n      tag_44\n      jump\t// in\n    tag_41:\n      mload(0x40)\n      tag_45\n      swap2\n      swap1\n      tag_32\n      jump\t// in\n    tag_45:\n      mload(0x40)\n      dup1\n      swap2\n      sub\n      swap1\n      return\n        /* \"contracts/withdrawDeposit.sol\":1718:1761  uint public constant MAX_INTEREST_RATE = 10 */\n    tag_6:\n      callvalue\n      dup1\n      iszero\n      tag_46\n      jumpi\n      revert(0x00, 0x00)\n    tag_46:\n      pop\n      tag_47\n      tag_48\n      jump\t// in\n    tag_47:\n      mload(0x40)\n      tag_49\n      swap2\n      swap1\n      tag_32\n      jump\t// in\n    tag_49:\n      mload(0x40)\n      dup1\n      swap2\n      sub\n      swap1\n      return\n        /* \"contracts/withdrawDeposit.sol\":1271:1299  IERC20 public immutable WBTC */\n    tag_7:\n      callvalue\n      dup1\n      iszero\n      tag_50\n      jumpi\n      revert(0x00, 0x00)\n    tag_50:\n      pop\n      tag_51\n      tag_52\n      jump\t// in\n    tag_51:\n      mload(0x40)\n      tag_53\n      swap2\n      swap1\n      tag_54\n      jump\t// in\n    tag_53:\n      mload(0x40)\n      dup1\n      swap2\n      sub\n      swap1\n      return\n        /* \"contracts/withdrawDeposit.sol\":6508:7101  function fundLoan(uint _loanId) external payable onlyActiveLoan(_loanId) {... */\n    tag_8:\n      tag_55\n      0x04\n      dup1\n      calldatasize\n      sub\n      dup2\n      add\n      swap1\n      tag_56\n      swap2\n      swap1\n      tag_36\n      jump\t// in\n    tag_56:\n      tag_57\n      jump\t// in\n    tag_55:\n      stop\n        /* \"contracts/withdrawDeposit.sol\":1203:1231  IERC20 public immutable USDC */\n    tag_9:\n      callvalue\n      dup1\n      iszero\n      tag_58\n      jumpi\n      revert(0x00, 0x00)\n    tag_58:\n      pop\n      tag_59\n      tag_60\n      jump\t// in\n    tag_59:\n      mload(0x40)\n      tag_61\n      swap2\n      swap1\n      tag_54\n      jump\t// in\n    tag_61:\n      mload(0x40)\n      dup1\n      swap2\n      sub\n      swap1\n      return\n        /* \"contracts/withdrawDeposit.sol\":1544:1588  uint public constant MIN_LOAN_AMOUNT = 10000 */\n    tag_10:\n      callvalue\n      dup1\n      iszero\n      tag_62\n      jumpi\n      revert(0x00, 0x00)\n    tag_62:\n      pop\n      tag_63\n      tag_64\n      jump\t// in\n    tag_63:\n      mload(0x40)\n      tag_65\n      swap2\n      swap1\n      tag_32\n      jump\t// in\n    tag_65:\n      mload(0x40)\n      dup1\n      swap2\n      sub\n      swap1\n      return\n        /* \"contracts/withdrawDeposit.sol\":1410:1461  mapping(address => uint256) public collateralRatios */\n    tag_11:\n      callvalue\n      dup1\n      iszero\n      tag_66\n      jumpi\n      revert(0x00, 0x00)\n    tag_66:\n      pop\n      tag_67\n      0x04\n      dup1\n      calldatasize\n      sub\n      dup2\n      add\n      swap1\n      tag_68\n      swap2\n      swap1\n      tag_43\n      jump\t// in\n    tag_68:\n      tag_69\n      jump\t// in\n    tag_67:\n      mload(0x40)\n      tag_70\n      swap2\n      swap1\n      tag_32\n      jump\t// in\n    tag_70:\n      mload(0x40)\n      dup1\n      swap2\n      sub\n      swap1\n      return\n        /* \"contracts/withdrawDeposit.sol\":7107:8047  function repayLoan(uint _loanId) external payable onlyBorrower(_loanId) {... */\n    tag_12:\n      tag_71\n      0x04\n      dup1\n      calldatasize\n      sub\n      dup2\n      add\n      swap1\n      tag_72\n      swap2\n      swap1\n      tag_36\n      jump\t// in\n    tag_72:\n      tag_73\n      jump\t// in\n    tag_71:\n      stop\n        /* \"contracts/withdrawDeposit.sol\":1305:1332  IWETH public immutable WETH */\n    tag_13:\n      callvalue\n      dup1\n      iszero\n      tag_74\n      jumpi\n      revert(0x00, 0x00)\n    tag_74:\n      pop\n      tag_75\n      tag_76\n      jump\t// in\n    tag_75:\n      mload(0x40)\n      tag_77\n      swap2\n      swap1\n      tag_78\n      jump\t// in\n    tag_77:\n      mload(0x40)\n      dup1\n      swap2\n      sub\n      swap1\n      return\n        /* \"contracts/withdrawDeposit.sol\":1237:1265  IERC20 public immutable USDT */\n    tag_14:\n      callvalue\n      dup1\n      iszero\n      tag_79\n      jumpi\n      revert(0x00, 0x00)\n    tag_79:\n      pop\n      tag_80\n      tag_81\n      jump\t// in\n    tag_80:\n      mload(0x40)\n      tag_82\n      swap2\n      swap1\n      tag_54\n      jump\t// in\n    tag_82:\n      mload(0x40)\n      dup1\n      swap2\n      sub\n      swap1\n      return\n        /* \"contracts/withdrawDeposit.sol\":1670:1712  uint public constant MIN_INTEREST_RATE = 1 */\n    tag_15:\n      callvalue\n      dup1\n      iszero\n      tag_83\n      jumpi\n      revert(0x00, 0x00)\n    tag_83:\n      pop\n      tag_84\n      tag_85\n      jump\t// in\n    tag_84:\n      mload(0x40)\n      tag_86\n      swap2\n      swap1\n      tag_32\n      jump\t// in\n    tag_86:\n      mload(0x40)\n      dup1\n      swap2\n      sub\n      swap1\n      return\n        /* \"contracts/withdrawDeposit.sol\":8053:8878  function liquidateLoan(uint _loanId) external {... */\n    tag_16:\n      callvalue\n      dup1\n      iszero\n      tag_87\n      jumpi\n      revert(0x00, 0x00)\n    tag_87:\n      pop\n      tag_88\n      0x04\n      dup1\n      calldatasize\n      sub\n      dup2\n      add\n      swap1\n      tag_89\n      swap2\n      swap1\n      tag_36\n      jump\t// in\n    tag_89:\n      tag_90\n      jump\t// in\n    tag_88:\n      stop\n        /* \"contracts/withdrawDeposit.sol\":2141:2162  uint public loanCount */\n    tag_17:\n      callvalue\n      dup1\n      iszero\n      tag_91\n      jumpi\n      revert(0x00, 0x00)\n    tag_91:\n      pop\n      tag_92\n      tag_93\n      jump\t// in\n    tag_92:\n      mload(0x40)\n      tag_94\n      swap2\n      swap1\n      tag_32\n      jump\t// in\n    tag_94:\n      mload(0x40)\n      dup1\n      swap2\n      sub\n      swap1\n      return\n        /* \"contracts/withdrawDeposit.sol\":1602:1648  uint public constant MAX_LOAN_AMOUNT = 1000000 */\n    tag_18:\n      callvalue\n      dup1\n      iszero\n      tag_95\n      jumpi\n      revert(0x00, 0x00)\n    tag_95:\n      pop\n      tag_96\n      tag_97\n      jump\t// in\n    tag_96:\n      mload(0x40)\n      tag_98\n      swap2\n      swap1\n      tag_32\n      jump\t// in\n    tag_98:\n      mload(0x40)\n      dup1\n      swap2\n      sub\n      swap1\n      return\n        /* \"contracts/withdrawDeposit.sol\":4497:6502  function createLoan(... */\n    tag_19:\n      tag_99\n      0x04\n      dup1\n      calldatasize\n      sub\n      dup2\n      add\n      swap1\n      tag_100\n      swap2\n      swap1\n      tag_101\n      jump\t// in\n    tag_100:\n      tag_102\n      jump\t// in\n    tag_99:\n      stop\n        /* \"contracts/withdrawDeposit.sol\":2101:2135  mapping(uint => Loan) public loans */\n    tag_20:\n      callvalue\n      dup1\n      iszero\n      tag_103\n      jumpi\n      revert(0x00, 0x00)\n    tag_103:\n      pop\n      tag_104\n      0x04\n      dup1\n      calldatasize\n      sub\n      dup2\n      add\n      swap1\n      tag_105\n      swap2\n      swap1\n      tag_36\n      jump\t// in\n    tag_105:\n      tag_106\n      jump\t// in\n    tag_104:\n      mload(0x40)\n      tag_107\n      swap12\n      swap11\n      swap10\n      swap9\n      swap8\n      swap7\n      swap6\n      swap5\n      swap4\n      swap3\n      swap2\n      swap1\n      tag_108\n      jump\t// in\n    tag_107:\n      mload(0x40)\n      dup1\n      swap2\n      sub\n      swap1\n      return\n        /* \"contracts/withdrawDeposit.sol\":3892:4491  function calculateCollateralAmount(... */\n    tag_30:\n        /* \"contracts/withdrawDeposit.sol\":4023:4030  uint256 */\n      0x00\n        /* \"contracts/withdrawDeposit.sol\":4087:4088  0 */\n      0x00\n        /* \"contracts/withdrawDeposit.sol\":4050:4066  collateralRatios */\n      0x00\n        /* \"contracts/withdrawDeposit.sol\":4050:4084  collateralRatios[_collateralToken] */\n      0x00\n        /* \"contracts/withdrawDeposit.sol\":4067:4083  _collateralToken */\n      dup6\n        /* \"contracts/withdrawDeposit.sol\":4050:4084  collateralRatios[_collateralToken] */\n      0xffffffffffffffffffffffffffffffffffffffff\n      and\n      0xffffffffffffffffffffffffffffffffffffffff\n      and\n      dup2\n      mstore\n      0x20\n      add\n      swap1\n      dup2\n      mstore\n      0x20\n      add\n      0x00\n      keccak256\n      sload\n        /* \"contracts/withdrawDeposit.sol\":4050:4088  collateralRatios[_collateralToken] > 0 */\n      gt\n        /* \"contracts/withdrawDeposit.sol\":4042:4121  require(collateralRatios[_collateralToken] > 0, \"Unsupported collateral token\") */\n      tag_110\n      jumpi\n      mload(0x40)\n      0x08c379a000000000000000000000000000000000000000000000000000000000\n      dup2\n      mstore\n      0x04\n      add\n      tag_111\n      swap1\n      tag_112\n      jump\t// in\n    tag_111:\n      mload(0x40)\n      dup1\n      swap2\n      sub\n      swap1\n      revert\n    tag_110:\n        /* \"contracts/withdrawDeposit.sol\":4140:4158  uint256 tokenPrice */\n      0x00\n        /* \"contracts/withdrawDeposit.sol\":4161:4172  tokenPrices */\n      0x03\n        /* \"contracts/withdrawDeposit.sol\":4161:4190  tokenPrices[_collateralToken] */\n      0x00\n        /* \"contracts/withdrawDeposit.sol\":4173:4189  _collateralToken */\n      dup6\n        /* \"contracts/withdrawDeposit.sol\":4161:4190  tokenPrices[_collateralToken] */\n      0xffffffffffffffffffffffffffffffffffffffff\n      and\n      0xffffffffffffffffffffffffffffffffffffffff\n      and\n      dup2\n      mstore\n      0x20\n      add\n      swap1\n      dup2\n      mstore\n      0x20\n      add\n      0x00\n      keccak256\n      sload\n        /* \"contracts/withdrawDeposit.sol\":4140:4190  uint256 tokenPrice = tokenPrices[_collateralToken] */\n      swap1\n      pop\n        /* \"contracts/withdrawDeposit.sol\":4200:4223  uint256 collateralRatio */\n      0x00\n        /* \"contracts/withdrawDeposit.sol\":4226:4242  collateralRatios */\n      0x00\n        /* \"contracts/withdrawDeposit.sol\":4226:4260  collateralRatios[_collateralToken] */\n      0x00\n        /* \"contracts/withdrawDeposit.sol\":4243:4259  _collateralToken */\n      dup7\n        /* \"contracts/withdrawDeposit.sol\":4226:4260  collateralRatios[_collateralToken] */\n      0xffffffffffffffffffffffffffffffffffffffff\n      and\n      0xffffffffffffffffffffffffffffffffffffffff\n      and\n      dup2\n      mstore\n      0x20\n      add\n      swap1\n      dup2\n      mstore\n      0x20\n      add\n      0x00\n      keccak256\n      sload\n        /* \"contracts/withdrawDeposit.sol\":4200:4260  uint256 collateralRatio = collateralRatios[_collateralToken] */\n      swap1\n      pop\n        /* \"contracts/withdrawDeposit.sol\":4353:4379  uint256 requiredCollateral */\n      0x00\n        /* \"contracts/withdrawDeposit.sol\":4436:4439  100 */\n      0x64\n        /* \"contracts/withdrawDeposit.sol\":4423:4433  tokenPrice */\n      dup4\n        /* \"contracts/withdrawDeposit.sol\":4423:4439  tokenPrice * 100 */\n      tag_113\n      swap2\n      swap1\n      tag_114\n      jump\t// in\n    tag_113:\n        /* \"contracts/withdrawDeposit.sol\":4415:4418  1e8 */\n      0x05f5e100\n        /* \"contracts/withdrawDeposit.sol\":4397:4412  collateralRatio */\n      dup4\n        /* \"contracts/withdrawDeposit.sol\":4383:4394  _loanAmount */\n      dup8\n        /* \"contracts/withdrawDeposit.sol\":4383:4412  _loanAmount * collateralRatio */\n      tag_115\n      swap2\n      swap1\n      tag_114\n      jump\t// in\n    tag_115:\n        /* \"contracts/withdrawDeposit.sol\":4383:4418  _loanAmount * collateralRatio * 1e8 */\n      tag_116\n      swap2\n      swap1\n      tag_114\n      jump\t// in\n    tag_116:\n        /* \"contracts/withdrawDeposit.sol\":4382:4440  (_loanAmount * collateralRatio * 1e8) / (tokenPrice * 100) */\n      tag_117\n      swap2\n      swap1\n      tag_118\n      jump\t// in\n    tag_117:\n        /* \"contracts/withdrawDeposit.sol\":4353:4440  uint256 requiredCollateral = (_loanAmount * collateralRatio * 1e8) / (tokenPrice * 100) */\n      swap1\n      pop\n        /* \"contracts/withdrawDeposit.sol\":4466:4484  requiredCollateral */\n      dup1\n        /* \"contracts/withdrawDeposit.sol\":4459:4484  return requiredCollateral */\n      swap4\n      pop\n      pop\n      pop\n      pop\n        /* \"contracts/withdrawDeposit.sol\":3892:4491  function calculateCollateralAmount(... */\n      swap3\n      swap2\n      pop\n      pop\n      jump\t// out\n        /* \"contracts/withdrawDeposit.sol\":8944:9780  function getLoanInfo(uint _loanId)... */\n    tag_37:\n        /* \"contracts/withdrawDeposit.sol\":9056:9067  uint amount */\n      0x00\n        /* \"contracts/withdrawDeposit.sol\":9081:9094  uint interest */\n      0x00\n        /* \"contracts/withdrawDeposit.sol\":9108:9121  uint duration */\n      0x00\n        /* \"contracts/withdrawDeposit.sol\":9135:9155  uint repaymentAmount */\n      0x00\n        /* \"contracts/withdrawDeposit.sol\":9169:9189  uint fundingDeadline */\n      0x00\n        /* \"contracts/withdrawDeposit.sol\":9203:9219  address borrower */\n      0x00\n        /* \"contracts/withdrawDeposit.sol\":9233:9247  address lender */\n      0x00\n        /* \"contracts/withdrawDeposit.sol\":9261:9272  bool active */\n      0x00\n        /* \"contracts/withdrawDeposit.sol\":9286:9297  bool repaid */\n      0x00\n        /* \"contracts/withdrawDeposit.sol\":9311:9334  address collateralToken */\n      0x00\n        /* \"contracts/withdrawDeposit.sol\":9348:9369  uint collateralAmount */\n      0x00\n        /* \"contracts/withdrawDeposit.sol\":9394:9411  Loan storage loan */\n      0x00\n        /* \"contracts/withdrawDeposit.sol\":9414:9419  loans */\n      0x01\n        /* \"contracts/withdrawDeposit.sol\":9414:9428  loans[_loanId] */\n      0x00\n        /* \"contracts/withdrawDeposit.sol\":9420:9427  _loanId */\n      dup15\n        /* \"contracts/withdrawDeposit.sol\":9414:9428  loans[_loanId] */\n      dup2\n      mstore\n      0x20\n      add\n      swap1\n      dup2\n      mstore\n      0x20\n      add\n      0x00\n      keccak256\n        /* \"contracts/withdrawDeposit.sol\":9394:9428  Loan storage loan = loans[_loanId] */\n      swap1\n      pop\n        /* \"contracts/withdrawDeposit.sol\":9459:9463  loan */\n      dup1\n        /* \"contracts/withdrawDeposit.sol\":9459:9470  loan.amount */\n      0x00\n      add\n      sload\n        /* \"contracts/withdrawDeposit.sol\":9484:9488  loan */\n      dup2\n        /* \"contracts/withdrawDeposit.sol\":9484:9497  loan.interest */\n      0x01\n      add\n      sload\n        /* \"contracts/withdrawDeposit.sol\":9511:9515  loan */\n      dup3\n        /* \"contracts/withdrawDeposit.sol\":9511:9524  loan.duration */\n      0x02\n      add\n      sload\n        /* \"contracts/withdrawDeposit.sol\":9538:9542  loan */\n      dup4\n        /* \"contracts/withdrawDeposit.sol\":9538:9558  loan.repaymentAmount */\n      0x03\n      add\n      sload\n        /* \"contracts/withdrawDeposit.sol\":9572:9576  loan */\n      dup5\n        /* \"contracts/withdrawDeposit.sol\":9572:9592  loan.fundingDeadline */\n      0x04\n      add\n      sload\n        /* \"contracts/withdrawDeposit.sol\":9606:9610  loan */\n      dup6\n        /* \"contracts/withdrawDeposit.sol\":9606:9619  loan.borrower */\n      0x05\n      add\n      0x00\n      swap1\n      sload\n      swap1\n      0x0100\n      exp\n      swap1\n      div\n      0xffffffffffffffffffffffffffffffffffffffff\n      and\n        /* \"contracts/withdrawDeposit.sol\":9633:9637  loan */\n      dup7\n        /* \"contracts/withdrawDeposit.sol\":9633:9644  loan.lender */\n      0x06\n      add\n      0x00\n      swap1\n      sload\n      swap1\n      0x0100\n      exp\n      swap1\n      div\n      0xffffffffffffffffffffffffffffffffffffffff\n      and\n        /* \"contracts/withdrawDeposit.sol\":9658:9662  loan */\n      dup8\n        /* \"contracts/withdrawDeposit.sol\":9658:9669  loan.active */\n      0x06\n      add\n      0x14\n      swap1\n      sload\n      swap1\n      0x0100\n      exp\n      swap1\n      div\n      0xff\n      and\n        /* \"contracts/withdrawDeposit.sol\":9683:9687  loan */\n      dup9\n        /* \"contracts/withdrawDeposit.sol\":9683:9694  loan.repaid */\n      0x06\n      add\n      0x15\n      swap1\n      sload\n      swap1\n      0x0100\n      exp\n      swap1\n      div\n      0xff\n      and\n        /* \"contracts/withdrawDeposit.sol\":9708:9712  loan */\n      dup10\n        /* \"contracts/withdrawDeposit.sol\":9708:9728  loan.collateralToken */\n      0x07\n      add\n      0x00\n      swap1\n      sload\n      swap1\n      0x0100\n      exp\n      swap1\n      div\n      0xffffffffffffffffffffffffffffffffffffffff\n      and\n        /* \"contracts/withdrawDeposit.sol\":9742:9746  loan */\n      dup11\n        /* \"contracts/withdrawDeposit.sol\":9742:9763  loan.collateralAmount */\n      0x08\n      add\n      sload\n        /* \"contracts/withdrawDeposit.sol\":9438:9773  return (... */\n      swap12\n      pop\n      swap12\n      pop\n      swap12\n      pop\n      swap12\n      pop\n      swap12\n      pop\n      swap12\n      pop\n      swap12\n      pop\n      swap12\n      pop\n      swap12\n      pop\n      swap12\n      pop\n      swap12\n      pop\n      pop\n        /* \"contracts/withdrawDeposit.sol\":8944:9780  function getLoanInfo(uint _loanId)... */\n      swap2\n      swap4\n      swap6\n      swap8\n      swap10\n      swap12\n      swap1\n      swap3\n      swap5\n      swap7\n      swap9\n      swap11\n      pop\n      jump\t// out\n        /* \"contracts/withdrawDeposit.sol\":2235:2281  mapping(address => uint256) public tokenPrices */\n    tag_44:\n      mstore(0x20, 0x03)\n      dup1\n      0x00\n      mstore\n      keccak256(0x00, 0x40)\n      0x00\n      swap2\n      pop\n      swap1\n      pop\n      sload\n      dup2\n      jump\t// out\n        /* \"contracts/withdrawDeposit.sol\":1718:1761  uint public constant MAX_INTEREST_RATE = 10 */\n    tag_48:\n        /* \"contracts/withdrawDeposit.sol\":1759:1761  10 */\n      0x0a\n        /* \"contracts/withdrawDeposit.sol\":1718:1761  uint public constant MAX_INTEREST_RATE = 10 */\n      dup2\n      jump\t// out\n        /* \"contracts/withdrawDeposit.sol\":1271:1299  IERC20 public immutable WBTC */\n    tag_52:\n      immutable(\"0x5b9d82bdb7ae056a203cf64bdf26f3fdec584cdfaca2ac8b4c3d0c5b66e90969\")\n      dup2\n      jump\t// out\n        /* \"contracts/withdrawDeposit.sol\":6508:7101  function fundLoan(uint _loanId) external payable onlyActiveLoan(_loanId) {... */\n    tag_57:\n        /* \"contracts/withdrawDeposit.sol\":6572:6579  _loanId */\n      dup1\n        /* \"contracts/withdrawDeposit.sol\":3607:3612  loans */\n      0x01\n        /* \"contracts/withdrawDeposit.sol\":3607:3621  loans[_loanId] */\n      0x00\n        /* \"contracts/withdrawDeposit.sol\":3613:3620  _loanId */\n      dup3\n        /* \"contracts/withdrawDeposit.sol\":3607:3621  loans[_loanId] */\n      dup2\n      mstore\n      0x20\n      add\n      swap1\n      dup2\n      mstore\n      0x20\n      add\n      0x00\n      keccak256\n        /* \"contracts/withdrawDeposit.sol\":3607:3628  loans[_loanId].active */\n      0x06\n      add\n      0x14\n      swap1\n      sload\n      swap1\n      0x0100\n      exp\n      swap1\n      div\n      0xff\n      and\n        /* \"contracts/withdrawDeposit.sol\":3599:3651  require(loans[_loanId].active, \"Loan is not active\") */\n      tag_121\n      jumpi\n      mload(0x40)\n      0x08c379a000000000000000000000000000000000000000000000000000000000\n      dup2\n      mstore\n      0x04\n      add\n      tag_122\n      swap1\n      tag_123\n      jump\t// in\n    tag_122:\n      mload(0x40)\n      dup1\n      swap2\n      sub\n      swap1\n      revert\n    tag_121:\n        /* \"contracts/withdrawDeposit.sol\":6591:6608  Loan storage loan */\n      0x00\n        /* \"contracts/withdrawDeposit.sol\":6611:6616  loans */\n      0x01\n        /* \"contracts/withdrawDeposit.sol\":6611:6625  loans[_loanId] */\n      0x00\n        /* \"contracts/withdrawDeposit.sol\":6617:6624  _loanId */\n      dup5\n        /* \"contracts/withdrawDeposit.sol\":6611:6625  loans[_loanId] */\n      dup2\n      mstore\n      0x20\n      add\n      swap1\n      dup2\n      mstore\n      0x20\n      add\n      0x00\n      keccak256\n        /* \"contracts/withdrawDeposit.sol\":6591:6625  Loan storage loan = loans[_loanId] */\n      swap1\n      pop\n        /* \"contracts/withdrawDeposit.sol\":6657:6661  loan */\n      dup1\n        /* \"contracts/withdrawDeposit.sol\":6657:6670  loan.borrower */\n      0x05\n      add\n      0x00\n      swap1\n      sload\n      swap1\n      0x0100\n      exp\n      swap1\n      div\n      0xffffffffffffffffffffffffffffffffffffffff\n      and\n        /* \"contracts/withdrawDeposit.sol\":6643:6670  msg.sender != loan.borrower */\n      0xffffffffffffffffffffffffffffffffffffffff\n      and\n        /* \"contracts/withdrawDeposit.sol\":6643:6653  msg.sender */\n      caller\n        /* \"contracts/withdrawDeposit.sol\":6643:6670  msg.sender != loan.borrower */\n      0xffffffffffffffffffffffffffffffffffffffff\n      and\n      sub\n        /* \"contracts/withdrawDeposit.sol\":6635:6710  require(msg.sender != loan.borrower, \"Borrower cannot fund their own loan\") */\n      tag_125\n      jumpi\n      mload(0x40)\n      0x08c379a000000000000000000000000000000000000000000000000000000000\n      dup2\n      mstore\n      0x04\n      add\n      tag_126\n      swap1\n      tag_127\n      jump\t// in\n    tag_126:\n      mload(0x40)\n      dup1\n      swap2\n      sub\n      swap1\n      revert\n    tag_125:\n        /* \"contracts/withdrawDeposit.sol\":6741:6745  loan */\n      dup1\n        /* \"contracts/withdrawDeposit.sol\":6741:6752  loan.amount */\n      0x00\n      add\n      sload\n        /* \"contracts/withdrawDeposit.sol\":6728:6737  msg.value */\n      callvalue\n        /* \"contracts/withdrawDeposit.sol\":6728:6752  msg.value == loan.amount */\n      eq\n        /* \"contracts/withdrawDeposit.sol\":6720:6781  require(msg.value == loan.amount, \"Incorrect funding amount\") */\n      tag_128\n      jumpi\n      mload(0x40)\n      0x08c379a000000000000000000000000000000000000000000000000000000000\n      dup2\n      mstore\n      0x04\n      add\n      tag_129\n      swap1\n      tag_130\n      jump\t// in\n    tag_129:\n      mload(0x40)\n      dup1\n      swap2\n      sub\n      swap1\n      revert\n    tag_128:\n        /* \"contracts/withdrawDeposit.sol\":6818:6822  loan */\n      dup1\n        /* \"contracts/withdrawDeposit.sol\":6818:6838  loan.fundingDeadline */\n      0x04\n      add\n      sload\n        /* \"contracts/withdrawDeposit.sol\":6799:6814  block.timestamp */\n      timestamp\n        /* \"contracts/withdrawDeposit.sol\":6799:6838  block.timestamp <= loan.fundingDeadline */\n      gt\n      iszero\n        /* \"contracts/withdrawDeposit.sol\":6791:6866  require(block.timestamp <= loan.fundingDeadline, \"Funding deadline passed\") */\n      tag_131\n      jumpi\n      mload(0x40)\n      0x08c379a000000000000000000000000000000000000000000000000000000000\n      dup2\n      mstore\n      0x04\n      add\n      tag_132\n      swap1\n      tag_133\n      jump\t// in\n    tag_132:\n      mload(0x40)\n      dup1\n      swap2\n      sub\n      swap1\n      revert\n    tag_131:\n        /* \"contracts/withdrawDeposit.sol\":6899:6909  msg.sender */\n      caller\n        /* \"contracts/withdrawDeposit.sol\":6877:6881  loan */\n      dup2\n        /* \"contracts/withdrawDeposit.sol\":6877:6888  loan.lender */\n      0x06\n      add\n      0x00\n        /* \"contracts/withdrawDeposit.sol\":6877:6910  loan.lender = payable(msg.sender) */\n      0x0100\n      exp\n      dup2\n      sload\n      dup2\n      0xffffffffffffffffffffffffffffffffffffffff\n      mul\n      not\n      and\n      swap1\n      dup4\n      0xffffffffffffffffffffffffffffffffffffffff\n      and\n      mul\n      or\n      swap1\n      sstore\n      pop\n        /* \"contracts/withdrawDeposit.sol\":6934:6939  false */\n      0x00\n        /* \"contracts/withdrawDeposit.sol\":6920:6924  loan */\n      dup2\n        /* \"contracts/withdrawDeposit.sol\":6920:6931  loan.active */\n      0x06\n      add\n      0x14\n        /* \"contracts/withdrawDeposit.sol\":6920:6939  loan.active = false */\n      0x0100\n      exp\n      dup2\n      sload\n      dup2\n      0xff\n      mul\n      not\n      and\n      swap1\n      dup4\n      iszero\n      iszero\n      mul\n      or\n      swap1\n      sstore\n      pop\n        /* \"contracts/withdrawDeposit.sol\":7002:7006  loan */\n      dup1\n        /* \"contracts/withdrawDeposit.sol\":7002:7015  loan.borrower */\n      0x05\n      add\n      0x00\n      swap1\n      sload\n      swap1\n      0x0100\n      exp\n      swap1\n      div\n      0xffffffffffffffffffffffffffffffffffffffff\n      and\n        /* \"contracts/withdrawDeposit.sol\":6994:7025  payable(loan.borrower).transfer */\n      0xffffffffffffffffffffffffffffffffffffffff\n      and\n        /* \"contracts/withdrawDeposit.sol\":6994:7036  payable(loan.borrower).transfer(msg.value) */\n      0x08fc\n        /* \"contracts/withdrawDeposit.sol\":7026:7035  msg.value */\n      callvalue\n        /* \"contracts/withdrawDeposit.sol\":6994:7036  payable(loan.borrower).transfer(msg.value) */\n      swap1\n      dup2\n      iszero\n      mul\n      swap1\n      mload(0x40)\n      0x00\n      mload(0x40)\n      dup1\n      dup4\n      sub\n      dup2\n      dup6\n      dup9\n      dup9\n      call\n      swap4\n      pop\n      pop\n      pop\n      pop\n      iszero\n      dup1\n      iszero\n      tag_135\n      jumpi\n      returndatacopy(0x00, 0x00, returndatasize)\n      revert(0x00, returndatasize)\n    tag_135:\n      pop\n        /* \"contracts/withdrawDeposit.sol\":7052:7094  LoanFunded(_loanId, msg.sender, msg.value) */\n      0xbd7ef6c6281278f6c8ac4ae9ef2f205b52425813c288dd47c377cb6b59c5076e\n        /* \"contracts/withdrawDeposit.sol\":7063:7070  _loanId */\n      dup4\n        /* \"contracts/withdrawDeposit.sol\":7072:7082  msg.sender */\n      caller\n        /* \"contracts/withdrawDeposit.sol\":7084:7093  msg.value */\n      callvalue\n        /* \"contracts/withdrawDeposit.sol\":7052:7094  LoanFunded(_loanId, msg.sender, msg.value) */\n      mload(0x40)\n      tag_136\n      swap4\n      swap3\n      swap2\n      swap1\n      tag_137\n      jump\t// in\n    tag_136:\n      mload(0x40)\n      dup1\n      swap2\n      sub\n      swap1\n      log1\n        /* \"contracts/withdrawDeposit.sol\":6581:7101  {... */\n      pop\n        /* \"contracts/withdrawDeposit.sol\":6508:7101  function fundLoan(uint _loanId) external payable onlyActiveLoan(_loanId) {... */\n      pop\n      pop\n      jump\t// out\n        /* \"contracts/withdrawDeposit.sol\":1203:1231  IERC20 public immutable USDC */\n    tag_60:\n      immutable(\"0x5ad0f966e4dd8863f27c0e6ee7d684c0c8f4319efed210fe15662a0d29bcd615\")\n      dup2\n      jump\t// out\n        /* \"contracts/withdrawDeposit.sol\":1544:1588  uint public constant MIN_LOAN_AMOUNT = 10000 */\n    tag_64:\n        /* \"contracts/withdrawDeposit.sol\":1583:1588  10000 */\n      0x2710\n        /* \"contracts/withdrawDeposit.sol\":1544:1588  uint public constant MIN_LOAN_AMOUNT = 10000 */\n      dup2\n      jump\t// out\n        /* \"contracts/withdrawDeposit.sol\":1410:1461  mapping(address => uint256) public collateralRatios */\n    tag_69:\n      mstore(0x20, 0x00)\n      dup1\n      0x00\n      mstore\n      keccak256(0x00, 0x40)\n      0x00\n      swap2\n      pop\n      swap1\n      pop\n      sload\n      dup2\n      jump\t// out\n        /* \"contracts/withdrawDeposit.sol\":7107:8047  function repayLoan(uint _loanId) external payable onlyBorrower(_loanId) {... */\n    tag_73:\n        /* \"contracts/withdrawDeposit.sol\":7170:7177  _loanId */\n      dup1\n        /* \"contracts/withdrawDeposit.sol\":3743:3748  loans */\n      0x01\n        /* \"contracts/withdrawDeposit.sol\":3743:3757  loans[_loanId] */\n      0x00\n        /* \"contracts/withdrawDeposit.sol\":3749:3756  _loanId */\n      dup3\n        /* \"contracts/withdrawDeposit.sol\":3743:3757  loans[_loanId] */\n      dup2\n      mstore\n      0x20\n      add\n      swap1\n      dup2\n      mstore\n      0x20\n      add\n      0x00\n      keccak256\n        /* \"contracts/withdrawDeposit.sol\":3743:3766  loans[_loanId].borrower */\n      0x05\n      add\n      0x00\n      swap1\n      sload\n      swap1\n      0x0100\n      exp\n      swap1\n      div\n      0xffffffffffffffffffffffffffffffffffffffff\n      and\n        /* \"contracts/withdrawDeposit.sol\":3729:3766  msg.sender == loans[_loanId].borrower */\n      0xffffffffffffffffffffffffffffffffffffffff\n      and\n        /* \"contracts/withdrawDeposit.sol\":3729:3739  msg.sender */\n      caller\n        /* \"contracts/withdrawDeposit.sol\":3729:3766  msg.sender == loans[_loanId].borrower */\n      0xffffffffffffffffffffffffffffffffffffffff\n      and\n      eq\n        /* \"contracts/withdrawDeposit.sol\":3721:3808  require(msg.sender == loans[_loanId].borrower, \"Only borrower can perform this action\") */\n      tag_139\n      jumpi\n      mload(0x40)\n      0x08c379a000000000000000000000000000000000000000000000000000000000\n      dup2\n      mstore\n      0x04\n      add\n      tag_140\n      swap1\n      tag_141\n      jump\t// in\n    tag_140:\n      mload(0x40)\n      dup1\n      swap2\n      sub\n      swap1\n      revert\n    tag_139:\n        /* \"contracts/withdrawDeposit.sol\":7189:7206  Loan storage loan */\n      0x00\n        /* \"contracts/withdrawDeposit.sol\":7209:7214  loans */\n      0x01\n        /* \"contracts/withdrawDeposit.sol\":7209:7223  loans[_loanId] */\n      0x00\n        /* \"contracts/withdrawDeposit.sol\":7215:7222  _loanId */\n      dup5\n        /* \"contracts/withdrawDeposit.sol\":7209:7223  loans[_loanId] */\n      dup2\n      mstore\n      0x20\n      add\n      swap1\n      dup2\n      mstore\n      0x20\n      add\n      0x00\n      keccak256\n        /* \"contracts/withdrawDeposit.sol\":7189:7223  Loan storage loan = loans[_loanId] */\n      swap1\n      pop\n        /* \"contracts/withdrawDeposit.sol\":7242:7246  loan */\n      dup1\n        /* \"contracts/withdrawDeposit.sol\":7242:7253  loan.repaid */\n      0x06\n      add\n      0x15\n      swap1\n      sload\n      swap1\n      0x0100\n      exp\n      swap1\n      div\n      0xff\n      and\n        /* \"contracts/withdrawDeposit.sol\":7241:7253  !loan.repaid */\n      iszero\n        /* \"contracts/withdrawDeposit.sol\":7233:7277  require(!loan.repaid, \"Loan already repaid\") */\n      tag_143\n      jumpi\n      mload(0x40)\n      0x08c379a000000000000000000000000000000000000000000000000000000000\n      dup2\n      mstore\n      0x04\n      add\n      tag_144\n      swap1\n      tag_145\n      jump\t// in\n    tag_144:\n      mload(0x40)\n      dup1\n      swap2\n      sub\n      swap1\n      revert\n    tag_143:\n        /* \"contracts/withdrawDeposit.sol\":7308:7312  loan */\n      dup1\n        /* \"contracts/withdrawDeposit.sol\":7308:7328  loan.repaymentAmount */\n      0x03\n      add\n      sload\n        /* \"contracts/withdrawDeposit.sol\":7295:7304  msg.value */\n      callvalue\n        /* \"contracts/withdrawDeposit.sol\":7295:7328  msg.value == loan.repaymentAmount */\n      eq\n        /* \"contracts/withdrawDeposit.sol\":7287:7359  require(msg.value == loan.repaymentAmount, \"Incorrect repayment amount\") */\n      tag_146\n      jumpi\n      mload(0x40)\n      0x08c379a000000000000000000000000000000000000000000000000000000000\n      dup2\n      mstore\n      0x04\n      add\n      tag_147\n      swap1\n      tag_148\n      jump\t// in\n    tag_147:\n      mload(0x40)\n      dup1\n      swap2\n      sub\n      swap1\n      revert\n    tag_146:\n        /* \"contracts/withdrawDeposit.sol\":7410:7414  loan */\n      dup1\n        /* \"contracts/withdrawDeposit.sol\":7410:7421  loan.lender */\n      0x06\n      add\n      0x00\n      swap1\n      sload\n      swap1\n      0x0100\n      exp\n      swap1\n      div\n      0xffffffffffffffffffffffffffffffffffffffff\n      and\n        /* \"contracts/withdrawDeposit.sol\":7410:7430  loan.lender.transfer */\n      0xffffffffffffffffffffffffffffffffffffffff\n      and\n        /* \"contracts/withdrawDeposit.sol\":7410:7441  loan.lender.transfer(msg.value) */\n      0x08fc\n        /* \"contracts/withdrawDeposit.sol\":7431:7440  msg.value */\n      callvalue\n        /* \"contracts/withdrawDeposit.sol\":7410:7441  loan.lender.transfer(msg.value) */\n      swap1\n      dup2\n      iszero\n      mul\n      swap1\n      mload(0x40)\n      0x00\n      mload(0x40)\n      dup1\n      dup4\n      sub\n      dup2\n      dup6\n      dup9\n      dup9\n      call\n      swap4\n      pop\n      pop\n      pop\n      pop\n      iszero\n      dup1\n      iszero\n      tag_150\n      jumpi\n      returndatacopy(0x00, 0x00, returndatasize)\n      revert(0x00, returndatasize)\n    tag_150:\n      pop\n        /* \"contracts/withdrawDeposit.sol\":7525:7529  WETH */\n      immutable(\"0x56fd040903fcc2e59c9b9f09df6ca51a830f066826ddedecdd2eb17dc3f3f289\")\n        /* \"contracts/withdrawDeposit.sol\":7493:7530  loan.collateralToken == address(WETH) */\n      0xffffffffffffffffffffffffffffffffffffffff\n      and\n        /* \"contracts/withdrawDeposit.sol\":7493:7497  loan */\n      dup2\n        /* \"contracts/withdrawDeposit.sol\":7493:7513  loan.collateralToken */\n      0x07\n      add\n      0x00\n      swap1\n      sload\n      swap1\n      0x0100\n      exp\n      swap1\n      div\n      0xffffffffffffffffffffffffffffffffffffffff\n      and\n        /* \"contracts/withdrawDeposit.sol\":7493:7530  loan.collateralToken == address(WETH) */\n      0xffffffffffffffffffffffffffffffffffffffff\n      and\n      sub\n        /* \"contracts/withdrawDeposit.sol\":7489:7850  if (loan.collateralToken == address(WETH)) {... */\n      tag_151\n      jumpi\n        /* \"contracts/withdrawDeposit.sol\":7546:7550  WETH */\n      immutable(\"0x56fd040903fcc2e59c9b9f09df6ca51a830f066826ddedecdd2eb17dc3f3f289\")\n        /* \"contracts/withdrawDeposit.sol\":7546:7559  WETH.withdraw */\n      0xffffffffffffffffffffffffffffffffffffffff\n      and\n      0x2e1a7d4d\n        /* \"contracts/withdrawDeposit.sol\":7560:7564  loan */\n      dup3\n        /* \"contracts/withdrawDeposit.sol\":7560:7581  loan.collateralAmount */\n      0x08\n      add\n      sload\n        /* \"contracts/withdrawDeposit.sol\":7546:7582  WETH.withdraw(loan.collateralAmount) */\n      mload(0x40)\n      dup3\n      0xffffffff\n      and\n      0xe0\n      shl\n      dup2\n      mstore\n      0x04\n      add\n      tag_152\n      swap2\n      swap1\n      tag_32\n      jump\t// in\n    tag_152:\n      0x00\n      mload(0x40)\n      dup1\n      dup4\n      sub\n      dup2\n      0x00\n      dup8\n      dup1\n      extcodesize\n      iszero\n      dup1\n      iszero\n      tag_153\n      jumpi\n      revert(0x00, 0x00)\n    tag_153:\n      pop\n      gas\n      call\n      iszero\n      dup1\n      iszero\n      tag_155\n      jumpi\n      returndatacopy(0x00, 0x00, returndatasize)\n      revert(0x00, returndatasize)\n    tag_155:\n      pop\n      pop\n      pop\n      pop\n        /* \"contracts/withdrawDeposit.sol\":7604:7608  loan */\n      dup1\n        /* \"contracts/withdrawDeposit.sol\":7604:7617  loan.borrower */\n      0x05\n      add\n      0x00\n      swap1\n      sload\n      swap1\n      0x0100\n      exp\n      swap1\n      div\n      0xffffffffffffffffffffffffffffffffffffffff\n      and\n        /* \"contracts/withdrawDeposit.sol\":7596:7627  payable(loan.borrower).transfer */\n      0xffffffffffffffffffffffffffffffffffffffff\n      and\n        /* \"contracts/withdrawDeposit.sol\":7596:7650  payable(loan.borrower).transfer(loan.collateralAmount) */\n      0x08fc\n        /* \"contracts/withdrawDeposit.sol\":7628:7632  loan */\n      dup3\n        /* \"contracts/withdrawDeposit.sol\":7628:7649  loan.collateralAmount */\n      0x08\n      add\n      sload\n        /* \"contracts/withdrawDeposit.sol\":7596:7650  payable(loan.borrower).transfer(loan.collateralAmount) */\n      swap1\n      dup2\n      iszero\n      mul\n      swap1\n      mload(0x40)\n      0x00\n      mload(0x40)\n      dup1\n      dup4\n      sub\n      dup2\n      dup6\n      dup9\n      dup9\n      call\n      swap4\n      pop\n      pop\n      pop\n      pop\n      iszero\n      dup1\n      iszero\n      tag_157\n      jumpi\n      returndatacopy(0x00, 0x00, returndatasize)\n      revert(0x00, returndatasize)\n    tag_157:\n      pop\n        /* \"contracts/withdrawDeposit.sol\":7489:7850  if (loan.collateralToken == address(WETH)) {... */\n      jump(tag_158)\n    tag_151:\n        /* \"contracts/withdrawDeposit.sol\":7713:7717  loan */\n      dup1\n        /* \"contracts/withdrawDeposit.sol\":7713:7733  loan.collateralToken */\n      0x07\n      add\n      0x00\n      swap1\n      sload\n      swap1\n      0x0100\n      exp\n      swap1\n      div\n      0xffffffffffffffffffffffffffffffffffffffff\n      and\n        /* \"contracts/withdrawDeposit.sol\":7706:7743  IERC20(loan.collateralToken).transfer */\n      0xffffffffffffffffffffffffffffffffffffffff\n      and\n      0xa9059cbb\n        /* \"contracts/withdrawDeposit.sol\":7744:7748  loan */\n      dup3\n        /* \"contracts/withdrawDeposit.sol\":7744:7757  loan.borrower */\n      0x05\n      add\n      0x00\n      swap1\n      sload\n      swap1\n      0x0100\n      exp\n      swap1\n      div\n      0xffffffffffffffffffffffffffffffffffffffff\n      and\n        /* \"contracts/withdrawDeposit.sol\":7759:7763  loan */\n      dup4\n        /* \"contracts/withdrawDeposit.sol\":7759:7780  loan.collateralAmount */\n      0x08\n      add\n      sload\n        /* \"contracts/withdrawDeposit.sol\":7706:7781  IERC20(loan.collateralToken).transfer(loan.borrower, loan.collateralAmount) */\n      mload(0x40)\n      dup4\n      0xffffffff\n      and\n      0xe0\n      shl\n      dup2\n      mstore\n      0x04\n      add\n      tag_159\n      swap3\n      swap2\n      swap1\n      tag_160\n      jump\t// in\n    tag_159:\n      0x20\n      mload(0x40)\n      dup1\n      dup4\n      sub\n      dup2\n      0x00\n      dup8\n      gas\n      call\n      iszero\n      dup1\n      iszero\n      tag_162\n      jumpi\n      returndatacopy(0x00, 0x00, returndatasize)\n      revert(0x00, returndatasize)\n    tag_162:\n      pop\n      pop\n      pop\n      pop\n      mload(0x40)\n      returndatasize\n      not(0x1f)\n      0x1f\n      dup3\n      add\n      and\n      dup3\n      add\n      dup1\n      0x40\n      mstore\n      pop\n      dup2\n      add\n      swap1\n      tag_163\n      swap2\n      swap1\n      tag_164\n      jump\t// in\n    tag_163:\n        /* \"contracts/withdrawDeposit.sol\":7681:7839  require(... */\n      tag_165\n      jumpi\n      mload(0x40)\n      0x08c379a000000000000000000000000000000000000000000000000000000000\n      dup2\n      mstore\n      0x04\n      add\n      tag_166\n      swap1\n      tag_167\n      jump\t// in\n    tag_166:\n      mload(0x40)\n      dup1\n      swap2\n      sub\n      swap1\n      revert\n    tag_165:\n        /* \"contracts/withdrawDeposit.sol\":7489:7850  if (loan.collateralToken == address(WETH)) {... */\n    tag_158:\n        /* \"contracts/withdrawDeposit.sol\":7874:7878  true */\n      0x01\n        /* \"contracts/withdrawDeposit.sol\":7860:7864  loan */\n      dup2\n        /* \"contracts/withdrawDeposit.sol\":7860:7871  loan.repaid */\n      0x06\n      add\n      0x15\n        /* \"contracts/withdrawDeposit.sol\":7860:7878  loan.repaid = true */\n      0x0100\n      exp\n      dup2\n      sload\n      dup2\n      0xff\n      mul\n      not\n      and\n      swap1\n      dup4\n      iszero\n      iszero\n      mul\n      or\n      swap1\n      sstore\n      pop\n        /* \"contracts/withdrawDeposit.sol\":7902:7907  false */\n      0x00\n        /* \"contracts/withdrawDeposit.sol\":7888:7892  loan */\n      dup2\n        /* \"contracts/withdrawDeposit.sol\":7888:7899  loan.active */\n      0x06\n      add\n      0x14\n        /* \"contracts/withdrawDeposit.sol\":7888:7907  loan.active = false */\n      0x0100\n      exp\n      dup2\n      sload\n      dup2\n      0xff\n      mul\n      not\n      and\n      swap1\n      dup4\n      iszero\n      iszero\n      mul\n      or\n      swap1\n      sstore\n      pop\n        /* \"contracts/withdrawDeposit.sol\":7923:7953  LoanRepaid(_loanId, msg.value) */\n      0x040cee90ee4799897c30ca04e5feb6fa43dbba9b6d084b4b257cdafd84ba013e\n        /* \"contracts/withdrawDeposit.sol\":7934:7941  _loanId */\n      dup4\n        /* \"contracts/withdrawDeposit.sol\":7943:7952  msg.value */\n      callvalue\n        /* \"contracts/withdrawDeposit.sol\":7923:7953  LoanRepaid(_loanId, msg.value) */\n      mload(0x40)\n      tag_168\n      swap3\n      swap2\n      swap1\n      tag_169\n      jump\t// in\n    tag_168:\n      mload(0x40)\n      dup1\n      swap2\n      sub\n      swap1\n      log1\n        /* \"contracts/withdrawDeposit.sol\":7968:8040  CollateralReturned(_loanId, loan.collateralToken, loan.collateralAmount) */\n      0x83f3d3d0a8132e9bf23ae6cde659d5f3963a6973816e144f05bfccef184279\n        /* \"contracts/withdrawDeposit.sol\":7987:7994  _loanId */\n      dup4\n        /* \"contracts/withdrawDeposit.sol\":7996:8000  loan */\n      dup3\n        /* \"contracts/withdrawDeposit.sol\":7996:8016  loan.collateralToken */\n      0x07\n      add\n      0x00\n      swap1\n      sload\n      swap1\n      0x0100\n      exp\n      swap1\n      div\n      0xffffffffffffffffffffffffffffffffffffffff\n      and\n        /* \"contracts/withdrawDeposit.sol\":8018:8022  loan */\n      dup4\n        /* \"contracts/withdrawDeposit.sol\":8018:8039  loan.collateralAmount */\n      0x08\n      add\n      sload\n        /* \"contracts/withdrawDeposit.sol\":7968:8040  CollateralReturned(_loanId, loan.collateralToken, loan.collateralAmount) */\n      mload(0x40)\n      tag_170\n      swap4\n      swap3\n      swap2\n      swap1\n      tag_137\n      jump\t// in\n    tag_170:\n      mload(0x40)\n      dup1\n      swap2\n      sub\n      swap1\n      log1\n        /* \"contracts/withdrawDeposit.sol\":7179:8047  {... */\n      pop\n        /* \"contracts/withdrawDeposit.sol\":7107:8047  function repayLoan(uint _loanId) external payable onlyBorrower(_loanId) {... */\n      pop\n      pop\n      jump\t// out\n        /* \"contracts/withdrawDeposit.sol\":1305:1332  IWETH public immutable WETH */\n    tag_76:\n      immutable(\"0x56fd040903fcc2e59c9b9f09df6ca51a830f066826ddedecdd2eb17dc3f3f289\")\n      dup2\n      jump\t// out\n        /* \"contracts/withdrawDeposit.sol\":1237:1265  IERC20 public immutable USDT */\n    tag_81:\n      immutable(\"0xaf057546d61dd28804ca035e688a36db5f311bb8c4c9d2e1e5e44c0555cfe3bf\")\n      dup2\n      jump\t// out\n        /* \"contracts/withdrawDeposit.sol\":1670:1712  uint public constant MIN_INTEREST_RATE = 1 */\n    tag_85:\n        /* \"contracts/withdrawDeposit.sol\":1711:1712  1 */\n      0x01\n        /* \"contracts/withdrawDeposit.sol\":1670:1712  uint public constant MIN_INTEREST_RATE = 1 */\n      dup2\n      jump\t// out\n        /* \"contracts/withdrawDeposit.sol\":8053:8878  function liquidateLoan(uint _loanId) external {... */\n    tag_90:\n        /* \"contracts/withdrawDeposit.sol\":8109:8126  Loan storage loan */\n      0x00\n        /* \"contracts/withdrawDeposit.sol\":8129:8134  loans */\n      0x01\n        /* \"contracts/withdrawDeposit.sol\":8129:8143  loans[_loanId] */\n      0x00\n        /* \"contracts/withdrawDeposit.sol\":8135:8142  _loanId */\n      dup4\n        /* \"contracts/withdrawDeposit.sol\":8129:8143  loans[_loanId] */\n      dup2\n      mstore\n      0x20\n      add\n      swap1\n      dup2\n      mstore\n      0x20\n      add\n      0x00\n      keccak256\n        /* \"contracts/withdrawDeposit.sol\":8109:8143  Loan storage loan = loans[_loanId] */\n      swap1\n      pop\n        /* \"contracts/withdrawDeposit.sol\":8161:8165  loan */\n      dup1\n        /* \"contracts/withdrawDeposit.sol\":8161:8172  loan.active */\n      0x06\n      add\n      0x14\n      swap1\n      sload\n      swap1\n      0x0100\n      exp\n      swap1\n      div\n      0xff\n      and\n        /* \"contracts/withdrawDeposit.sol\":8153:8192  require(loan.active, \"Loan not active\") */\n      tag_172\n      jumpi\n      mload(0x40)\n      0x08c379a000000000000000000000000000000000000000000000000000000000\n      dup2\n      mstore\n      0x04\n      add\n      tag_173\n      swap1\n      tag_174\n      jump\t// in\n    tag_173:\n      mload(0x40)\n      dup1\n      swap2\n      sub\n      swap1\n      revert\n    tag_172:\n        /* \"contracts/withdrawDeposit.sol\":8251:8255  loan */\n      dup1\n        /* \"contracts/withdrawDeposit.sol\":8251:8264  loan.duration */\n      0x02\n      add\n      sload\n        /* \"contracts/withdrawDeposit.sol\":8228:8232  loan */\n      dup2\n        /* \"contracts/withdrawDeposit.sol\":8228:8248  loan.fundingDeadline */\n      0x04\n      add\n      sload\n        /* \"contracts/withdrawDeposit.sol\":8228:8264  loan.fundingDeadline + loan.duration */\n      tag_175\n      swap2\n      swap1\n      tag_176\n      jump\t// in\n    tag_175:\n        /* \"contracts/withdrawDeposit.sol\":8210:8225  block.timestamp */\n      timestamp\n        /* \"contracts/withdrawDeposit.sol\":8210:8264  block.timestamp > loan.fundingDeadline + loan.duration */\n      gt\n        /* \"contracts/withdrawDeposit.sol\":8202:8285  require(block.timestamp > loan.fundingDeadline + loan.duration, \"Loan not expired\") */\n      tag_177\n      jumpi\n      mload(0x40)\n      0x08c379a000000000000000000000000000000000000000000000000000000000\n      dup2\n      mstore\n      0x04\n      add\n      tag_178\n      swap1\n      tag_179\n      jump\t// in\n    tag_178:\n      mload(0x40)\n      dup1\n      swap2\n      sub\n      swap1\n      revert\n    tag_177:\n        /* \"contracts/withdrawDeposit.sol\":8304:8308  loan */\n      dup1\n        /* \"contracts/withdrawDeposit.sol\":8304:8315  loan.repaid */\n      0x06\n      add\n      0x15\n      swap1\n      sload\n      swap1\n      0x0100\n      exp\n      swap1\n      div\n      0xff\n      and\n        /* \"contracts/withdrawDeposit.sol\":8303:8315  !loan.repaid */\n      iszero\n        /* \"contracts/withdrawDeposit.sol\":8295:8339  require(!loan.repaid, \"Loan already repaid\") */\n      tag_180\n      jumpi\n      mload(0x40)\n      0x08c379a000000000000000000000000000000000000000000000000000000000\n      dup2\n      mstore\n      0x04\n      add\n      tag_181\n      swap1\n      tag_145\n      jump\t// in\n    tag_181:\n      mload(0x40)\n      dup1\n      swap2\n      sub\n      swap1\n      revert\n    tag_180:\n        /* \"contracts/withdrawDeposit.sol\":8427:8431  WETH */\n      immutable(\"0x56fd040903fcc2e59c9b9f09df6ca51a830f066826ddedecdd2eb17dc3f3f289\")\n        /* \"contracts/withdrawDeposit.sol\":8395:8432  loan.collateralToken == address(WETH) */\n      0xffffffffffffffffffffffffffffffffffffffff\n      and\n        /* \"contracts/withdrawDeposit.sol\":8395:8399  loan */\n      dup2\n        /* \"contracts/withdrawDeposit.sol\":8395:8415  loan.collateralToken */\n      0x07\n      add\n      0x00\n      swap1\n      sload\n      swap1\n      0x0100\n      exp\n      swap1\n      div\n      0xffffffffffffffffffffffffffffffffffffffff\n      and\n        /* \"contracts/withdrawDeposit.sol\":8395:8432  loan.collateralToken == address(WETH) */\n      0xffffffffffffffffffffffffffffffffffffffff\n      and\n      sub\n        /* \"contracts/withdrawDeposit.sol\":8391:8753  if (loan.collateralToken == address(WETH)) {... */\n      tag_182\n      jumpi\n        /* \"contracts/withdrawDeposit.sol\":8448:8452  WETH */\n      immutable(\"0x56fd040903fcc2e59c9b9f09df6ca51a830f066826ddedecdd2eb17dc3f3f289\")\n        /* \"contracts/withdrawDeposit.sol\":8448:8461  WETH.withdraw */\n      0xffffffffffffffffffffffffffffffffffffffff\n      and\n      0x2e1a7d4d\n        /* \"contracts/withdrawDeposit.sol\":8462:8466  loan */\n      dup3\n        /* \"contracts/withdrawDeposit.sol\":8462:8483  loan.collateralAmount */\n      0x08\n      add\n      sload\n        /* \"contracts/withdrawDeposit.sol\":8448:8484  WETH.withdraw(loan.collateralAmount) */\n      mload(0x40)\n      dup3\n      0xffffffff\n      and\n      0xe0\n      shl\n      dup2\n      mstore\n      0x04\n      add\n      tag_183\n      swap2\n      swap1\n      tag_32\n      jump\t// in\n    tag_183:\n      0x00\n      mload(0x40)\n      dup1\n      dup4\n      sub\n      dup2\n      0x00\n      dup8\n      dup1\n      extcodesize\n      iszero\n      dup1\n      iszero\n      tag_184\n      jumpi\n      revert(0x00, 0x00)\n    tag_184:\n      pop\n      gas\n      call\n      iszero\n      dup1\n      iszero\n      tag_186\n      jumpi\n      returndatacopy(0x00, 0x00, returndatasize)\n      revert(0x00, returndatasize)\n    tag_186:\n      pop\n      pop\n      pop\n      pop\n        /* \"contracts/withdrawDeposit.sol\":8506:8510  loan */\n      dup1\n        /* \"contracts/withdrawDeposit.sol\":8506:8517  loan.lender */\n      0x06\n      add\n      0x00\n      swap1\n      sload\n      swap1\n      0x0100\n      exp\n      swap1\n      div\n      0xffffffffffffffffffffffffffffffffffffffff\n      and\n        /* \"contracts/withdrawDeposit.sol\":8498:8527  payable(loan.lender).transfer */\n      0xffffffffffffffffffffffffffffffffffffffff\n      and\n        /* \"contracts/withdrawDeposit.sol\":8498:8550  payable(loan.lender).transfer(loan.collateralAmount) */\n      0x08fc\n        /* \"contracts/withdrawDeposit.sol\":8528:8532  loan */\n      dup3\n        /* \"contracts/withdrawDeposit.sol\":8528:8549  loan.collateralAmount */\n      0x08\n      add\n      sload\n        /* \"contracts/withdrawDeposit.sol\":8498:8550  payable(loan.lender).transfer(loan.collateralAmount) */\n      swap1\n      dup2\n      iszero\n      mul\n      swap1\n      mload(0x40)\n      0x00\n      mload(0x40)\n      dup1\n      dup4\n      sub\n      dup2\n      dup6\n      dup9\n      dup9\n      call\n      swap4\n      pop\n      pop\n      pop\n      pop\n      iszero\n      dup1\n      iszero\n      tag_188\n      jumpi\n      returndatacopy(0x00, 0x00, returndatasize)\n      revert(0x00, returndatasize)\n    tag_188:\n      pop\n        /* \"contracts/withdrawDeposit.sol\":8391:8753  if (loan.collateralToken == address(WETH)) {... */\n      jump(tag_189)\n    tag_182:\n        /* \"contracts/withdrawDeposit.sol\":8613:8617  loan */\n      dup1\n        /* \"contracts/withdrawDeposit.sol\":8613:8633  loan.collateralToken */\n      0x07\n      add\n      0x00\n      swap1\n      sload\n      swap1\n      0x0100\n      exp\n      swap1\n      div\n      0xffffffffffffffffffffffffffffffffffffffff\n      and\n        /* \"contracts/withdrawDeposit.sol\":8606:8643  IERC20(loan.collateralToken).transfer */\n      0xffffffffffffffffffffffffffffffffffffffff\n      and\n      0xa9059cbb\n        /* \"contracts/withdrawDeposit.sol\":8644:8648  loan */\n      dup3\n        /* \"contracts/withdrawDeposit.sol\":8644:8655  loan.lender */\n      0x06\n      add\n      0x00\n      swap1\n      sload\n      swap1\n      0x0100\n      exp\n      swap1\n      div\n      0xffffffffffffffffffffffffffffffffffffffff\n      and\n        /* \"contracts/withdrawDeposit.sol\":8657:8661  loan */\n      dup4\n        /* \"contracts/withdrawDeposit.sol\":8657:8678  loan.collateralAmount */\n      0x08\n      add\n      sload\n        /* \"contracts/withdrawDeposit.sol\":8606:8679  IERC20(loan.collateralToken).transfer(loan.lender, loan.collateralAmount) */\n      mload(0x40)\n      dup4\n      0xffffffff\n      and\n      0xe0\n      shl\n      dup2\n      mstore\n      0x04\n      add\n      tag_190\n      swap3\n      swap2\n      swap1\n      tag_191\n      jump\t// in\n    tag_190:\n      0x20\n      mload(0x40)\n      dup1\n      dup4\n      sub\n      dup2\n      0x00\n      dup8\n      gas\n      call\n      iszero\n      dup1\n      iszero\n      tag_193\n      jumpi\n      returndatacopy(0x00, 0x00, returndatasize)\n      revert(0x00, returndatasize)\n    tag_193:\n      pop\n      pop\n      pop\n      pop\n      mload(0x40)\n      returndatasize\n      not(0x1f)\n      0x1f\n      dup3\n      add\n      and\n      dup3\n      add\n      dup1\n      0x40\n      mstore\n      pop\n      dup2\n      add\n      swap1\n      tag_194\n      swap2\n      swap1\n      tag_164\n      jump\t// in\n    tag_194:\n        /* \"contracts/withdrawDeposit.sol\":8581:8742  require(... */\n      tag_195\n      jumpi\n      mload(0x40)\n      0x08c379a000000000000000000000000000000000000000000000000000000000\n      dup2\n      mstore\n      0x04\n      add\n      tag_196\n      swap1\n      tag_197\n      jump\t// in\n    tag_196:\n      mload(0x40)\n      dup1\n      swap2\n      sub\n      swap1\n      revert\n    tag_195:\n        /* \"contracts/withdrawDeposit.sol\":8391:8753  if (loan.collateralToken == address(WETH)) {... */\n    tag_189:\n        /* \"contracts/withdrawDeposit.sol\":8777:8782  false */\n      0x00\n        /* \"contracts/withdrawDeposit.sol\":8763:8767  loan */\n      dup2\n        /* \"contracts/withdrawDeposit.sol\":8763:8774  loan.active */\n      0x06\n      add\n      0x14\n        /* \"contracts/withdrawDeposit.sol\":8763:8782  loan.active = false */\n      0x0100\n      exp\n      dup2\n      sload\n      dup2\n      0xff\n      mul\n      not\n      and\n      swap1\n      dup4\n      iszero\n      iszero\n      mul\n      or\n      swap1\n      sstore\n      pop\n        /* \"contracts/withdrawDeposit.sol\":8797:8871  CollateralLiquidated(_loanId, loan.collateralToken, loan.collateralAmount) */\n      0xcafca847a6c6645c7dd7bb55a47759cd884f49bd6e8c273f4ee701e8b81bcda0\n        /* \"contracts/withdrawDeposit.sol\":8818:8825  _loanId */\n      dup3\n        /* \"contracts/withdrawDeposit.sol\":8827:8831  loan */\n      dup3\n        /* \"contracts/withdrawDeposit.sol\":8827:8847  loan.collateralToken */\n      0x07\n      add\n      0x00\n      swap1\n      sload\n      swap1\n      0x0100\n      exp\n      swap1\n      div\n      0xffffffffffffffffffffffffffffffffffffffff\n      and\n        /* \"contracts/withdrawDeposit.sol\":8849:8853  loan */\n      dup4\n        /* \"contracts/withdrawDeposit.sol\":8849:8870  loan.collateralAmount */\n      0x08\n      add\n      sload\n        /* \"contracts/withdrawDeposit.sol\":8797:8871  CollateralLiquidated(_loanId, loan.collateralToken, loan.collateralAmount) */\n      mload(0x40)\n      tag_198\n      swap4\n      swap3\n      swap2\n      swap1\n      tag_137\n      jump\t// in\n    tag_198:\n      mload(0x40)\n      dup1\n      swap2\n      sub\n      swap1\n      log1\n        /* \"contracts/withdrawDeposit.sol\":8099:8878  {... */\n      pop\n        /* \"contracts/withdrawDeposit.sol\":8053:8878  function liquidateLoan(uint _loanId) external {... */\n      pop\n      jump\t// out\n        /* \"contracts/withdrawDeposit.sol\":2141:2162  uint public loanCount */\n    tag_93:\n      sload(0x02)\n      dup2\n      jump\t// out\n        /* \"contracts/withdrawDeposit.sol\":1602:1648  uint public constant MAX_LOAN_AMOUNT = 1000000 */\n    tag_97:\n        /* \"contracts/withdrawDeposit.sol\":1641:1648  1000000 */\n      0x0f4240\n        /* \"contracts/withdrawDeposit.sol\":1602:1648  uint public constant MAX_LOAN_AMOUNT = 1000000 */\n      dup2\n      jump\t// out\n        /* \"contracts/withdrawDeposit.sol\":4497:6502  function createLoan(... */\n    tag_102:\n        /* \"contracts/withdrawDeposit.sol\":1583:1588  10000 */\n      0x2710\n        /* \"contracts/withdrawDeposit.sol\":4675:4682  _amount */\n      dup5\n        /* \"contracts/withdrawDeposit.sol\":4675:4701  _amount >= MIN_LOAN_AMOUNT */\n      lt\n      iszero\n        /* \"contracts/withdrawDeposit.sol\":4675:4731  _amount >= MIN_LOAN_AMOUNT && _amount <= MAX_LOAN_AMOUNT */\n      dup1\n      iszero\n      tag_200\n      jumpi\n      pop\n        /* \"contracts/withdrawDeposit.sol\":1641:1648  1000000 */\n      0x0f4240\n        /* \"contracts/withdrawDeposit.sol\":4705:4712  _amount */\n      dup5\n        /* \"contracts/withdrawDeposit.sol\":4705:4731  _amount <= MAX_LOAN_AMOUNT */\n      gt\n      iszero\n        /* \"contracts/withdrawDeposit.sol\":4675:4731  _amount >= MIN_LOAN_AMOUNT && _amount <= MAX_LOAN_AMOUNT */\n    tag_200:\n        /* \"contracts/withdrawDeposit.sol\":4654:4776  require(... */\n      tag_201\n      jumpi\n      mload(0x40)\n      0x08c379a000000000000000000000000000000000000000000000000000000000\n      dup2\n      mstore\n      0x04\n      add\n      tag_202\n      swap1\n      tag_203\n      jump\t// in\n    tag_202:\n      mload(0x40)\n      dup1\n      swap2\n      sub\n      swap1\n      revert\n    tag_201:\n        /* \"contracts/withdrawDeposit.sol\":1711:1712  1 */\n      0x01\n        /* \"contracts/withdrawDeposit.sol\":4807:4816  _interest */\n      dup4\n        /* \"contracts/withdrawDeposit.sol\":4807:4837  _interest >= MIN_INTEREST_RATE */\n      lt\n      iszero\n        /* \"contracts/withdrawDeposit.sol\":4807:4871  _interest >= MIN_INTEREST_RATE && _interest <= MAX_INTEREST_RATE */\n      dup1\n      iszero\n      tag_204\n      jumpi\n      pop\n        /* \"contracts/withdrawDeposit.sol\":1759:1761  10 */\n      0x0a\n        /* \"contracts/withdrawDeposit.sol\":4841:4850  _interest */\n      dup4\n        /* \"contracts/withdrawDeposit.sol\":4841:4871  _interest <= MAX_INTEREST_RATE */\n      gt\n      iszero\n        /* \"contracts/withdrawDeposit.sol\":4807:4871  _interest >= MIN_INTEREST_RATE && _interest <= MAX_INTEREST_RATE */\n    tag_204:\n        /* \"contracts/withdrawDeposit.sol\":4786:4918  require(... */\n      tag_205\n      jumpi\n      mload(0x40)\n      0x08c379a000000000000000000000000000000000000000000000000000000000\n      dup2\n      mstore\n      0x04\n      add\n      tag_206\n      swap1\n      tag_207\n      jump\t// in\n    tag_206:\n      mload(0x40)\n      dup1\n      swap2\n      sub\n      swap1\n      revert\n    tag_205:\n        /* \"contracts/withdrawDeposit.sol\":4948:4949  0 */\n      0x00\n        /* \"contracts/withdrawDeposit.sol\":4936:4945  _duration */\n      dup3\n        /* \"contracts/withdrawDeposit.sol\":4936:4949  _duration > 0 */\n      gt\n        /* \"contracts/withdrawDeposit.sol\":4928:4970  require(_duration > 0, \"Invalid duration\") */\n      tag_208\n      jumpi\n      mload(0x40)\n      0x08c379a000000000000000000000000000000000000000000000000000000000\n      dup2\n      mstore\n      0x04\n      add\n      tag_209\n      swap1\n      tag_210\n      jump\t// in\n    tag_209:\n      mload(0x40)\n      dup1\n      swap2\n      sub\n      swap1\n      revert\n    tag_208:\n        /* \"contracts/withdrawDeposit.sol\":5025:5026  0 */\n      0x00\n        /* \"contracts/withdrawDeposit.sol\":4988:5004  collateralRatios */\n      0x00\n        /* \"contracts/withdrawDeposit.sol\":4988:5022  collateralRatios[_collateralToken] */\n      0x00\n        /* \"contracts/withdrawDeposit.sol\":5005:5021  _collateralToken */\n      dup4\n        /* \"contracts/withdrawDeposit.sol\":4988:5022  collateralRatios[_collateralToken] */\n      0xffffffffffffffffffffffffffffffffffffffff\n      and\n      0xffffffffffffffffffffffffffffffffffffffff\n      and\n      dup2\n      mstore\n      0x20\n      add\n      swap1\n      dup2\n      mstore\n      0x20\n      add\n      0x00\n      keccak256\n      sload\n        /* \"contracts/withdrawDeposit.sol\":4988:5026  collateralRatios[_collateralToken] > 0 */\n      gt\n        /* \"contracts/withdrawDeposit.sol\":4980:5059  require(collateralRatios[_collateralToken] > 0, \"Unsupported collateral token\") */\n      tag_211\n      jumpi\n      mload(0x40)\n      0x08c379a000000000000000000000000000000000000000000000000000000000\n      dup2\n      mstore\n      0x04\n      add\n      tag_212\n      swap1\n      tag_112\n      jump\t// in\n    tag_212:\n      mload(0x40)\n      dup1\n      swap2\n      sub\n      swap1\n      revert\n    tag_211:\n        /* \"contracts/withdrawDeposit.sol\":5070:5094  uint256 collateralAmount */\n      0x00\n        /* \"contracts/withdrawDeposit.sol\":5097:5149  calculateCollateralAmount(_collateralToken, _amount) */\n      tag_213\n        /* \"contracts/withdrawDeposit.sol\":5123:5139  _collateralToken */\n      dup3\n        /* \"contracts/withdrawDeposit.sol\":5141:5148  _amount */\n      dup7\n        /* \"contracts/withdrawDeposit.sol\":5097:5122  calculateCollateralAmount */\n      tag_30\n        /* \"contracts/withdrawDeposit.sol\":5097:5149  calculateCollateralAmount(_collateralToken, _amount) */\n      jump\t// in\n    tag_213:\n        /* \"contracts/withdrawDeposit.sol\":5070:5149  uint256 collateralAmount = calculateCollateralAmount(_collateralToken, _amount) */\n      swap1\n      pop\n        /* \"contracts/withdrawDeposit.sol\":5237:5241  WETH */\n      immutable(\"0x56fd040903fcc2e59c9b9f09df6ca51a830f066826ddedecdd2eb17dc3f3f289\")\n        /* \"contracts/withdrawDeposit.sol\":5209:5242  _collateralToken == address(WETH) */\n      0xffffffffffffffffffffffffffffffffffffffff\n      and\n        /* \"contracts/withdrawDeposit.sol\":5209:5225  _collateralToken */\n      dup3\n        /* \"contracts/withdrawDeposit.sol\":5209:5242  _collateralToken == address(WETH) */\n      0xffffffffffffffffffffffffffffffffffffffff\n      and\n      sub\n        /* \"contracts/withdrawDeposit.sol\":5205:5589  if (_collateralToken == address(WETH)) {... */\n      tag_214\n      jumpi\n        /* \"contracts/withdrawDeposit.sol\":5279:5295  collateralAmount */\n      dup1\n        /* \"contracts/withdrawDeposit.sol\":5266:5275  msg.value */\n      callvalue\n        /* \"contracts/withdrawDeposit.sol\":5266:5295  msg.value >= collateralAmount */\n      lt\n      iszero\n        /* \"contracts/withdrawDeposit.sol\":5258:5327  require(msg.value >= collateralAmount, \"Insufficient ETH collateral\") */\n      tag_215\n      jumpi\n      mload(0x40)\n      0x08c379a000000000000000000000000000000000000000000000000000000000\n      dup2\n      mstore\n      0x04\n      add\n      tag_216\n      swap1\n      tag_217\n      jump\t// in\n    tag_216:\n      mload(0x40)\n      dup1\n      swap2\n      sub\n      swap1\n      revert\n    tag_215:\n        /* \"contracts/withdrawDeposit.sol\":5341:5345  WETH */\n      immutable(\"0x56fd040903fcc2e59c9b9f09df6ca51a830f066826ddedecdd2eb17dc3f3f289\")\n        /* \"contracts/withdrawDeposit.sol\":5341:5353  WETH.deposit */\n      0xffffffffffffffffffffffffffffffffffffffff\n      and\n      0xd0e30db0\n        /* \"contracts/withdrawDeposit.sol\":5361:5377  collateralAmount */\n      dup3\n        /* \"contracts/withdrawDeposit.sol\":5341:5380  WETH.deposit{value: collateralAmount}() */\n      mload(0x40)\n      dup3\n      0xffffffff\n      and\n      0xe0\n      shl\n      dup2\n      mstore\n      0x04\n      add\n      0x00\n      mload(0x40)\n      dup1\n      dup4\n      sub\n      dup2\n      dup6\n      dup9\n      dup1\n      extcodesize\n      iszero\n      dup1\n      iszero\n      tag_218\n      jumpi\n      revert(0x00, 0x00)\n    tag_218:\n      pop\n      gas\n      call\n      iszero\n      dup1\n      iszero\n      tag_220\n      jumpi\n      returndatacopy(0x00, 0x00, returndatasize)\n      revert(0x00, returndatasize)\n    tag_220:\n      pop\n      pop\n      pop\n      pop\n      pop\n        /* \"contracts/withdrawDeposit.sol\":5205:5589  if (_collateralToken == address(WETH)) {... */\n      jump(tag_221)\n    tag_214:\n        /* \"contracts/withdrawDeposit.sol\":5443:5459  _collateralToken */\n      dup2\n        /* \"contracts/withdrawDeposit.sol\":5436:5473  IERC20(_collateralToken).transferFrom */\n      0xffffffffffffffffffffffffffffffffffffffff\n      and\n      0x23b872dd\n        /* \"contracts/withdrawDeposit.sol\":5474:5484  msg.sender */\n      caller\n        /* \"contracts/withdrawDeposit.sol\":5494:5498  this */\n      address\n        /* \"contracts/withdrawDeposit.sol\":5501:5517  collateralAmount */\n      dup5\n        /* \"contracts/withdrawDeposit.sol\":5436:5518  IERC20(_collateralToken).transferFrom(msg.sender, address(this), collateralAmount) */\n      mload(0x40)\n      dup5\n      0xffffffff\n      and\n      0xe0\n      shl\n      dup2\n      mstore\n      0x04\n      add\n      tag_222\n      swap4\n      swap3\n      swap2\n      swap1\n      tag_223\n      jump\t// in\n    tag_222:\n      0x20\n      mload(0x40)\n      dup1\n      dup4\n      sub\n      dup2\n      0x00\n      dup8\n      gas\n      call\n      iszero\n      dup1\n      iszero\n      tag_225\n      jumpi\n      returndatacopy(0x00, 0x00, returndatasize)\n      revert(0x00, returndatasize)\n    tag_225:\n      pop\n      pop\n      pop\n      pop\n      mload(0x40)\n      returndatasize\n      not(0x1f)\n      0x1f\n      dup3\n      add\n      and\n      dup3\n      add\n      dup1\n      0x40\n      mstore\n      pop\n      dup2\n      add\n      swap1\n      tag_226\n      swap2\n      swap1\n      tag_164\n      jump\t// in\n    tag_226:\n        /* \"contracts/withdrawDeposit.sol\":5411:5578  require(... */\n      tag_227\n      jumpi\n      mload(0x40)\n      0x08c379a000000000000000000000000000000000000000000000000000000000\n      dup2\n      mstore\n      0x04\n      add\n      tag_228\n      swap1\n      tag_229\n      jump\t// in\n    tag_228:\n      mload(0x40)\n      dup1\n      swap2\n      sub\n      swap1\n      revert\n    tag_227:\n        /* \"contracts/withdrawDeposit.sol\":5205:5589  if (_collateralToken == address(WETH)) {... */\n    tag_221:\n        /* \"contracts/withdrawDeposit.sol\":5599:5620  uint _repaymentAmount */\n      0x00\n        /* \"contracts/withdrawDeposit.sol\":5657:5660  100 */\n      0x64\n        /* \"contracts/withdrawDeposit.sol\":5644:5653  _interest */\n      dup6\n        /* \"contracts/withdrawDeposit.sol\":5634:5641  _amount */\n      dup8\n        /* \"contracts/withdrawDeposit.sol\":5634:5653  _amount * _interest */\n      tag_230\n      swap2\n      swap1\n      tag_114\n      jump\t// in\n    tag_230:\n        /* \"contracts/withdrawDeposit.sol\":5633:5660  (_amount * _interest) / 100 */\n      tag_231\n      swap2\n      swap1\n      tag_118\n      jump\t// in\n    tag_231:\n        /* \"contracts/withdrawDeposit.sol\":5623:5630  _amount */\n      dup7\n        /* \"contracts/withdrawDeposit.sol\":5623:5660  _amount + (_amount * _interest) / 100 */\n      tag_232\n      swap2\n      swap1\n      tag_176\n      jump\t// in\n    tag_232:\n        /* \"contracts/withdrawDeposit.sol\":5599:5660  uint _repaymentAmount = _amount + (_amount * _interest) / 100 */\n      swap1\n      pop\n        /* \"contracts/withdrawDeposit.sol\":5670:5691  uint _fundingDeadline */\n      0x00\n        /* \"contracts/withdrawDeposit.sol\":5713:5719  1 days */\n      0x015180\n        /* \"contracts/withdrawDeposit.sol\":5694:5709  block.timestamp */\n      timestamp\n        /* \"contracts/withdrawDeposit.sol\":5694:5720  block.timestamp + (1 days) */\n      tag_233\n      swap2\n      swap1\n      tag_176\n      jump\t// in\n    tag_233:\n        /* \"contracts/withdrawDeposit.sol\":5670:5720  uint _fundingDeadline = block.timestamp + (1 days) */\n      swap1\n      pop\n        /* \"contracts/withdrawDeposit.sol\":5730:5741  uint loanId */\n      0x00\n        /* \"contracts/withdrawDeposit.sol\":5744:5753  loanCount */\n      0x02\n      0x00\n        /* \"contracts/withdrawDeposit.sol\":5744:5755  loanCount++ */\n      dup2\n      sload\n      dup1\n      swap3\n      swap2\n      swap1\n      tag_234\n      swap1\n      tag_235\n      jump\t// in\n    tag_234:\n      swap2\n      swap1\n      pop\n      sstore\n        /* \"contracts/withdrawDeposit.sol\":5730:5755  uint loanId = loanCount++ */\n      swap1\n      pop\n        /* \"contracts/withdrawDeposit.sol\":5766:5783  Loan storage loan */\n      0x00\n        /* \"contracts/withdrawDeposit.sol\":5786:5791  loans */\n      0x01\n        /* \"contracts/withdrawDeposit.sol\":5786:5799  loans[loanId] */\n      0x00\n        /* \"contracts/withdrawDeposit.sol\":5792:5798  loanId */\n      dup4\n        /* \"contracts/withdrawDeposit.sol\":5786:5799  loans[loanId] */\n      dup2\n      mstore\n      0x20\n      add\n      swap1\n      dup2\n      mstore\n      0x20\n      add\n      0x00\n      keccak256\n        /* \"contracts/withdrawDeposit.sol\":5766:5799  Loan storage loan = loans[loanId] */\n      swap1\n      pop\n        /* \"contracts/withdrawDeposit.sol\":5823:5830  _amount */\n      dup9\n        /* \"contracts/withdrawDeposit.sol\":5809:5813  loan */\n      dup2\n        /* \"contracts/withdrawDeposit.sol\":5809:5820  loan.amount */\n      0x00\n      add\n        /* \"contracts/withdrawDeposit.sol\":5809:5830  loan.amount = _amount */\n      dup2\n      swap1\n      sstore\n      pop\n        /* \"contracts/withdrawDeposit.sol\":5856:5865  _interest */\n      dup8\n        /* \"contracts/withdrawDeposit.sol\":5840:5844  loan */\n      dup2\n        /* \"contracts/withdrawDeposit.sol\":5840:5853  loan.interest */\n      0x01\n      add\n        /* \"contracts/withdrawDeposit.sol\":5840:5865  loan.interest = _interest */\n      dup2\n      swap1\n      sstore\n      pop\n        /* \"contracts/withdrawDeposit.sol\":5891:5900  _duration */\n      dup7\n        /* \"contracts/withdrawDeposit.sol\":5875:5879  loan */\n      dup2\n        /* \"contracts/withdrawDeposit.sol\":5875:5888  loan.duration */\n      0x02\n      add\n        /* \"contracts/withdrawDeposit.sol\":5875:5900  loan.duration = _duration */\n      dup2\n      swap1\n      sstore\n      pop\n        /* \"contracts/withdrawDeposit.sol\":5933:5949  _repaymentAmount */\n      dup4\n        /* \"contracts/withdrawDeposit.sol\":5910:5914  loan */\n      dup2\n        /* \"contracts/withdrawDeposit.sol\":5910:5930  loan.repaymentAmount */\n      0x03\n      add\n        /* \"contracts/withdrawDeposit.sol\":5910:5949  loan.repaymentAmount = _repaymentAmount */\n      dup2\n      swap1\n      sstore\n      pop\n        /* \"contracts/withdrawDeposit.sol\":5982:5998  _fundingDeadline */\n      dup3\n        /* \"contracts/withdrawDeposit.sol\":5959:5963  loan */\n      dup2\n        /* \"contracts/withdrawDeposit.sol\":5959:5979  loan.fundingDeadline */\n      0x04\n      add\n        /* \"contracts/withdrawDeposit.sol\":5959:5998  loan.fundingDeadline = _fundingDeadline */\n      dup2\n      swap1\n      sstore\n      pop\n        /* \"contracts/withdrawDeposit.sol\":6024:6034  msg.sender */\n      caller\n        /* \"contracts/withdrawDeposit.sol\":6008:6012  loan */\n      dup2\n        /* \"contracts/withdrawDeposit.sol\":6008:6021  loan.borrower */\n      0x05\n      add\n      0x00\n        /* \"contracts/withdrawDeposit.sol\":6008:6034  loan.borrower = msg.sender */\n      0x0100\n      exp\n      dup2\n      sload\n      dup2\n      0xffffffffffffffffffffffffffffffffffffffff\n      mul\n      not\n      and\n      swap1\n      dup4\n      0xffffffffffffffffffffffffffffffffffffffff\n      and\n      mul\n      or\n      swap1\n      sstore\n      pop\n        /* \"contracts/withdrawDeposit.sol\":6074:6075  0 */\n      0x00\n        /* \"contracts/withdrawDeposit.sol\":6044:6048  loan */\n      dup2\n        /* \"contracts/withdrawDeposit.sol\":6044:6055  loan.lender */\n      0x06\n      add\n      0x00\n        /* \"contracts/withdrawDeposit.sol\":6044:6077  loan.lender = payable(address(0)) */\n      0x0100\n      exp\n      dup2\n      sload\n      dup2\n      0xffffffffffffffffffffffffffffffffffffffff\n      mul\n      not\n      and\n      swap1\n      dup4\n      0xffffffffffffffffffffffffffffffffffffffff\n      and\n      mul\n      or\n      swap1\n      sstore\n      pop\n        /* \"contracts/withdrawDeposit.sol\":6101:6105  true */\n      0x01\n        /* \"contracts/withdrawDeposit.sol\":6087:6091  loan */\n      dup2\n        /* \"contracts/withdrawDeposit.sol\":6087:6098  loan.active */\n      0x06\n      add\n      0x14\n        /* \"contracts/withdrawDeposit.sol\":6087:6105  loan.active = true */\n      0x0100\n      exp\n      dup2\n      sload\n      dup2\n      0xff\n      mul\n      not\n      and\n      swap1\n      dup4\n      iszero\n      iszero\n      mul\n      or\n      swap1\n      sstore\n      pop\n        /* \"contracts/withdrawDeposit.sol\":6129:6134  false */\n      0x00\n        /* \"contracts/withdrawDeposit.sol\":6115:6119  loan */\n      dup2\n        /* \"contracts/withdrawDeposit.sol\":6115:6126  loan.repaid */\n      0x06\n      add\n      0x15\n        /* \"contracts/withdrawDeposit.sol\":6115:6134  loan.repaid = false */\n      0x0100\n      exp\n      dup2\n      sload\n      dup2\n      0xff\n      mul\n      not\n      and\n      swap1\n      dup4\n      iszero\n      iszero\n      mul\n      or\n      swap1\n      sstore\n      pop\n        /* \"contracts/withdrawDeposit.sol\":6167:6183  _collateralToken */\n      dup6\n        /* \"contracts/withdrawDeposit.sol\":6144:6148  loan */\n      dup2\n        /* \"contracts/withdrawDeposit.sol\":6144:6164  loan.collateralToken */\n      0x07\n      add\n      0x00\n        /* \"contracts/withdrawDeposit.sol\":6144:6183  loan.collateralToken = _collateralToken */\n      0x0100\n      exp\n      dup2\n      sload\n      dup2\n      0xffffffffffffffffffffffffffffffffffffffff\n      mul\n      not\n      and\n      swap1\n      dup4\n      0xffffffffffffffffffffffffffffffffffffffff\n      and\n      mul\n      or\n      swap1\n      sstore\n      pop\n        /* \"contracts/withdrawDeposit.sol\":6217:6233  collateralAmount */\n      dup5\n        /* \"contracts/withdrawDeposit.sol\":6193:6197  loan */\n      dup2\n        /* \"contracts/withdrawDeposit.sol\":6193:6214  loan.collateralAmount */\n      0x08\n      add\n        /* \"contracts/withdrawDeposit.sol\":6193:6233  loan.collateralAmount = collateralAmount */\n      dup2\n      swap1\n      sstore\n      pop\n        /* \"contracts/withdrawDeposit.sol\":6249:6495  LoanCreated(... */\n      0x1e204e583357721d9af7f7e2d311da20e5d734ed3d1bf727419374a9cced0672\n        /* \"contracts/withdrawDeposit.sol\":6274:6280  loanId */\n      dup3\n        /* \"contracts/withdrawDeposit.sol\":6294:6301  _amount */\n      dup11\n        /* \"contracts/withdrawDeposit.sol\":6315:6324  _interest */\n      dup11\n        /* \"contracts/withdrawDeposit.sol\":6338:6347  _duration */\n      dup11\n        /* \"contracts/withdrawDeposit.sol\":6361:6377  _fundingDeadline */\n      dup8\n        /* \"contracts/withdrawDeposit.sol\":6391:6401  msg.sender */\n      caller\n        /* \"contracts/withdrawDeposit.sol\":6423:6424  0 */\n      0x00\n        /* \"contracts/withdrawDeposit.sol\":6439:6455  _collateralToken */\n      dup14\n        /* \"contracts/withdrawDeposit.sol\":6469:6485  collateralAmount */\n      dup14\n        /* \"contracts/withdrawDeposit.sol\":6249:6495  LoanCreated(... */\n      mload(0x40)\n      tag_236\n      swap10\n      swap9\n      swap8\n      swap7\n      swap6\n      swap5\n      swap4\n      swap3\n      swap2\n      swap1\n      tag_237\n      jump\t// in\n    tag_236:\n      mload(0x40)\n      dup1\n      swap2\n      sub\n      swap1\n      log1\n        /* \"contracts/withdrawDeposit.sol\":4644:6502  {... */\n      pop\n      pop\n      pop\n      pop\n      pop\n        /* \"contracts/withdrawDeposit.sol\":4497:6502  function createLoan(... */\n      pop\n      pop\n      pop\n      pop\n      jump\t// out\n        /* \"contracts/withdrawDeposit.sol\":2101:2135  mapping(uint => Loan) public loans */\n    tag_106:\n      mstore(0x20, 0x01)\n      dup1\n      0x00\n      mstore\n      keccak256(0x00, 0x40)\n      0x00\n      swap2\n      pop\n      swap1\n      pop\n      dup1\n      0x00\n      add\n      sload\n      swap1\n      dup1\n      0x01\n      add\n      sload\n      swap1\n      dup1\n      0x02\n      add\n      sload\n      swap1\n      dup1\n      0x03\n      add\n      sload\n      swap1\n      dup1\n      0x04\n      add\n      sload\n      swap1\n      dup1\n      0x05\n      add\n      0x00\n      swap1\n      sload\n      swap1\n      0x0100\n      exp\n      swap1\n      div\n      0xffffffffffffffffffffffffffffffffffffffff\n      and\n      swap1\n      dup1\n      0x06\n      add\n      0x00\n      swap1\n      sload\n      swap1\n      0x0100\n      exp\n      swap1\n      div\n      0xffffffffffffffffffffffffffffffffffffffff\n      and\n      swap1\n      dup1\n      0x06\n      add\n      0x14\n      swap1\n      sload\n      swap1\n      0x0100\n      exp\n      swap1\n      div\n      0xff\n      and\n      swap1\n      dup1\n      0x06\n      add\n      0x15\n      swap1\n      sload\n      swap1\n      0x0100\n      exp\n      swap1\n      div\n      0xff\n      and\n      swap1\n      dup1\n      0x07\n      add\n      0x00\n      swap1\n      sload\n      swap1\n      0x0100\n      exp\n      swap1\n      div\n      0xffffffffffffffffffffffffffffffffffffffff\n      and\n      swap1\n      dup1\n      0x08\n      add\n      sload\n      swap1\n      pop\n      dup12\n      jump\t// out\n        /* \"#utility.yul\":88:205   */\n    tag_239:\n        /* \"#utility.yul\":197:198   */\n      0x00\n        /* \"#utility.yul\":194:195   */\n      0x00\n        /* \"#utility.yul\":187:199   */\n      revert\n        /* \"#utility.yul\":334:460   */\n    tag_241:\n        /* \"#utility.yul\":371:378   */\n      0x00\n        /* \"#utility.yul\":411:453   */\n      0xffffffffffffffffffffffffffffffffffffffff\n        /* \"#utility.yul\":404:409   */\n      dup3\n        /* \"#utility.yul\":400:454   */\n      and\n        /* \"#utility.yul\":389:454   */\n      swap1\n      pop\n        /* \"#utility.yul\":334:460   */\n      swap2\n      swap1\n      pop\n      jump\t// out\n        /* \"#utility.yul\":466:562   */\n    tag_242:\n        /* \"#utility.yul\":503:510   */\n      0x00\n        /* \"#utility.yul\":532:556   */\n      tag_308\n        /* \"#utility.yul\":550:555   */\n      dup3\n        /* \"#utility.yul\":532:556   */\n      tag_241\n      jump\t// in\n    tag_308:\n        /* \"#utility.yul\":521:556   */\n      swap1\n      pop\n        /* \"#utility.yul\":466:562   */\n      swap2\n      swap1\n      pop\n      jump\t// out\n        /* \"#utility.yul\":568:690   */\n    tag_243:\n        /* \"#utility.yul\":641:665   */\n      tag_310\n        /* \"#utility.yul\":659:664   */\n      dup2\n        /* \"#utility.yul\":641:665   */\n      tag_242\n      jump\t// in\n    tag_310:\n        /* \"#utility.yul\":634:639   */\n      dup2\n        /* \"#utility.yul\":631:666   */\n      eq\n        /* \"#utility.yul\":621:684   */\n      tag_311\n      jumpi\n        /* \"#utility.yul\":680:681   */\n      0x00\n        /* \"#utility.yul\":677:678   */\n      0x00\n        /* \"#utility.yul\":670:682   */\n      revert\n        /* \"#utility.yul\":621:684   */\n    tag_311:\n        /* \"#utility.yul\":568:690   */\n      pop\n      jump\t// out\n        /* \"#utility.yul\":696:835   */\n    tag_244:\n        /* \"#utility.yul\":742:747   */\n      0x00\n        /* \"#utility.yul\":780:786   */\n      dup2\n        /* \"#utility.yul\":767:787   */\n      calldataload\n        /* \"#utility.yul\":758:787   */\n      swap1\n      pop\n        /* \"#utility.yul\":796:829   */\n      tag_313\n        /* \"#utility.yul\":823:828   */\n      dup2\n        /* \"#utility.yul\":796:829   */\n      tag_243\n      jump\t// in\n    tag_313:\n        /* \"#utility.yul\":696:835   */\n      swap3\n      swap2\n      pop\n      pop\n      jump\t// out\n        /* \"#utility.yul\":841:918   */\n    tag_245:\n        /* \"#utility.yul\":878:885   */\n      0x00\n        /* \"#utility.yul\":907:912   */\n      dup2\n        /* \"#utility.yul\":896:912   */\n      swap1\n      pop\n        /* \"#utility.yul\":841:918   */\n      swap2\n      swap1\n      pop\n      jump\t// out\n        /* \"#utility.yul\":924:1046   */\n    tag_246:\n        /* \"#utility.yul\":997:1021   */\n      tag_316\n        /* \"#utility.yul\":1015:1020   */\n      dup2\n        /* \"#utility.yul\":997:1021   */\n      tag_245\n      jump\t// in\n    tag_316:\n        /* \"#utility.yul\":990:995   */\n      dup2\n        /* \"#utility.yul\":987:1022   */\n      eq\n        /* \"#utility.yul\":977:1040   */\n      tag_317\n      jumpi\n        /* \"#utility.yul\":1036:1037   */\n      0x00\n        /* \"#utility.yul\":1033:1034   */\n      0x00\n        /* \"#utility.yul\":1026:1038   */\n      revert\n        /* \"#utility.yul\":977:1040   */\n    tag_317:\n        /* \"#utility.yul\":924:1046   */\n      pop\n      jump\t// out\n        /* \"#utility.yul\":1052:1191   */\n    tag_247:\n        /* \"#utility.yul\":1098:1103   */\n      0x00\n        /* \"#utility.yul\":1136:1142   */\n      dup2\n        /* \"#utility.yul\":1123:1143   */\n      calldataload\n        /* \"#utility.yul\":1114:1143   */\n      swap1\n      pop\n        /* \"#utility.yul\":1152:1185   */\n      tag_319\n        /* \"#utility.yul\":1179:1184   */\n      dup2\n        /* \"#utility.yul\":1152:1185   */\n      tag_246\n      jump\t// in\n    tag_319:\n        /* \"#utility.yul\":1052:1191   */\n      swap3\n      swap2\n      pop\n      pop\n      jump\t// out\n        /* \"#utility.yul\":1197:1671   */\n    tag_29:\n        /* \"#utility.yul\":1265:1271   */\n      0x00\n        /* \"#utility.yul\":1273:1279   */\n      0x00\n        /* \"#utility.yul\":1322:1324   */\n      0x40\n        /* \"#utility.yul\":1310:1319   */\n      dup4\n        /* \"#utility.yul\":1301:1308   */\n      dup6\n        /* \"#utility.yul\":1297:1320   */\n      sub\n        /* \"#utility.yul\":1293:1325   */\n      slt\n        /* \"#utility.yul\":1290:1409   */\n      iszero\n      tag_321\n      jumpi\n        /* \"#utility.yul\":1328:1407   */\n      tag_322\n      tag_239\n      jump\t// in\n    tag_322:\n        /* \"#utility.yul\":1290:1409   */\n    tag_321:\n        /* \"#utility.yul\":1448:1449   */\n      0x00\n        /* \"#utility.yul\":1473:1526   */\n      tag_323\n        /* \"#utility.yul\":1518:1525   */\n      dup6\n        /* \"#utility.yul\":1509:1515   */\n      dup3\n        /* \"#utility.yul\":1498:1507   */\n      dup7\n        /* \"#utility.yul\":1494:1516   */\n      add\n        /* \"#utility.yul\":1473:1526   */\n      tag_244\n      jump\t// in\n    tag_323:\n        /* \"#utility.yul\":1463:1526   */\n      swap3\n      pop\n        /* \"#utility.yul\":1419:1536   */\n      pop\n        /* \"#utility.yul\":1575:1577   */\n      0x20\n        /* \"#utility.yul\":1601:1654   */\n      tag_324\n        /* \"#utility.yul\":1646:1653   */\n      dup6\n        /* \"#utility.yul\":1637:1643   */\n      dup3\n        /* \"#utility.yul\":1626:1635   */\n      dup7\n        /* \"#utility.yul\":1622:1644   */\n      add\n        /* \"#utility.yul\":1601:1654   */\n      tag_247\n      jump\t// in\n    tag_324:\n        /* \"#utility.yul\":1591:1654   */\n      swap2\n      pop\n        /* \"#utility.yul\":1546:1664   */\n      pop\n        /* \"#utility.yul\":1197:1671   */\n      swap3\n      pop\n      swap3\n      swap1\n      pop\n      jump\t// out\n        /* \"#utility.yul\":1677:1795   */\n    tag_248:\n        /* \"#utility.yul\":1764:1788   */\n      tag_326\n        /* \"#utility.yul\":1782:1787   */\n      dup2\n        /* \"#utility.yul\":1764:1788   */\n      tag_245\n      jump\t// in\n    tag_326:\n        /* \"#utility.yul\":1759:1762   */\n      dup3\n        /* \"#utility.yul\":1752:1789   */\n      mstore\n        /* \"#utility.yul\":1677:1795   */\n      pop\n      pop\n      jump\t// out\n        /* \"#utility.yul\":1801:2023   */\n    tag_32:\n        /* \"#utility.yul\":1894:1898   */\n      0x00\n        /* \"#utility.yul\":1932:1934   */\n      0x20\n        /* \"#utility.yul\":1921:1930   */\n      dup3\n        /* \"#utility.yul\":1917:1935   */\n      add\n        /* \"#utility.yul\":1909:1935   */\n      swap1\n      pop\n        /* \"#utility.yul\":1945:2016   */\n      tag_328\n        /* \"#utility.yul\":2013:2014   */\n      0x00\n        /* \"#utility.yul\":2002:2011   */\n      dup4\n        /* \"#utility.yul\":1998:2015   */\n      add\n        /* \"#utility.yul\":1989:1995   */\n      dup5\n        /* \"#utility.yul\":1945:2016   */\n      tag_248\n      jump\t// in\n    tag_328:\n        /* \"#utility.yul\":1801:2023   */\n      swap3\n      swap2\n      pop\n      pop\n      jump\t// out\n        /* \"#utility.yul\":2029:2358   */\n    tag_36:\n        /* \"#utility.yul\":2088:2094   */\n      0x00\n        /* \"#utility.yul\":2137:2139   */\n      0x20\n        /* \"#utility.yul\":2125:2134   */\n      dup3\n        /* \"#utility.yul\":2116:2123   */\n      dup5\n        /* \"#utility.yul\":2112:2135   */\n      sub\n        /* \"#utility.yul\":2108:2140   */\n      slt\n        /* \"#utility.yul\":2105:2224   */\n      iszero\n      tag_330\n      jumpi\n        /* \"#utility.yul\":2143:2222   */\n      tag_331\n      tag_239\n      jump\t// in\n    tag_331:\n        /* \"#utility.yul\":2105:2224   */\n    tag_330:\n        /* \"#utility.yul\":2263:2264   */\n      0x00\n        /* \"#utility.yul\":2288:2341   */\n      tag_332\n        /* \"#utility.yul\":2333:2340   */\n      dup5\n        /* \"#utility.yul\":2324:2330   */\n      dup3\n        /* \"#utility.yul\":2313:2322   */\n      dup6\n        /* \"#utility.yul\":2309:2331   */\n      add\n        /* \"#utility.yul\":2288:2341   */\n      tag_247\n      jump\t// in\n    tag_332:\n        /* \"#utility.yul\":2278:2341   */\n      swap2\n      pop\n        /* \"#utility.yul\":2234:2351   */\n      pop\n        /* \"#utility.yul\":2029:2358   */\n      swap3\n      swap2\n      pop\n      pop\n      jump\t// out\n        /* \"#utility.yul\":2364:2482   */\n    tag_249:\n        /* \"#utility.yul\":2451:2475   */\n      tag_334\n        /* \"#utility.yul\":2469:2474   */\n      dup2\n        /* \"#utility.yul\":2451:2475   */\n      tag_242\n      jump\t// in\n    tag_334:\n        /* \"#utility.yul\":2446:2449   */\n      dup3\n        /* \"#utility.yul\":2439:2476   */\n      mstore\n        /* \"#utility.yul\":2364:2482   */\n      pop\n      pop\n      jump\t// out\n        /* \"#utility.yul\":2488:2578   */\n    tag_250:\n        /* \"#utility.yul\":2522:2529   */\n      0x00\n        /* \"#utility.yul\":2565:2570   */\n      dup2\n        /* \"#utility.yul\":2558:2571   */\n      iszero\n        /* \"#utility.yul\":2551:2572   */\n      iszero\n        /* \"#utility.yul\":2540:2572   */\n      swap1\n      pop\n        /* \"#utility.yul\":2488:2578   */\n      swap2\n      swap1\n      pop\n      jump\t// out\n        /* \"#utility.yul\":2584:2693   */\n    tag_251:\n        /* \"#utility.yul\":2665:2686   */\n      tag_337\n        /* \"#utility.yul\":2680:2685   */\n      dup2\n        /* \"#utility.yul\":2665:2686   */\n      tag_250\n      jump\t// in\n    tag_337:\n        /* \"#utility.yul\":2660:2663   */\n      dup3\n        /* \"#utility.yul\":2653:2687   */\n      mstore\n        /* \"#utility.yul\":2584:2693   */\n      pop\n      pop\n      jump\t// out\n        /* \"#utility.yul\":2699:4007   */\n    tag_39:\n        /* \"#utility.yul\":3061:3065   */\n      0x00\n        /* \"#utility.yul\":3099:3102   */\n      0x0160\n        /* \"#utility.yul\":3088:3097   */\n      dup3\n        /* \"#utility.yul\":3084:3103   */\n      add\n        /* \"#utility.yul\":3076:3103   */\n      swap1\n      pop\n        /* \"#utility.yul\":3113:3184   */\n      tag_339\n        /* \"#utility.yul\":3181:3182   */\n      0x00\n        /* \"#utility.yul\":3170:3179   */\n      dup4\n        /* \"#utility.yul\":3166:3183   */\n      add\n        /* \"#utility.yul\":3157:3163   */\n      dup15\n        /* \"#utility.yul\":3113:3184   */\n      tag_248\n      jump\t// in\n    tag_339:\n        /* \"#utility.yul\":3194:3266   */\n      tag_340\n        /* \"#utility.yul\":3262:3264   */\n      0x20\n        /* \"#utility.yul\":3251:3260   */\n      dup4\n        /* \"#utility.yul\":3247:3265   */\n      add\n        /* \"#utility.yul\":3238:3244   */\n      dup14\n        /* \"#utility.yul\":3194:3266   */\n      tag_248\n      jump\t// in\n    tag_340:\n        /* \"#utility.yul\":3276:3348   */\n      tag_341\n        /* \"#utility.yul\":3344:3346   */\n      0x40\n        /* \"#utility.yul\":3333:3342   */\n      dup4\n        /* \"#utility.yul\":3329:3347   */\n      add\n        /* \"#utility.yul\":3320:3326   */\n      dup13\n        /* \"#utility.yul\":3276:3348   */\n      tag_248\n      jump\t// in\n    tag_341:\n        /* \"#utility.yul\":3358:3430   */\n      tag_342\n        /* \"#utility.yul\":3426:3428   */\n      0x60\n        /* \"#utility.yul\":3415:3424   */\n      dup4\n        /* \"#utility.yul\":3411:3429   */\n      add\n        /* \"#utility.yul\":3402:3408   */\n      dup12\n        /* \"#utility.yul\":3358:3430   */\n      tag_248\n      jump\t// in\n    tag_342:\n        /* \"#utility.yul\":3440:3513   */\n      tag_343\n        /* \"#utility.yul\":3508:3511   */\n      0x80\n        /* \"#utility.yul\":3497:3506   */\n      dup4\n        /* \"#utility.yul\":3493:3512   */\n      add\n        /* \"#utility.yul\":3484:3490   */\n      dup11\n        /* \"#utility.yul\":3440:3513   */\n      tag_248\n      jump\t// in\n    tag_343:\n        /* \"#utility.yul\":3523:3596   */\n      tag_344\n        /* \"#utility.yul\":3591:3594   */\n      0xa0\n        /* \"#utility.yul\":3580:3589   */\n      dup4\n        /* \"#utility.yul\":3576:3595   */\n      add\n        /* \"#utility.yul\":3567:3573   */\n      dup10\n        /* \"#utility.yul\":3523:3596   */\n      tag_249\n      jump\t// in\n    tag_344:\n        /* \"#utility.yul\":3606:3679   */\n      tag_345\n        /* \"#utility.yul\":3674:3677   */\n      0xc0\n        /* \"#utility.yul\":3663:3672   */\n      dup4\n        /* \"#utility.yul\":3659:3678   */\n      add\n        /* \"#utility.yul\":3650:3656   */\n      dup9\n        /* \"#utility.yul\":3606:3679   */\n      tag_249\n      jump\t// in\n    tag_345:\n        /* \"#utility.yul\":3689:3756   */\n      tag_346\n        /* \"#utility.yul\":3751:3754   */\n      0xe0\n        /* \"#utility.yul\":3740:3749   */\n      dup4\n        /* \"#utility.yul\":3736:3755   */\n      add\n        /* \"#utility.yul\":3727:3733   */\n      dup8\n        /* \"#utility.yul\":3689:3756   */\n      tag_251\n      jump\t// in\n    tag_346:\n        /* \"#utility.yul\":3766:3833   */\n      tag_347\n        /* \"#utility.yul\":3828:3831   */\n      0x0100\n        /* \"#utility.yul\":3817:3826   */\n      dup4\n        /* \"#utility.yul\":3813:3832   */\n      add\n        /* \"#utility.yul\":3804:3810   */\n      dup7\n        /* \"#utility.yul\":3766:3833   */\n      tag_251\n      jump\t// in\n    tag_347:\n        /* \"#utility.yul\":3843:3916   */\n      tag_348\n        /* \"#utility.yul\":3911:3914   */\n      0x0120\n        /* \"#utility.yul\":3900:3909   */\n      dup4\n        /* \"#utility.yul\":3896:3915   */\n      add\n        /* \"#utility.yul\":3887:3893   */\n      dup6\n        /* \"#utility.yul\":3843:3916   */\n      tag_249\n      jump\t// in\n    tag_348:\n        /* \"#utility.yul\":3926:4000   */\n      tag_349\n        /* \"#utility.yul\":3995:3998   */\n      0x0140\n        /* \"#utility.yul\":3984:3993   */\n      dup4\n        /* \"#utility.yul\":3980:3999   */\n      add\n        /* \"#utility.yul\":3970:3977   */\n      dup5\n        /* \"#utility.yul\":3926:4000   */\n      tag_248\n      jump\t// in\n    tag_349:\n        /* \"#utility.yul\":2699:4007   */\n      swap13\n      swap12\n      pop\n      pop\n      pop\n      pop\n      pop\n      pop\n      pop\n      pop\n      pop\n      pop\n      pop\n      pop\n      jump\t// out\n        /* \"#utility.yul\":4013:4342   */\n    tag_43:\n        /* \"#utility.yul\":4072:4078   */\n      0x00\n        /* \"#utility.yul\":4121:4123   */\n      0x20\n        /* \"#utility.yul\":4109:4118   */\n      dup3\n        /* \"#utility.yul\":4100:4107   */\n      dup5\n        /* \"#utility.yul\":4096:4119   */\n      sub\n        /* \"#utility.yul\":4092:4124   */\n      slt\n        /* \"#utility.yul\":4089:4208   */\n      iszero\n      tag_351\n      jumpi\n        /* \"#utility.yul\":4127:4206   */\n      tag_352\n      tag_239\n      jump\t// in\n    tag_352:\n        /* \"#utility.yul\":4089:4208   */\n    tag_351:\n        /* \"#utility.yul\":4247:4248   */\n      0x00\n        /* \"#utility.yul\":4272:4325   */\n      tag_353\n        /* \"#utility.yul\":4317:4324   */\n      dup5\n        /* \"#utility.yul\":4308:4314   */\n      dup3\n        /* \"#utility.yul\":4297:4306   */\n      dup6\n        /* \"#utility.yul\":4293:4315   */\n      add\n        /* \"#utility.yul\":4272:4325   */\n      tag_244\n      jump\t// in\n    tag_353:\n        /* \"#utility.yul\":4262:4325   */\n      swap2\n      pop\n        /* \"#utility.yul\":4218:4335   */\n      pop\n        /* \"#utility.yul\":4013:4342   */\n      swap3\n      swap2\n      pop\n      pop\n      jump\t// out\n        /* \"#utility.yul\":4348:4408   */\n    tag_252:\n        /* \"#utility.yul\":4376:4379   */\n      0x00\n        /* \"#utility.yul\":4397:4402   */\n      dup2\n        /* \"#utility.yul\":4390:4402   */\n      swap1\n      pop\n        /* \"#utility.yul\":4348:4408   */\n      swap2\n      swap1\n      pop\n      jump\t// out\n        /* \"#utility.yul\":4414:4556   */\n    tag_253:\n        /* \"#utility.yul\":4464:4473   */\n      0x00\n        /* \"#utility.yul\":4497:4550   */\n      tag_356\n        /* \"#utility.yul\":4515:4549   */\n      tag_357\n        /* \"#utility.yul\":4524:4548   */\n      tag_358\n        /* \"#utility.yul\":4542:4547   */\n      dup5\n        /* \"#utility.yul\":4524:4548   */\n      tag_241\n      jump\t// in\n    tag_358:\n        /* \"#utility.yul\":4515:4549   */\n      tag_252\n      jump\t// in\n    tag_357:\n        /* \"#utility.yul\":4497:4550   */\n      tag_241\n      jump\t// in\n    tag_356:\n        /* \"#utility.yul\":4484:4550   */\n      swap1\n      pop\n        /* \"#utility.yul\":4414:4556   */\n      swap2\n      swap1\n      pop\n      jump\t// out\n        /* \"#utility.yul\":4562:4688   */\n    tag_254:\n        /* \"#utility.yul\":4612:4621   */\n      0x00\n        /* \"#utility.yul\":4645:4682   */\n      tag_360\n        /* \"#utility.yul\":4676:4681   */\n      dup3\n        /* \"#utility.yul\":4645:4682   */\n      tag_253\n      jump\t// in\n    tag_360:\n        /* \"#utility.yul\":4632:4682   */\n      swap1\n      pop\n        /* \"#utility.yul\":4562:4688   */\n      swap2\n      swap1\n      pop\n      jump\t// out\n        /* \"#utility.yul\":4694:4833   */\n    tag_255:\n        /* \"#utility.yul\":4757:4766   */\n      0x00\n        /* \"#utility.yul\":4790:4827   */\n      tag_362\n        /* \"#utility.yul\":4821:4826   */\n      dup3\n        /* \"#utility.yul\":4790:4827   */\n      tag_254\n      jump\t// in\n    tag_362:\n        /* \"#utility.yul\":4777:4827   */\n      swap1\n      pop\n        /* \"#utility.yul\":4694:4833   */\n      swap2\n      swap1\n      pop\n      jump\t// out\n        /* \"#utility.yul\":4839:4996   */\n    tag_256:\n        /* \"#utility.yul\":4939:4989   */\n      tag_364\n        /* \"#utility.yul\":4983:4988   */\n      dup2\n        /* \"#utility.yul\":4939:4989   */\n      tag_255\n      jump\t// in\n    tag_364:\n        /* \"#utility.yul\":4934:4937   */\n      dup3\n        /* \"#utility.yul\":4927:4990   */\n      mstore\n        /* \"#utility.yul\":4839:4996   */\n      pop\n      pop\n      jump\t// out\n        /* \"#utility.yul\":5002:5250   */\n    tag_54:\n        /* \"#utility.yul\":5108:5112   */\n      0x00\n        /* \"#utility.yul\":5146:5148   */\n      0x20\n        /* \"#utility.yul\":5135:5144   */\n      dup3\n        /* \"#utility.yul\":5131:5149   */\n      add\n        /* \"#utility.yul\":5123:5149   */\n      swap1\n      pop\n        /* \"#utility.yul\":5159:5243   */\n      tag_366\n        /* \"#utility.yul\":5240:5241   */\n      0x00\n        /* \"#utility.yul\":5229:5238   */\n      dup4\n        /* \"#utility.yul\":5225:5242   */\n      add\n        /* \"#utility.yul\":5216:5222   */\n      dup5\n        /* \"#utility.yul\":5159:5243   */\n      tag_256\n      jump\t// in\n    tag_366:\n        /* \"#utility.yul\":5002:5250   */\n      swap3\n      swap2\n      pop\n      pop\n      jump\t// out\n        /* \"#utility.yul\":5256:5394   */\n    tag_257:\n        /* \"#utility.yul\":5318:5327   */\n      0x00\n        /* \"#utility.yul\":5351:5388   */\n      tag_368\n        /* \"#utility.yul\":5382:5387   */\n      dup3\n        /* \"#utility.yul\":5351:5388   */\n      tag_254\n      jump\t// in\n    tag_368:\n        /* \"#utility.yul\":5338:5388   */\n      swap1\n      pop\n        /* \"#utility.yul\":5256:5394   */\n      swap2\n      swap1\n      pop\n      jump\t// out\n        /* \"#utility.yul\":5400:5555   */\n    tag_258:\n        /* \"#utility.yul\":5499:5548   */\n      tag_370\n        /* \"#utility.yul\":5542:5547   */\n      dup2\n        /* \"#utility.yul\":5499:5548   */\n      tag_257\n      jump\t// in\n    tag_370:\n        /* \"#utility.yul\":5494:5497   */\n      dup3\n        /* \"#utility.yul\":5487:5549   */\n      mstore\n        /* \"#utility.yul\":5400:5555   */\n      pop\n      pop\n      jump\t// out\n        /* \"#utility.yul\":5561:5807   */\n    tag_78:\n        /* \"#utility.yul\":5666:5670   */\n      0x00\n        /* \"#utility.yul\":5704:5706   */\n      0x20\n        /* \"#utility.yul\":5693:5702   */\n      dup3\n        /* \"#utility.yul\":5689:5707   */\n      add\n        /* \"#utility.yul\":5681:5707   */\n      swap1\n      pop\n        /* \"#utility.yul\":5717:5800   */\n      tag_372\n        /* \"#utility.yul\":5797:5798   */\n      0x00\n        /* \"#utility.yul\":5786:5795   */\n      dup4\n        /* \"#utility.yul\":5782:5799   */\n      add\n        /* \"#utility.yul\":5773:5779   */\n      dup5\n        /* \"#utility.yul\":5717:5800   */\n      tag_258\n      jump\t// in\n    tag_372:\n        /* \"#utility.yul\":5561:5807   */\n      swap3\n      swap2\n      pop\n      pop\n      jump\t// out\n        /* \"#utility.yul\":5813:6578   */\n    tag_101:\n        /* \"#utility.yul\":5899:5905   */\n      0x00\n        /* \"#utility.yul\":5907:5913   */\n      0x00\n        /* \"#utility.yul\":5915:5921   */\n      0x00\n        /* \"#utility.yul\":5923:5929   */\n      0x00\n        /* \"#utility.yul\":5972:5975   */\n      0x80\n        /* \"#utility.yul\":5960:5969   */\n      dup6\n        /* \"#utility.yul\":5951:5958   */\n      dup8\n        /* \"#utility.yul\":5947:5970   */\n      sub\n        /* \"#utility.yul\":5943:5976   */\n      slt\n        /* \"#utility.yul\":5940:6060   */\n      iszero\n      tag_374\n      jumpi\n        /* \"#utility.yul\":5979:6058   */\n      tag_375\n      tag_239\n      jump\t// in\n    tag_375:\n        /* \"#utility.yul\":5940:6060   */\n    tag_374:\n        /* \"#utility.yul\":6099:6100   */\n      0x00\n        /* \"#utility.yul\":6124:6177   */\n      tag_376\n        /* \"#utility.yul\":6169:6176   */\n      dup8\n        /* \"#utility.yul\":6160:6166   */\n      dup3\n        /* \"#utility.yul\":6149:6158   */\n      dup9\n        /* \"#utility.yul\":6145:6167   */\n      add\n        /* \"#utility.yul\":6124:6177   */\n      tag_247\n      jump\t// in\n    tag_376:\n        /* \"#utility.yul\":6114:6177   */\n      swap5\n      pop\n        /* \"#utility.yul\":6070:6187   */\n      pop\n        /* \"#utility.yul\":6226:6228   */\n      0x20\n        /* \"#utility.yul\":6252:6305   */\n      tag_377\n        /* \"#utility.yul\":6297:6304   */\n      dup8\n        /* \"#utility.yul\":6288:6294   */\n      dup3\n        /* \"#utility.yul\":6277:6286   */\n      dup9\n        /* \"#utility.yul\":6273:6295   */\n      add\n        /* \"#utility.yul\":6252:6305   */\n      tag_247\n      jump\t// in\n    tag_377:\n        /* \"#utility.yul\":6242:6305   */\n      swap4\n      pop\n        /* \"#utility.yul\":6197:6315   */\n      pop\n        /* \"#utility.yul\":6354:6356   */\n      0x40\n        /* \"#utility.yul\":6380:6433   */\n      tag_378\n        /* \"#utility.yul\":6425:6432   */\n      dup8\n        /* \"#utility.yul\":6416:6422   */\n      dup3\n        /* \"#utility.yul\":6405:6414   */\n      dup9\n        /* \"#utility.yul\":6401:6423   */\n      add\n        /* \"#utility.yul\":6380:6433   */\n      tag_247\n      jump\t// in\n    tag_378:\n        /* \"#utility.yul\":6370:6433   */\n      swap3\n      pop\n        /* \"#utility.yul\":6325:6443   */\n      pop\n        /* \"#utility.yul\":6482:6484   */\n      0x60\n        /* \"#utility.yul\":6508:6561   */\n      tag_379\n        /* \"#utility.yul\":6553:6560   */\n      dup8\n        /* \"#utility.yul\":6544:6550   */\n      dup3\n        /* \"#utility.yul\":6533:6542   */\n      dup9\n        /* \"#utility.yul\":6529:6551   */\n      add\n        /* \"#utility.yul\":6508:6561   */\n      tag_244\n      jump\t// in\n    tag_379:\n        /* \"#utility.yul\":6498:6561   */\n      swap2\n      pop\n        /* \"#utility.yul\":6453:6571   */\n      pop\n        /* \"#utility.yul\":5813:6578   */\n      swap3\n      swap6\n      swap2\n      swap5\n      pop\n      swap3\n      pop\n      jump\t// out\n        /* \"#utility.yul\":6584:6688   */\n    tag_259:\n        /* \"#utility.yul\":6629:6636   */\n      0x00\n        /* \"#utility.yul\":6658:6682   */\n      tag_381\n        /* \"#utility.yul\":6676:6681   */\n      dup3\n        /* \"#utility.yul\":6658:6682   */\n      tag_241\n      jump\t// in\n    tag_381:\n        /* \"#utility.yul\":6647:6682   */\n      swap1\n      pop\n        /* \"#utility.yul\":6584:6688   */\n      swap2\n      swap1\n      pop\n      jump\t// out\n        /* \"#utility.yul\":6694:6836   */\n    tag_260:\n        /* \"#utility.yul\":6797:6829   */\n      tag_383\n        /* \"#utility.yul\":6823:6828   */\n      dup2\n        /* \"#utility.yul\":6797:6829   */\n      tag_259\n      jump\t// in\n    tag_383:\n        /* \"#utility.yul\":6792:6795   */\n      dup3\n        /* \"#utility.yul\":6785:6830   */\n      mstore\n        /* \"#utility.yul\":6694:6836   */\n      pop\n      pop\n      jump\t// out\n        /* \"#utility.yul\":6842:8182   */\n    tag_108:\n        /* \"#utility.yul\":7220:7224   */\n      0x00\n        /* \"#utility.yul\":7258:7261   */\n      0x0160\n        /* \"#utility.yul\":7247:7256   */\n      dup3\n        /* \"#utility.yul\":7243:7262   */\n      add\n        /* \"#utility.yul\":7235:7262   */\n      swap1\n      pop\n        /* \"#utility.yul\":7272:7343   */\n      tag_385\n        /* \"#utility.yul\":7340:7341   */\n      0x00\n        /* \"#utility.yul\":7329:7338   */\n      dup4\n        /* \"#utility.yul\":7325:7342   */\n      add\n        /* \"#utility.yul\":7316:7322   */\n      dup15\n        /* \"#utility.yul\":7272:7343   */\n      tag_248\n      jump\t// in\n    tag_385:\n        /* \"#utility.yul\":7353:7425   */\n      tag_386\n        /* \"#utility.yul\":7421:7423   */\n      0x20\n        /* \"#utility.yul\":7410:7419   */\n      dup4\n        /* \"#utility.yul\":7406:7424   */\n      add\n        /* \"#utility.yul\":7397:7403   */\n      dup14\n        /* \"#utility.yul\":7353:7425   */\n      tag_248\n      jump\t// in\n    tag_386:\n        /* \"#utility.yul\":7435:7507   */\n      tag_387\n        /* \"#utility.yul\":7503:7505   */\n      0x40\n        /* \"#utility.yul\":7492:7501   */\n      dup4\n        /* \"#utility.yul\":7488:7506   */\n      add\n        /* \"#utility.yul\":7479:7485   */\n      dup13\n        /* \"#utility.yul\":7435:7507   */\n      tag_248\n      jump\t// in\n    tag_387:\n        /* \"#utility.yul\":7517:7589   */\n      tag_388\n        /* \"#utility.yul\":7585:7587   */\n      0x60\n        /* \"#utility.yul\":7574:7583   */\n      dup4\n        /* \"#utility.yul\":7570:7588   */\n      add\n        /* \"#utility.yul\":7561:7567   */\n      dup12\n        /* \"#utility.yul\":7517:7589   */\n      tag_248\n      jump\t// in\n    tag_388:\n        /* \"#utility.yul\":7599:7672   */\n      tag_389\n        /* \"#utility.yul\":7667:7670   */\n      0x80\n        /* \"#utility.yul\":7656:7665   */\n      dup4\n        /* \"#utility.yul\":7652:7671   */\n      add\n        /* \"#utility.yul\":7643:7649   */\n      dup11\n        /* \"#utility.yul\":7599:7672   */\n      tag_248\n      jump\t// in\n    tag_389:\n        /* \"#utility.yul\":7682:7755   */\n      tag_390\n        /* \"#utility.yul\":7750:7753   */\n      0xa0\n        /* \"#utility.yul\":7739:7748   */\n      dup4\n        /* \"#utility.yul\":7735:7754   */\n      add\n        /* \"#utility.yul\":7726:7732   */\n      dup10\n        /* \"#utility.yul\":7682:7755   */\n      tag_249\n      jump\t// in\n    tag_390:\n        /* \"#utility.yul\":7765:7854   */\n      tag_391\n        /* \"#utility.yul\":7849:7852   */\n      0xc0\n        /* \"#utility.yul\":7838:7847   */\n      dup4\n        /* \"#utility.yul\":7834:7853   */\n      add\n        /* \"#utility.yul\":7825:7831   */\n      dup9\n        /* \"#utility.yul\":7765:7854   */\n      tag_260\n      jump\t// in\n    tag_391:\n        /* \"#utility.yul\":7864:7931   */\n      tag_392\n        /* \"#utility.yul\":7926:7929   */\n      0xe0\n        /* \"#utility.yul\":7915:7924   */\n      dup4\n        /* \"#utility.yul\":7911:7930   */\n      add\n        /* \"#utility.yul\":7902:7908   */\n      dup8\n        /* \"#utility.yul\":7864:7931   */\n      tag_251\n      jump\t// in\n    tag_392:\n        /* \"#utility.yul\":7941:8008   */\n      tag_393\n        /* \"#utility.yul\":8003:8006   */\n      0x0100\n        /* \"#utility.yul\":7992:8001   */\n      dup4\n        /* \"#utility.yul\":7988:8007   */\n      add\n        /* \"#utility.yul\":7979:7985   */\n      dup7\n        /* \"#utility.yul\":7941:8008   */\n      tag_251\n      jump\t// in\n    tag_393:\n        /* \"#utility.yul\":8018:8091   */\n      tag_394\n        /* \"#utility.yul\":8086:8089   */\n      0x0120\n        /* \"#utility.yul\":8075:8084   */\n      dup4\n        /* \"#utility.yul\":8071:8090   */\n      add\n        /* \"#utility.yul\":8062:8068   */\n      dup6\n        /* \"#utility.yul\":8018:8091   */\n      tag_249\n      jump\t// in\n    tag_394:\n        /* \"#utility.yul\":8101:8175   */\n      tag_395\n        /* \"#utility.yul\":8170:8173   */\n      0x0140\n        /* \"#utility.yul\":8159:8168   */\n      dup4\n        /* \"#utility.yul\":8155:8174   */\n      add\n        /* \"#utility.yul\":8145:8152   */\n      dup5\n        /* \"#utility.yul\":8101:8175   */\n      tag_248\n      jump\t// in\n    tag_395:\n        /* \"#utility.yul\":6842:8182   */\n      swap13\n      swap12\n      pop\n      pop\n      pop\n      pop\n      pop\n      pop\n      pop\n      pop\n      pop\n      pop\n      pop\n      pop\n      jump\t// out\n        /* \"#utility.yul\":8188:8357   */\n    tag_261:\n        /* \"#utility.yul\":8272:8283   */\n      0x00\n        /* \"#utility.yul\":8306:8312   */\n      dup3\n        /* \"#utility.yul\":8301:8304   */\n      dup3\n        /* \"#utility.yul\":8294:8313   */\n      mstore\n        /* \"#utility.yul\":8346:8350   */\n      0x20\n        /* \"#utility.yul\":8341:8344   */\n      dup3\n        /* \"#utility.yul\":8337:8351   */\n      add\n        /* \"#utility.yul\":8322:8351   */\n      swap1\n      pop\n        /* \"#utility.yul\":8188:8357   */\n      swap3\n      swap2\n      pop\n      pop\n      jump\t// out\n        /* \"#utility.yul\":8363:8541   */\n    tag_262:\n        /* \"#utility.yul\":8503:8533   */\n      0x556e737570706f7274656420636f6c6c61746572616c20746f6b656e00000000\n        /* \"#utility.yul\":8499:8500   */\n      0x00\n        /* \"#utility.yul\":8491:8497   */\n      dup3\n        /* \"#utility.yul\":8487:8501   */\n      add\n        /* \"#utility.yul\":8480:8534   */\n      mstore\n        /* \"#utility.yul\":8363:8541   */\n      pop\n      jump\t// out\n        /* \"#utility.yul\":8547:8913   */\n    tag_263:\n        /* \"#utility.yul\":8689:8692   */\n      0x00\n        /* \"#utility.yul\":8710:8777   */\n      tag_399\n        /* \"#utility.yul\":8774:8776   */\n      0x1c\n        /* \"#utility.yul\":8769:8772   */\n      dup4\n        /* \"#utility.yul\":8710:8777   */\n      tag_261\n      jump\t// in\n    tag_399:\n        /* \"#utility.yul\":8703:8777   */\n      swap2\n      pop\n        /* \"#utility.yul\":8786:8879   */\n      tag_400\n        /* \"#utility.yul\":8875:8878   */\n      dup3\n        /* \"#utility.yul\":8786:8879   */\n      tag_262\n      jump\t// in\n    tag_400:\n        /* \"#utility.yul\":8904:8906   */\n      0x20\n        /* \"#utility.yul\":8899:8902   */\n      dup3\n        /* \"#utility.yul\":8895:8907   */\n      add\n        /* \"#utility.yul\":8888:8907   */\n      swap1\n      pop\n        /* \"#utility.yul\":8547:8913   */\n      swap2\n      swap1\n      pop\n      jump\t// out\n        /* \"#utility.yul\":8919:9338   */\n    tag_112:\n        /* \"#utility.yul\":9085:9089   */\n      0x00\n        /* \"#utility.yul\":9123:9125   */\n      0x20\n        /* \"#utility.yul\":9112:9121   */\n      dup3\n        /* \"#utility.yul\":9108:9126   */\n      add\n        /* \"#utility.yul\":9100:9126   */\n      swap1\n      pop\n        /* \"#utility.yul\":9172:9181   */\n      dup2\n        /* \"#utility.yul\":9166:9170   */\n      dup2\n        /* \"#utility.yul\":9162:9182   */\n      sub\n        /* \"#utility.yul\":9158:9159   */\n      0x00\n        /* \"#utility.yul\":9147:9156   */\n      dup4\n        /* \"#utility.yul\":9143:9160   */\n      add\n        /* \"#utility.yul\":9136:9183   */\n      mstore\n        /* \"#utility.yul\":9200:9331   */\n      tag_402\n        /* \"#utility.yul\":9326:9330   */\n      dup2\n        /* \"#utility.yul\":9200:9331   */\n      tag_263\n      jump\t// in\n    tag_402:\n        /* \"#utility.yul\":9192:9331   */\n      swap1\n      pop\n        /* \"#utility.yul\":8919:9338   */\n      swap2\n      swap1\n      pop\n      jump\t// out\n        /* \"#utility.yul\":9344:9524   */\n    tag_264:\n        /* \"#utility.yul\":9392:9469   */\n      0x4e487b7100000000000000000000000000000000000000000000000000000000\n        /* \"#utility.yul\":9389:9390   */\n      0x00\n        /* \"#utility.yul\":9382:9470   */\n      mstore\n        /* \"#utility.yul\":9489:9493   */\n      0x11\n        /* \"#utility.yul\":9486:9487   */\n      0x04\n        /* \"#utility.yul\":9479:9494   */\n      mstore\n        /* \"#utility.yul\":9513:9517   */\n      0x24\n        /* \"#utility.yul\":9510:9511   */\n      0x00\n        /* \"#utility.yul\":9503:9518   */\n      revert\n        /* \"#utility.yul\":9530:9940   */\n    tag_114:\n        /* \"#utility.yul\":9570:9577   */\n      0x00\n        /* \"#utility.yul\":9593:9613   */\n      tag_405\n        /* \"#utility.yul\":9611:9612   */\n      dup3\n        /* \"#utility.yul\":9593:9613   */\n      tag_245\n      jump\t// in\n    tag_405:\n        /* \"#utility.yul\":9588:9613   */\n      swap2\n      pop\n        /* \"#utility.yul\":9627:9647   */\n      tag_406\n        /* \"#utility.yul\":9645:9646   */\n      dup4\n        /* \"#utility.yul\":9627:9647   */\n      tag_245\n      jump\t// in\n    tag_406:\n        /* \"#utility.yul\":9622:9647   */\n      swap3\n      pop\n        /* \"#utility.yul\":9682:9683   */\n      dup3\n        /* \"#utility.yul\":9679:9680   */\n      dup3\n        /* \"#utility.yul\":9675:9684   */\n      mul\n        /* \"#utility.yul\":9704:9734   */\n      tag_407\n        /* \"#utility.yul\":9722:9733   */\n      dup2\n        /* \"#utility.yul\":9704:9734   */\n      tag_245\n      jump\t// in\n    tag_407:\n        /* \"#utility.yul\":9693:9734   */\n      swap2\n      pop\n        /* \"#utility.yul\":9883:9884   */\n      dup3\n        /* \"#utility.yul\":9874:9881   */\n      dup3\n        /* \"#utility.yul\":9870:9885   */\n      div\n        /* \"#utility.yul\":9867:9868   */\n      dup5\n        /* \"#utility.yul\":9864:9886   */\n      eq\n        /* \"#utility.yul\":9844:9845   */\n      dup4\n        /* \"#utility.yul\":9837:9846   */\n      iszero\n        /* \"#utility.yul\":9817:9900   */\n      or\n        /* \"#utility.yul\":9794:9933   */\n      tag_408\n      jumpi\n        /* \"#utility.yul\":9913:9931   */\n      tag_409\n      tag_264\n      jump\t// in\n    tag_409:\n        /* \"#utility.yul\":9794:9933   */\n    tag_408:\n        /* \"#utility.yul\":9578:9940   */\n      pop\n        /* \"#utility.yul\":9530:9940   */\n      swap3\n      swap2\n      pop\n      pop\n      jump\t// out\n        /* \"#utility.yul\":9946:10126   */\n    tag_265:\n        /* \"#utility.yul\":9994:10071   */\n      0x4e487b7100000000000000000000000000000000000000000000000000000000\n        /* \"#utility.yul\":9991:9992   */\n      0x00\n        /* \"#utility.yul\":9984:10072   */\n      mstore\n        /* \"#utility.yul\":10091:10095   */\n      0x12\n        /* \"#utility.yul\":10088:10089   */\n      0x04\n        /* \"#utility.yul\":10081:10096   */\n      mstore\n        /* \"#utility.yul\":10115:10119   */\n      0x24\n        /* \"#utility.yul\":10112:10113   */\n      0x00\n        /* \"#utility.yul\":10105:10120   */\n      revert\n        /* \"#utility.yul\":10132:10317   */\n    tag_118:\n        /* \"#utility.yul\":10172:10173   */\n      0x00\n        /* \"#utility.yul\":10189:10209   */\n      tag_412\n        /* \"#utility.yul\":10207:10208   */\n      dup3\n        /* \"#utility.yul\":10189:10209   */\n      tag_245\n      jump\t// in\n    tag_412:\n        /* \"#utility.yul\":10184:10209   */\n      swap2\n      pop\n        /* \"#utility.yul\":10223:10243   */\n      tag_413\n        /* \"#utility.yul\":10241:10242   */\n      dup4\n        /* \"#utility.yul\":10223:10243   */\n      tag_245\n      jump\t// in\n    tag_413:\n        /* \"#utility.yul\":10218:10243   */\n      swap3\n      pop\n        /* \"#utility.yul\":10262:10263   */\n      dup3\n        /* \"#utility.yul\":10252:10287   */\n      tag_414\n      jumpi\n        /* \"#utility.yul\":10267:10285   */\n      tag_415\n      tag_265\n      jump\t// in\n    tag_415:\n        /* \"#utility.yul\":10252:10287   */\n    tag_414:\n        /* \"#utility.yul\":10309:10310   */\n      dup3\n        /* \"#utility.yul\":10306:10307   */\n      dup3\n        /* \"#utility.yul\":10302:10311   */\n      div\n        /* \"#utility.yul\":10297:10311   */\n      swap1\n      pop\n        /* \"#utility.yul\":10132:10317   */\n      swap3\n      swap2\n      pop\n      pop\n      jump\t// out\n        /* \"#utility.yul\":10323:10491   */\n    tag_266:\n        /* \"#utility.yul\":10463:10483   */\n      0x4c6f616e206973206e6f74206163746976650000000000000000000000000000\n        /* \"#utility.yul\":10459:10460   */\n      0x00\n        /* \"#utility.yul\":10451:10457   */\n      dup3\n        /* \"#utility.yul\":10447:10461   */\n      add\n        /* \"#utility.yul\":10440:10484   */\n      mstore\n        /* \"#utility.yul\":10323:10491   */\n      pop\n      jump\t// out\n        /* \"#utility.yul\":10497:10863   */\n    tag_267:\n        /* \"#utility.yul\":10639:10642   */\n      0x00\n        /* \"#utility.yul\":10660:10727   */\n      tag_418\n        /* \"#utility.yul\":10724:10726   */\n      0x12\n        /* \"#utility.yul\":10719:10722   */\n      dup4\n        /* \"#utility.yul\":10660:10727   */\n      tag_261\n      jump\t// in\n    tag_418:\n        /* \"#utility.yul\":10653:10727   */\n      swap2\n      pop\n        /* \"#utility.yul\":10736:10829   */\n      tag_419\n        /* \"#utility.yul\":10825:10828   */\n      dup3\n        /* \"#utility.yul\":10736:10829   */\n      tag_266\n      jump\t// in\n    tag_419:\n        /* \"#utility.yul\":10854:10856   */\n      0x20\n        /* \"#utility.yul\":10849:10852   */\n      dup3\n        /* \"#utility.yul\":10845:10857   */\n      add\n        /* \"#utility.yul\":10838:10857   */\n      swap1\n      pop\n        /* \"#utility.yul\":10497:10863   */\n      swap2\n      swap1\n      pop\n      jump\t// out\n        /* \"#utility.yul\":10869:11288   */\n    tag_123:\n        /* \"#utility.yul\":11035:11039   */\n      0x00\n        /* \"#utility.yul\":11073:11075   */\n      0x20\n        /* \"#utility.yul\":11062:11071   */\n      dup3\n        /* \"#utility.yul\":11058:11076   */\n      add\n        /* \"#utility.yul\":11050:11076   */\n      swap1\n      pop\n        /* \"#utility.yul\":11122:11131   */\n      dup2\n        /* \"#utility.yul\":11116:11120   */\n      dup2\n        /* \"#utility.yul\":11112:11132   */\n      sub\n        /* \"#utility.yul\":11108:11109   */\n      0x00\n        /* \"#utility.yul\":11097:11106   */\n      dup4\n        /* \"#utility.yul\":11093:11110   */\n      add\n        /* \"#utility.yul\":11086:11133   */\n      mstore\n        /* \"#utility.yul\":11150:11281   */\n      tag_421\n        /* \"#utility.yul\":11276:11280   */\n      dup2\n        /* \"#utility.yul\":11150:11281   */\n      tag_267\n      jump\t// in\n    tag_421:\n        /* \"#utility.yul\":11142:11281   */\n      swap1\n      pop\n        /* \"#utility.yul\":10869:11288   */\n      swap2\n      swap1\n      pop\n      jump\t// out\n        /* \"#utility.yul\":11294:11516   */\n    tag_268:\n        /* \"#utility.yul\":11434:11468   */\n      0x426f72726f7765722063616e6e6f742066756e64207468656972206f776e206c\n        /* \"#utility.yul\":11430:11431   */\n      0x00\n        /* \"#utility.yul\":11422:11428   */\n      dup3\n        /* \"#utility.yul\":11418:11432   */\n      add\n        /* \"#utility.yul\":11411:11469   */\n      mstore\n        /* \"#utility.yul\":11503:11508   */\n      0x6f616e0000000000000000000000000000000000000000000000000000000000\n        /* \"#utility.yul\":11498:11500   */\n      0x20\n        /* \"#utility.yul\":11490:11496   */\n      dup3\n        /* \"#utility.yul\":11486:11501   */\n      add\n        /* \"#utility.yul\":11479:11509   */\n      mstore\n        /* \"#utility.yul\":11294:11516   */\n      pop\n      jump\t// out\n        /* \"#utility.yul\":11522:11888   */\n    tag_269:\n        /* \"#utility.yul\":11664:11667   */\n      0x00\n        /* \"#utility.yul\":11685:11752   */\n      tag_424\n        /* \"#utility.yul\":11749:11751   */\n      0x23\n        /* \"#utility.yul\":11744:11747   */\n      dup4\n        /* \"#utility.yul\":11685:11752   */\n      tag_261\n      jump\t// in\n    tag_424:\n        /* \"#utility.yul\":11678:11752   */\n      swap2\n      pop\n        /* \"#utility.yul\":11761:11854   */\n      tag_425\n        /* \"#utility.yul\":11850:11853   */\n      dup3\n        /* \"#utility.yul\":11761:11854   */\n      tag_268\n      jump\t// in\n    tag_425:\n        /* \"#utility.yul\":11879:11881   */\n      0x40\n        /* \"#utility.yul\":11874:11877   */\n      dup3\n        /* \"#utility.yul\":11870:11882   */\n      add\n        /* \"#utility.yul\":11863:11882   */\n      swap1\n      pop\n        /* \"#utility.yul\":11522:11888   */\n      swap2\n      swap1\n      pop\n      jump\t// out\n        /* \"#utility.yul\":11894:12313   */\n    tag_127:\n        /* \"#utility.yul\":12060:12064   */\n      0x00\n        /* \"#utility.yul\":12098:12100   */\n      0x20\n        /* \"#utility.yul\":12087:12096   */\n      dup3\n        /* \"#utility.yul\":12083:12101   */\n      add\n        /* \"#utility.yul\":12075:12101   */\n      swap1\n      pop\n        /* \"#utility.yul\":12147:12156   */\n      dup2\n        /* \"#utility.yul\":12141:12145   */\n      dup2\n        /* \"#utility.yul\":12137:12157   */\n      sub\n        /* \"#utility.yul\":12133:12134   */\n      0x00\n        /* \"#utility.yul\":12122:12131   */\n      dup4\n        /* \"#utility.yul\":12118:12135   */\n      add\n        /* \"#utility.yul\":12111:12158   */\n      mstore\n        /* \"#utility.yul\":12175:12306   */\n      tag_427\n        /* \"#utility.yul\":12301:12305   */\n      dup2\n        /* \"#utility.yul\":12175:12306   */\n      tag_269\n      jump\t// in\n    tag_427:\n        /* \"#utility.yul\":12167:12306   */\n      swap1\n      pop\n        /* \"#utility.yul\":11894:12313   */\n      swap2\n      swap1\n      pop\n      jump\t// out\n        /* \"#utility.yul\":12319:12493   */\n    tag_270:\n        /* \"#utility.yul\":12459:12485   */\n      0x496e636f72726563742066756e64696e6720616d6f756e740000000000000000\n        /* \"#utility.yul\":12455:12456   */\n      0x00\n        /* \"#utility.yul\":12447:12453   */\n      dup3\n        /* \"#utility.yul\":12443:12457   */\n      add\n        /* \"#utility.yul\":12436:12486   */\n      mstore\n        /* \"#utility.yul\":12319:12493   */\n      pop\n      jump\t// out\n        /* \"#utility.yul\":12499:12865   */\n    tag_271:\n        /* \"#utility.yul\":12641:12644   */\n      0x00\n        /* \"#utility.yul\":12662:12729   */\n      tag_430\n        /* \"#utility.yul\":12726:12728   */\n      0x18\n        /* \"#utility.yul\":12721:12724   */\n      dup4\n        /* \"#utility.yul\":12662:12729   */\n      tag_261\n      jump\t// in\n    tag_430:\n        /* \"#utility.yul\":12655:12729   */\n      swap2\n      pop\n        /* \"#utility.yul\":12738:12831   */\n      tag_431\n        /* \"#utility.yul\":12827:12830   */\n      dup3\n        /* \"#utility.yul\":12738:12831   */\n      tag_270\n      jump\t// in\n    tag_431:\n        /* \"#utility.yul\":12856:12858   */\n      0x20\n        /* \"#utility.yul\":12851:12854   */\n      dup3\n        /* \"#utility.yul\":12847:12859   */\n      add\n        /* \"#utility.yul\":12840:12859   */\n      swap1\n      pop\n        /* \"#utility.yul\":12499:12865   */\n      swap2\n      swap1\n      pop\n      jump\t// out\n        /* \"#utility.yul\":12871:13290   */\n    tag_130:\n        /* \"#utility.yul\":13037:13041   */\n      0x00\n        /* \"#utility.yul\":13075:13077   */\n      0x20\n        /* \"#utility.yul\":13064:13073   */\n      dup3\n        /* \"#utility.yul\":13060:13078   */\n      add\n        /* \"#utility.yul\":13052:13078   */\n      swap1\n      pop\n        /* \"#utility.yul\":13124:13133   */\n      dup2\n        /* \"#utility.yul\":13118:13122   */\n      dup2\n        /* \"#utility.yul\":13114:13134   */\n      sub\n        /* \"#utility.yul\":13110:13111   */\n      0x00\n        /* \"#utility.yul\":13099:13108   */\n      dup4\n        /* \"#utility.yul\":13095:13112   */\n      add\n        /* \"#utility.yul\":13088:13135   */\n      mstore\n        /* \"#utility.yul\":13152:13283   */\n      tag_433\n        /* \"#utility.yul\":13278:13282   */\n      dup2\n        /* \"#utility.yul\":13152:13283   */\n      tag_271\n      jump\t// in\n    tag_433:\n        /* \"#utility.yul\":13144:13283   */\n      swap1\n      pop\n        /* \"#utility.yul\":12871:13290   */\n      swap2\n      swap1\n      pop\n      jump\t// out\n        /* \"#utility.yul\":13296:13469   */\n    tag_272:\n        /* \"#utility.yul\":13436:13461   */\n      0x46756e64696e6720646561646c696e6520706173736564000000000000000000\n        /* \"#utility.yul\":13432:13433   */\n      0x00\n        /* \"#utility.yul\":13424:13430   */\n      dup3\n        /* \"#utility.yul\":13420:13434   */\n      add\n        /* \"#utility.yul\":13413:13462   */\n      mstore\n        /* \"#utility.yul\":13296:13469   */\n      pop\n      jump\t// out\n        /* \"#utility.yul\":13475:13841   */\n    tag_273:\n        /* \"#utility.yul\":13617:13620   */\n      0x00\n        /* \"#utility.yul\":13638:13705   */\n      tag_436\n        /* \"#utility.yul\":13702:13704   */\n      0x17\n        /* \"#utility.yul\":13697:13700   */\n      dup4\n        /* \"#utility.yul\":13638:13705   */\n      tag_261\n      jump\t// in\n    tag_436:\n        /* \"#utility.yul\":13631:13705   */\n      swap2\n      pop\n        /* \"#utility.yul\":13714:13807   */\n      tag_437\n        /* \"#utility.yul\":13803:13806   */\n      dup3\n        /* \"#utility.yul\":13714:13807   */\n      tag_272\n      jump\t// in\n    tag_437:\n        /* \"#utility.yul\":13832:13834   */\n      0x20\n        /* \"#utility.yul\":13827:13830   */\n      dup3\n        /* \"#utility.yul\":13823:13835   */\n      add\n        /* \"#utility.yul\":13816:13835   */\n      swap1\n      pop\n        /* \"#utility.yul\":13475:13841   */\n      swap2\n      swap1\n      pop\n      jump\t// out\n        /* \"#utility.yul\":13847:14266   */\n    tag_133:\n        /* \"#utility.yul\":14013:14017   */\n      0x00\n        /* \"#utility.yul\":14051:14053   */\n      0x20\n        /* \"#utility.yul\":14040:14049   */\n      dup3\n        /* \"#utility.yul\":14036:14054   */\n      add\n        /* \"#utility.yul\":14028:14054   */\n      swap1\n      pop\n        /* \"#utility.yul\":14100:14109   */\n      dup2\n        /* \"#utility.yul\":14094:14098   */\n      dup2\n        /* \"#utility.yul\":14090:14110   */\n      sub\n        /* \"#utility.yul\":14086:14087   */\n      0x00\n        /* \"#utility.yul\":14075:14084   */\n      dup4\n        /* \"#utility.yul\":14071:14088   */\n      add\n        /* \"#utility.yul\":14064:14111   */\n      mstore\n        /* \"#utility.yul\":14128:14259   */\n      tag_439\n        /* \"#utility.yul\":14254:14258   */\n      dup2\n        /* \"#utility.yul\":14128:14259   */\n      tag_273\n      jump\t// in\n    tag_439:\n        /* \"#utility.yul\":14120:14259   */\n      swap1\n      pop\n        /* \"#utility.yul\":13847:14266   */\n      swap2\n      swap1\n      pop\n      jump\t// out\n        /* \"#utility.yul\":14272:14714   */\n    tag_137:\n        /* \"#utility.yul\":14421:14425   */\n      0x00\n        /* \"#utility.yul\":14459:14461   */\n      0x60\n        /* \"#utility.yul\":14448:14457   */\n      dup3\n        /* \"#utility.yul\":14444:14462   */\n      add\n        /* \"#utility.yul\":14436:14462   */\n      swap1\n      pop\n        /* \"#utility.yul\":14472:14543   */\n      tag_441\n        /* \"#utility.yul\":14540:14541   */\n      0x00\n        /* \"#utility.yul\":14529:14538   */\n      dup4\n        /* \"#utility.yul\":14525:14542   */\n      add\n        /* \"#utility.yul\":14516:14522   */\n      dup7\n        /* \"#utility.yul\":14472:14543   */\n      tag_248\n      jump\t// in\n    tag_441:\n        /* \"#utility.yul\":14553:14625   */\n      tag_442\n        /* \"#utility.yul\":14621:14623   */\n      0x20\n        /* \"#utility.yul\":14610:14619   */\n      dup4\n        /* \"#utility.yul\":14606:14624   */\n      add\n        /* \"#utility.yul\":14597:14603   */\n      dup6\n        /* \"#utility.yul\":14553:14625   */\n      tag_249\n      jump\t// in\n    tag_442:\n        /* \"#utility.yul\":14635:14707   */\n      tag_443\n        /* \"#utility.yul\":14703:14705   */\n      0x40\n        /* \"#utility.yul\":14692:14701   */\n      dup4\n        /* \"#utility.yul\":14688:14706   */\n      add\n        /* \"#utility.yul\":14679:14685   */\n      dup5\n        /* \"#utility.yul\":14635:14707   */\n      tag_248\n      jump\t// in\n    tag_443:\n        /* \"#utility.yul\":14272:14714   */\n      swap5\n      swap4\n      pop\n      pop\n      pop\n      pop\n      jump\t// out\n        /* \"#utility.yul\":14720:14944   */\n    tag_274:\n        /* \"#utility.yul\":14860:14894   */\n      0x4f6e6c7920626f72726f7765722063616e20706572666f726d20746869732061\n        /* \"#utility.yul\":14856:14857   */\n      0x00\n        /* \"#utility.yul\":14848:14854   */\n      dup3\n        /* \"#utility.yul\":14844:14858   */\n      add\n        /* \"#utility.yul\":14837:14895   */\n      mstore\n        /* \"#utility.yul\":14929:14936   */\n      0x6374696f6e000000000000000000000000000000000000000000000000000000\n        /* \"#utility.yul\":14924:14926   */\n      0x20\n        /* \"#utility.yul\":14916:14922   */\n      dup3\n        /* \"#utility.yul\":14912:14927   */\n      add\n        /* \"#utility.yul\":14905:14937   */\n      mstore\n        /* \"#utility.yul\":14720:14944   */\n      pop\n      jump\t// out\n        /* \"#utility.yul\":14950:15316   */\n    tag_275:\n        /* \"#utility.yul\":15092:15095   */\n      0x00\n        /* \"#utility.yul\":15113:15180   */\n      tag_446\n        /* \"#utility.yul\":15177:15179   */\n      0x25\n        /* \"#utility.yul\":15172:15175   */\n      dup4\n        /* \"#utility.yul\":15113:15180   */\n      tag_261\n      jump\t// in\n    tag_446:\n        /* \"#utility.yul\":15106:15180   */\n      swap2\n      pop\n        /* \"#utility.yul\":15189:15282   */\n      tag_447\n        /* \"#utility.yul\":15278:15281   */\n      dup3\n        /* \"#utility.yul\":15189:15282   */\n      tag_274\n      jump\t// in\n    tag_447:\n        /* \"#utility.yul\":15307:15309   */\n      0x40\n        /* \"#utility.yul\":15302:15305   */\n      dup3\n        /* \"#utility.yul\":15298:15310   */\n      add\n        /* \"#utility.yul\":15291:15310   */\n      swap1\n      pop\n        /* \"#utility.yul\":14950:15316   */\n      swap2\n      swap1\n      pop\n      jump\t// out\n        /* \"#utility.yul\":15322:15741   */\n    tag_141:\n        /* \"#utility.yul\":15488:15492   */\n      0x00\n        /* \"#utility.yul\":15526:15528   */\n      0x20\n        /* \"#utility.yul\":15515:15524   */\n      dup3\n        /* \"#utility.yul\":15511:15529   */\n      add\n        /* \"#utility.yul\":15503:15529   */\n      swap1\n      pop\n        /* \"#utility.yul\":15575:15584   */\n      dup2\n        /* \"#utility.yul\":15569:15573   */\n      dup2\n        /* \"#utility.yul\":15565:15585   */\n      sub\n        /* \"#utility.yul\":15561:15562   */\n      0x00\n        /* \"#utility.yul\":15550:15559   */\n      dup4\n        /* \"#utility.yul\":15546:15563   */\n      add\n        /* \"#utility.yul\":15539:15586   */\n      mstore\n        /* \"#utility.yul\":15603:15734   */\n      tag_449\n        /* \"#utility.yul\":15729:15733   */\n      dup2\n        /* \"#utility.yul\":15603:15734   */\n      tag_275\n      jump\t// in\n    tag_449:\n        /* \"#utility.yul\":15595:15734   */\n      swap1\n      pop\n        /* \"#utility.yul\":15322:15741   */\n      swap2\n      swap1\n      pop\n      jump\t// out\n        /* \"#utility.yul\":15747:15916   */\n    tag_276:\n        /* \"#utility.yul\":15887:15908   */\n      0x4c6f616e20616c72656164792072657061696400000000000000000000000000\n        /* \"#utility.yul\":15883:15884   */\n      0x00\n        /* \"#utility.yul\":15875:15881   */\n      dup3\n        /* \"#utility.yul\":15871:15885   */\n      add\n        /* \"#utility.yul\":15864:15909   */\n      mstore\n        /* \"#utility.yul\":15747:15916   */\n      pop\n      jump\t// out\n        /* \"#utility.yul\":15922:16288   */\n    tag_277:\n        /* \"#utility.yul\":16064:16067   */\n      0x00\n        /* \"#utility.yul\":16085:16152   */\n      tag_452\n        /* \"#utility.yul\":16149:16151   */\n      0x13\n        /* \"#utility.yul\":16144:16147   */\n      dup4\n        /* \"#utility.yul\":16085:16152   */\n      tag_261\n      jump\t// in\n    tag_452:\n        /* \"#utility.yul\":16078:16152   */\n      swap2\n      pop\n        /* \"#utility.yul\":16161:16254   */\n      tag_453\n        /* \"#utility.yul\":16250:16253   */\n      dup3\n        /* \"#utility.yul\":16161:16254   */\n      tag_276\n      jump\t// in\n    tag_453:\n        /* \"#utility.yul\":16279:16281   */\n      0x20\n        /* \"#utility.yul\":16274:16277   */\n      dup3\n        /* \"#utility.yul\":16270:16282   */\n      add\n        /* \"#utility.yul\":16263:16282   */\n      swap1\n      pop\n        /* \"#utility.yul\":15922:16288   */\n      swap2\n      swap1\n      pop\n      jump\t// out\n        /* \"#utility.yul\":16294:16713   */\n    tag_145:\n        /* \"#utility.yul\":16460:16464   */\n      0x00\n        /* \"#utility.yul\":16498:16500   */\n      0x20\n        /* \"#utility.yul\":16487:16496   */\n      dup3\n        /* \"#utility.yul\":16483:16501   */\n      add\n        /* \"#utility.yul\":16475:16501   */\n      swap1\n      pop\n        /* \"#utility.yul\":16547:16556   */\n      dup2\n        /* \"#utility.yul\":16541:16545   */\n      dup2\n        /* \"#utility.yul\":16537:16557   */\n      sub\n        /* \"#utility.yul\":16533:16534   */\n      0x00\n        /* \"#utility.yul\":16522:16531   */\n      dup4\n        /* \"#utility.yul\":16518:16535   */\n      add\n        /* \"#utility.yul\":16511:16558   */\n      mstore\n        /* \"#utility.yul\":16575:16706   */\n      tag_455\n        /* \"#utility.yul\":16701:16705   */\n      dup2\n        /* \"#utility.yul\":16575:16706   */\n      tag_277\n      jump\t// in\n    tag_455:\n        /* \"#utility.yul\":16567:16706   */\n      swap1\n      pop\n        /* \"#utility.yul\":16294:16713   */\n      swap2\n      swap1\n      pop\n      jump\t// out\n        /* \"#utility.yul\":16719:16895   */\n    tag_278:\n        /* \"#utility.yul\":16859:16887   */\n      0x496e636f72726563742072657061796d656e7420616d6f756e74000000000000\n        /* \"#utility.yul\":16855:16856   */\n      0x00\n        /* \"#utility.yul\":16847:16853   */\n      dup3\n        /* \"#utility.yul\":16843:16857   */\n      add\n        /* \"#utility.yul\":16836:16888   */\n      mstore\n        /* \"#utility.yul\":16719:16895   */\n      pop\n      jump\t// out\n        /* \"#utility.yul\":16901:17267   */\n    tag_279:\n        /* \"#utility.yul\":17043:17046   */\n      0x00\n        /* \"#utility.yul\":17064:17131   */\n      tag_458\n        /* \"#utility.yul\":17128:17130   */\n      0x1a\n        /* \"#utility.yul\":17123:17126   */\n      dup4\n        /* \"#utility.yul\":17064:17131   */\n      tag_261\n      jump\t// in\n    tag_458:\n        /* \"#utility.yul\":17057:17131   */\n      swap2\n      pop\n        /* \"#utility.yul\":17140:17233   */\n      tag_459\n        /* \"#utility.yul\":17229:17232   */\n      dup3\n        /* \"#utility.yul\":17140:17233   */\n      tag_278\n      jump\t// in\n    tag_459:\n        /* \"#utility.yul\":17258:17260   */\n      0x20\n        /* \"#utility.yul\":17253:17256   */\n      dup3\n        /* \"#utility.yul\":17249:17261   */\n      add\n        /* \"#utility.yul\":17242:17261   */\n      swap1\n      pop\n        /* \"#utility.yul\":16901:17267   */\n      swap2\n      swap1\n      pop\n      jump\t// out\n        /* \"#utility.yul\":17273:17692   */\n    tag_148:\n        /* \"#utility.yul\":17439:17443   */\n      0x00\n        /* \"#utility.yul\":17477:17479   */\n      0x20\n        /* \"#utility.yul\":17466:17475   */\n      dup3\n        /* \"#utility.yul\":17462:17480   */\n      add\n        /* \"#utility.yul\":17454:17480   */\n      swap1\n      pop\n        /* \"#utility.yul\":17526:17535   */\n      dup2\n        /* \"#utility.yul\":17520:17524   */\n      dup2\n        /* \"#utility.yul\":17516:17536   */\n      sub\n        /* \"#utility.yul\":17512:17513   */\n      0x00\n        /* \"#utility.yul\":17501:17510   */\n      dup4\n        /* \"#utility.yul\":17497:17514   */\n      add\n        /* \"#utility.yul\":17490:17537   */\n      mstore\n        /* \"#utility.yul\":17554:17685   */\n      tag_461\n        /* \"#utility.yul\":17680:17684   */\n      dup2\n        /* \"#utility.yul\":17554:17685   */\n      tag_279\n      jump\t// in\n    tag_461:\n        /* \"#utility.yul\":17546:17685   */\n      swap1\n      pop\n        /* \"#utility.yul\":17273:17692   */\n      swap2\n      swap1\n      pop\n      jump\t// out\n        /* \"#utility.yul\":17698:18030   */\n    tag_160:\n        /* \"#utility.yul\":17819:17823   */\n      0x00\n        /* \"#utility.yul\":17857:17859   */\n      0x40\n        /* \"#utility.yul\":17846:17855   */\n      dup3\n        /* \"#utility.yul\":17842:17860   */\n      add\n        /* \"#utility.yul\":17834:17860   */\n      swap1\n      pop\n        /* \"#utility.yul\":17870:17941   */\n      tag_463\n        /* \"#utility.yul\":17938:17939   */\n      0x00\n        /* \"#utility.yul\":17927:17936   */\n      dup4\n        /* \"#utility.yul\":17923:17940   */\n      add\n        /* \"#utility.yul\":17914:17920   */\n      dup6\n        /* \"#utility.yul\":17870:17941   */\n      tag_249\n      jump\t// in\n    tag_463:\n        /* \"#utility.yul\":17951:18023   */\n      tag_464\n        /* \"#utility.yul\":18019:18021   */\n      0x20\n        /* \"#utility.yul\":18008:18017   */\n      dup4\n        /* \"#utility.yul\":18004:18022   */\n      add\n        /* \"#utility.yul\":17995:18001   */\n      dup5\n        /* \"#utility.yul\":17951:18023   */\n      tag_248\n      jump\t// in\n    tag_464:\n        /* \"#utility.yul\":17698:18030   */\n      swap4\n      swap3\n      pop\n      pop\n      pop\n      jump\t// out\n        /* \"#utility.yul\":18036:18152   */\n    tag_280:\n        /* \"#utility.yul\":18106:18127   */\n      tag_466\n        /* \"#utility.yul\":18121:18126   */\n      dup2\n        /* \"#utility.yul\":18106:18127   */\n      tag_250\n      jump\t// in\n    tag_466:\n        /* \"#utility.yul\":18099:18104   */\n      dup2\n        /* \"#utility.yul\":18096:18128   */\n      eq\n        /* \"#utility.yul\":18086:18146   */\n      tag_467\n      jumpi\n        /* \"#utility.yul\":18142:18143   */\n      0x00\n        /* \"#utility.yul\":18139:18140   */\n      0x00\n        /* \"#utility.yul\":18132:18144   */\n      revert\n        /* \"#utility.yul\":18086:18146   */\n    tag_467:\n        /* \"#utility.yul\":18036:18152   */\n      pop\n      jump\t// out\n        /* \"#utility.yul\":18158:18295   */\n    tag_281:\n        /* \"#utility.yul\":18212:18217   */\n      0x00\n        /* \"#utility.yul\":18243:18249   */\n      dup2\n        /* \"#utility.yul\":18237:18250   */\n      mload\n        /* \"#utility.yul\":18228:18250   */\n      swap1\n      pop\n        /* \"#utility.yul\":18259:18289   */\n      tag_469\n        /* \"#utility.yul\":18283:18288   */\n      dup2\n        /* \"#utility.yul\":18259:18289   */\n      tag_280\n      jump\t// in\n    tag_469:\n        /* \"#utility.yul\":18158:18295   */\n      swap3\n      swap2\n      pop\n      pop\n      jump\t// out\n        /* \"#utility.yul\":18301:18646   */\n    tag_164:\n        /* \"#utility.yul\":18368:18374   */\n      0x00\n        /* \"#utility.yul\":18417:18419   */\n      0x20\n        /* \"#utility.yul\":18405:18414   */\n      dup3\n        /* \"#utility.yul\":18396:18403   */\n      dup5\n        /* \"#utility.yul\":18392:18415   */\n      sub\n        /* \"#utility.yul\":18388:18420   */\n      slt\n        /* \"#utility.yul\":18385:18504   */\n      iszero\n      tag_471\n      jumpi\n        /* \"#utility.yul\":18423:18502   */\n      tag_472\n      tag_239\n      jump\t// in\n    tag_472:\n        /* \"#utility.yul\":18385:18504   */\n    tag_471:\n        /* \"#utility.yul\":18543:18544   */\n      0x00\n        /* \"#utility.yul\":18568:18629   */\n      tag_473\n        /* \"#utility.yul\":18621:18628   */\n      dup5\n        /* \"#utility.yul\":18612:18618   */\n      dup3\n        /* \"#utility.yul\":18601:18610   */\n      dup6\n        /* \"#utility.yul\":18597:18619   */\n      add\n        /* \"#utility.yul\":18568:18629   */\n      tag_281\n      jump\t// in\n    tag_473:\n        /* \"#utility.yul\":18558:18629   */\n      swap2\n      pop\n        /* \"#utility.yul\":18514:18639   */\n      pop\n        /* \"#utility.yul\":18301:18646   */\n      swap3\n      swap2\n      pop\n      pop\n      jump\t// out\n        /* \"#utility.yul\":18652:18826   */\n    tag_282:\n        /* \"#utility.yul\":18792:18818   */\n      0x436f6c6c61746572616c2072657475726e206661696c65640000000000000000\n        /* \"#utility.yul\":18788:18789   */\n      0x00\n        /* \"#utility.yul\":18780:18786   */\n      dup3\n        /* \"#utility.yul\":18776:18790   */\n      add\n        /* \"#utility.yul\":18769:18819   */\n      mstore\n        /* \"#utility.yul\":18652:18826   */\n      pop\n      jump\t// out\n        /* \"#utility.yul\":18832:19198   */\n    tag_283:\n        /* \"#utility.yul\":18974:18977   */\n      0x00\n        /* \"#utility.yul\":18995:19062   */\n      tag_476\n        /* \"#utility.yul\":19059:19061   */\n      0x18\n        /* \"#utility.yul\":19054:19057   */\n      dup4\n        /* \"#utility.yul\":18995:19062   */\n      tag_261\n      jump\t// in\n    tag_476:\n        /* \"#utility.yul\":18988:19062   */\n      swap2\n      pop\n        /* \"#utility.yul\":19071:19164   */\n      tag_477\n        /* \"#utility.yul\":19160:19163   */\n      dup3\n        /* \"#utility.yul\":19071:19164   */\n      tag_282\n      jump\t// in\n    tag_477:\n        /* \"#utility.yul\":19189:19191   */\n      0x20\n        /* \"#utility.yul\":19184:19187   */\n      dup3\n        /* \"#utility.yul\":19180:19192   */\n      add\n        /* \"#utility.yul\":19173:19192   */\n      swap1\n      pop\n        /* \"#utility.yul\":18832:19198   */\n      swap2\n      swap1\n      pop\n      jump\t// out\n        /* \"#utility.yul\":19204:19623   */\n    tag_167:\n        /* \"#utility.yul\":19370:19374   */\n      0x00\n        /* \"#utility.yul\":19408:19410   */\n      0x20\n        /* \"#utility.yul\":19397:19406   */\n      dup3\n        /* \"#utility.yul\":19393:19411   */\n      add\n        /* \"#utility.yul\":19385:19411   */\n      swap1\n      pop\n        /* \"#utility.yul\":19457:19466   */\n      dup2\n        /* \"#utility.yul\":19451:19455   */\n      dup2\n        /* \"#utility.yul\":19447:19467   */\n      sub\n        /* \"#utility.yul\":19443:19444   */\n      0x00\n        /* \"#utility.yul\":19432:19441   */\n      dup4\n        /* \"#utility.yul\":19428:19445   */\n      add\n        /* \"#utility.yul\":19421:19468   */\n      mstore\n        /* \"#utility.yul\":19485:19616   */\n      tag_479\n        /* \"#utility.yul\":19611:19615   */\n      dup2\n        /* \"#utility.yul\":19485:19616   */\n      tag_283\n      jump\t// in\n    tag_479:\n        /* \"#utility.yul\":19477:19616   */\n      swap1\n      pop\n        /* \"#utility.yul\":19204:19623   */\n      swap2\n      swap1\n      pop\n      jump\t// out\n        /* \"#utility.yul\":19629:19961   */\n    tag_169:\n        /* \"#utility.yul\":19750:19754   */\n      0x00\n        /* \"#utility.yul\":19788:19790   */\n      0x40\n        /* \"#utility.yul\":19777:19786   */\n      dup3\n        /* \"#utility.yul\":19773:19791   */\n      add\n        /* \"#utility.yul\":19765:19791   */\n      swap1\n      pop\n        /* \"#utility.yul\":19801:19872   */\n      tag_481\n        /* \"#utility.yul\":19869:19870   */\n      0x00\n        /* \"#utility.yul\":19858:19867   */\n      dup4\n        /* \"#utility.yul\":19854:19871   */\n      add\n        /* \"#utility.yul\":19845:19851   */\n      dup6\n        /* \"#utility.yul\":19801:19872   */\n      tag_248\n      jump\t// in\n    tag_481:\n        /* \"#utility.yul\":19882:19954   */\n      tag_482\n        /* \"#utility.yul\":19950:19952   */\n      0x20\n        /* \"#utility.yul\":19939:19948   */\n      dup4\n        /* \"#utility.yul\":19935:19953   */\n      add\n        /* \"#utility.yul\":19926:19932   */\n      dup5\n        /* \"#utility.yul\":19882:19954   */\n      tag_248\n      jump\t// in\n    tag_482:\n        /* \"#utility.yul\":19629:19961   */\n      swap4\n      swap3\n      pop\n      pop\n      pop\n      jump\t// out\n        /* \"#utility.yul\":19967:20132   */\n    tag_284:\n        /* \"#utility.yul\":20107:20124   */\n      0x4c6f616e206e6f74206163746976650000000000000000000000000000000000\n        /* \"#utility.yul\":20103:20104   */\n      0x00\n        /* \"#utility.yul\":20095:20101   */\n      dup3\n        /* \"#utility.yul\":20091:20105   */\n      add\n        /* \"#utility.yul\":20084:20125   */\n      mstore\n        /* \"#utility.yul\":19967:20132   */\n      pop\n      jump\t// out\n        /* \"#utility.yul\":20138:20504   */\n    tag_285:\n        /* \"#utility.yul\":20280:20283   */\n      0x00\n        /* \"#utility.yul\":20301:20368   */\n      tag_485\n        /* \"#utility.yul\":20365:20367   */\n      0x0f\n        /* \"#utility.yul\":20360:20363   */\n      dup4\n        /* \"#utility.yul\":20301:20368   */\n      tag_261\n      jump\t// in\n    tag_485:\n        /* \"#utility.yul\":20294:20368   */\n      swap2\n      pop\n        /* \"#utility.yul\":20377:20470   */\n      tag_486\n        /* \"#utility.yul\":20466:20469   */\n      dup3\n        /* \"#utility.yul\":20377:20470   */\n      tag_284\n      jump\t// in\n    tag_486:\n        /* \"#utility.yul\":20495:20497   */\n      0x20\n        /* \"#utility.yul\":20490:20493   */\n      dup3\n        /* \"#utility.yul\":20486:20498   */\n      add\n        /* \"#utility.yul\":20479:20498   */\n      swap1\n      pop\n        /* \"#utility.yul\":20138:20504   */\n      swap2\n      swap1\n      pop\n      jump\t// out\n        /* \"#utility.yul\":20510:20929   */\n    tag_174:\n        /* \"#utility.yul\":20676:20680   */\n      0x00\n        /* \"#utility.yul\":20714:20716   */\n      0x20\n        /* \"#utility.yul\":20703:20712   */\n      dup3\n        /* \"#utility.yul\":20699:20717   */\n      add\n        /* \"#utility.yul\":20691:20717   */\n      swap1\n      pop\n        /* \"#utility.yul\":20763:20772   */\n      dup2\n        /* \"#utility.yul\":20757:20761   */\n      dup2\n        /* \"#utility.yul\":20753:20773   */\n      sub\n        /* \"#utility.yul\":20749:20750   */\n      0x00\n        /* \"#utility.yul\":20738:20747   */\n      dup4\n        /* \"#utility.yul\":20734:20751   */\n      add\n        /* \"#utility.yul\":20727:20774   */\n      mstore\n        /* \"#utility.yul\":20791:20922   */\n      tag_488\n        /* \"#utility.yul\":20917:20921   */\n      dup2\n        /* \"#utility.yul\":20791:20922   */\n      tag_285\n      jump\t// in\n    tag_488:\n        /* \"#utility.yul\":20783:20922   */\n      swap1\n      pop\n        /* \"#utility.yul\":20510:20929   */\n      swap2\n      swap1\n      pop\n      jump\t// out\n        /* \"#utility.yul\":20935:21126   */\n    tag_176:\n        /* \"#utility.yul\":20975:20978   */\n      0x00\n        /* \"#utility.yul\":20994:21014   */\n      tag_490\n        /* \"#utility.yul\":21012:21013   */\n      dup3\n        /* \"#utility.yul\":20994:21014   */\n      tag_245\n      jump\t// in\n    tag_490:\n        /* \"#utility.yul\":20989:21014   */\n      swap2\n      pop\n        /* \"#utility.yul\":21028:21048   */\n      tag_491\n        /* \"#utility.yul\":21046:21047   */\n      dup4\n        /* \"#utility.yul\":21028:21048   */\n      tag_245\n      jump\t// in\n    tag_491:\n        /* \"#utility.yul\":21023:21048   */\n      swap3\n      pop\n        /* \"#utility.yul\":21071:21072   */\n      dup3\n        /* \"#utility.yul\":21068:21069   */\n      dup3\n        /* \"#utility.yul\":21064:21073   */\n      add\n        /* \"#utility.yul\":21057:21073   */\n      swap1\n      pop\n        /* \"#utility.yul\":21092:21095   */\n      dup1\n        /* \"#utility.yul\":21089:21090   */\n      dup3\n        /* \"#utility.yul\":21086:21096   */\n      gt\n        /* \"#utility.yul\":21083:21119   */\n      iszero\n      tag_492\n      jumpi\n        /* \"#utility.yul\":21099:21117   */\n      tag_493\n      tag_264\n      jump\t// in\n    tag_493:\n        /* \"#utility.yul\":21083:21119   */\n    tag_492:\n        /* \"#utility.yul\":20935:21126   */\n      swap3\n      swap2\n      pop\n      pop\n      jump\t// out\n        /* \"#utility.yul\":21132:21298   */\n    tag_286:\n        /* \"#utility.yul\":21272:21290   */\n      0x4c6f616e206e6f74206578706972656400000000000000000000000000000000\n        /* \"#utility.yul\":21268:21269   */\n      0x00\n        /* \"#utility.yul\":21260:21266   */\n      dup3\n        /* \"#utility.yul\":21256:21270   */\n      add\n        /* \"#utility.yul\":21249:21291   */\n      mstore\n        /* \"#utility.yul\":21132:21298   */\n      pop\n      jump\t// out\n        /* \"#utility.yul\":21304:21670   */\n    tag_287:\n        /* \"#utility.yul\":21446:21449   */\n      0x00\n        /* \"#utility.yul\":21467:21534   */\n      tag_496\n        /* \"#utility.yul\":21531:21533   */\n      0x10\n        /* \"#utility.yul\":21526:21529   */\n      dup4\n        /* \"#utility.yul\":21467:21534   */\n      tag_261\n      jump\t// in\n    tag_496:\n        /* \"#utility.yul\":21460:21534   */\n      swap2\n      pop\n        /* \"#utility.yul\":21543:21636   */\n      tag_497\n        /* \"#utility.yul\":21632:21635   */\n      dup3\n        /* \"#utility.yul\":21543:21636   */\n      tag_286\n      jump\t// in\n    tag_497:\n        /* \"#utility.yul\":21661:21663   */\n      0x20\n        /* \"#utility.yul\":21656:21659   */\n      dup3\n        /* \"#utility.yul\":21652:21664   */\n      add\n        /* \"#utility.yul\":21645:21664   */\n      swap1\n      pop\n        /* \"#utility.yul\":21304:21670   */\n      swap2\n      swap1\n      pop\n      jump\t// out\n        /* \"#utility.yul\":21676:22095   */\n    tag_179:\n        /* \"#utility.yul\":21842:21846   */\n      0x00\n        /* \"#utility.yul\":21880:21882   */\n      0x20\n        /* \"#utility.yul\":21869:21878   */\n      dup3\n        /* \"#utility.yul\":21865:21883   */\n      add\n        /* \"#utility.yul\":21857:21883   */\n      swap1\n      pop\n        /* \"#utility.yul\":21929:21938   */\n      dup2\n        /* \"#utility.yul\":21923:21927   */\n      dup2\n        /* \"#utility.yul\":21919:21939   */\n      sub\n        /* \"#utility.yul\":21915:21916   */\n      0x00\n        /* \"#utility.yul\":21904:21913   */\n      dup4\n        /* \"#utility.yul\":21900:21917   */\n      add\n        /* \"#utility.yul\":21893:21940   */\n      mstore\n        /* \"#utility.yul\":21957:22088   */\n      tag_499\n        /* \"#utility.yul\":22083:22087   */\n      dup2\n        /* \"#utility.yul\":21957:22088   */\n      tag_287\n      jump\t// in\n    tag_499:\n        /* \"#utility.yul\":21949:22088   */\n      swap1\n      pop\n        /* \"#utility.yul\":21676:22095   */\n      swap2\n      swap1\n      pop\n      jump\t// out\n        /* \"#utility.yul\":22101:22235   */\n    tag_288:\n        /* \"#utility.yul\":22159:22168   */\n      0x00\n        /* \"#utility.yul\":22192:22229   */\n      tag_501\n        /* \"#utility.yul\":22223:22228   */\n      dup3\n        /* \"#utility.yul\":22192:22229   */\n      tag_254\n      jump\t// in\n    tag_501:\n        /* \"#utility.yul\":22179:22229   */\n      swap1\n      pop\n        /* \"#utility.yul\":22101:22235   */\n      swap2\n      swap1\n      pop\n      jump\t// out\n        /* \"#utility.yul\":22241:22388   */\n    tag_289:\n        /* \"#utility.yul\":22336:22381   */\n      tag_503\n        /* \"#utility.yul\":22375:22380   */\n      dup2\n        /* \"#utility.yul\":22336:22381   */\n      tag_288\n      jump\t// in\n    tag_503:\n        /* \"#utility.yul\":22331:22334   */\n      dup3\n        /* \"#utility.yul\":22324:22382   */\n      mstore\n        /* \"#utility.yul\":22241:22388   */\n      pop\n      pop\n      jump\t// out\n        /* \"#utility.yul\":22394:22742   */\n    tag_191:\n        /* \"#utility.yul\":22523:22527   */\n      0x00\n        /* \"#utility.yul\":22561:22563   */\n      0x40\n        /* \"#utility.yul\":22550:22559   */\n      dup3\n        /* \"#utility.yul\":22546:22564   */\n      add\n        /* \"#utility.yul\":22538:22564   */\n      swap1\n      pop\n        /* \"#utility.yul\":22574:22653   */\n      tag_505\n        /* \"#utility.yul\":22650:22651   */\n      0x00\n        /* \"#utility.yul\":22639:22648   */\n      dup4\n        /* \"#utility.yul\":22635:22652   */\n      add\n        /* \"#utility.yul\":22626:22632   */\n      dup6\n        /* \"#utility.yul\":22574:22653   */\n      tag_289\n      jump\t// in\n    tag_505:\n        /* \"#utility.yul\":22663:22735   */\n      tag_506\n        /* \"#utility.yul\":22731:22733   */\n      0x20\n        /* \"#utility.yul\":22720:22729   */\n      dup4\n        /* \"#utility.yul\":22716:22734   */\n      add\n        /* \"#utility.yul\":22707:22713   */\n      dup5\n        /* \"#utility.yul\":22663:22735   */\n      tag_248\n      jump\t// in\n    tag_506:\n        /* \"#utility.yul\":22394:22742   */\n      swap4\n      swap3\n      pop\n      pop\n      pop\n      jump\t// out\n        /* \"#utility.yul\":22748:22927   */\n    tag_290:\n        /* \"#utility.yul\":22888:22919   */\n      0x436f6c6c61746572616c206c69717569646174696f6e206661696c6564000000\n        /* \"#utility.yul\":22884:22885   */\n      0x00\n        /* \"#utility.yul\":22876:22882   */\n      dup3\n        /* \"#utility.yul\":22872:22886   */\n      add\n        /* \"#utility.yul\":22865:22920   */\n      mstore\n        /* \"#utility.yul\":22748:22927   */\n      pop\n      jump\t// out\n        /* \"#utility.yul\":22933:23299   */\n    tag_291:\n        /* \"#utility.yul\":23075:23078   */\n      0x00\n        /* \"#utility.yul\":23096:23163   */\n      tag_509\n        /* \"#utility.yul\":23160:23162   */\n      0x1d\n        /* \"#utility.yul\":23155:23158   */\n      dup4\n        /* \"#utility.yul\":23096:23163   */\n      tag_261\n      jump\t// in\n    tag_509:\n        /* \"#utility.yul\":23089:23163   */\n      swap2\n      pop\n        /* \"#utility.yul\":23172:23265   */\n      tag_510\n        /* \"#utility.yul\":23261:23264   */\n      dup3\n        /* \"#utility.yul\":23172:23265   */\n      tag_290\n      jump\t// in\n    tag_510:\n        /* \"#utility.yul\":23290:23292   */\n      0x20\n        /* \"#utility.yul\":23285:23288   */\n      dup3\n        /* \"#utility.yul\":23281:23293   */\n      add\n        /* \"#utility.yul\":23274:23293   */\n      swap1\n      pop\n        /* \"#utility.yul\":22933:23299   */\n      swap2\n      swap1\n      pop\n      jump\t// out\n        /* \"#utility.yul\":23305:23724   */\n    tag_197:\n        /* \"#utility.yul\":23471:23475   */\n      0x00\n        /* \"#utility.yul\":23509:23511   */\n      0x20\n        /* \"#utility.yul\":23498:23507   */\n      dup3\n        /* \"#utility.yul\":23494:23512   */\n      add\n        /* \"#utility.yul\":23486:23512   */\n      swap1\n      pop\n        /* \"#utility.yul\":23558:23567   */\n      dup2\n        /* \"#utility.yul\":23552:23556   */\n      dup2\n        /* \"#utility.yul\":23548:23568   */\n      sub\n        /* \"#utility.yul\":23544:23545   */\n      0x00\n        /* \"#utility.yul\":23533:23542   */\n      dup4\n        /* \"#utility.yul\":23529:23546   */\n      add\n        /* \"#utility.yul\":23522:23569   */\n      mstore\n        /* \"#utility.yul\":23586:23717   */\n      tag_512\n        /* \"#utility.yul\":23712:23716   */\n      dup2\n        /* \"#utility.yul\":23586:23717   */\n      tag_291\n      jump\t// in\n    tag_512:\n        /* \"#utility.yul\":23578:23717   */\n      swap1\n      pop\n        /* \"#utility.yul\":23305:23724   */\n      swap2\n      swap1\n      pop\n      jump\t// out\n        /* \"#utility.yul\":23730:23899   */\n    tag_292:\n        /* \"#utility.yul\":23870:23891   */\n      0x496e76616c6964206c6f616e20616d6f756e7400000000000000000000000000\n        /* \"#utility.yul\":23866:23867   */\n      0x00\n        /* \"#utility.yul\":23858:23864   */\n      dup3\n        /* \"#utility.yul\":23854:23868   */\n      add\n        /* \"#utility.yul\":23847:23892   */\n      mstore\n        /* \"#utility.yul\":23730:23899   */\n      pop\n      jump\t// out\n        /* \"#utility.yul\":23905:24271   */\n    tag_293:\n        /* \"#utility.yul\":24047:24050   */\n      0x00\n        /* \"#utility.yul\":24068:24135   */\n      tag_515\n        /* \"#utility.yul\":24132:24134   */\n      0x13\n        /* \"#utility.yul\":24127:24130   */\n      dup4\n        /* \"#utility.yul\":24068:24135   */\n      tag_261\n      jump\t// in\n    tag_515:\n        /* \"#utility.yul\":24061:24135   */\n      swap2\n      pop\n        /* \"#utility.yul\":24144:24237   */\n      tag_516\n        /* \"#utility.yul\":24233:24236   */\n      dup3\n        /* \"#utility.yul\":24144:24237   */\n      tag_292\n      jump\t// in\n    tag_516:\n        /* \"#utility.yul\":24262:24264   */\n      0x20\n        /* \"#utility.yul\":24257:24260   */\n      dup3\n        /* \"#utility.yul\":24253:24265   */\n      add\n        /* \"#utility.yul\":24246:24265   */\n      swap1\n      pop\n        /* \"#utility.yul\":23905:24271   */\n      swap2\n      swap1\n      pop\n      jump\t// out\n        /* \"#utility.yul\":24277:24696   */\n    tag_203:\n        /* \"#utility.yul\":24443:24447   */\n      0x00\n        /* \"#utility.yul\":24481:24483   */\n      0x20\n        /* \"#utility.yul\":24470:24479   */\n      dup3\n        /* \"#utility.yul\":24466:24484   */\n      add\n        /* \"#utility.yul\":24458:24484   */\n      swap1\n      pop\n        /* \"#utility.yul\":24530:24539   */\n      dup2\n        /* \"#utility.yul\":24524:24528   */\n      dup2\n        /* \"#utility.yul\":24520:24540   */\n      sub\n        /* \"#utility.yul\":24516:24517   */\n      0x00\n        /* \"#utility.yul\":24505:24514   */\n      dup4\n        /* \"#utility.yul\":24501:24518   */\n      add\n        /* \"#utility.yul\":24494:24541   */\n      mstore\n        /* \"#utility.yul\":24558:24689   */\n      tag_518\n        /* \"#utility.yul\":24684:24688   */\n      dup2\n        /* \"#utility.yul\":24558:24689   */\n      tag_293\n      jump\t// in\n    tag_518:\n        /* \"#utility.yul\":24550:24689   */\n      swap1\n      pop\n        /* \"#utility.yul\":24277:24696   */\n      swap2\n      swap1\n      pop\n      jump\t// out\n        /* \"#utility.yul\":24702:24873   */\n    tag_294:\n        /* \"#utility.yul\":24842:24865   */\n      0x496e76616c696420696e74657265737420726174650000000000000000000000\n        /* \"#utility.yul\":24838:24839   */\n      0x00\n        /* \"#utility.yul\":24830:24836   */\n      dup3\n        /* \"#utility.yul\":24826:24840   */\n      add\n        /* \"#utility.yul\":24819:24866   */\n      mstore\n        /* \"#utility.yul\":24702:24873   */\n      pop\n      jump\t// out\n        /* \"#utility.yul\":24879:25245   */\n    tag_295:\n        /* \"#utility.yul\":25021:25024   */\n      0x00\n        /* \"#utility.yul\":25042:25109   */\n      tag_521\n        /* \"#utility.yul\":25106:25108   */\n      0x15\n        /* \"#utility.yul\":25101:25104   */\n      dup4\n        /* \"#utility.yul\":25042:25109   */\n      tag_261\n      jump\t// in\n    tag_521:\n        /* \"#utility.yul\":25035:25109   */\n      swap2\n      pop\n        /* \"#utility.yul\":25118:25211   */\n      tag_522\n        /* \"#utility.yul\":25207:25210   */\n      dup3\n        /* \"#utility.yul\":25118:25211   */\n      tag_294\n      jump\t// in\n    tag_522:\n        /* \"#utility.yul\":25236:25238   */\n      0x20\n        /* \"#utility.yul\":25231:25234   */\n      dup3\n        /* \"#utility.yul\":25227:25239   */\n      add\n        /* \"#utility.yul\":25220:25239   */\n      swap1\n      pop\n        /* \"#utility.yul\":24879:25245   */\n      swap2\n      swap1\n      pop\n      jump\t// out\n        /* \"#utility.yul\":25251:25670   */\n    tag_207:\n        /* \"#utility.yul\":25417:25421   */\n      0x00\n        /* \"#utility.yul\":25455:25457   */\n      0x20\n        /* \"#utility.yul\":25444:25453   */\n      dup3\n        /* \"#utility.yul\":25440:25458   */\n      add\n        /* \"#utility.yul\":25432:25458   */\n      swap1\n      pop\n        /* \"#utility.yul\":25504:25513   */\n      dup2\n        /* \"#utility.yul\":25498:25502   */\n      dup2\n        /* \"#utility.yul\":25494:25514   */\n      sub\n        /* \"#utility.yul\":25490:25491   */\n      0x00\n        /* \"#utility.yul\":25479:25488   */\n      dup4\n        /* \"#utility.yul\":25475:25492   */\n      add\n        /* \"#utility.yul\":25468:25515   */\n      mstore\n        /* \"#utility.yul\":25532:25663   */\n      tag_524\n        /* \"#utility.yul\":25658:25662   */\n      dup2\n        /* \"#utility.yul\":25532:25663   */\n      tag_295\n      jump\t// in\n    tag_524:\n        /* \"#utility.yul\":25524:25663   */\n      swap1\n      pop\n        /* \"#utility.yul\":25251:25670   */\n      swap2\n      swap1\n      pop\n      jump\t// out\n        /* \"#utility.yul\":25676:25842   */\n    tag_296:\n        /* \"#utility.yul\":25816:25834   */\n      0x496e76616c6964206475726174696f6e00000000000000000000000000000000\n        /* \"#utility.yul\":25812:25813   */\n      0x00\n        /* \"#utility.yul\":25804:25810   */\n      dup3\n        /* \"#utility.yul\":25800:25814   */\n      add\n        /* \"#utility.yul\":25793:25835   */\n      mstore\n        /* \"#utility.yul\":25676:25842   */\n      pop\n      jump\t// out\n        /* \"#utility.yul\":25848:26214   */\n    tag_297:\n        /* \"#utility.yul\":25990:25993   */\n      0x00\n        /* \"#utility.yul\":26011:26078   */\n      tag_527\n        /* \"#utility.yul\":26075:26077   */\n      0x10\n        /* \"#utility.yul\":26070:26073   */\n      dup4\n        /* \"#utility.yul\":26011:26078   */\n      tag_261\n      jump\t// in\n    tag_527:\n        /* \"#utility.yul\":26004:26078   */\n      swap2\n      pop\n        /* \"#utility.yul\":26087:26180   */\n      tag_528\n        /* \"#utility.yul\":26176:26179   */\n      dup3\n        /* \"#utility.yul\":26087:26180   */\n      tag_296\n      jump\t// in\n    tag_528:\n        /* \"#utility.yul\":26205:26207   */\n      0x20\n        /* \"#utility.yul\":26200:26203   */\n      dup3\n        /* \"#utility.yul\":26196:26208   */\n      add\n        /* \"#utility.yul\":26189:26208   */\n      swap1\n      pop\n        /* \"#utility.yul\":25848:26214   */\n      swap2\n      swap1\n      pop\n      jump\t// out\n        /* \"#utility.yul\":26220:26639   */\n    tag_210:\n        /* \"#utility.yul\":26386:26390   */\n      0x00\n        /* \"#utility.yul\":26424:26426   */\n      0x20\n        /* \"#utility.yul\":26413:26422   */\n      dup3\n        /* \"#utility.yul\":26409:26427   */\n      add\n        /* \"#utility.yul\":26401:26427   */\n      swap1\n      pop\n        /* \"#utility.yul\":26473:26482   */\n      dup2\n        /* \"#utility.yul\":26467:26471   */\n      dup2\n        /* \"#utility.yul\":26463:26483   */\n      sub\n        /* \"#utility.yul\":26459:26460   */\n      0x00\n        /* \"#utility.yul\":26448:26457   */\n      dup4\n        /* \"#utility.yul\":26444:26461   */\n      add\n        /* \"#utility.yul\":26437:26484   */\n      mstore\n        /* \"#utility.yul\":26501:26632   */\n      tag_530\n        /* \"#utility.yul\":26627:26631   */\n      dup2\n        /* \"#utility.yul\":26501:26632   */\n      tag_297\n      jump\t// in\n    tag_530:\n        /* \"#utility.yul\":26493:26632   */\n      swap1\n      pop\n        /* \"#utility.yul\":26220:26639   */\n      swap2\n      swap1\n      pop\n      jump\t// out\n        /* \"#utility.yul\":26645:26822   */\n    tag_298:\n        /* \"#utility.yul\":26785:26814   */\n      0x496e73756666696369656e742045544820636f6c6c61746572616c0000000000\n        /* \"#utility.yul\":26781:26782   */\n      0x00\n        /* \"#utility.yul\":26773:26779   */\n      dup3\n        /* \"#utility.yul\":26769:26783   */\n      add\n        /* \"#utility.yul\":26762:26815   */\n      mstore\n        /* \"#utility.yul\":26645:26822   */\n      pop\n      jump\t// out\n        /* \"#utility.yul\":26828:27194   */\n    tag_299:\n        /* \"#utility.yul\":26970:26973   */\n      0x00\n        /* \"#utility.yul\":26991:27058   */\n      tag_533\n        /* \"#utility.yul\":27055:27057   */\n      0x1b\n        /* \"#utility.yul\":27050:27053   */\n      dup4\n        /* \"#utility.yul\":26991:27058   */\n      tag_261\n      jump\t// in\n    tag_533:\n        /* \"#utility.yul\":26984:27058   */\n      swap2\n      pop\n        /* \"#utility.yul\":27067:27160   */\n      tag_534\n        /* \"#utility.yul\":27156:27159   */\n      dup3\n        /* \"#utility.yul\":27067:27160   */\n      tag_298\n      jump\t// in\n    tag_534:\n        /* \"#utility.yul\":27185:27187   */\n      0x20\n        /* \"#utility.yul\":27180:27183   */\n      dup3\n        /* \"#utility.yul\":27176:27188   */\n      add\n        /* \"#utility.yul\":27169:27188   */\n      swap1\n      pop\n        /* \"#utility.yul\":26828:27194   */\n      swap2\n      swap1\n      pop\n      jump\t// out\n        /* \"#utility.yul\":27200:27619   */\n    tag_217:\n        /* \"#utility.yul\":27366:27370   */\n      0x00\n        /* \"#utility.yul\":27404:27406   */\n      0x20\n        /* \"#utility.yul\":27393:27402   */\n      dup3\n        /* \"#utility.yul\":27389:27407   */\n      add\n        /* \"#utility.yul\":27381:27407   */\n      swap1\n      pop\n        /* \"#utility.yul\":27453:27462   */\n      dup2\n        /* \"#utility.yul\":27447:27451   */\n      dup2\n        /* \"#utility.yul\":27443:27463   */\n      sub\n        /* \"#utility.yul\":27439:27440   */\n      0x00\n        /* \"#utility.yul\":27428:27437   */\n      dup4\n        /* \"#utility.yul\":27424:27441   */\n      add\n        /* \"#utility.yul\":27417:27464   */\n      mstore\n        /* \"#utility.yul\":27481:27612   */\n      tag_536\n        /* \"#utility.yul\":27607:27611   */\n      dup2\n        /* \"#utility.yul\":27481:27612   */\n      tag_299\n      jump\t// in\n    tag_536:\n        /* \"#utility.yul\":27473:27612   */\n      swap1\n      pop\n        /* \"#utility.yul\":27200:27619   */\n      swap2\n      swap1\n      pop\n      jump\t// out\n        /* \"#utility.yul\":27625:28067   */\n    tag_223:\n        /* \"#utility.yul\":27774:27778   */\n      0x00\n        /* \"#utility.yul\":27812:27814   */\n      0x60\n        /* \"#utility.yul\":27801:27810   */\n      dup3\n        /* \"#utility.yul\":27797:27815   */\n      add\n        /* \"#utility.yul\":27789:27815   */\n      swap1\n      pop\n        /* \"#utility.yul\":27825:27896   */\n      tag_538\n        /* \"#utility.yul\":27893:27894   */\n      0x00\n        /* \"#utility.yul\":27882:27891   */\n      dup4\n        /* \"#utility.yul\":27878:27895   */\n      add\n        /* \"#utility.yul\":27869:27875   */\n      dup7\n        /* \"#utility.yul\":27825:27896   */\n      tag_249\n      jump\t// in\n    tag_538:\n        /* \"#utility.yul\":27906:27978   */\n      tag_539\n        /* \"#utility.yul\":27974:27976   */\n      0x20\n        /* \"#utility.yul\":27963:27972   */\n      dup4\n        /* \"#utility.yul\":27959:27977   */\n      add\n        /* \"#utility.yul\":27950:27956   */\n      dup6\n        /* \"#utility.yul\":27906:27978   */\n      tag_249\n      jump\t// in\n    tag_539:\n        /* \"#utility.yul\":27988:28060   */\n      tag_540\n        /* \"#utility.yul\":28056:28058   */\n      0x40\n        /* \"#utility.yul\":28045:28054   */\n      dup4\n        /* \"#utility.yul\":28041:28059   */\n      add\n        /* \"#utility.yul\":28032:28038   */\n      dup5\n        /* \"#utility.yul\":27988:28060   */\n      tag_248\n      jump\t// in\n    tag_540:\n        /* \"#utility.yul\":27625:28067   */\n      swap5\n      swap4\n      pop\n      pop\n      pop\n      pop\n      jump\t// out\n        /* \"#utility.yul\":28073:28249   */\n    tag_300:\n        /* \"#utility.yul\":28213:28241   */\n      0x436f6c6c61746572616c207472616e73666572206661696c6564000000000000\n        /* \"#utility.yul\":28209:28210   */\n      0x00\n        /* \"#utility.yul\":28201:28207   */\n      dup3\n        /* \"#utility.yul\":28197:28211   */\n      add\n        /* \"#utility.yul\":28190:28242   */\n      mstore\n        /* \"#utility.yul\":28073:28249   */\n      pop\n      jump\t// out\n        /* \"#utility.yul\":28255:28621   */\n    tag_301:\n        /* \"#utility.yul\":28397:28400   */\n      0x00\n        /* \"#utility.yul\":28418:28485   */\n      tag_543\n        /* \"#utility.yul\":28482:28484   */\n      0x1a\n        /* \"#utility.yul\":28477:28480   */\n      dup4\n        /* \"#utility.yul\":28418:28485   */\n      tag_261\n      jump\t// in\n    tag_543:\n        /* \"#utility.yul\":28411:28485   */\n      swap2\n      pop\n        /* \"#utility.yul\":28494:28587   */\n      tag_544\n        /* \"#utility.yul\":28583:28586   */\n      dup3\n        /* \"#utility.yul\":28494:28587   */\n      tag_300\n      jump\t// in\n    tag_544:\n        /* \"#utility.yul\":28612:28614   */\n      0x20\n        /* \"#utility.yul\":28607:28610   */\n      dup3\n        /* \"#utility.yul\":28603:28615   */\n      add\n        /* \"#utility.yul\":28596:28615   */\n      swap1\n      pop\n        /* \"#utility.yul\":28255:28621   */\n      swap2\n      swap1\n      pop\n      jump\t// out\n        /* \"#utility.yul\":28627:29046   */\n    tag_229:\n        /* \"#utility.yul\":28793:28797   */\n      0x00\n        /* \"#utility.yul\":28831:28833   */\n      0x20\n        /* \"#utility.yul\":28820:28829   */\n      dup3\n        /* \"#utility.yul\":28816:28834   */\n      add\n        /* \"#utility.yul\":28808:28834   */\n      swap1\n      pop\n        /* \"#utility.yul\":28880:28889   */\n      dup2\n        /* \"#utility.yul\":28874:28878   */\n      dup2\n        /* \"#utility.yul\":28870:28890   */\n      sub\n        /* \"#utility.yul\":28866:28867   */\n      0x00\n        /* \"#utility.yul\":28855:28864   */\n      dup4\n        /* \"#utility.yul\":28851:28868   */\n      add\n        /* \"#utility.yul\":28844:28891   */\n      mstore\n        /* \"#utility.yul\":28908:29039   */\n      tag_546\n        /* \"#utility.yul\":29034:29038   */\n      dup2\n        /* \"#utility.yul\":28908:29039   */\n      tag_301\n      jump\t// in\n    tag_546:\n        /* \"#utility.yul\":28900:29039   */\n      swap1\n      pop\n        /* \"#utility.yul\":28627:29046   */\n      swap2\n      swap1\n      pop\n      jump\t// out\n        /* \"#utility.yul\":29052:29285   */\n    tag_235:\n        /* \"#utility.yul\":29091:29094   */\n      0x00\n        /* \"#utility.yul\":29114:29138   */\n      tag_548\n        /* \"#utility.yul\":29132:29137   */\n      dup3\n        /* \"#utility.yul\":29114:29138   */\n      tag_245\n      jump\t// in\n    tag_548:\n        /* \"#utility.yul\":29105:29138   */\n      swap2\n      pop\n        /* \"#utility.yul\":29160:29226   */\n      0xffffffffffffffffffffffffffffffffffffffffffffffffffffffffffffffff\n        /* \"#utility.yul\":29153:29158   */\n      dup3\n        /* \"#utility.yul\":29150:29227   */\n      sub\n        /* \"#utility.yul\":29147:29250   */\n      tag_549\n      jumpi\n        /* \"#utility.yul\":29230:29248   */\n      tag_550\n      tag_264\n      jump\t// in\n    tag_550:\n        /* \"#utility.yul\":29147:29250   */\n    tag_549:\n        /* \"#utility.yul\":29277:29278   */\n      0x01\n        /* \"#utility.yul\":29270:29275   */\n      dup3\n        /* \"#utility.yul\":29266:29279   */\n      add\n        /* \"#utility.yul\":29259:29279   */\n      swap1\n      pop\n        /* \"#utility.yul\":29052:29285   */\n      swap2\n      swap1\n      pop\n      jump\t// out\n        /* \"#utility.yul\":29291:30399   */\n    tag_237:\n        /* \"#utility.yul\":29608:29612   */\n      0x00\n        /* \"#utility.yul\":29646:29649   */\n      0x0120\n        /* \"#utility.yul\":29635:29644   */\n      dup3\n        /* \"#utility.yul\":29631:29650   */\n      add\n        /* \"#utility.yul\":29623:29650   */\n      swap1\n      pop\n        /* \"#utility.yul\":29660:29731   */\n      tag_552\n        /* \"#utility.yul\":29728:29729   */\n      0x00\n        /* \"#utility.yul\":29717:29726   */\n      dup4\n        /* \"#utility.yul\":29713:29730   */\n      add\n        /* \"#utility.yul\":29704:29710   */\n      dup13\n        /* \"#utility.yul\":29660:29731   */\n      tag_248\n      jump\t// in\n    tag_552:\n        /* \"#utility.yul\":29741:29813   */\n      tag_553\n        /* \"#utility.yul\":29809:29811   */\n      0x20\n        /* \"#utility.yul\":29798:29807   */\n      dup4\n        /* \"#utility.yul\":29794:29812   */\n      add\n        /* \"#utility.yul\":29785:29791   */\n      dup12\n        /* \"#utility.yul\":29741:29813   */\n      tag_248\n      jump\t// in\n    tag_553:\n        /* \"#utility.yul\":29823:29895   */\n      tag_554\n        /* \"#utility.yul\":29891:29893   */\n      0x40\n        /* \"#utility.yul\":29880:29889   */\n      dup4\n        /* \"#utility.yul\":29876:29894   */\n      add\n        /* \"#utility.yul\":29867:29873   */\n      dup11\n        /* \"#utility.yul\":29823:29895   */\n      tag_248\n      jump\t// in\n    tag_554:\n        /* \"#utility.yul\":29905:29977   */\n      tag_555\n        /* \"#utility.yul\":29973:29975   */\n      0x60\n        /* \"#utility.yul\":29962:29971   */\n      dup4\n        /* \"#utility.yul\":29958:29976   */\n      add\n        /* \"#utility.yul\":29949:29955   */\n      dup10\n        /* \"#utility.yul\":29905:29977   */\n      tag_248\n      jump\t// in\n    tag_555:\n        /* \"#utility.yul\":29987:30060   */\n      tag_556\n        /* \"#utility.yul\":30055:30058   */\n      0x80\n        /* \"#utility.yul\":30044:30053   */\n      dup4\n        /* \"#utility.yul\":30040:30059   */\n      add\n        /* \"#utility.yul\":30031:30037   */\n      dup9\n        /* \"#utility.yul\":29987:30060   */\n      tag_248\n      jump\t// in\n    tag_556:\n        /* \"#utility.yul\":30070:30143   */\n      tag_557\n        /* \"#utility.yul\":30138:30141   */\n      0xa0\n        /* \"#utility.yul\":30127:30136   */\n      dup4\n        /* \"#utility.yul\":30123:30142   */\n      add\n        /* \"#utility.yul\":30114:30120   */\n      dup8\n        /* \"#utility.yul\":30070:30143   */\n      tag_249\n      jump\t// in\n    tag_557:\n        /* \"#utility.yul\":30153:30226   */\n      tag_558\n        /* \"#utility.yul\":30221:30224   */\n      0xc0\n        /* \"#utility.yul\":30210:30219   */\n      dup4\n        /* \"#utility.yul\":30206:30225   */\n      add\n        /* \"#utility.yul\":30197:30203   */\n      dup7\n        /* \"#utility.yul\":30153:30226   */\n      tag_249\n      jump\t// in\n    tag_558:\n        /* \"#utility.yul\":30236:30309   */\n      tag_559\n        /* \"#utility.yul\":30304:30307   */\n      0xe0\n        /* \"#utility.yul\":30293:30302   */\n      dup4\n        /* \"#utility.yul\":30289:30308   */\n      add\n        /* \"#utility.yul\":30280:30286   */\n      dup6\n        /* \"#utility.yul\":30236:30309   */\n      tag_249\n      jump\t// in\n    tag_559:\n        /* \"#utility.yul\":30319:30392   */\n      tag_560\n        /* \"#utility.yul\":30387:30390   */\n      0x0100\n        /* \"#utility.yul\":30376:30385   */\n      dup4\n        /* \"#utility.yul\":30372:30391   */\n      add\n        /* \"#utility.yul\":30363:30369   */\n      dup5\n        /* \"#utility.yul\":30319:30392   */\n      tag_248\n      jump\t// in\n    tag_560:\n        /* \"#utility.yul\":29291:30399   */\n      swap11\n      swap10\n      pop\n      pop\n      pop\n      pop\n      pop\n      pop\n      pop\n      pop\n      pop\n      pop\n      jump\t// out\n\n    auxdata: 0xa26469706673582212206e962a56f512204b6d4c2b605842a680daedecff7b4d00e875f3b96079fce06d64736f6c634300081b0033\n}\n",
				"bytecode": {
					"linkReferences": {},
					"object": "610100604052348015610010575f5ffd5b50604051612bcf380380612bcf83398181016040528101906100329190610385565b8373ffffffffffffffffffffffffffffffffffffffff1660808173ffffffffffffffffffffffffffffffffffffffff16815250508273ffffffffffffffffffffffffffffffffffffffff1660a08173ffffffffffffffffffffffffffffffffffffffff16815250508173ffffffffffffffffffffffffffffffffffffffff1660c08173ffffffffffffffffffffffffffffffffffffffff16815250508073ffffffffffffffffffffffffffffffffffffffff1660e08173ffffffffffffffffffffffffffffffffffffffff1681525050613a985f5f8673ffffffffffffffffffffffffffffffffffffffff1673ffffffffffffffffffffffffffffffffffffffff1681526020019081526020015f2081905550613a985f5f8573ffffffffffffffffffffffffffffffffffffffff1673ffffffffffffffffffffffffffffffffffffffff1681526020019081526020015f2081905550613a985f5f8473ffffffffffffffffffffffffffffffffffffffff1673ffffffffffffffffffffffffffffffffffffffff1681526020019081526020015f2081905550613a985f5f8373ffffffffffffffffffffffffffffffffffffffff1673ffffffffffffffffffffffffffffffffffffffff1681526020019081526020015f2081905550606460035f8673ffffffffffffffffffffffffffffffffffffffff1673ffffffffffffffffffffffffffffffffffffffff1681526020019081526020015f2081905550606460035f8573ffffffffffffffffffffffffffffffffffffffff1673ffffffffffffffffffffffffffffffffffffffff1681526020019081526020015f2081905550624c4b4060035f8473ffffffffffffffffffffffffffffffffffffffff1673ffffffffffffffffffffffffffffffffffffffff1681526020019081526020015f2081905550620493e060035f8373ffffffffffffffffffffffffffffffffffffffff1673ffffffffffffffffffffffffffffffffffffffff1681526020019081526020015f2081905550505050506103e9565b5f5ffd5b5f73ffffffffffffffffffffffffffffffffffffffff82169050919050565b5f6103548261032b565b9050919050565b6103648161034a565b811461036e575f5ffd5b50565b5f8151905061037f8161035b565b92915050565b5f5f5f5f6080858703121561039d5761039c610327565b5b5f6103aa87828801610371565b94505060206103bb87828801610371565b93505060406103cc87828801610371565b92505060606103dd87828801610371565b91505092959194509250565b60805160a05160c05160e0516127896104465f395f8181610b4b01528181610bc101528181610e9801528181610ff1015281816110670152818161146701526114fd01525f61069c01525f610ebc01525f61095801526127895ff3fe60806040526004361061010c575f3560e01c8063ab7b1c8911610094578063ccdd9f5d11610063578063ccdd9f5d1461036f578063ce63094d14610397578063ceba1794146103c1578063d14a3321146103eb578063e1ec3c681461040757610113565b8063ab7b1c89146102d5578063ad5c4648146102f1578063c54e44eb1461031b578063c918efec1461034557610113565b80634dede3de116100db5780634dede3de146101ff578063846b909a1461022957806389a302711461024557806396fa212f1461026f5780639b9a79661461029957610113565b8063034cc760146101175780630714012c14610153578063204120bc1461019957806334855d14146101d557610113565b3661011357005b5f5ffd5b348015610122575f5ffd5b5061013d60048036038101906101389190611983565b61044d565b60405161014a91906119d0565b60405180910390f35b34801561015e575f5ffd5b50610179600480360381019061017491906119e9565b61058e565b6040516101909b9a99989796959493929190611a3d565b60405180910390f35b3480156101a4575f5ffd5b506101bf60048036038101906101ba9190611ae6565b610680565b6040516101cc91906119d0565b60405180910390f35b3480156101e0575f5ffd5b506101e9610695565b6040516101f691906119d0565b60405180910390f35b34801561020a575f5ffd5b5061021361069a565b6040516102209190611b6c565b60405180910390f35b610243600480360381019061023e91906119e9565b6106be565b005b348015610250575f5ffd5b50610259610956565b6040516102669190611b6c565b60405180910390f35b34801561027a575f5ffd5b5061028361097a565b60405161029091906119d0565b60405180910390f35b3480156102a4575f5ffd5b506102bf60048036038101906102ba9190611ae6565b610980565b6040516102cc91906119d0565b60405180910390f35b6102ef60048036038101906102ea91906119e9565b610994565b005b3480156102fc575f5ffd5b50610305610e96565b6040516103129190611ba5565b60405180910390f35b348015610326575f5ffd5b5061032f610eba565b60405161033c9190611b6c565b60405180910390f35b348015610350575f5ffd5b50610359610ede565b60405161036691906119d0565b60405180910390f35b34801561037a575f5ffd5b50610395600480360381019061039091906119e9565b610ee3565b005b3480156103a2575f5ffd5b506103ab6112e6565b6040516103b891906119d0565b60405180910390f35b3480156103cc575f5ffd5b506103d56112ec565b6040516103e291906119d0565b60405180910390f35b61040560048036038101906104009190611bbe565b6112f3565b005b348015610412575f5ffd5b5061042d600480360381019061042891906119e9565b611825565b6040516104449b9a99989796959493929190611c42565b60405180910390f35b5f5f5f5f8573ffffffffffffffffffffffffffffffffffffffff1673ffffffffffffffffffffffffffffffffffffffff1681526020019081526020015f2054116104cc576040517f08c379a00000000000000000000000000000000000000000000000000000000081526004016104c390611d45565b60405180910390fd5b5f60035f8573ffffffffffffffffffffffffffffffffffffffff1673ffffffffffffffffffffffffffffffffffffffff1681526020019081526020015f205490505f5f5f8673ffffffffffffffffffffffffffffffffffffffff1673ffffffffffffffffffffffffffffffffffffffff1681526020019081526020015f205490505f60648361055b9190611d90565b6305f5e100838761056c9190611d90565b6105769190611d90565b6105809190611dfe565b905080935050505092915050565b5f5f5f5f5f5f5f5f5f5f5f5f60015f8e81526020019081526020015f209050805f01548160010154826002015483600301548460040154856005015f9054906101000a900473ffffffffffffffffffffffffffffffffffffffff16866006015f9054906101000a900473ffffffffffffffffffffffffffffffffffffffff168760060160149054906101000a900460ff168860060160159054906101000a900460ff16896007015f9054906101000a900473ffffffffffffffffffffffffffffffffffffffff168a600801549b509b509b509b509b509b509b509b509b509b509b505091939597999b90929496989a50565b6003602052805f5260405f205f915090505481565b600a81565b7f000000000000000000000000000000000000000000000000000000000000000081565b8060015f8281526020019081526020015f2060060160149054906101000a900460ff16610720576040517f08c379a000000000000000000000000000000000000000000000000000000000815260040161071790611e78565b60405180910390fd5b5f60015f8481526020019081526020015f209050806005015f9054906101000a900473ffffffffffffffffffffffffffffffffffffffff1673ffffffffffffffffffffffffffffffffffffffff163373ffffffffffffffffffffffffffffffffffffffff16036107c5576040517f08c379a00000000000000000000000000000000000000000000000000000000081526004016107bc90611f06565b60405180910390fd5b805f0154341461080a576040517f08c379a000000000000000000000000000000000000000000000000000000000815260040161080190611f6e565b60405180910390fd5b8060040154421115610851576040517f08c379a000000000000000000000000000000000000000000000000000000000815260040161084890611fd6565b60405180910390fd5b33816006015f6101000a81548173ffffffffffffffffffffffffffffffffffffffff021916908373ffffffffffffffffffffffffffffffffffffffff1602179055505f8160060160146101000a81548160ff021916908315150217905550806005015f9054906101000a900473ffffffffffffffffffffffffffffffffffffffff1673ffffffffffffffffffffffffffffffffffffffff166108fc3490811502906040515f60405180830381858888f19350505050158015610915573d5f5f3e3d5ffd5b507fbd7ef6c6281278f6c8ac4ae9ef2f205b52425813c288dd47c377cb6b59c5076e83333460405161094993929190611ff4565b60405180910390a1505050565b7f000000000000000000000000000000000000000000000000000000000000000081565b61271081565b5f602052805f5260405f205f915090505481565b8060015f8281526020019081526020015f206005015f9054906101000a900473ffffffffffffffffffffffffffffffffffffffff1673ffffffffffffffffffffffffffffffffffffffff163373ffffffffffffffffffffffffffffffffffffffff1614610a36576040517f08c379a0000000000000000000000000000000000000000000000000000000008152600401610a2d90612099565b60405180910390fd5b5f60015f8481526020019081526020015f2090508060060160159054906101000a900460ff1615610a9c576040517f08c379a0000000000000000000000000000000000000000000000000000000008152600401610a9390612101565b60405180910390fd5b80600301543414610ae2576040517f08c379a0000000000000000000000000000000000000000000000000000000008152600401610ad990612169565b60405180910390fd5b806006015f9054906101000a900473ffffffffffffffffffffffffffffffffffffffff1673ffffffffffffffffffffffffffffffffffffffff166108fc3490811502906040515f60405180830381858888f19350505050158015610b48573d5f5f3e3d5ffd5b507f000000000000000000000000000000000000000000000000000000000000000073ffffffffffffffffffffffffffffffffffffffff16816007015f9054906101000a900473ffffffffffffffffffffffffffffffffffffffff1673ffffffffffffffffffffffffffffffffffffffff1603610cb9577f000000000000000000000000000000000000000000000000000000000000000073ffffffffffffffffffffffffffffffffffffffff16632e1a7d4d82600801546040518263ffffffff1660e01b8152600401610c1c91906119d0565b5f604051808303815f87803b158015610c33575f5ffd5b505af1158015610c45573d5f5f3e3d5ffd5b50505050806005015f9054906101000a900473ffffffffffffffffffffffffffffffffffffffff1673ffffffffffffffffffffffffffffffffffffffff166108fc826008015490811502906040515f60405180830381858888f19350505050158015610cb3573d5f5f3e3d5ffd5b50610dbe565b806007015f9054906101000a900473ffffffffffffffffffffffffffffffffffffffff1673ffffffffffffffffffffffffffffffffffffffff1663a9059cbb826005015f9054906101000a900473ffffffffffffffffffffffffffffffffffffffff1683600801546040518363ffffffff1660e01b8152600401610d3e929190612187565b6020604051808303815f875af1158015610d5a573d5f5f3e3d5ffd5b505050506040513d601f19601f82011682018060405250810190610d7e91906121d8565b610dbd576040517f08c379a0000000000000000000000000000000000000000000000000000000008152600401610db49061224d565b60405180910390fd5b5b60018160060160156101000a81548160ff0219169083151502179055505f8160060160146101000a81548160ff0219169083151502179055507f040cee90ee4799897c30ca04e5feb6fa43dbba9b6d084b4b257cdafd84ba013e8334604051610e2892919061226b565b60405180910390a17e83f3d3d0a8132e9bf23ae6cde659d5f3963a6973816e144f05bfccef18427983826007015f9054906101000a900473ffffffffffffffffffffffffffffffffffffffff168360080154604051610e8993929190611ff4565b60405180910390a1505050565b7f000000000000000000000000000000000000000000000000000000000000000081565b7f000000000000000000000000000000000000000000000000000000000000000081565b600181565b5f60015f8381526020019081526020015f2090508060060160149054906101000a900460ff16610f48576040517f08c379a0000000000000000000000000000000000000000000000000000000008152600401610f3f906122dc565b60405180910390fd5b80600201548160040154610f5c91906122fa565b4211610f9d576040517f08c379a0000000000000000000000000000000000000000000000000000000008152600401610f9490612377565b60405180910390fd5b8060060160159054906101000a900460ff1615610fef576040517f08c379a0000000000000000000000000000000000000000000000000000000008152600401610fe690612101565b60405180910390fd5b7f000000000000000000000000000000000000000000000000000000000000000073ffffffffffffffffffffffffffffffffffffffff16816007015f9054906101000a900473ffffffffffffffffffffffffffffffffffffffff1673ffffffffffffffffffffffffffffffffffffffff160361115f577f000000000000000000000000000000000000000000000000000000000000000073ffffffffffffffffffffffffffffffffffffffff16632e1a7d4d82600801546040518263ffffffff1660e01b81526004016110c291906119d0565b5f604051808303815f87803b1580156110d9575f5ffd5b505af11580156110eb573d5f5f3e3d5ffd5b50505050806006015f9054906101000a900473ffffffffffffffffffffffffffffffffffffffff1673ffffffffffffffffffffffffffffffffffffffff166108fc826008015490811502906040515f60405180830381858888f19350505050158015611159573d5f5f3e3d5ffd5b50611264565b806007015f9054906101000a900473ffffffffffffffffffffffffffffffffffffffff1673ffffffffffffffffffffffffffffffffffffffff1663a9059cbb826006015f9054906101000a900473ffffffffffffffffffffffffffffffffffffffff1683600801546040518363ffffffff1660e01b81526004016111e49291906123b5565b6020604051808303815f875af1158015611200573d5f5f3e3d5ffd5b505050506040513d601f19601f8201168201806040525081019061122491906121d8565b611263576040517f08c379a000000000000000000000000000000000000000000000000000000000815260040161125a90612426565b60405180910390fd5b5b5f8160060160146101000a81548160ff0219169083151502179055507fcafca847a6c6645c7dd7bb55a47759cd884f49bd6e8c273f4ee701e8b81bcda082826007015f9054906101000a900473ffffffffffffffffffffffffffffffffffffffff1683600801546040516112da93929190611ff4565b60405180910390a15050565b60025481565b620f424081565b61271084101580156113085750620f42408411155b611347576040517f08c379a000000000000000000000000000000000000000000000000000000000815260040161133e9061248e565b60405180910390fd5b600183101580156113595750600a8311155b611398576040517f08c379a000000000000000000000000000000000000000000000000000000000815260040161138f906124f6565b60405180910390fd5b5f82116113da576040517f08c379a00000000000000000000000000000000000000000000000000000000081526004016113d19061255e565b60405180910390fd5b5f5f5f8373ffffffffffffffffffffffffffffffffffffffff1673ffffffffffffffffffffffffffffffffffffffff1681526020019081526020015f205411611458576040517f08c379a000000000000000000000000000000000000000000000000000000000815260040161144f90611d45565b60405180910390fd5b5f611463828661044d565b90507f000000000000000000000000000000000000000000000000000000000000000073ffffffffffffffffffffffffffffffffffffffff168273ffffffffffffffffffffffffffffffffffffffff160361157d57803410156114fb576040517f08c379a00000000000000000000000000000000000000000000000000000000081526004016114f2906125c6565b60405180910390fd5b7f000000000000000000000000000000000000000000000000000000000000000073ffffffffffffffffffffffffffffffffffffffff1663d0e30db0826040518263ffffffff1660e01b81526004015f604051808303818588803b158015611561575f5ffd5b505af1158015611573573d5f5f3e3d5ffd5b505050505061163a565b8173ffffffffffffffffffffffffffffffffffffffff166323b872dd3330846040518463ffffffff1660e01b81526004016115ba939291906125e4565b6020604051808303815f875af11580156115d6573d5f5f3e3d5ffd5b505050506040513d601f19601f820116820180604052508101906115fa91906121d8565b611639576040517f08c379a000000000000000000000000000000000000000000000000000000000815260040161163090612663565b60405180910390fd5b5b5f606485876116499190611d90565b6116539190611dfe565b8661165e91906122fa565b90505f620151804261167091906122fa565b90505f60025f81548092919061168590612681565b9190505590505f60015f8381526020019081526020015f20905088815f018190555087816001018190555086816002018190555083816003018190555082816004018190555033816005015f6101000a81548173ffffffffffffffffffffffffffffffffffffffff021916908373ffffffffffffffffffffffffffffffffffffffff1602179055505f816006015f6101000a81548173ffffffffffffffffffffffffffffffffffffffff021916908373ffffffffffffffffffffffffffffffffffffffff16021790555060018160060160146101000a81548160ff0219169083151502179055505f8160060160156101000a81548160ff02191690831515021790555085816007015f6101000a81548173ffffffffffffffffffffffffffffffffffffffff021916908373ffffffffffffffffffffffffffffffffffffffff1602179055508481600801819055507f1e204e583357721d9af7f7e2d311da20e5d734ed3d1bf727419374a9cced0672828a8a8a87335f8d8d604051611812999897969594939291906126c8565b60405180910390a1505050505050505050565b6001602052805f5260405f205f91509050805f015490806001015490806002015490806003015490806004015490806005015f9054906101000a900473ffffffffffffffffffffffffffffffffffffffff1690806006015f9054906101000a900473ffffffffffffffffffffffffffffffffffffffff16908060060160149054906101000a900460ff16908060060160159054906101000a900460ff1690806007015f9054906101000a900473ffffffffffffffffffffffffffffffffffffffff1690806008015490508b565b5f5ffd5b5f73ffffffffffffffffffffffffffffffffffffffff82169050919050565b5f61191f826118f6565b9050919050565b61192f81611915565b8114611939575f5ffd5b50565b5f8135905061194a81611926565b92915050565b5f819050919050565b61196281611950565b811461196c575f5ffd5b50565b5f8135905061197d81611959565b92915050565b5f5f60408385031215611999576119986118f2565b5b5f6119a68582860161193c565b92505060206119b78582860161196f565b9150509250929050565b6119ca81611950565b82525050565b5f6020820190506119e35f8301846119c1565b92915050565b5f602082840312156119fe576119fd6118f2565b5b5f611a0b8482850161196f565b91505092915050565b611a1d81611915565b82525050565b5f8115159050919050565b611a3781611a23565b82525050565b5f61016082019050611a515f83018e6119c1565b611a5e602083018d6119c1565b611a6b604083018c6119c1565b611a78606083018b6119c1565b611a85608083018a6119c1565b611a9260a0830189611a14565b611a9f60c0830188611a14565b611aac60e0830187611a2e565b611aba610100830186611a2e565b611ac8610120830185611a14565b611ad66101408301846119c1565b9c9b505050505050505050505050565b5f60208284031215611afb57611afa6118f2565b5b5f611b088482850161193c565b91505092915050565b5f819050919050565b5f611b34611b2f611b2a846118f6565b611b11565b6118f6565b9050919050565b5f611b4582611b1a565b9050919050565b5f611b5682611b3b565b9050919050565b611b6681611b4c565b82525050565b5f602082019050611b7f5f830184611b5d565b92915050565b5f611b8f82611b3b565b9050919050565b611b9f81611b85565b82525050565b5f602082019050611bb85f830184611b96565b92915050565b5f5f5f5f60808587031215611bd657611bd56118f2565b5b5f611be38782880161196f565b9450506020611bf48782880161196f565b9350506040611c058782880161196f565b9250506060611c168782880161193c565b91505092959194509250565b5f611c2c826118f6565b9050919050565b611c3c81611c22565b82525050565b5f61016082019050611c565f83018e6119c1565b611c63602083018d6119c1565b611c70604083018c6119c1565b611c7d606083018b6119c1565b611c8a608083018a6119c1565b611c9760a0830189611a14565b611ca460c0830188611c33565b611cb160e0830187611a2e565b611cbf610100830186611a2e565b611ccd610120830185611a14565b611cdb6101408301846119c1565b9c9b505050505050505050505050565b5f82825260208201905092915050565b7f556e737570706f7274656420636f6c6c61746572616c20746f6b656e000000005f82015250565b5f611d2f601c83611ceb565b9150611d3a82611cfb565b602082019050919050565b5f6020820190508181035f830152611d5c81611d23565b9050919050565b7f4e487b71000000000000000000000000000000000000000000000000000000005f52601160045260245ffd5b5f611d9a82611950565b9150611da583611950565b9250828202611db381611950565b91508282048414831517611dca57611dc9611d63565b5b5092915050565b7f4e487b71000000000000000000000000000000000000000000000000000000005f52601260045260245ffd5b5f611e0882611950565b9150611e1383611950565b925082611e2357611e22611dd1565b5b828204905092915050565b7f4c6f616e206973206e6f742061637469766500000000000000000000000000005f82015250565b5f611e62601283611ceb565b9150611e6d82611e2e565b602082019050919050565b5f6020820190508181035f830152611e8f81611e56565b9050919050565b7f426f72726f7765722063616e6e6f742066756e64207468656972206f776e206c5f8201527f6f616e0000000000000000000000000000000000000000000000000000000000602082015250565b5f611ef0602383611ceb565b9150611efb82611e96565b604082019050919050565b5f6020820190508181035f830152611f1d81611ee4565b9050919050565b7f496e636f72726563742066756e64696e6720616d6f756e7400000000000000005f82015250565b5f611f58601883611ceb565b9150611f6382611f24565b602082019050919050565b5f6020820190508181035f830152611f8581611f4c565b9050919050565b7f46756e64696e6720646561646c696e65207061737365640000000000000000005f82015250565b5f611fc0601783611ceb565b9150611fcb82611f8c565b602082019050919050565b5f6020820190508181035f830152611fed81611fb4565b9050919050565b5f6060820190506120075f8301866119c1565b6120146020830185611a14565b61202160408301846119c1565b949350505050565b7f4f6e6c7920626f72726f7765722063616e20706572666f726d207468697320615f8201527f6374696f6e000000000000000000000000000000000000000000000000000000602082015250565b5f612083602583611ceb565b915061208e82612029565b604082019050919050565b5f6020820190508181035f8301526120b081612077565b9050919050565b7f4c6f616e20616c726561647920726570616964000000000000000000000000005f82015250565b5f6120eb601383611ceb565b91506120f6826120b7565b602082019050919050565b5f6020820190508181035f830152612118816120df565b9050919050565b7f496e636f72726563742072657061796d656e7420616d6f756e740000000000005f82015250565b5f612153601a83611ceb565b915061215e8261211f565b602082019050919050565b5f6020820190508181035f83015261218081612147565b9050919050565b5f60408201905061219a5f830185611a14565b6121a760208301846119c1565b9392505050565b6121b781611a23565b81146121c1575f5ffd5b50565b5f815190506121d2816121ae565b92915050565b5f602082840312156121ed576121ec6118f2565b5b5f6121fa848285016121c4565b91505092915050565b7f436f6c6c61746572616c2072657475726e206661696c656400000000000000005f82015250565b5f612237601883611ceb565b915061224282612203565b602082019050919050565b5f6020820190508181035f8301526122648161222b565b9050919050565b5f60408201905061227e5f8301856119c1565b61228b60208301846119c1565b9392505050565b7f4c6f616e206e6f742061637469766500000000000000000000000000000000005f82015250565b5f6122c6600f83611ceb565b91506122d182612292565b602082019050919050565b5f6020820190508181035f8301526122f3816122ba565b9050919050565b5f61230482611950565b915061230f83611950565b925082820190508082111561232757612326611d63565b5b92915050565b7f4c6f616e206e6f742065787069726564000000000000000000000000000000005f82015250565b5f612361601083611ceb565b915061236c8261232d565b602082019050919050565b5f6020820190508181035f83015261238e81612355565b9050919050565b5f61239f82611b3b565b9050919050565b6123af81612395565b82525050565b5f6040820190506123c85f8301856123a6565b6123d560208301846119c1565b9392505050565b7f436f6c6c61746572616c206c69717569646174696f6e206661696c65640000005f82015250565b5f612410601d83611ceb565b915061241b826123dc565b602082019050919050565b5f6020820190508181035f83015261243d81612404565b9050919050565b7f496e76616c6964206c6f616e20616d6f756e74000000000000000000000000005f82015250565b5f612478601383611ceb565b915061248382612444565b602082019050919050565b5f6020820190508181035f8301526124a58161246c565b9050919050565b7f496e76616c696420696e746572657374207261746500000000000000000000005f82015250565b5f6124e0601583611ceb565b91506124eb826124ac565b602082019050919050565b5f6020820190508181035f83015261250d816124d4565b9050919050565b7f496e76616c6964206475726174696f6e000000000000000000000000000000005f82015250565b5f612548601083611ceb565b915061255382612514565b602082019050919050565b5f6020820190508181035f8301526125758161253c565b9050919050565b7f496e73756666696369656e742045544820636f6c6c61746572616c00000000005f82015250565b5f6125b0601b83611ceb565b91506125bb8261257c565b602082019050919050565b5f6020820190508181035f8301526125dd816125a4565b9050919050565b5f6060820190506125f75f830186611a14565b6126046020830185611a14565b61261160408301846119c1565b949350505050565b7f436f6c6c61746572616c207472616e73666572206661696c65640000000000005f82015250565b5f61264d601a83611ceb565b915061265882612619565b602082019050919050565b5f6020820190508181035f83015261267a81612641565b9050919050565b5f61268b82611950565b91507fffffffffffffffffffffffffffffffffffffffffffffffffffffffffffffffff82036126bd576126bc611d63565b5b600182019050919050565b5f610120820190506126dc5f83018c6119c1565b6126e9602083018b6119c1565b6126f6604083018a6119c1565b61270360608301896119c1565b61271060808301886119c1565b61271d60a0830187611a14565b61272a60c0830186611a14565b61273760e0830185611a14565b6127456101008301846119c1565b9a995050505050505050505056fea26469706673582212206e962a56f512204b6d4c2b605842a680daedecff7b4d00e875f3b96079fce06d64736f6c634300081b0033",
					"opcodes": "PUSH2 0x100 PUSH1 0x40 MSTORE CALLVALUE DUP1 ISZERO PUSH2 0x10 JUMPI PUSH0 PUSH0 REVERT JUMPDEST POP PUSH1 0x40 MLOAD PUSH2 0x2BCF CODESIZE SUB DUP1 PUSH2 0x2BCF DUP4 CODECOPY DUP2 DUP2 ADD PUSH1 0x40 MSTORE DUP2 ADD SWAP1 PUSH2 0x32 SWAP2 SWAP1 PUSH2 0x385 JUMP JUMPDEST DUP4 PUSH20 0xFFFFFFFFFFFFFFFFFFFFFFFFFFFFFFFFFFFFFFFF AND PUSH1 0x80 DUP2 PUSH20 0xFFFFFFFFFFFFFFFFFFFFFFFFFFFFFFFFFFFFFFFF AND DUP2 MSTORE POP POP DUP3 PUSH20 0xFFFFFFFFFFFFFFFFFFFFFFFFFFFFFFFFFFFFFFFF AND PUSH1 0xA0 DUP2 PUSH20 0xFFFFFFFFFFFFFFFFFFFFFFFFFFFFFFFFFFFFFFFF AND DUP2 MSTORE POP POP DUP2 PUSH20 0xFFFFFFFFFFFFFFFFFFFFFFFFFFFFFFFFFFFFFFFF AND PUSH1 0xC0 DUP2 PUSH20 0xFFFFFFFFFFFFFFFFFFFFFFFFFFFFFFFFFFFFFFFF AND DUP2 MSTORE POP POP DUP1 PUSH20 0xFFFFFFFFFFFFFFFFFFFFFFFFFFFFFFFFFFFFFFFF AND PUSH1 0xE0 DUP2 PUSH20 0xFFFFFFFFFFFFFFFFFFFFFFFFFFFFFFFFFFFFFFFF AND DUP2 MSTORE POP POP PUSH2 0x3A98 PUSH0 PUSH0 DUP7 PUSH20 0xFFFFFFFFFFFFFFFFFFFFFFFFFFFFFFFFFFFFFFFF AND PUSH20 0xFFFFFFFFFFFFFFFFFFFFFFFFFFFFFFFFFFFFFFFF AND DUP2 MSTORE PUSH1 0x20 ADD SWAP1 DUP2 MSTORE PUSH1 0x20 ADD PUSH0 KECCAK256 DUP2 SWAP1 SSTORE POP PUSH2 0x3A98 PUSH0 PUSH0 DUP6 PUSH20 0xFFFFFFFFFFFFFFFFFFFFFFFFFFFFFFFFFFFFFFFF AND PUSH20 0xFFFFFFFFFFFFFFFFFFFFFFFFFFFFFFFFFFFFFFFF AND DUP2 MSTORE PUSH1 0x20 ADD SWAP1 DUP2 MSTORE PUSH1 0x20 ADD PUSH0 KECCAK256 DUP2 SWAP1 SSTORE POP PUSH2 0x3A98 PUSH0 PUSH0 DUP5 PUSH20 0xFFFFFFFFFFFFFFFFFFFFFFFFFFFFFFFFFFFFFFFF AND PUSH20 0xFFFFFFFFFFFFFFFFFFFFFFFFFFFFFFFFFFFFFFFF AND DUP2 MSTORE PUSH1 0x20 ADD SWAP1 DUP2 MSTORE PUSH1 0x20 ADD PUSH0 KECCAK256 DUP2 SWAP1 SSTORE POP PUSH2 0x3A98 PUSH0 PUSH0 DUP4 PUSH20 0xFFFFFFFFFFFFFFFFFFFFFFFFFFFFFFFFFFFFFFFF AND PUSH20 0xFFFFFFFFFFFFFFFFFFFFFFFFFFFFFFFFFFFFFFFF AND DUP2 MSTORE PUSH1 0x20 ADD SWAP1 DUP2 MSTORE PUSH1 0x20 ADD PUSH0 KECCAK256 DUP2 SWAP1 SSTORE POP PUSH1 0x64 PUSH1 0x3 PUSH0 DUP7 PUSH20 0xFFFFFFFFFFFFFFFFFFFFFFFFFFFFFFFFFFFFFFFF AND PUSH20 0xFFFFFFFFFFFFFFFFFFFFFFFFFFFFFFFFFFFFFFFF AND DUP2 MSTORE PUSH1 0x20 ADD SWAP1 DUP2 MSTORE PUSH1 0x20 ADD PUSH0 KECCAK256 DUP2 SWAP1 SSTORE POP PUSH1 0x64 PUSH1 0x3 PUSH0 DUP6 PUSH20 0xFFFFFFFFFFFFFFFFFFFFFFFFFFFFFFFFFFFFFFFF AND PUSH20 0xFFFFFFFFFFFFFFFFFFFFFFFFFFFFFFFFFFFFFFFF AND DUP2 MSTORE PUSH1 0x20 ADD SWAP1 DUP2 MSTORE PUSH1 0x20 ADD PUSH0 KECCAK256 DUP2 SWAP1 SSTORE POP PUSH3 0x4C4B40 PUSH1 0x3 PUSH0 DUP5 PUSH20 0xFFFFFFFFFFFFFFFFFFFFFFFFFFFFFFFFFFFFFFFF AND PUSH20 0xFFFFFFFFFFFFFFFFFFFFFFFFFFFFFFFFFFFFFFFF AND DUP2 MSTORE PUSH1 0x20 ADD SWAP1 DUP2 MSTORE PUSH1 0x20 ADD PUSH0 KECCAK256 DUP2 SWAP1 SSTORE POP PUSH3 0x493E0 PUSH1 0x3 PUSH0 DUP4 PUSH20 0xFFFFFFFFFFFFFFFFFFFFFFFFFFFFFFFFFFFFFFFF AND PUSH20 0xFFFFFFFFFFFFFFFFFFFFFFFFFFFFFFFFFFFFFFFF AND DUP2 MSTORE PUSH1 0x20 ADD SWAP1 DUP2 MSTORE PUSH1 0x20 ADD PUSH0 KECCAK256 DUP2 SWAP1 SSTORE POP POP POP POP POP PUSH2 0x3E9 JUMP JUMPDEST PUSH0 PUSH0 REVERT JUMPDEST PUSH0 PUSH20 0xFFFFFFFFFFFFFFFFFFFFFFFFFFFFFFFFFFFFFFFF DUP3 AND SWAP1 POP SWAP2 SWAP1 POP JUMP JUMPDEST PUSH0 PUSH2 0x354 DUP3 PUSH2 0x32B JUMP JUMPDEST SWAP1 POP SWAP2 SWAP1 POP JUMP JUMPDEST PUSH2 0x364 DUP2 PUSH2 0x34A JUMP JUMPDEST DUP2 EQ PUSH2 0x36E JUMPI PUSH0 PUSH0 REVERT JUMPDEST POP JUMP JUMPDEST PUSH0 DUP2 MLOAD SWAP1 POP PUSH2 0x37F DUP2 PUSH2 0x35B JUMP JUMPDEST SWAP3 SWAP2 POP POP JUMP JUMPDEST PUSH0 PUSH0 PUSH0 PUSH0 PUSH1 0x80 DUP6 DUP8 SUB SLT ISZERO PUSH2 0x39D JUMPI PUSH2 0x39C PUSH2 0x327 JUMP JUMPDEST JUMPDEST PUSH0 PUSH2 0x3AA DUP8 DUP3 DUP9 ADD PUSH2 0x371 JUMP JUMPDEST SWAP5 POP POP PUSH1 0x20 PUSH2 0x3BB DUP8 DUP3 DUP9 ADD PUSH2 0x371 JUMP JUMPDEST SWAP4 POP POP PUSH1 0x40 PUSH2 0x3CC DUP8 DUP3 DUP9 ADD PUSH2 0x371 JUMP JUMPDEST SWAP3 POP POP PUSH1 0x60 PUSH2 0x3DD DUP8 DUP3 DUP9 ADD PUSH2 0x371 JUMP JUMPDEST SWAP2 POP POP SWAP3 SWAP6 SWAP2 SWAP5 POP SWAP3 POP JUMP JUMPDEST PUSH1 0x80 MLOAD PUSH1 0xA0 MLOAD PUSH1 0xC0 MLOAD PUSH1 0xE0 MLOAD PUSH2 0x2789 PUSH2 0x446 PUSH0 CODECOPY PUSH0 DUP2 DUP2 PUSH2 0xB4B ADD MSTORE DUP2 DUP2 PUSH2 0xBC1 ADD MSTORE DUP2 DUP2 PUSH2 0xE98 ADD MSTORE DUP2 DUP2 PUSH2 0xFF1 ADD MSTORE DUP2 DUP2 PUSH2 0x1067 ADD MSTORE DUP2 DUP2 PUSH2 0x1467 ADD MSTORE PUSH2 0x14FD ADD MSTORE PUSH0 PUSH2 0x69C ADD MSTORE PUSH0 PUSH2 0xEBC ADD MSTORE PUSH0 PUSH2 0x958 ADD MSTORE PUSH2 0x2789 PUSH0 RETURN INVALID PUSH1 0x80 PUSH1 0x40 MSTORE PUSH1 0x4 CALLDATASIZE LT PUSH2 0x10C JUMPI PUSH0 CALLDATALOAD PUSH1 0xE0 SHR DUP1 PUSH4 0xAB7B1C89 GT PUSH2 0x94 JUMPI DUP1 PUSH4 0xCCDD9F5D GT PUSH2 0x63 JUMPI DUP1 PUSH4 0xCCDD9F5D EQ PUSH2 0x36F JUMPI DUP1 PUSH4 0xCE63094D EQ PUSH2 0x397 JUMPI DUP1 PUSH4 0xCEBA1794 EQ PUSH2 0x3C1 JUMPI DUP1 PUSH4 0xD14A3321 EQ PUSH2 0x3EB JUMPI DUP1 PUSH4 0xE1EC3C68 EQ PUSH2 0x407 JUMPI PUSH2 0x113 JUMP JUMPDEST DUP1 PUSH4 0xAB7B1C89 EQ PUSH2 0x2D5 JUMPI DUP1 PUSH4 0xAD5C4648 EQ PUSH2 0x2F1 JUMPI DUP1 PUSH4 0xC54E44EB EQ PUSH2 0x31B JUMPI DUP1 PUSH4 0xC918EFEC EQ PUSH2 0x345 JUMPI PUSH2 0x113 JUMP JUMPDEST DUP1 PUSH4 0x4DEDE3DE GT PUSH2 0xDB JUMPI DUP1 PUSH4 0x4DEDE3DE EQ PUSH2 0x1FF JUMPI DUP1 PUSH4 0x846B909A EQ PUSH2 0x229 JUMPI DUP1 PUSH4 0x89A30271 EQ PUSH2 0x245 JUMPI DUP1 PUSH4 0x96FA212F EQ PUSH2 0x26F JUMPI DUP1 PUSH4 0x9B9A7966 EQ PUSH2 0x299 JUMPI PUSH2 0x113 JUMP JUMPDEST DUP1 PUSH4 0x34CC760 EQ PUSH2 0x117 JUMPI DUP1 PUSH4 0x714012C EQ PUSH2 0x153 JUMPI DUP1 PUSH4 0x204120BC EQ PUSH2 0x199 JUMPI DUP1 PUSH4 0x34855D14 EQ PUSH2 0x1D5 JUMPI PUSH2 0x113 JUMP JUMPDEST CALLDATASIZE PUSH2 0x113 JUMPI STOP JUMPDEST PUSH0 PUSH0 REVERT JUMPDEST CALLVALUE DUP1 ISZERO PUSH2 0x122 JUMPI PUSH0 PUSH0 REVERT JUMPDEST POP PUSH2 0x13D PUSH1 0x4 DUP1 CALLDATASIZE SUB DUP2 ADD SWAP1 PUSH2 0x138 SWAP2 SWAP1 PUSH2 0x1983 JUMP JUMPDEST PUSH2 0x44D JUMP JUMPDEST PUSH1 0x40 MLOAD PUSH2 0x14A SWAP2 SWAP1 PUSH2 0x19D0 JUMP JUMPDEST PUSH1 0x40 MLOAD DUP1 SWAP2 SUB SWAP1 RETURN JUMPDEST CALLVALUE DUP1 ISZERO PUSH2 0x15E JUMPI PUSH0 PUSH0 REVERT JUMPDEST POP PUSH2 0x179 PUSH1 0x4 DUP1 CALLDATASIZE SUB DUP2 ADD SWAP1 PUSH2 0x174 SWAP2 SWAP1 PUSH2 0x19E9 JUMP JUMPDEST PUSH2 0x58E JUMP JUMPDEST PUSH1 0x40 MLOAD PUSH2 0x190 SWAP12 SWAP11 SWAP10 SWAP9 SWAP8 SWAP7 SWAP6 SWAP5 SWAP4 SWAP3 SWAP2 SWAP1 PUSH2 0x1A3D JUMP JUMPDEST PUSH1 0x40 MLOAD DUP1 SWAP2 SUB SWAP1 RETURN JUMPDEST CALLVALUE DUP1 ISZERO PUSH2 0x1A4 JUMPI PUSH0 PUSH0 REVERT JUMPDEST POP PUSH2 0x1BF PUSH1 0x4 DUP1 CALLDATASIZE SUB DUP2 ADD SWAP1 PUSH2 0x1BA SWAP2 SWAP1 PUSH2 0x1AE6 JUMP JUMPDEST PUSH2 0x680 JUMP JUMPDEST PUSH1 0x40 MLOAD PUSH2 0x1CC SWAP2 SWAP1 PUSH2 0x19D0 JUMP JUMPDEST PUSH1 0x40 MLOAD DUP1 SWAP2 SUB SWAP1 RETURN JUMPDEST CALLVALUE DUP1 ISZERO PUSH2 0x1E0 JUMPI PUSH0 PUSH0 REVERT JUMPDEST POP PUSH2 0x1E9 PUSH2 0x695 JUMP JUMPDEST PUSH1 0x40 MLOAD PUSH2 0x1F6 SWAP2 SWAP1 PUSH2 0x19D0 JUMP JUMPDEST PUSH1 0x40 MLOAD DUP1 SWAP2 SUB SWAP1 RETURN JUMPDEST CALLVALUE DUP1 ISZERO PUSH2 0x20A JUMPI PUSH0 PUSH0 REVERT JUMPDEST POP PUSH2 0x213 PUSH2 0x69A JUMP JUMPDEST PUSH1 0x40 MLOAD PUSH2 0x220 SWAP2 SWAP1 PUSH2 0x1B6C JUMP JUMPDEST PUSH1 0x40 MLOAD DUP1 SWAP2 SUB SWAP1 RETURN JUMPDEST PUSH2 0x243 PUSH1 0x4 DUP1 CALLDATASIZE SUB DUP2 ADD SWAP1 PUSH2 0x23E SWAP2 SWAP1 PUSH2 0x19E9 JUMP JUMPDEST PUSH2 0x6BE JUMP JUMPDEST STOP JUMPDEST CALLVALUE DUP1 ISZERO PUSH2 0x250 JUMPI PUSH0 PUSH0 REVERT JUMPDEST POP PUSH2 0x259 PUSH2 0x956 JUMP JUMPDEST PUSH1 0x40 MLOAD PUSH2 0x266 SWAP2 SWAP1 PUSH2 0x1B6C JUMP JUMPDEST PUSH1 0x40 MLOAD DUP1 SWAP2 SUB SWAP1 RETURN JUMPDEST CALLVALUE DUP1 ISZERO PUSH2 0x27A JUMPI PUSH0 PUSH0 REVERT JUMPDEST POP PUSH2 0x283 PUSH2 0x97A JUMP JUMPDEST PUSH1 0x40 MLOAD PUSH2 0x290 SWAP2 SWAP1 PUSH2 0x19D0 JUMP JUMPDEST PUSH1 0x40 MLOAD DUP1 SWAP2 SUB SWAP1 RETURN JUMPDEST CALLVALUE DUP1 ISZERO PUSH2 0x2A4 JUMPI PUSH0 PUSH0 REVERT JUMPDEST POP PUSH2 0x2BF PUSH1 0x4 DUP1 CALLDATASIZE SUB DUP2 ADD SWAP1 PUSH2 0x2BA SWAP2 SWAP1 PUSH2 0x1AE6 JUMP JUMPDEST PUSH2 0x980 JUMP JUMPDEST PUSH1 0x40 MLOAD PUSH2 0x2CC SWAP2 SWAP1 PUSH2 0x19D0 JUMP JUMPDEST PUSH1 0x40 MLOAD DUP1 SWAP2 SUB SWAP1 RETURN JUMPDEST PUSH2 0x2EF PUSH1 0x4 DUP1 CALLDATASIZE SUB DUP2 ADD SWAP1 PUSH2 0x2EA SWAP2 SWAP1 PUSH2 0x19E9 JUMP JUMPDEST PUSH2 0x994 JUMP JUMPDEST STOP JUMPDEST CALLVALUE DUP1 ISZERO PUSH2 0x2FC JUMPI PUSH0 PUSH0 REVERT JUMPDEST POP PUSH2 0x305 PUSH2 0xE96 JUMP JUMPDEST PUSH1 0x40 MLOAD PUSH2 0x312 SWAP2 SWAP1 PUSH2 0x1BA5 JUMP JUMPDEST PUSH1 0x40 MLOAD DUP1 SWAP2 SUB SWAP1 RETURN JUMPDEST CALLVALUE DUP1 ISZERO PUSH2 0x326 JUMPI PUSH0 PUSH0 REVERT JUMPDEST POP PUSH2 0x32F PUSH2 0xEBA JUMP JUMPDEST PUSH1 0x40 MLOAD PUSH2 0x33C SWAP2 SWAP1 PUSH2 0x1B6C JUMP JUMPDEST PUSH1 0x40 MLOAD DUP1 SWAP2 SUB SWAP1 RETURN JUMPDEST CALLVALUE DUP1 ISZERO PUSH2 0x350 JUMPI PUSH0 PUSH0 REVERT JUMPDEST POP PUSH2 0x359 PUSH2 0xEDE JUMP JUMPDEST PUSH1 0x40 MLOAD PUSH2 0x366 SWAP2 SWAP1 PUSH2 0x19D0 JUMP JUMPDEST PUSH1 0x40 MLOAD DUP1 SWAP2 SUB SWAP1 RETURN JUMPDEST CALLVALUE DUP1 ISZERO PUSH2 0x37A JUMPI PUSH0 PUSH0 REVERT JUMPDEST POP PUSH2 0x395 PUSH1 0x4 DUP1 CALLDATASIZE SUB DUP2 ADD SWAP1 PUSH2 0x390 SWAP2 SWAP1 PUSH2 0x19E9 JUMP JUMPDEST PUSH2 0xEE3 JUMP JUMPDEST STOP JUMPDEST CALLVALUE DUP1 ISZERO PUSH2 0x3A2 JUMPI PUSH0 PUSH0 REVERT JUMPDEST POP PUSH2 0x3AB PUSH2 0x12E6 JUMP JUMPDEST PUSH1 0x40 MLOAD PUSH2 0x3B8 SWAP2 SWAP1 PUSH2 0x19D0 JUMP JUMPDEST PUSH1 0x40 MLOAD DUP1 SWAP2 SUB SWAP1 RETURN JUMPDEST CALLVALUE DUP1 ISZERO PUSH2 0x3CC JUMPI PUSH0 PUSH0 REVERT JUMPDEST POP PUSH2 0x3D5 PUSH2 0x12EC JUMP JUMPDEST PUSH1 0x40 MLOAD PUSH2 0x3E2 SWAP2 SWAP1 PUSH2 0x19D0 JUMP JUMPDEST PUSH1 0x40 MLOAD DUP1 SWAP2 SUB SWAP1 RETURN JUMPDEST PUSH2 0x405 PUSH1 0x4 DUP1 CALLDATASIZE SUB DUP2 ADD SWAP1 PUSH2 0x400 SWAP2 SWAP1 PUSH2 0x1BBE JUMP JUMPDEST PUSH2 0x12F3 JUMP JUMPDEST STOP JUMPDEST CALLVALUE DUP1 ISZERO PUSH2 0x412 JUMPI PUSH0 PUSH0 REVERT JUMPDEST POP PUSH2 0x42D PUSH1 0x4 DUP1 CALLDATASIZE SUB DUP2 ADD SWAP1 PUSH2 0x428 SWAP2 SWAP1 PUSH2 0x19E9 JUMP JUMPDEST PUSH2 0x1825 JUMP JUMPDEST PUSH1 0x40 MLOAD PUSH2 0x444 SWAP12 SWAP11 SWAP10 SWAP9 SWAP8 SWAP7 SWAP6 SWAP5 SWAP4 SWAP3 SWAP2 SWAP1 PUSH2 0x1C42 JUMP JUMPDEST PUSH1 0x40 MLOAD DUP1 SWAP2 SUB SWAP1 RETURN JUMPDEST PUSH0 PUSH0 PUSH0 PUSH0 DUP6 PUSH20 0xFFFFFFFFFFFFFFFFFFFFFFFFFFFFFFFFFFFFFFFF AND PUSH20 0xFFFFFFFFFFFFFFFFFFFFFFFFFFFFFFFFFFFFFFFF AND DUP2 MSTORE PUSH1 0x20 ADD SWAP1 DUP2 MSTORE PUSH1 0x20 ADD PUSH0 KECCAK256 SLOAD GT PUSH2 0x4CC JUMPI PUSH1 0x40 MLOAD PUSH32 0x8C379A000000000000000000000000000000000000000000000000000000000 DUP2 MSTORE PUSH1 0x4 ADD PUSH2 0x4C3 SWAP1 PUSH2 0x1D45 JUMP JUMPDEST PUSH1 0x40 MLOAD DUP1 SWAP2 SUB SWAP1 REVERT JUMPDEST PUSH0 PUSH1 0x3 PUSH0 DUP6 PUSH20 0xFFFFFFFFFFFFFFFFFFFFFFFFFFFFFFFFFFFFFFFF AND PUSH20 0xFFFFFFFFFFFFFFFFFFFFFFFFFFFFFFFFFFFFFFFF AND DUP2 MSTORE PUSH1 0x20 ADD SWAP1 DUP2 MSTORE PUSH1 0x20 ADD PUSH0 KECCAK256 SLOAD SWAP1 POP PUSH0 PUSH0 PUSH0 DUP7 PUSH20 0xFFFFFFFFFFFFFFFFFFFFFFFFFFFFFFFFFFFFFFFF AND PUSH20 0xFFFFFFFFFFFFFFFFFFFFFFFFFFFFFFFFFFFFFFFF AND DUP2 MSTORE PUSH1 0x20 ADD SWAP1 DUP2 MSTORE PUSH1 0x20 ADD PUSH0 KECCAK256 SLOAD SWAP1 POP PUSH0 PUSH1 0x64 DUP4 PUSH2 0x55B SWAP2 SWAP1 PUSH2 0x1D90 JUMP JUMPDEST PUSH4 0x5F5E100 DUP4 DUP8 PUSH2 0x56C SWAP2 SWAP1 PUSH2 0x1D90 JUMP JUMPDEST PUSH2 0x576 SWAP2 SWAP1 PUSH2 0x1D90 JUMP JUMPDEST PUSH2 0x580 SWAP2 SWAP1 PUSH2 0x1DFE JUMP JUMPDEST SWAP1 POP DUP1 SWAP4 POP POP POP POP SWAP3 SWAP2 POP POP JUMP JUMPDEST PUSH0 PUSH0 PUSH0 PUSH0 PUSH0 PUSH0 PUSH0 PUSH0 PUSH0 PUSH0 PUSH0 PUSH0 PUSH1 0x1 PUSH0 DUP15 DUP2 MSTORE PUSH1 0x20 ADD SWAP1 DUP2 MSTORE PUSH1 0x20 ADD PUSH0 KECCAK256 SWAP1 POP DUP1 PUSH0 ADD SLOAD DUP2 PUSH1 0x1 ADD SLOAD DUP3 PUSH1 0x2 ADD SLOAD DUP4 PUSH1 0x3 ADD SLOAD DUP5 PUSH1 0x4 ADD SLOAD DUP6 PUSH1 0x5 ADD PUSH0 SWAP1 SLOAD SWAP1 PUSH2 0x100 EXP SWAP1 DIV PUSH20 0xFFFFFFFFFFFFFFFFFFFFFFFFFFFFFFFFFFFFFFFF AND DUP7 PUSH1 0x6 ADD PUSH0 SWAP1 SLOAD SWAP1 PUSH2 0x100 EXP SWAP1 DIV PUSH20 0xFFFFFFFFFFFFFFFFFFFFFFFFFFFFFFFFFFFFFFFF AND DUP8 PUSH1 0x6 ADD PUSH1 0x14 SWAP1 SLOAD SWAP1 PUSH2 0x100 EXP SWAP1 DIV PUSH1 0xFF AND DUP9 PUSH1 0x6 ADD PUSH1 0x15 SWAP1 SLOAD SWAP1 PUSH2 0x100 EXP SWAP1 DIV PUSH1 0xFF AND DUP10 PUSH1 0x7 ADD PUSH0 SWAP1 SLOAD SWAP1 PUSH2 0x100 EXP SWAP1 DIV PUSH20 0xFFFFFFFFFFFFFFFFFFFFFFFFFFFFFFFFFFFFFFFF AND DUP11 PUSH1 0x8 ADD SLOAD SWAP12 POP SWAP12 POP SWAP12 POP SWAP12 POP SWAP12 POP SWAP12 POP SWAP12 POP SWAP12 POP SWAP12 POP SWAP12 POP SWAP12 POP POP SWAP2 SWAP4 SWAP6 SWAP8 SWAP10 SWAP12 SWAP1 SWAP3 SWAP5 SWAP7 SWAP9 SWAP11 POP JUMP JUMPDEST PUSH1 0x3 PUSH1 0x20 MSTORE DUP1 PUSH0 MSTORE PUSH1 0x40 PUSH0 KECCAK256 PUSH0 SWAP2 POP SWAP1 POP SLOAD DUP2 JUMP JUMPDEST PUSH1 0xA DUP2 JUMP JUMPDEST PUSH32 0x0 DUP2 JUMP JUMPDEST DUP1 PUSH1 0x1 PUSH0 DUP3 DUP2 MSTORE PUSH1 0x20 ADD SWAP1 DUP2 MSTORE PUSH1 0x20 ADD PUSH0 KECCAK256 PUSH1 0x6 ADD PUSH1 0x14 SWAP1 SLOAD SWAP1 PUSH2 0x100 EXP SWAP1 DIV PUSH1 0xFF AND PUSH2 0x720 JUMPI PUSH1 0x40 MLOAD PUSH32 0x8C379A000000000000000000000000000000000000000000000000000000000 DUP2 MSTORE PUSH1 0x4 ADD PUSH2 0x717 SWAP1 PUSH2 0x1E78 JUMP JUMPDEST PUSH1 0x40 MLOAD DUP1 SWAP2 SUB SWAP1 REVERT JUMPDEST PUSH0 PUSH1 0x1 PUSH0 DUP5 DUP2 MSTORE PUSH1 0x20 ADD SWAP1 DUP2 MSTORE PUSH1 0x20 ADD PUSH0 KECCAK256 SWAP1 POP DUP1 PUSH1 0x5 ADD PUSH0 SWAP1 SLOAD SWAP1 PUSH2 0x100 EXP SWAP1 DIV PUSH20 0xFFFFFFFFFFFFFFFFFFFFFFFFFFFFFFFFFFFFFFFF AND PUSH20 0xFFFFFFFFFFFFFFFFFFFFFFFFFFFFFFFFFFFFFFFF AND CALLER PUSH20 0xFFFFFFFFFFFFFFFFFFFFFFFFFFFFFFFFFFFFFFFF AND SUB PUSH2 0x7C5 JUMPI PUSH1 0x40 MLOAD PUSH32 0x8C379A000000000000000000000000000000000000000000000000000000000 DUP2 MSTORE PUSH1 0x4 ADD PUSH2 0x7BC SWAP1 PUSH2 0x1F06 JUMP JUMPDEST PUSH1 0x40 MLOAD DUP1 SWAP2 SUB SWAP1 REVERT JUMPDEST DUP1 PUSH0 ADD SLOAD CALLVALUE EQ PUSH2 0x80A JUMPI PUSH1 0x40 MLOAD PUSH32 0x8C379A000000000000000000000000000000000000000000000000000000000 DUP2 MSTORE PUSH1 0x4 ADD PUSH2 0x801 SWAP1 PUSH2 0x1F6E JUMP JUMPDEST PUSH1 0x40 MLOAD DUP1 SWAP2 SUB SWAP1 REVERT JUMPDEST DUP1 PUSH1 0x4 ADD SLOAD TIMESTAMP GT ISZERO PUSH2 0x851 JUMPI PUSH1 0x40 MLOAD PUSH32 0x8C379A000000000000000000000000000000000000000000000000000000000 DUP2 MSTORE PUSH1 0x4 ADD PUSH2 0x848 SWAP1 PUSH2 0x1FD6 JUMP JUMPDEST PUSH1 0x40 MLOAD DUP1 SWAP2 SUB SWAP1 REVERT JUMPDEST CALLER DUP2 PUSH1 0x6 ADD PUSH0 PUSH2 0x100 EXP DUP2 SLOAD DUP2 PUSH20 0xFFFFFFFFFFFFFFFFFFFFFFFFFFFFFFFFFFFFFFFF MUL NOT AND SWAP1 DUP4 PUSH20 0xFFFFFFFFFFFFFFFFFFFFFFFFFFFFFFFFFFFFFFFF AND MUL OR SWAP1 SSTORE POP PUSH0 DUP2 PUSH1 0x6 ADD PUSH1 0x14 PUSH2 0x100 EXP DUP2 SLOAD DUP2 PUSH1 0xFF MUL NOT AND SWAP1 DUP4 ISZERO ISZERO MUL OR SWAP1 SSTORE POP DUP1 PUSH1 0x5 ADD PUSH0 SWAP1 SLOAD SWAP1 PUSH2 0x100 EXP SWAP1 DIV PUSH20 0xFFFFFFFFFFFFFFFFFFFFFFFFFFFFFFFFFFFFFFFF AND PUSH20 0xFFFFFFFFFFFFFFFFFFFFFFFFFFFFFFFFFFFFFFFF AND PUSH2 0x8FC CALLVALUE SWAP1 DUP2 ISZERO MUL SWAP1 PUSH1 0x40 MLOAD PUSH0 PUSH1 0x40 MLOAD DUP1 DUP4 SUB DUP2 DUP6 DUP9 DUP9 CALL SWAP4 POP POP POP POP ISZERO DUP1 ISZERO PUSH2 0x915 JUMPI RETURNDATASIZE PUSH0 PUSH0 RETURNDATACOPY RETURNDATASIZE PUSH0 REVERT JUMPDEST POP PUSH32 0xBD7EF6C6281278F6C8AC4AE9EF2F205B52425813C288DD47C377CB6B59C5076E DUP4 CALLER CALLVALUE PUSH1 0x40 MLOAD PUSH2 0x949 SWAP4 SWAP3 SWAP2 SWAP1 PUSH2 0x1FF4 JUMP JUMPDEST PUSH1 0x40 MLOAD DUP1 SWAP2 SUB SWAP1 LOG1 POP POP POP JUMP JUMPDEST PUSH32 0x0 DUP2 JUMP JUMPDEST PUSH2 0x2710 DUP2 JUMP JUMPDEST PUSH0 PUSH1 0x20 MSTORE DUP1 PUSH0 MSTORE PUSH1 0x40 PUSH0 KECCAK256 PUSH0 SWAP2 POP SWAP1 POP SLOAD DUP2 JUMP JUMPDEST DUP1 PUSH1 0x1 PUSH0 DUP3 DUP2 MSTORE PUSH1 0x20 ADD SWAP1 DUP2 MSTORE PUSH1 0x20 ADD PUSH0 KECCAK256 PUSH1 0x5 ADD PUSH0 SWAP1 SLOAD SWAP1 PUSH2 0x100 EXP SWAP1 DIV PUSH20 0xFFFFFFFFFFFFFFFFFFFFFFFFFFFFFFFFFFFFFFFF AND PUSH20 0xFFFFFFFFFFFFFFFFFFFFFFFFFFFFFFFFFFFFFFFF AND CALLER PUSH20 0xFFFFFFFFFFFFFFFFFFFFFFFFFFFFFFFFFFFFFFFF AND EQ PUSH2 0xA36 JUMPI PUSH1 0x40 MLOAD PUSH32 0x8C379A000000000000000000000000000000000000000000000000000000000 DUP2 MSTORE PUSH1 0x4 ADD PUSH2 0xA2D SWAP1 PUSH2 0x2099 JUMP JUMPDEST PUSH1 0x40 MLOAD DUP1 SWAP2 SUB SWAP1 REVERT JUMPDEST PUSH0 PUSH1 0x1 PUSH0 DUP5 DUP2 MSTORE PUSH1 0x20 ADD SWAP1 DUP2 MSTORE PUSH1 0x20 ADD PUSH0 KECCAK256 SWAP1 POP DUP1 PUSH1 0x6 ADD PUSH1 0x15 SWAP1 SLOAD SWAP1 PUSH2 0x100 EXP SWAP1 DIV PUSH1 0xFF AND ISZERO PUSH2 0xA9C JUMPI PUSH1 0x40 MLOAD PUSH32 0x8C379A000000000000000000000000000000000000000000000000000000000 DUP2 MSTORE PUSH1 0x4 ADD PUSH2 0xA93 SWAP1 PUSH2 0x2101 JUMP JUMPDEST PUSH1 0x40 MLOAD DUP1 SWAP2 SUB SWAP1 REVERT JUMPDEST DUP1 PUSH1 0x3 ADD SLOAD CALLVALUE EQ PUSH2 0xAE2 JUMPI PUSH1 0x40 MLOAD PUSH32 0x8C379A000000000000000000000000000000000000000000000000000000000 DUP2 MSTORE PUSH1 0x4 ADD PUSH2 0xAD9 SWAP1 PUSH2 0x2169 JUMP JUMPDEST PUSH1 0x40 MLOAD DUP1 SWAP2 SUB SWAP1 REVERT JUMPDEST DUP1 PUSH1 0x6 ADD PUSH0 SWAP1 SLOAD SWAP1 PUSH2 0x100 EXP SWAP1 DIV PUSH20 0xFFFFFFFFFFFFFFFFFFFFFFFFFFFFFFFFFFFFFFFF AND PUSH20 0xFFFFFFFFFFFFFFFFFFFFFFFFFFFFFFFFFFFFFFFF AND PUSH2 0x8FC CALLVALUE SWAP1 DUP2 ISZERO MUL SWAP1 PUSH1 0x40 MLOAD PUSH0 PUSH1 0x40 MLOAD DUP1 DUP4 SUB DUP2 DUP6 DUP9 DUP9 CALL SWAP4 POP POP POP POP ISZERO DUP1 ISZERO PUSH2 0xB48 JUMPI RETURNDATASIZE PUSH0 PUSH0 RETURNDATACOPY RETURNDATASIZE PUSH0 REVERT JUMPDEST POP PUSH32 0x0 PUSH20 0xFFFFFFFFFFFFFFFFFFFFFFFFFFFFFFFFFFFFFFFF AND DUP2 PUSH1 0x7 ADD PUSH0 SWAP1 SLOAD SWAP1 PUSH2 0x100 EXP SWAP1 DIV PUSH20 0xFFFFFFFFFFFFFFFFFFFFFFFFFFFFFFFFFFFFFFFF AND PUSH20 0xFFFFFFFFFFFFFFFFFFFFFFFFFFFFFFFFFFFFFFFF AND SUB PUSH2 0xCB9 JUMPI PUSH32 0x0 PUSH20 0xFFFFFFFFFFFFFFFFFFFFFFFFFFFFFFFFFFFFFFFF AND PUSH4 0x2E1A7D4D DUP3 PUSH1 0x8 ADD SLOAD PUSH1 0x40 MLOAD DUP3 PUSH4 0xFFFFFFFF AND PUSH1 0xE0 SHL DUP2 MSTORE PUSH1 0x4 ADD PUSH2 0xC1C SWAP2 SWAP1 PUSH2 0x19D0 JUMP JUMPDEST PUSH0 PUSH1 0x40 MLOAD DUP1 DUP4 SUB DUP2 PUSH0 DUP8 DUP1 EXTCODESIZE ISZERO DUP1 ISZERO PUSH2 0xC33 JUMPI PUSH0 PUSH0 REVERT JUMPDEST POP GAS CALL ISZERO DUP1 ISZERO PUSH2 0xC45 JUMPI RETURNDATASIZE PUSH0 PUSH0 RETURNDATACOPY RETURNDATASIZE PUSH0 REVERT JUMPDEST POP POP POP POP DUP1 PUSH1 0x5 ADD PUSH0 SWAP1 SLOAD SWAP1 PUSH2 0x100 EXP SWAP1 DIV PUSH20 0xFFFFFFFFFFFFFFFFFFFFFFFFFFFFFFFFFFFFFFFF AND PUSH20 0xFFFFFFFFFFFFFFFFFFFFFFFFFFFFFFFFFFFFFFFF AND PUSH2 0x8FC DUP3 PUSH1 0x8 ADD SLOAD SWAP1 DUP2 ISZERO MUL SWAP1 PUSH1 0x40 MLOAD PUSH0 PUSH1 0x40 MLOAD DUP1 DUP4 SUB DUP2 DUP6 DUP9 DUP9 CALL SWAP4 POP POP POP POP ISZERO DUP1 ISZERO PUSH2 0xCB3 JUMPI RETURNDATASIZE PUSH0 PUSH0 RETURNDATACOPY RETURNDATASIZE PUSH0 REVERT JUMPDEST POP PUSH2 0xDBE JUMP JUMPDEST DUP1 PUSH1 0x7 ADD PUSH0 SWAP1 SLOAD SWAP1 PUSH2 0x100 EXP SWAP1 DIV PUSH20 0xFFFFFFFFFFFFFFFFFFFFFFFFFFFFFFFFFFFFFFFF AND PUSH20 0xFFFFFFFFFFFFFFFFFFFFFFFFFFFFFFFFFFFFFFFF AND PUSH4 0xA9059CBB DUP3 PUSH1 0x5 ADD PUSH0 SWAP1 SLOAD SWAP1 PUSH2 0x100 EXP SWAP1 DIV PUSH20 0xFFFFFFFFFFFFFFFFFFFFFFFFFFFFFFFFFFFFFFFF AND DUP4 PUSH1 0x8 ADD SLOAD PUSH1 0x40 MLOAD DUP4 PUSH4 0xFFFFFFFF AND PUSH1 0xE0 SHL DUP2 MSTORE PUSH1 0x4 ADD PUSH2 0xD3E SWAP3 SWAP2 SWAP1 PUSH2 0x2187 JUMP JUMPDEST PUSH1 0x20 PUSH1 0x40 MLOAD DUP1 DUP4 SUB DUP2 PUSH0 DUP8 GAS CALL ISZERO DUP1 ISZERO PUSH2 0xD5A JUMPI RETURNDATASIZE PUSH0 PUSH0 RETURNDATACOPY RETURNDATASIZE PUSH0 REVERT JUMPDEST POP POP POP POP PUSH1 0x40 MLOAD RETURNDATASIZE PUSH1 0x1F NOT PUSH1 0x1F DUP3 ADD AND DUP3 ADD DUP1 PUSH1 0x40 MSTORE POP DUP2 ADD SWAP1 PUSH2 0xD7E SWAP2 SWAP1 PUSH2 0x21D8 JUMP JUMPDEST PUSH2 0xDBD JUMPI PUSH1 0x40 MLOAD PUSH32 0x8C379A000000000000000000000000000000000000000000000000000000000 DUP2 MSTORE PUSH1 0x4 ADD PUSH2 0xDB4 SWAP1 PUSH2 0x224D JUMP JUMPDEST PUSH1 0x40 MLOAD DUP1 SWAP2 SUB SWAP1 REVERT JUMPDEST JUMPDEST PUSH1 0x1 DUP2 PUSH1 0x6 ADD PUSH1 0x15 PUSH2 0x100 EXP DUP2 SLOAD DUP2 PUSH1 0xFF MUL NOT AND SWAP1 DUP4 ISZERO ISZERO MUL OR SWAP1 SSTORE POP PUSH0 DUP2 PUSH1 0x6 ADD PUSH1 0x14 PUSH2 0x100 EXP DUP2 SLOAD DUP2 PUSH1 0xFF MUL NOT AND SWAP1 DUP4 ISZERO ISZERO MUL OR SWAP1 SSTORE POP PUSH32 0x40CEE90EE4799897C30CA04E5FEB6FA43DBBA9B6D084B4B257CDAFD84BA013E DUP4 CALLVALUE PUSH1 0x40 MLOAD PUSH2 0xE28 SWAP3 SWAP2 SWAP1 PUSH2 0x226B JUMP JUMPDEST PUSH1 0x40 MLOAD DUP1 SWAP2 SUB SWAP1 LOG1 PUSH31 0x83F3D3D0A8132E9BF23AE6CDE659D5F3963A6973816E144F05BFCCEF184279 DUP4 DUP3 PUSH1 0x7 ADD PUSH0 SWAP1 SLOAD SWAP1 PUSH2 0x100 EXP SWAP1 DIV PUSH20 0xFFFFFFFFFFFFFFFFFFFFFFFFFFFFFFFFFFFFFFFF AND DUP4 PUSH1 0x8 ADD SLOAD PUSH1 0x40 MLOAD PUSH2 0xE89 SWAP4 SWAP3 SWAP2 SWAP1 PUSH2 0x1FF4 JUMP JUMPDEST PUSH1 0x40 MLOAD DUP1 SWAP2 SUB SWAP1 LOG1 POP POP POP JUMP JUMPDEST PUSH32 0x0 DUP2 JUMP JUMPDEST PUSH32 0x0 DUP2 JUMP JUMPDEST PUSH1 0x1 DUP2 JUMP JUMPDEST PUSH0 PUSH1 0x1 PUSH0 DUP4 DUP2 MSTORE PUSH1 0x20 ADD SWAP1 DUP2 MSTORE PUSH1 0x20 ADD PUSH0 KECCAK256 SWAP1 POP DUP1 PUSH1 0x6 ADD PUSH1 0x14 SWAP1 SLOAD SWAP1 PUSH2 0x100 EXP SWAP1 DIV PUSH1 0xFF AND PUSH2 0xF48 JUMPI PUSH1 0x40 MLOAD PUSH32 0x8C379A000000000000000000000000000000000000000000000000000000000 DUP2 MSTORE PUSH1 0x4 ADD PUSH2 0xF3F SWAP1 PUSH2 0x22DC JUMP JUMPDEST PUSH1 0x40 MLOAD DUP1 SWAP2 SUB SWAP1 REVERT JUMPDEST DUP1 PUSH1 0x2 ADD SLOAD DUP2 PUSH1 0x4 ADD SLOAD PUSH2 0xF5C SWAP2 SWAP1 PUSH2 0x22FA JUMP JUMPDEST TIMESTAMP GT PUSH2 0xF9D JUMPI PUSH1 0x40 MLOAD PUSH32 0x8C379A000000000000000000000000000000000000000000000000000000000 DUP2 MSTORE PUSH1 0x4 ADD PUSH2 0xF94 SWAP1 PUSH2 0x2377 JUMP JUMPDEST PUSH1 0x40 MLOAD DUP1 SWAP2 SUB SWAP1 REVERT JUMPDEST DUP1 PUSH1 0x6 ADD PUSH1 0x15 SWAP1 SLOAD SWAP1 PUSH2 0x100 EXP SWAP1 DIV PUSH1 0xFF AND ISZERO PUSH2 0xFEF JUMPI PUSH1 0x40 MLOAD PUSH32 0x8C379A000000000000000000000000000000000000000000000000000000000 DUP2 MSTORE PUSH1 0x4 ADD PUSH2 0xFE6 SWAP1 PUSH2 0x2101 JUMP JUMPDEST PUSH1 0x40 MLOAD DUP1 SWAP2 SUB SWAP1 REVERT JUMPDEST PUSH32 0x0 PUSH20 0xFFFFFFFFFFFFFFFFFFFFFFFFFFFFFFFFFFFFFFFF AND DUP2 PUSH1 0x7 ADD PUSH0 SWAP1 SLOAD SWAP1 PUSH2 0x100 EXP SWAP1 DIV PUSH20 0xFFFFFFFFFFFFFFFFFFFFFFFFFFFFFFFFFFFFFFFF AND PUSH20 0xFFFFFFFFFFFFFFFFFFFFFFFFFFFFFFFFFFFFFFFF AND SUB PUSH2 0x115F JUMPI PUSH32 0x0 PUSH20 0xFFFFFFFFFFFFFFFFFFFFFFFFFFFFFFFFFFFFFFFF AND PUSH4 0x2E1A7D4D DUP3 PUSH1 0x8 ADD SLOAD PUSH1 0x40 MLOAD DUP3 PUSH4 0xFFFFFFFF AND PUSH1 0xE0 SHL DUP2 MSTORE PUSH1 0x4 ADD PUSH2 0x10C2 SWAP2 SWAP1 PUSH2 0x19D0 JUMP JUMPDEST PUSH0 PUSH1 0x40 MLOAD DUP1 DUP4 SUB DUP2 PUSH0 DUP8 DUP1 EXTCODESIZE ISZERO DUP1 ISZERO PUSH2 0x10D9 JUMPI PUSH0 PUSH0 REVERT JUMPDEST POP GAS CALL ISZERO DUP1 ISZERO PUSH2 0x10EB JUMPI RETURNDATASIZE PUSH0 PUSH0 RETURNDATACOPY RETURNDATASIZE PUSH0 REVERT JUMPDEST POP POP POP POP DUP1 PUSH1 0x6 ADD PUSH0 SWAP1 SLOAD SWAP1 PUSH2 0x100 EXP SWAP1 DIV PUSH20 0xFFFFFFFFFFFFFFFFFFFFFFFFFFFFFFFFFFFFFFFF AND PUSH20 0xFFFFFFFFFFFFFFFFFFFFFFFFFFFFFFFFFFFFFFFF AND PUSH2 0x8FC DUP3 PUSH1 0x8 ADD SLOAD SWAP1 DUP2 ISZERO MUL SWAP1 PUSH1 0x40 MLOAD PUSH0 PUSH1 0x40 MLOAD DUP1 DUP4 SUB DUP2 DUP6 DUP9 DUP9 CALL SWAP4 POP POP POP POP ISZERO DUP1 ISZERO PUSH2 0x1159 JUMPI RETURNDATASIZE PUSH0 PUSH0 RETURNDATACOPY RETURNDATASIZE PUSH0 REVERT JUMPDEST POP PUSH2 0x1264 JUMP JUMPDEST DUP1 PUSH1 0x7 ADD PUSH0 SWAP1 SLOAD SWAP1 PUSH2 0x100 EXP SWAP1 DIV PUSH20 0xFFFFFFFFFFFFFFFFFFFFFFFFFFFFFFFFFFFFFFFF AND PUSH20 0xFFFFFFFFFFFFFFFFFFFFFFFFFFFFFFFFFFFFFFFF AND PUSH4 0xA9059CBB DUP3 PUSH1 0x6 ADD PUSH0 SWAP1 SLOAD SWAP1 PUSH2 0x100 EXP SWAP1 DIV PUSH20 0xFFFFFFFFFFFFFFFFFFFFFFFFFFFFFFFFFFFFFFFF AND DUP4 PUSH1 0x8 ADD SLOAD PUSH1 0x40 MLOAD DUP4 PUSH4 0xFFFFFFFF AND PUSH1 0xE0 SHL DUP2 MSTORE PUSH1 0x4 ADD PUSH2 0x11E4 SWAP3 SWAP2 SWAP1 PUSH2 0x23B5 JUMP JUMPDEST PUSH1 0x20 PUSH1 0x40 MLOAD DUP1 DUP4 SUB DUP2 PUSH0 DUP8 GAS CALL ISZERO DUP1 ISZERO PUSH2 0x1200 JUMPI RETURNDATASIZE PUSH0 PUSH0 RETURNDATACOPY RETURNDATASIZE PUSH0 REVERT JUMPDEST POP POP POP POP PUSH1 0x40 MLOAD RETURNDATASIZE PUSH1 0x1F NOT PUSH1 0x1F DUP3 ADD AND DUP3 ADD DUP1 PUSH1 0x40 MSTORE POP DUP2 ADD SWAP1 PUSH2 0x1224 SWAP2 SWAP1 PUSH2 0x21D8 JUMP JUMPDEST PUSH2 0x1263 JUMPI PUSH1 0x40 MLOAD PUSH32 0x8C379A000000000000000000000000000000000000000000000000000000000 DUP2 MSTORE PUSH1 0x4 ADD PUSH2 0x125A SWAP1 PUSH2 0x2426 JUMP JUMPDEST PUSH1 0x40 MLOAD DUP1 SWAP2 SUB SWAP1 REVERT JUMPDEST JUMPDEST PUSH0 DUP2 PUSH1 0x6 ADD PUSH1 0x14 PUSH2 0x100 EXP DUP2 SLOAD DUP2 PUSH1 0xFF MUL NOT AND SWAP1 DUP4 ISZERO ISZERO MUL OR SWAP1 SSTORE POP PUSH32 0xCAFCA847A6C6645C7DD7BB55A47759CD884F49BD6E8C273F4EE701E8B81BCDA0 DUP3 DUP3 PUSH1 0x7 ADD PUSH0 SWAP1 SLOAD SWAP1 PUSH2 0x100 EXP SWAP1 DIV PUSH20 0xFFFFFFFFFFFFFFFFFFFFFFFFFFFFFFFFFFFFFFFF AND DUP4 PUSH1 0x8 ADD SLOAD PUSH1 0x40 MLOAD PUSH2 0x12DA SWAP4 SWAP3 SWAP2 SWAP1 PUSH2 0x1FF4 JUMP JUMPDEST PUSH1 0x40 MLOAD DUP1 SWAP2 SUB SWAP1 LOG1 POP POP JUMP JUMPDEST PUSH1 0x2 SLOAD DUP2 JUMP JUMPDEST PUSH3 0xF4240 DUP2 JUMP JUMPDEST PUSH2 0x2710 DUP5 LT ISZERO DUP1 ISZERO PUSH2 0x1308 JUMPI POP PUSH3 0xF4240 DUP5 GT ISZERO JUMPDEST PUSH2 0x1347 JUMPI PUSH1 0x40 MLOAD PUSH32 0x8C379A000000000000000000000000000000000000000000000000000000000 DUP2 MSTORE PUSH1 0x4 ADD PUSH2 0x133E SWAP1 PUSH2 0x248E JUMP JUMPDEST PUSH1 0x40 MLOAD DUP1 SWAP2 SUB SWAP1 REVERT JUMPDEST PUSH1 0x1 DUP4 LT ISZERO DUP1 ISZERO PUSH2 0x1359 JUMPI POP PUSH1 0xA DUP4 GT ISZERO JUMPDEST PUSH2 0x1398 JUMPI PUSH1 0x40 MLOAD PUSH32 0x8C379A000000000000000000000000000000000000000000000000000000000 DUP2 MSTORE PUSH1 0x4 ADD PUSH2 0x138F SWAP1 PUSH2 0x24F6 JUMP JUMPDEST PUSH1 0x40 MLOAD DUP1 SWAP2 SUB SWAP1 REVERT JUMPDEST PUSH0 DUP3 GT PUSH2 0x13DA JUMPI PUSH1 0x40 MLOAD PUSH32 0x8C379A000000000000000000000000000000000000000000000000000000000 DUP2 MSTORE PUSH1 0x4 ADD PUSH2 0x13D1 SWAP1 PUSH2 0x255E JUMP JUMPDEST PUSH1 0x40 MLOAD DUP1 SWAP2 SUB SWAP1 REVERT JUMPDEST PUSH0 PUSH0 PUSH0 DUP4 PUSH20 0xFFFFFFFFFFFFFFFFFFFFFFFFFFFFFFFFFFFFFFFF AND PUSH20 0xFFFFFFFFFFFFFFFFFFFFFFFFFFFFFFFFFFFFFFFF AND DUP2 MSTORE PUSH1 0x20 ADD SWAP1 DUP2 MSTORE PUSH1 0x20 ADD PUSH0 KECCAK256 SLOAD GT PUSH2 0x1458 JUMPI PUSH1 0x40 MLOAD PUSH32 0x8C379A000000000000000000000000000000000000000000000000000000000 DUP2 MSTORE PUSH1 0x4 ADD PUSH2 0x144F SWAP1 PUSH2 0x1D45 JUMP JUMPDEST PUSH1 0x40 MLOAD DUP1 SWAP2 SUB SWAP1 REVERT JUMPDEST PUSH0 PUSH2 0x1463 DUP3 DUP7 PUSH2 0x44D JUMP JUMPDEST SWAP1 POP PUSH32 0x0 PUSH20 0xFFFFFFFFFFFFFFFFFFFFFFFFFFFFFFFFFFFFFFFF AND DUP3 PUSH20 0xFFFFFFFFFFFFFFFFFFFFFFFFFFFFFFFFFFFFFFFF AND SUB PUSH2 0x157D JUMPI DUP1 CALLVALUE LT ISZERO PUSH2 0x14FB JUMPI PUSH1 0x40 MLOAD PUSH32 0x8C379A000000000000000000000000000000000000000000000000000000000 DUP2 MSTORE PUSH1 0x4 ADD PUSH2 0x14F2 SWAP1 PUSH2 0x25C6 JUMP JUMPDEST PUSH1 0x40 MLOAD DUP1 SWAP2 SUB SWAP1 REVERT JUMPDEST PUSH32 0x0 PUSH20 0xFFFFFFFFFFFFFFFFFFFFFFFFFFFFFFFFFFFFFFFF AND PUSH4 0xD0E30DB0 DUP3 PUSH1 0x40 MLOAD DUP3 PUSH4 0xFFFFFFFF AND PUSH1 0xE0 SHL DUP2 MSTORE PUSH1 0x4 ADD PUSH0 PUSH1 0x40 MLOAD DUP1 DUP4 SUB DUP2 DUP6 DUP9 DUP1 EXTCODESIZE ISZERO DUP1 ISZERO PUSH2 0x1561 JUMPI PUSH0 PUSH0 REVERT JUMPDEST POP GAS CALL ISZERO DUP1 ISZERO PUSH2 0x1573 JUMPI RETURNDATASIZE PUSH0 PUSH0 RETURNDATACOPY RETURNDATASIZE PUSH0 REVERT JUMPDEST POP POP POP POP POP PUSH2 0x163A JUMP JUMPDEST DUP2 PUSH20 0xFFFFFFFFFFFFFFFFFFFFFFFFFFFFFFFFFFFFFFFF AND PUSH4 0x23B872DD CALLER ADDRESS DUP5 PUSH1 0x40 MLOAD DUP5 PUSH4 0xFFFFFFFF AND PUSH1 0xE0 SHL DUP2 MSTORE PUSH1 0x4 ADD PUSH2 0x15BA SWAP4 SWAP3 SWAP2 SWAP1 PUSH2 0x25E4 JUMP JUMPDEST PUSH1 0x20 PUSH1 0x40 MLOAD DUP1 DUP4 SUB DUP2 PUSH0 DUP8 GAS CALL ISZERO DUP1 ISZERO PUSH2 0x15D6 JUMPI RETURNDATASIZE PUSH0 PUSH0 RETURNDATACOPY RETURNDATASIZE PUSH0 REVERT JUMPDEST POP POP POP POP PUSH1 0x40 MLOAD RETURNDATASIZE PUSH1 0x1F NOT PUSH1 0x1F DUP3 ADD AND DUP3 ADD DUP1 PUSH1 0x40 MSTORE POP DUP2 ADD SWAP1 PUSH2 0x15FA SWAP2 SWAP1 PUSH2 0x21D8 JUMP JUMPDEST PUSH2 0x1639 JUMPI PUSH1 0x40 MLOAD PUSH32 0x8C379A000000000000000000000000000000000000000000000000000000000 DUP2 MSTORE PUSH1 0x4 ADD PUSH2 0x1630 SWAP1 PUSH2 0x2663 JUMP JUMPDEST PUSH1 0x40 MLOAD DUP1 SWAP2 SUB SWAP1 REVERT JUMPDEST JUMPDEST PUSH0 PUSH1 0x64 DUP6 DUP8 PUSH2 0x1649 SWAP2 SWAP1 PUSH2 0x1D90 JUMP JUMPDEST PUSH2 0x1653 SWAP2 SWAP1 PUSH2 0x1DFE JUMP JUMPDEST DUP7 PUSH2 0x165E SWAP2 SWAP1 PUSH2 0x22FA JUMP JUMPDEST SWAP1 POP PUSH0 PUSH3 0x15180 TIMESTAMP PUSH2 0x1670 SWAP2 SWAP1 PUSH2 0x22FA JUMP JUMPDEST SWAP1 POP PUSH0 PUSH1 0x2 PUSH0 DUP2 SLOAD DUP1 SWAP3 SWAP2 SWAP1 PUSH2 0x1685 SWAP1 PUSH2 0x2681 JUMP JUMPDEST SWAP2 SWAP1 POP SSTORE SWAP1 POP PUSH0 PUSH1 0x1 PUSH0 DUP4 DUP2 MSTORE PUSH1 0x20 ADD SWAP1 DUP2 MSTORE PUSH1 0x20 ADD PUSH0 KECCAK256 SWAP1 POP DUP9 DUP2 PUSH0 ADD DUP2 SWAP1 SSTORE POP DUP8 DUP2 PUSH1 0x1 ADD DUP2 SWAP1 SSTORE POP DUP7 DUP2 PUSH1 0x2 ADD DUP2 SWAP1 SSTORE POP DUP4 DUP2 PUSH1 0x3 ADD DUP2 SWAP1 SSTORE POP DUP3 DUP2 PUSH1 0x4 ADD DUP2 SWAP1 SSTORE POP CALLER DUP2 PUSH1 0x5 ADD PUSH0 PUSH2 0x100 EXP DUP2 SLOAD DUP2 PUSH20 0xFFFFFFFFFFFFFFFFFFFFFFFFFFFFFFFFFFFFFFFF MUL NOT AND SWAP1 DUP4 PUSH20 0xFFFFFFFFFFFFFFFFFFFFFFFFFFFFFFFFFFFFFFFF AND MUL OR SWAP1 SSTORE POP PUSH0 DUP2 PUSH1 0x6 ADD PUSH0 PUSH2 0x100 EXP DUP2 SLOAD DUP2 PUSH20 0xFFFFFFFFFFFFFFFFFFFFFFFFFFFFFFFFFFFFFFFF MUL NOT AND SWAP1 DUP4 PUSH20 0xFFFFFFFFFFFFFFFFFFFFFFFFFFFFFFFFFFFFFFFF AND MUL OR SWAP1 SSTORE POP PUSH1 0x1 DUP2 PUSH1 0x6 ADD PUSH1 0x14 PUSH2 0x100 EXP DUP2 SLOAD DUP2 PUSH1 0xFF MUL NOT AND SWAP1 DUP4 ISZERO ISZERO MUL OR SWAP1 SSTORE POP PUSH0 DUP2 PUSH1 0x6 ADD PUSH1 0x15 PUSH2 0x100 EXP DUP2 SLOAD DUP2 PUSH1 0xFF MUL NOT AND SWAP1 DUP4 ISZERO ISZERO MUL OR SWAP1 SSTORE POP DUP6 DUP2 PUSH1 0x7 ADD PUSH0 PUSH2 0x100 EXP DUP2 SLOAD DUP2 PUSH20 0xFFFFFFFFFFFFFFFFFFFFFFFFFFFFFFFFFFFFFFFF MUL NOT AND SWAP1 DUP4 PUSH20 0xFFFFFFFFFFFFFFFFFFFFFFFFFFFFFFFFFFFFFFFF AND MUL OR SWAP1 SSTORE POP DUP5 DUP2 PUSH1 0x8 ADD DUP2 SWAP1 SSTORE POP PUSH32 0x1E204E583357721D9AF7F7E2D311DA20E5D734ED3D1BF727419374A9CCED0672 DUP3 DUP11 DUP11 DUP11 DUP8 CALLER PUSH0 DUP14 DUP14 PUSH1 0x40 MLOAD PUSH2 0x1812 SWAP10 SWAP9 SWAP8 SWAP7 SWAP6 SWAP5 SWAP4 SWAP3 SWAP2 SWAP1 PUSH2 0x26C8 JUMP JUMPDEST PUSH1 0x40 MLOAD DUP1 SWAP2 SUB SWAP1 LOG1 POP POP POP POP POP POP POP POP POP JUMP JUMPDEST PUSH1 0x1 PUSH1 0x20 MSTORE DUP1 PUSH0 MSTORE PUSH1 0x40 PUSH0 KECCAK256 PUSH0 SWAP2 POP SWAP1 POP DUP1 PUSH0 ADD SLOAD SWAP1 DUP1 PUSH1 0x1 ADD SLOAD SWAP1 DUP1 PUSH1 0x2 ADD SLOAD SWAP1 DUP1 PUSH1 0x3 ADD SLOAD SWAP1 DUP1 PUSH1 0x4 ADD SLOAD SWAP1 DUP1 PUSH1 0x5 ADD PUSH0 SWAP1 SLOAD SWAP1 PUSH2 0x100 EXP SWAP1 DIV PUSH20 0xFFFFFFFFFFFFFFFFFFFFFFFFFFFFFFFFFFFFFFFF AND SWAP1 DUP1 PUSH1 0x6 ADD PUSH0 SWAP1 SLOAD SWAP1 PUSH2 0x100 EXP SWAP1 DIV PUSH20 0xFFFFFFFFFFFFFFFFFFFFFFFFFFFFFFFFFFFFFFFF AND SWAP1 DUP1 PUSH1 0x6 ADD PUSH1 0x14 SWAP1 SLOAD SWAP1 PUSH2 0x100 EXP SWAP1 DIV PUSH1 0xFF AND SWAP1 DUP1 PUSH1 0x6 ADD PUSH1 0x15 SWAP1 SLOAD SWAP1 PUSH2 0x100 EXP SWAP1 DIV PUSH1 0xFF AND SWAP1 DUP1 PUSH1 0x7 ADD PUSH0 SWAP1 SLOAD SWAP1 PUSH2 0x100 EXP SWAP1 DIV PUSH20 0xFFFFFFFFFFFFFFFFFFFFFFFFFFFFFFFFFFFFFFFF AND SWAP1 DUP1 PUSH1 0x8 ADD SLOAD SWAP1 POP DUP12 JUMP JUMPDEST PUSH0 PUSH0 REVERT JUMPDEST PUSH0 PUSH20 0xFFFFFFFFFFFFFFFFFFFFFFFFFFFFFFFFFFFFFFFF DUP3 AND SWAP1 POP SWAP2 SWAP1 POP JUMP JUMPDEST PUSH0 PUSH2 0x191F DUP3 PUSH2 0x18F6 JUMP JUMPDEST SWAP1 POP SWAP2 SWAP1 POP JUMP JUMPDEST PUSH2 0x192F DUP2 PUSH2 0x1915 JUMP JUMPDEST DUP2 EQ PUSH2 0x1939 JUMPI PUSH0 PUSH0 REVERT JUMPDEST POP JUMP JUMPDEST PUSH0 DUP2 CALLDATALOAD SWAP1 POP PUSH2 0x194A DUP2 PUSH2 0x1926 JUMP JUMPDEST SWAP3 SWAP2 POP POP JUMP JUMPDEST PUSH0 DUP2 SWAP1 POP SWAP2 SWAP1 POP JUMP JUMPDEST PUSH2 0x1962 DUP2 PUSH2 0x1950 JUMP JUMPDEST DUP2 EQ PUSH2 0x196C JUMPI PUSH0 PUSH0 REVERT JUMPDEST POP JUMP JUMPDEST PUSH0 DUP2 CALLDATALOAD SWAP1 POP PUSH2 0x197D DUP2 PUSH2 0x1959 JUMP JUMPDEST SWAP3 SWAP2 POP POP JUMP JUMPDEST PUSH0 PUSH0 PUSH1 0x40 DUP4 DUP6 SUB SLT ISZERO PUSH2 0x1999 JUMPI PUSH2 0x1998 PUSH2 0x18F2 JUMP JUMPDEST JUMPDEST PUSH0 PUSH2 0x19A6 DUP6 DUP3 DUP7 ADD PUSH2 0x193C JUMP JUMPDEST SWAP3 POP POP PUSH1 0x20 PUSH2 0x19B7 DUP6 DUP3 DUP7 ADD PUSH2 0x196F JUMP JUMPDEST SWAP2 POP POP SWAP3 POP SWAP3 SWAP1 POP JUMP JUMPDEST PUSH2 0x19CA DUP2 PUSH2 0x1950 JUMP JUMPDEST DUP3 MSTORE POP POP JUMP JUMPDEST PUSH0 PUSH1 0x20 DUP3 ADD SWAP1 POP PUSH2 0x19E3 PUSH0 DUP4 ADD DUP5 PUSH2 0x19C1 JUMP JUMPDEST SWAP3 SWAP2 POP POP JUMP JUMPDEST PUSH0 PUSH1 0x20 DUP3 DUP5 SUB SLT ISZERO PUSH2 0x19FE JUMPI PUSH2 0x19FD PUSH2 0x18F2 JUMP JUMPDEST JUMPDEST PUSH0 PUSH2 0x1A0B DUP5 DUP3 DUP6 ADD PUSH2 0x196F JUMP JUMPDEST SWAP2 POP POP SWAP3 SWAP2 POP POP JUMP JUMPDEST PUSH2 0x1A1D DUP2 PUSH2 0x1915 JUMP JUMPDEST DUP3 MSTORE POP POP JUMP JUMPDEST PUSH0 DUP2 ISZERO ISZERO SWAP1 POP SWAP2 SWAP1 POP JUMP JUMPDEST PUSH2 0x1A37 DUP2 PUSH2 0x1A23 JUMP JUMPDEST DUP3 MSTORE POP POP JUMP JUMPDEST PUSH0 PUSH2 0x160 DUP3 ADD SWAP1 POP PUSH2 0x1A51 PUSH0 DUP4 ADD DUP15 PUSH2 0x19C1 JUMP JUMPDEST PUSH2 0x1A5E PUSH1 0x20 DUP4 ADD DUP14 PUSH2 0x19C1 JUMP JUMPDEST PUSH2 0x1A6B PUSH1 0x40 DUP4 ADD DUP13 PUSH2 0x19C1 JUMP JUMPDEST PUSH2 0x1A78 PUSH1 0x60 DUP4 ADD DUP12 PUSH2 0x19C1 JUMP JUMPDEST PUSH2 0x1A85 PUSH1 0x80 DUP4 ADD DUP11 PUSH2 0x19C1 JUMP JUMPDEST PUSH2 0x1A92 PUSH1 0xA0 DUP4 ADD DUP10 PUSH2 0x1A14 JUMP JUMPDEST PUSH2 0x1A9F PUSH1 0xC0 DUP4 ADD DUP9 PUSH2 0x1A14 JUMP JUMPDEST PUSH2 0x1AAC PUSH1 0xE0 DUP4 ADD DUP8 PUSH2 0x1A2E JUMP JUMPDEST PUSH2 0x1ABA PUSH2 0x100 DUP4 ADD DUP7 PUSH2 0x1A2E JUMP JUMPDEST PUSH2 0x1AC8 PUSH2 0x120 DUP4 ADD DUP6 PUSH2 0x1A14 JUMP JUMPDEST PUSH2 0x1AD6 PUSH2 0x140 DUP4 ADD DUP5 PUSH2 0x19C1 JUMP JUMPDEST SWAP13 SWAP12 POP POP POP POP POP POP POP POP POP POP POP POP JUMP JUMPDEST PUSH0 PUSH1 0x20 DUP3 DUP5 SUB SLT ISZERO PUSH2 0x1AFB JUMPI PUSH2 0x1AFA PUSH2 0x18F2 JUMP JUMPDEST JUMPDEST PUSH0 PUSH2 0x1B08 DUP5 DUP3 DUP6 ADD PUSH2 0x193C JUMP JUMPDEST SWAP2 POP POP SWAP3 SWAP2 POP POP JUMP JUMPDEST PUSH0 DUP2 SWAP1 POP SWAP2 SWAP1 POP JUMP JUMPDEST PUSH0 PUSH2 0x1B34 PUSH2 0x1B2F PUSH2 0x1B2A DUP5 PUSH2 0x18F6 JUMP JUMPDEST PUSH2 0x1B11 JUMP JUMPDEST PUSH2 0x18F6 JUMP JUMPDEST SWAP1 POP SWAP2 SWAP1 POP JUMP JUMPDEST PUSH0 PUSH2 0x1B45 DUP3 PUSH2 0x1B1A JUMP JUMPDEST SWAP1 POP SWAP2 SWAP1 POP JUMP JUMPDEST PUSH0 PUSH2 0x1B56 DUP3 PUSH2 0x1B3B JUMP JUMPDEST SWAP1 POP SWAP2 SWAP1 POP JUMP JUMPDEST PUSH2 0x1B66 DUP2 PUSH2 0x1B4C JUMP JUMPDEST DUP3 MSTORE POP POP JUMP JUMPDEST PUSH0 PUSH1 0x20 DUP3 ADD SWAP1 POP PUSH2 0x1B7F PUSH0 DUP4 ADD DUP5 PUSH2 0x1B5D JUMP JUMPDEST SWAP3 SWAP2 POP POP JUMP JUMPDEST PUSH0 PUSH2 0x1B8F DUP3 PUSH2 0x1B3B JUMP JUMPDEST SWAP1 POP SWAP2 SWAP1 POP JUMP JUMPDEST PUSH2 0x1B9F DUP2 PUSH2 0x1B85 JUMP JUMPDEST DUP3 MSTORE POP POP JUMP JUMPDEST PUSH0 PUSH1 0x20 DUP3 ADD SWAP1 POP PUSH2 0x1BB8 PUSH0 DUP4 ADD DUP5 PUSH2 0x1B96 JUMP JUMPDEST SWAP3 SWAP2 POP POP JUMP JUMPDEST PUSH0 PUSH0 PUSH0 PUSH0 PUSH1 0x80 DUP6 DUP8 SUB SLT ISZERO PUSH2 0x1BD6 JUMPI PUSH2 0x1BD5 PUSH2 0x18F2 JUMP JUMPDEST JUMPDEST PUSH0 PUSH2 0x1BE3 DUP8 DUP3 DUP9 ADD PUSH2 0x196F JUMP JUMPDEST SWAP5 POP POP PUSH1 0x20 PUSH2 0x1BF4 DUP8 DUP3 DUP9 ADD PUSH2 0x196F JUMP JUMPDEST SWAP4 POP POP PUSH1 0x40 PUSH2 0x1C05 DUP8 DUP3 DUP9 ADD PUSH2 0x196F JUMP JUMPDEST SWAP3 POP POP PUSH1 0x60 PUSH2 0x1C16 DUP8 DUP3 DUP9 ADD PUSH2 0x193C JUMP JUMPDEST SWAP2 POP POP SWAP3 SWAP6 SWAP2 SWAP5 POP SWAP3 POP JUMP JUMPDEST PUSH0 PUSH2 0x1C2C DUP3 PUSH2 0x18F6 JUMP JUMPDEST SWAP1 POP SWAP2 SWAP1 POP JUMP JUMPDEST PUSH2 0x1C3C DUP2 PUSH2 0x1C22 JUMP JUMPDEST DUP3 MSTORE POP POP JUMP JUMPDEST PUSH0 PUSH2 0x160 DUP3 ADD SWAP1 POP PUSH2 0x1C56 PUSH0 DUP4 ADD DUP15 PUSH2 0x19C1 JUMP JUMPDEST PUSH2 0x1C63 PUSH1 0x20 DUP4 ADD DUP14 PUSH2 0x19C1 JUMP JUMPDEST PUSH2 0x1C70 PUSH1 0x40 DUP4 ADD DUP13 PUSH2 0x19C1 JUMP JUMPDEST PUSH2 0x1C7D PUSH1 0x60 DUP4 ADD DUP12 PUSH2 0x19C1 JUMP JUMPDEST PUSH2 0x1C8A PUSH1 0x80 DUP4 ADD DUP11 PUSH2 0x19C1 JUMP JUMPDEST PUSH2 0x1C97 PUSH1 0xA0 DUP4 ADD DUP10 PUSH2 0x1A14 JUMP JUMPDEST PUSH2 0x1CA4 PUSH1 0xC0 DUP4 ADD DUP9 PUSH2 0x1C33 JUMP JUMPDEST PUSH2 0x1CB1 PUSH1 0xE0 DUP4 ADD DUP8 PUSH2 0x1A2E JUMP JUMPDEST PUSH2 0x1CBF PUSH2 0x100 DUP4 ADD DUP7 PUSH2 0x1A2E JUMP JUMPDEST PUSH2 0x1CCD PUSH2 0x120 DUP4 ADD DUP6 PUSH2 0x1A14 JUMP JUMPDEST PUSH2 0x1CDB PUSH2 0x140 DUP4 ADD DUP5 PUSH2 0x19C1 JUMP JUMPDEST SWAP13 SWAP12 POP POP POP POP POP POP POP POP POP POP POP POP JUMP JUMPDEST PUSH0 DUP3 DUP3 MSTORE PUSH1 0x20 DUP3 ADD SWAP1 POP SWAP3 SWAP2 POP POP JUMP JUMPDEST PUSH32 0x556E737570706F7274656420636F6C6C61746572616C20746F6B656E00000000 PUSH0 DUP3 ADD MSTORE POP JUMP JUMPDEST PUSH0 PUSH2 0x1D2F PUSH1 0x1C DUP4 PUSH2 0x1CEB JUMP JUMPDEST SWAP2 POP PUSH2 0x1D3A DUP3 PUSH2 0x1CFB JUMP JUMPDEST PUSH1 0x20 DUP3 ADD SWAP1 POP SWAP2 SWAP1 POP JUMP JUMPDEST PUSH0 PUSH1 0x20 DUP3 ADD SWAP1 POP DUP2 DUP2 SUB PUSH0 DUP4 ADD MSTORE PUSH2 0x1D5C DUP2 PUSH2 0x1D23 JUMP JUMPDEST SWAP1 POP SWAP2 SWAP1 POP JUMP JUMPDEST PUSH32 0x4E487B7100000000000000000000000000000000000000000000000000000000 PUSH0 MSTORE PUSH1 0x11 PUSH1 0x4 MSTORE PUSH1 0x24 PUSH0 REVERT JUMPDEST PUSH0 PUSH2 0x1D9A DUP3 PUSH2 0x1950 JUMP JUMPDEST SWAP2 POP PUSH2 0x1DA5 DUP4 PUSH2 0x1950 JUMP JUMPDEST SWAP3 POP DUP3 DUP3 MUL PUSH2 0x1DB3 DUP2 PUSH2 0x1950 JUMP JUMPDEST SWAP2 POP DUP3 DUP3 DIV DUP5 EQ DUP4 ISZERO OR PUSH2 0x1DCA JUMPI PUSH2 0x1DC9 PUSH2 0x1D63 JUMP JUMPDEST JUMPDEST POP SWAP3 SWAP2 POP POP JUMP JUMPDEST PUSH32 0x4E487B7100000000000000000000000000000000000000000000000000000000 PUSH0 MSTORE PUSH1 0x12 PUSH1 0x4 MSTORE PUSH1 0x24 PUSH0 REVERT JUMPDEST PUSH0 PUSH2 0x1E08 DUP3 PUSH2 0x1950 JUMP JUMPDEST SWAP2 POP PUSH2 0x1E13 DUP4 PUSH2 0x1950 JUMP JUMPDEST SWAP3 POP DUP3 PUSH2 0x1E23 JUMPI PUSH2 0x1E22 PUSH2 0x1DD1 JUMP JUMPDEST JUMPDEST DUP3 DUP3 DIV SWAP1 POP SWAP3 SWAP2 POP POP JUMP JUMPDEST PUSH32 0x4C6F616E206973206E6F74206163746976650000000000000000000000000000 PUSH0 DUP3 ADD MSTORE POP JUMP JUMPDEST PUSH0 PUSH2 0x1E62 PUSH1 0x12 DUP4 PUSH2 0x1CEB JUMP JUMPDEST SWAP2 POP PUSH2 0x1E6D DUP3 PUSH2 0x1E2E JUMP JUMPDEST PUSH1 0x20 DUP3 ADD SWAP1 POP SWAP2 SWAP1 POP JUMP JUMPDEST PUSH0 PUSH1 0x20 DUP3 ADD SWAP1 POP DUP2 DUP2 SUB PUSH0 DUP4 ADD MSTORE PUSH2 0x1E8F DUP2 PUSH2 0x1E56 JUMP JUMPDEST SWAP1 POP SWAP2 SWAP1 POP JUMP JUMPDEST PUSH32 0x426F72726F7765722063616E6E6F742066756E64207468656972206F776E206C PUSH0 DUP3 ADD MSTORE PUSH32 0x6F616E0000000000000000000000000000000000000000000000000000000000 PUSH1 0x20 DUP3 ADD MSTORE POP JUMP JUMPDEST PUSH0 PUSH2 0x1EF0 PUSH1 0x23 DUP4 PUSH2 0x1CEB JUMP JUMPDEST SWAP2 POP PUSH2 0x1EFB DUP3 PUSH2 0x1E96 JUMP JUMPDEST PUSH1 0x40 DUP3 ADD SWAP1 POP SWAP2 SWAP1 POP JUMP JUMPDEST PUSH0 PUSH1 0x20 DUP3 ADD SWAP1 POP DUP2 DUP2 SUB PUSH0 DUP4 ADD MSTORE PUSH2 0x1F1D DUP2 PUSH2 0x1EE4 JUMP JUMPDEST SWAP1 POP SWAP2 SWAP1 POP JUMP JUMPDEST PUSH32 0x496E636F72726563742066756E64696E6720616D6F756E740000000000000000 PUSH0 DUP3 ADD MSTORE POP JUMP JUMPDEST PUSH0 PUSH2 0x1F58 PUSH1 0x18 DUP4 PUSH2 0x1CEB JUMP JUMPDEST SWAP2 POP PUSH2 0x1F63 DUP3 PUSH2 0x1F24 JUMP JUMPDEST PUSH1 0x20 DUP3 ADD SWAP1 POP SWAP2 SWAP1 POP JUMP JUMPDEST PUSH0 PUSH1 0x20 DUP3 ADD SWAP1 POP DUP2 DUP2 SUB PUSH0 DUP4 ADD MSTORE PUSH2 0x1F85 DUP2 PUSH2 0x1F4C JUMP JUMPDEST SWAP1 POP SWAP2 SWAP1 POP JUMP JUMPDEST PUSH32 0x46756E64696E6720646561646C696E6520706173736564000000000000000000 PUSH0 DUP3 ADD MSTORE POP JUMP JUMPDEST PUSH0 PUSH2 0x1FC0 PUSH1 0x17 DUP4 PUSH2 0x1CEB JUMP JUMPDEST SWAP2 POP PUSH2 0x1FCB DUP3 PUSH2 0x1F8C JUMP JUMPDEST PUSH1 0x20 DUP3 ADD SWAP1 POP SWAP2 SWAP1 POP JUMP JUMPDEST PUSH0 PUSH1 0x20 DUP3 ADD SWAP1 POP DUP2 DUP2 SUB PUSH0 DUP4 ADD MSTORE PUSH2 0x1FED DUP2 PUSH2 0x1FB4 JUMP JUMPDEST SWAP1 POP SWAP2 SWAP1 POP JUMP JUMPDEST PUSH0 PUSH1 0x60 DUP3 ADD SWAP1 POP PUSH2 0x2007 PUSH0 DUP4 ADD DUP7 PUSH2 0x19C1 JUMP JUMPDEST PUSH2 0x2014 PUSH1 0x20 DUP4 ADD DUP6 PUSH2 0x1A14 JUMP JUMPDEST PUSH2 0x2021 PUSH1 0x40 DUP4 ADD DUP5 PUSH2 0x19C1 JUMP JUMPDEST SWAP5 SWAP4 POP POP POP POP JUMP JUMPDEST PUSH32 0x4F6E6C7920626F72726F7765722063616E20706572666F726D20746869732061 PUSH0 DUP3 ADD MSTORE PUSH32 0x6374696F6E000000000000000000000000000000000000000000000000000000 PUSH1 0x20 DUP3 ADD MSTORE POP JUMP JUMPDEST PUSH0 PUSH2 0x2083 PUSH1 0x25 DUP4 PUSH2 0x1CEB JUMP JUMPDEST SWAP2 POP PUSH2 0x208E DUP3 PUSH2 0x2029 JUMP JUMPDEST PUSH1 0x40 DUP3 ADD SWAP1 POP SWAP2 SWAP1 POP JUMP JUMPDEST PUSH0 PUSH1 0x20 DUP3 ADD SWAP1 POP DUP2 DUP2 SUB PUSH0 DUP4 ADD MSTORE PUSH2 0x20B0 DUP2 PUSH2 0x2077 JUMP JUMPDEST SWAP1 POP SWAP2 SWAP1 POP JUMP JUMPDEST PUSH32 0x4C6F616E20616C72656164792072657061696400000000000000000000000000 PUSH0 DUP3 ADD MSTORE POP JUMP JUMPDEST PUSH0 PUSH2 0x20EB PUSH1 0x13 DUP4 PUSH2 0x1CEB JUMP JUMPDEST SWAP2 POP PUSH2 0x20F6 DUP3 PUSH2 0x20B7 JUMP JUMPDEST PUSH1 0x20 DUP3 ADD SWAP1 POP SWAP2 SWAP1 POP JUMP JUMPDEST PUSH0 PUSH1 0x20 DUP3 ADD SWAP1 POP DUP2 DUP2 SUB PUSH0 DUP4 ADD MSTORE PUSH2 0x2118 DUP2 PUSH2 0x20DF JUMP JUMPDEST SWAP1 POP SWAP2 SWAP1 POP JUMP JUMPDEST PUSH32 0x496E636F72726563742072657061796D656E7420616D6F756E74000000000000 PUSH0 DUP3 ADD MSTORE POP JUMP JUMPDEST PUSH0 PUSH2 0x2153 PUSH1 0x1A DUP4 PUSH2 0x1CEB JUMP JUMPDEST SWAP2 POP PUSH2 0x215E DUP3 PUSH2 0x211F JUMP JUMPDEST PUSH1 0x20 DUP3 ADD SWAP1 POP SWAP2 SWAP1 POP JUMP JUMPDEST PUSH0 PUSH1 0x20 DUP3 ADD SWAP1 POP DUP2 DUP2 SUB PUSH0 DUP4 ADD MSTORE PUSH2 0x2180 DUP2 PUSH2 0x2147 JUMP JUMPDEST SWAP1 POP SWAP2 SWAP1 POP JUMP JUMPDEST PUSH0 PUSH1 0x40 DUP3 ADD SWAP1 POP PUSH2 0x219A PUSH0 DUP4 ADD DUP6 PUSH2 0x1A14 JUMP JUMPDEST PUSH2 0x21A7 PUSH1 0x20 DUP4 ADD DUP5 PUSH2 0x19C1 JUMP JUMPDEST SWAP4 SWAP3 POP POP POP JUMP JUMPDEST PUSH2 0x21B7 DUP2 PUSH2 0x1A23 JUMP JUMPDEST DUP2 EQ PUSH2 0x21C1 JUMPI PUSH0 PUSH0 REVERT JUMPDEST POP JUMP JUMPDEST PUSH0 DUP2 MLOAD SWAP1 POP PUSH2 0x21D2 DUP2 PUSH2 0x21AE JUMP JUMPDEST SWAP3 SWAP2 POP POP JUMP JUMPDEST PUSH0 PUSH1 0x20 DUP3 DUP5 SUB SLT ISZERO PUSH2 0x21ED JUMPI PUSH2 0x21EC PUSH2 0x18F2 JUMP JUMPDEST JUMPDEST PUSH0 PUSH2 0x21FA DUP5 DUP3 DUP6 ADD PUSH2 0x21C4 JUMP JUMPDEST SWAP2 POP POP SWAP3 SWAP2 POP POP JUMP JUMPDEST PUSH32 0x436F6C6C61746572616C2072657475726E206661696C65640000000000000000 PUSH0 DUP3 ADD MSTORE POP JUMP JUMPDEST PUSH0 PUSH2 0x2237 PUSH1 0x18 DUP4 PUSH2 0x1CEB JUMP JUMPDEST SWAP2 POP PUSH2 0x2242 DUP3 PUSH2 0x2203 JUMP JUMPDEST PUSH1 0x20 DUP3 ADD SWAP1 POP SWAP2 SWAP1 POP JUMP JUMPDEST PUSH0 PUSH1 0x20 DUP3 ADD SWAP1 POP DUP2 DUP2 SUB PUSH0 DUP4 ADD MSTORE PUSH2 0x2264 DUP2 PUSH2 0x222B JUMP JUMPDEST SWAP1 POP SWAP2 SWAP1 POP JUMP JUMPDEST PUSH0 PUSH1 0x40 DUP3 ADD SWAP1 POP PUSH2 0x227E PUSH0 DUP4 ADD DUP6 PUSH2 0x19C1 JUMP JUMPDEST PUSH2 0x228B PUSH1 0x20 DUP4 ADD DUP5 PUSH2 0x19C1 JUMP JUMPDEST SWAP4 SWAP3 POP POP POP JUMP JUMPDEST PUSH32 0x4C6F616E206E6F74206163746976650000000000000000000000000000000000 PUSH0 DUP3 ADD MSTORE POP JUMP JUMPDEST PUSH0 PUSH2 0x22C6 PUSH1 0xF DUP4 PUSH2 0x1CEB JUMP JUMPDEST SWAP2 POP PUSH2 0x22D1 DUP3 PUSH2 0x2292 JUMP JUMPDEST PUSH1 0x20 DUP3 ADD SWAP1 POP SWAP2 SWAP1 POP JUMP JUMPDEST PUSH0 PUSH1 0x20 DUP3 ADD SWAP1 POP DUP2 DUP2 SUB PUSH0 DUP4 ADD MSTORE PUSH2 0x22F3 DUP2 PUSH2 0x22BA JUMP JUMPDEST SWAP1 POP SWAP2 SWAP1 POP JUMP JUMPDEST PUSH0 PUSH2 0x2304 DUP3 PUSH2 0x1950 JUMP JUMPDEST SWAP2 POP PUSH2 0x230F DUP4 PUSH2 0x1950 JUMP JUMPDEST SWAP3 POP DUP3 DUP3 ADD SWAP1 POP DUP1 DUP3 GT ISZERO PUSH2 0x2327 JUMPI PUSH2 0x2326 PUSH2 0x1D63 JUMP JUMPDEST JUMPDEST SWAP3 SWAP2 POP POP JUMP JUMPDEST PUSH32 0x4C6F616E206E6F74206578706972656400000000000000000000000000000000 PUSH0 DUP3 ADD MSTORE POP JUMP JUMPDEST PUSH0 PUSH2 0x2361 PUSH1 0x10 DUP4 PUSH2 0x1CEB JUMP JUMPDEST SWAP2 POP PUSH2 0x236C DUP3 PUSH2 0x232D JUMP JUMPDEST PUSH1 0x20 DUP3 ADD SWAP1 POP SWAP2 SWAP1 POP JUMP JUMPDEST PUSH0 PUSH1 0x20 DUP3 ADD SWAP1 POP DUP2 DUP2 SUB PUSH0 DUP4 ADD MSTORE PUSH2 0x238E DUP2 PUSH2 0x2355 JUMP JUMPDEST SWAP1 POP SWAP2 SWAP1 POP JUMP JUMPDEST PUSH0 PUSH2 0x239F DUP3 PUSH2 0x1B3B JUMP JUMPDEST SWAP1 POP SWAP2 SWAP1 POP JUMP JUMPDEST PUSH2 0x23AF DUP2 PUSH2 0x2395 JUMP JUMPDEST DUP3 MSTORE POP POP JUMP JUMPDEST PUSH0 PUSH1 0x40 DUP3 ADD SWAP1 POP PUSH2 0x23C8 PUSH0 DUP4 ADD DUP6 PUSH2 0x23A6 JUMP JUMPDEST PUSH2 0x23D5 PUSH1 0x20 DUP4 ADD DUP5 PUSH2 0x19C1 JUMP JUMPDEST SWAP4 SWAP3 POP POP POP JUMP JUMPDEST PUSH32 0x436F6C6C61746572616C206C69717569646174696F6E206661696C6564000000 PUSH0 DUP3 ADD MSTORE POP JUMP JUMPDEST PUSH0 PUSH2 0x2410 PUSH1 0x1D DUP4 PUSH2 0x1CEB JUMP JUMPDEST SWAP2 POP PUSH2 0x241B DUP3 PUSH2 0x23DC JUMP JUMPDEST PUSH1 0x20 DUP3 ADD SWAP1 POP SWAP2 SWAP1 POP JUMP JUMPDEST PUSH0 PUSH1 0x20 DUP3 ADD SWAP1 POP DUP2 DUP2 SUB PUSH0 DUP4 ADD MSTORE PUSH2 0x243D DUP2 PUSH2 0x2404 JUMP JUMPDEST SWAP1 POP SWAP2 SWAP1 POP JUMP JUMPDEST PUSH32 0x496E76616C6964206C6F616E20616D6F756E7400000000000000000000000000 PUSH0 DUP3 ADD MSTORE POP JUMP JUMPDEST PUSH0 PUSH2 0x2478 PUSH1 0x13 DUP4 PUSH2 0x1CEB JUMP JUMPDEST SWAP2 POP PUSH2 0x2483 DUP3 PUSH2 0x2444 JUMP JUMPDEST PUSH1 0x20 DUP3 ADD SWAP1 POP SWAP2 SWAP1 POP JUMP JUMPDEST PUSH0 PUSH1 0x20 DUP3 ADD SWAP1 POP DUP2 DUP2 SUB PUSH0 DUP4 ADD MSTORE PUSH2 0x24A5 DUP2 PUSH2 0x246C JUMP JUMPDEST SWAP1 POP SWAP2 SWAP1 POP JUMP JUMPDEST PUSH32 0x496E76616C696420696E74657265737420726174650000000000000000000000 PUSH0 DUP3 ADD MSTORE POP JUMP JUMPDEST PUSH0 PUSH2 0x24E0 PUSH1 0x15 DUP4 PUSH2 0x1CEB JUMP JUMPDEST SWAP2 POP PUSH2 0x24EB DUP3 PUSH2 0x24AC JUMP JUMPDEST PUSH1 0x20 DUP3 ADD SWAP1 POP SWAP2 SWAP1 POP JUMP JUMPDEST PUSH0 PUSH1 0x20 DUP3 ADD SWAP1 POP DUP2 DUP2 SUB PUSH0 DUP4 ADD MSTORE PUSH2 0x250D DUP2 PUSH2 0x24D4 JUMP JUMPDEST SWAP1 POP SWAP2 SWAP1 POP JUMP JUMPDEST PUSH32 0x496E76616C6964206475726174696F6E00000000000000000000000000000000 PUSH0 DUP3 ADD MSTORE POP JUMP JUMPDEST PUSH0 PUSH2 0x2548 PUSH1 0x10 DUP4 PUSH2 0x1CEB JUMP JUMPDEST SWAP2 POP PUSH2 0x2553 DUP3 PUSH2 0x2514 JUMP JUMPDEST PUSH1 0x20 DUP3 ADD SWAP1 POP SWAP2 SWAP1 POP JUMP JUMPDEST PUSH0 PUSH1 0x20 DUP3 ADD SWAP1 POP DUP2 DUP2 SUB PUSH0 DUP4 ADD MSTORE PUSH2 0x2575 DUP2 PUSH2 0x253C JUMP JUMPDEST SWAP1 POP SWAP2 SWAP1 POP JUMP JUMPDEST PUSH32 0x496E73756666696369656E742045544820636F6C6C61746572616C0000000000 PUSH0 DUP3 ADD MSTORE POP JUMP JUMPDEST PUSH0 PUSH2 0x25B0 PUSH1 0x1B DUP4 PUSH2 0x1CEB JUMP JUMPDEST SWAP2 POP PUSH2 0x25BB DUP3 PUSH2 0x257C JUMP JUMPDEST PUSH1 0x20 DUP3 ADD SWAP1 POP SWAP2 SWAP1 POP JUMP JUMPDEST PUSH0 PUSH1 0x20 DUP3 ADD SWAP1 POP DUP2 DUP2 SUB PUSH0 DUP4 ADD MSTORE PUSH2 0x25DD DUP2 PUSH2 0x25A4 JUMP JUMPDEST SWAP1 POP SWAP2 SWAP1 POP JUMP JUMPDEST PUSH0 PUSH1 0x60 DUP3 ADD SWAP1 POP PUSH2 0x25F7 PUSH0 DUP4 ADD DUP7 PUSH2 0x1A14 JUMP JUMPDEST PUSH2 0x2604 PUSH1 0x20 DUP4 ADD DUP6 PUSH2 0x1A14 JUMP JUMPDEST PUSH2 0x2611 PUSH1 0x40 DUP4 ADD DUP5 PUSH2 0x19C1 JUMP JUMPDEST SWAP5 SWAP4 POP POP POP POP JUMP JUMPDEST PUSH32 0x436F6C6C61746572616C207472616E73666572206661696C6564000000000000 PUSH0 DUP3 ADD MSTORE POP JUMP JUMPDEST PUSH0 PUSH2 0x264D PUSH1 0x1A DUP4 PUSH2 0x1CEB JUMP JUMPDEST SWAP2 POP PUSH2 0x2658 DUP3 PUSH2 0x2619 JUMP JUMPDEST PUSH1 0x20 DUP3 ADD SWAP1 POP SWAP2 SWAP1 POP JUMP JUMPDEST PUSH0 PUSH1 0x20 DUP3 ADD SWAP1 POP DUP2 DUP2 SUB PUSH0 DUP4 ADD MSTORE PUSH2 0x267A DUP2 PUSH2 0x2641 JUMP JUMPDEST SWAP1 POP SWAP2 SWAP1 POP JUMP JUMPDEST PUSH0 PUSH2 0x268B DUP3 PUSH2 0x1950 JUMP JUMPDEST SWAP2 POP PUSH32 0xFFFFFFFFFFFFFFFFFFFFFFFFFFFFFFFFFFFFFFFFFFFFFFFFFFFFFFFFFFFFFFFF DUP3 SUB PUSH2 0x26BD JUMPI PUSH2 0x26BC PUSH2 0x1D63 JUMP JUMPDEST JUMPDEST PUSH1 0x1 DUP3 ADD SWAP1 POP SWAP2 SWAP1 POP JUMP JUMPDEST PUSH0 PUSH2 0x120 DUP3 ADD SWAP1 POP PUSH2 0x26DC PUSH0 DUP4 ADD DUP13 PUSH2 0x19C1 JUMP JUMPDEST PUSH2 0x26E9 PUSH1 0x20 DUP4 ADD DUP12 PUSH2 0x19C1 JUMP JUMPDEST PUSH2 0x26F6 PUSH1 0x40 DUP4 ADD DUP11 PUSH2 0x19C1 JUMP JUMPDEST PUSH2 0x2703 PUSH1 0x60 DUP4 ADD DUP10 PUSH2 0x19C1 JUMP JUMPDEST PUSH2 0x2710 PUSH1 0x80 DUP4 ADD DUP9 PUSH2 0x19C1 JUMP JUMPDEST PUSH2 0x271D PUSH1 0xA0 DUP4 ADD DUP8 PUSH2 0x1A14 JUMP JUMPDEST PUSH2 0x272A PUSH1 0xC0 DUP4 ADD DUP7 PUSH2 0x1A14 JUMP JUMPDEST PUSH2 0x2737 PUSH1 0xE0 DUP4 ADD DUP6 PUSH2 0x1A14 JUMP JUMPDEST PUSH2 0x2745 PUSH2 0x100 DUP4 ADD DUP5 PUSH2 0x19C1 JUMP JUMPDEST SWAP11 SWAP10 POP POP POP POP POP POP POP POP POP POP JUMP INVALID LOG2 PUSH5 0x6970667358 0x22 SLT KECCAK256 PUSH15 0x962A56F512204B6D4C2B605842A680 0xDA 0xED 0xEC SELFDESTRUCT PUSH28 0x4D00E875F3B96079FCE06D64736F6C634300081B0033000000000000 "
				},
				"gasEstimates": {
					"creation": {
						"codeDepositCost": "2024200",
						"executionCost": "infinite",
						"totalCost": "infinite"
					},
					"external": {
						"MAX_INTEREST_RATE()": "415",
						"MAX_LOAN_AMOUNT()": "391",
						"MIN_INTEREST_RATE()": "414",
						"MIN_LOAN_AMOUNT()": "414",
						"USDC()": "infinite",
						"USDT()": "infinite",
						"WBTC()": "infinite",
						"WETH()": "infinite",
						"calculateCollateralAmount(address,uint256)": "infinite",
						"collateralRatios(address)": "2912",
						"createLoan(uint256,uint256,uint256,address)": "infinite",
						"fundLoan(uint256)": "infinite",
						"getLoanInfo(uint256)": "infinite",
						"liquidateLoan(uint256)": "infinite",
						"loanCount()": "2469",
						"loans(uint256)": "infinite",
						"repayLoan(uint256)": "infinite",
						"tokenPrices(address)": "2870"
					}
				},
				"methodIdentifiers": {
					"MAX_INTEREST_RATE()": "34855d14",
					"MAX_LOAN_AMOUNT()": "ceba1794",
					"MIN_INTEREST_RATE()": "c918efec",
					"MIN_LOAN_AMOUNT()": "96fa212f",
					"USDC()": "89a30271",
					"USDT()": "c54e44eb",
					"WBTC()": "4dede3de",
					"WETH()": "ad5c4648",
					"calculateCollateralAmount(address,uint256)": "034cc760",
					"collateralRatios(address)": "9b9a7966",
					"createLoan(uint256,uint256,uint256,address)": "d14a3321",
					"fundLoan(uint256)": "846b909a",
					"getLoanInfo(uint256)": "0714012c",
					"liquidateLoan(uint256)": "ccdd9f5d",
					"loanCount()": "ce63094d",
					"loans(uint256)": "e1ec3c68",
					"repayLoan(uint256)": "ab7b1c89",
					"tokenPrices(address)": "204120bc"
				}
			},
			"storageLayout": {
				"storage": [
					{
						"astId": 102,
						"contract": "contracts/withdrawDeposit.sol:P2PLending",
						"label": "collateralRatios",
						"offset": 0,
						"slot": "0",
						"type": "t_mapping(t_address,t_uint256)"
					},
					{
						"astId": 142,
						"contract": "contracts/withdrawDeposit.sol:P2PLending",
						"label": "loans",
						"offset": 0,
						"slot": "1",
						"type": "t_mapping(t_uint256,t_struct(Loan)137_storage)"
					},
					{
						"astId": 144,
						"contract": "contracts/withdrawDeposit.sol:P2PLending",
						"label": "loanCount",
						"offset": 0,
						"slot": "2",
						"type": "t_uint256"
					},
					{
						"astId": 148,
						"contract": "contracts/withdrawDeposit.sol:P2PLending",
						"label": "tokenPrices",
						"offset": 0,
						"slot": "3",
						"type": "t_mapping(t_address,t_uint256)"
					}
				],
				"types": {
					"t_address": {
						"encoding": "inplace",
						"label": "address",
						"numberOfBytes": "20"
					},
					"t_address_payable": {
						"encoding": "inplace",
						"label": "address payable",
						"numberOfBytes": "20"
					},
					"t_bool": {
						"encoding": "inplace",
						"label": "bool",
						"numberOfBytes": "1"
					},
					"t_mapping(t_address,t_uint256)": {
						"encoding": "mapping",
						"key": "t_address",
						"label": "mapping(address => uint256)",
						"numberOfBytes": "32",
						"value": "t_uint256"
					},
					"t_mapping(t_uint256,t_struct(Loan)137_storage)": {
						"encoding": "mapping",
						"key": "t_uint256",
						"label": "mapping(uint256 => struct P2PLending.Loan)",
						"numberOfBytes": "32",
						"value": "t_struct(Loan)137_storage"
					},
					"t_struct(Loan)137_storage": {
						"encoding": "inplace",
						"label": "struct P2PLending.Loan",
						"members": [
							{
								"astId": 116,
								"contract": "contracts/withdrawDeposit.sol:P2PLending",
								"label": "amount",
								"offset": 0,
								"slot": "0",
								"type": "t_uint256"
							},
							{
								"astId": 118,
								"contract": "contracts/withdrawDeposit.sol:P2PLending",
								"label": "interest",
								"offset": 0,
								"slot": "1",
								"type": "t_uint256"
							},
							{
								"astId": 120,
								"contract": "contracts/withdrawDeposit.sol:P2PLending",
								"label": "duration",
								"offset": 0,
								"slot": "2",
								"type": "t_uint256"
							},
							{
								"astId": 122,
								"contract": "contracts/withdrawDeposit.sol:P2PLending",
								"label": "repaymentAmount",
								"offset": 0,
								"slot": "3",
								"type": "t_uint256"
							},
							{
								"astId": 124,
								"contract": "contracts/withdrawDeposit.sol:P2PLending",
								"label": "fundingDeadline",
								"offset": 0,
								"slot": "4",
								"type": "t_uint256"
							},
							{
								"astId": 126,
								"contract": "contracts/withdrawDeposit.sol:P2PLending",
								"label": "borrower",
								"offset": 0,
								"slot": "5",
								"type": "t_address"
							},
							{
								"astId": 128,
								"contract": "contracts/withdrawDeposit.sol:P2PLending",
								"label": "lender",
								"offset": 0,
								"slot": "6",
								"type": "t_address_payable"
							},
							{
								"astId": 130,
								"contract": "contracts/withdrawDeposit.sol:P2PLending",
								"label": "active",
								"offset": 20,
								"slot": "6",
								"type": "t_bool"
							},
							{
								"astId": 132,
								"contract": "contracts/withdrawDeposit.sol:P2PLending",
								"label": "repaid",
								"offset": 21,
								"slot": "6",
								"type": "t_bool"
							},
							{
								"astId": 134,
								"contract": "contracts/withdrawDeposit.sol:P2PLending",
								"label": "collateralToken",
								"offset": 0,
								"slot": "7",
								"type": "t_address"
							},
							{
								"astId": 136,
								"contract": "contracts/withdrawDeposit.sol:P2PLending",
								"label": "collateralAmount",
								"offset": 0,
								"slot": "8",
								"type": "t_uint256"
							}
						],
						"numberOfBytes": "288"
					},
					"t_uint256": {
						"encoding": "inplace",
						"label": "uint256",
						"numberOfBytes": "32"
					}
				}
			},
			"userdoc": {
				"kind": "user",
				"methods": {},
				"version": 1
			}
		}
	}
}