{
	"contracts/userRegistration.sol": {
		"UserRegistration": {
			"abi": [
				{
					"anonymous": false,
					"inputs": [
						{
							"indexed": true,
							"internalType": "address",
							"name": "walletAddress",
							"type": "address"
						},
						{
							"indexed": false,
							"internalType": "enum UserRegistration.UserType",
							"name": "usertype",
							"type": "uint8"
						}
					],
					"name": "UserRegistered",
					"type": "event"
				},
				{
					"inputs": [
						{
							"internalType": "enum UserRegistration.UserType",
							"name": "_usertype",
							"type": "uint8"
						}
					],
					"name": "register",
					"outputs": [],
					"stateMutability": "nonpayable",
					"type": "function"
				},
				{
					"inputs": [
						{
							"internalType": "address",
							"name": "",
							"type": "address"
						}
					],
					"name": "users",
					"outputs": [
						{
							"internalType": "address",
							"name": "walletAddress",
							"type": "address"
						},
						{
							"internalType": "enum UserRegistration.UserType",
							"name": "userType",
							"type": "uint8"
						},
						{
							"internalType": "bool",
							"name": "isRegistered",
							"type": "bool"
						}
					],
					"stateMutability": "view",
					"type": "function"
				}
			],
			"devdoc": {
				"kind": "dev",
				"methods": {},
				"version": 1
			},
			"evm": {
				"assembly": "    /* \"contracts/userRegistration.sol\":58:700  contract UserRegistration {... */\n  mstore(0x40, 0x80)\n  callvalue\n  dup1\n  iszero\n  tag_1\n  jumpi\n  revert(0x00, 0x00)\ntag_1:\n  pop\n  dataSize(sub_0)\n  dup1\n  dataOffset(sub_0)\n  0x00\n  codecopy\n  0x00\n  return\nstop\n\nsub_0: assembly {\n        /* \"contracts/userRegistration.sol\":58:700  contract UserRegistration {... */\n      mstore(0x40, 0x80)\n      callvalue\n      dup1\n      iszero\n      tag_1\n      jumpi\n      revert(0x00, 0x00)\n    tag_1:\n      pop\n      jumpi(tag_2, lt(calldatasize, 0x04))\n      shr(0xe0, calldataload(0x00))\n      dup1\n      0x61d689fa\n      eq\n      tag_3\n      jumpi\n      dup1\n      0xa87430ba\n      eq\n      tag_4\n      jumpi\n    tag_2:\n      revert(0x00, 0x00)\n        /* \"contracts/userRegistration.sol\":363:698  function register(UserType _usertype) external {... */\n    tag_3:\n      tag_5\n      0x04\n      dup1\n      calldatasize\n      sub\n      dup2\n      add\n      swap1\n      tag_6\n      swap2\n      swap1\n      tag_7\n      jump\t// in\n    tag_6:\n      tag_8\n      jump\t// in\n    tag_5:\n      stop\n        /* \"contracts/userRegistration.sol\":242:279  mapping(address => User) public users */\n    tag_4:\n      tag_9\n      0x04\n      dup1\n      calldatasize\n      sub\n      dup2\n      add\n      swap1\n      tag_10\n      swap2\n      swap1\n      tag_11\n      jump\t// in\n    tag_10:\n      tag_12\n      jump\t// in\n    tag_9:\n      mload(0x40)\n      tag_13\n      swap4\n      swap3\n      swap2\n      swap1\n      tag_14\n      jump\t// in\n    tag_13:\n      mload(0x40)\n      dup1\n      swap2\n      sub\n      swap1\n      return\n        /* \"contracts/userRegistration.sol\":363:698  function register(UserType _usertype) external {... */\n    tag_8:\n        /* \"contracts/userRegistration.sol\":429:434  users */\n      0x00\n        /* \"contracts/userRegistration.sol\":429:446  users[msg.sender] */\n      0x00\n        /* \"contracts/userRegistration.sol\":435:445  msg.sender */\n      caller\n        /* \"contracts/userRegistration.sol\":429:446  users[msg.sender] */\n      0xffffffffffffffffffffffffffffffffffffffff\n      and\n      0xffffffffffffffffffffffffffffffffffffffff\n      and\n      dup2\n      mstore\n      0x20\n      add\n      swap1\n      dup2\n      mstore\n      0x20\n      add\n      0x00\n      keccak256\n        /* \"contracts/userRegistration.sol\":429:459  users[msg.sender].isRegistered */\n      0x00\n      add\n      0x15\n      swap1\n      sload\n      swap1\n      0x0100\n      exp\n      swap1\n      div\n      0xff\n      and\n        /* \"contracts/userRegistration.sol\":428:459  !users[msg.sender].isRegistered */\n      iszero\n        /* \"contracts/userRegistration.sol\":420:487  require(!users[msg.sender].isRegistered, \"user already registered\") */\n      tag_16\n      jumpi\n      mload(0x40)\n      0x08c379a000000000000000000000000000000000000000000000000000000000\n      dup2\n      mstore\n      0x04\n      add\n      tag_17\n      swap1\n      tag_18\n      jump\t// in\n    tag_17:\n      mload(0x40)\n      dup1\n      swap2\n      sub\n      swap1\n      revert\n    tag_16:\n        /* \"contracts/userRegistration.sol\":518:638  User({... */\n      mload(0x40)\n      dup1\n      0x60\n      add\n      0x40\n      mstore\n      dup1\n        /* \"contracts/userRegistration.sol\":552:562  msg.sender */\n      caller\n        /* \"contracts/userRegistration.sol\":518:638  User({... */\n      0xffffffffffffffffffffffffffffffffffffffff\n      and\n      dup2\n      mstore\n      0x20\n      add\n        /* \"contracts/userRegistration.sol\":586:595  _usertype */\n      dup3\n        /* \"contracts/userRegistration.sol\":518:638  User({... */\n      0x01\n      dup2\n      gt\n      iszero\n      tag_19\n      jumpi\n      tag_20\n      tag_21\n      jump\t// in\n    tag_20:\n    tag_19:\n      dup2\n      mstore\n      0x20\n      add\n        /* \"contracts/userRegistration.sol\":623:627  true */\n      0x01\n        /* \"contracts/userRegistration.sol\":518:638  User({... */\n      iszero\n      iszero\n      dup2\n      mstore\n      pop\n        /* \"contracts/userRegistration.sol\":498:503  users */\n      0x00\n        /* \"contracts/userRegistration.sol\":498:515  users[msg.sender] */\n      0x00\n        /* \"contracts/userRegistration.sol\":504:514  msg.sender */\n      caller\n        /* \"contracts/userRegistration.sol\":498:515  users[msg.sender] */\n      0xffffffffffffffffffffffffffffffffffffffff\n      and\n      0xffffffffffffffffffffffffffffffffffffffff\n      and\n      dup2\n      mstore\n      0x20\n      add\n      swap1\n      dup2\n      mstore\n      0x20\n      add\n      0x00\n      keccak256\n        /* \"contracts/userRegistration.sol\":498:638  users[msg.sender] = User({... */\n      0x00\n      dup3\n      add\n      mload\n      dup2\n      0x00\n      add\n      exp(0x0100, 0x00)\n      dup2\n      sload\n      dup2\n      0xffffffffffffffffffffffffffffffffffffffff\n      mul\n      not\n      and\n      swap1\n      dup4\n      0xffffffffffffffffffffffffffffffffffffffff\n      and\n      mul\n      or\n      swap1\n      sstore\n      pop\n      0x20\n      dup3\n      add\n      mload\n      dup2\n      0x00\n      add\n      exp(0x0100, 0x14)\n      dup2\n      sload\n      dup2\n      0xff\n      mul\n      not\n      and\n      swap1\n      dup4\n      0x01\n      dup2\n      gt\n      iszero\n      tag_22\n      jumpi\n      tag_23\n      tag_21\n      jump\t// in\n    tag_23:\n    tag_22:\n      mul\n      or\n      swap1\n      sstore\n      pop\n      0x40\n      dup3\n      add\n      mload\n      dup2\n      0x00\n      add\n      exp(0x0100, 0x15)\n      dup2\n      sload\n      dup2\n      0xff\n      mul\n      not\n      and\n      swap1\n      dup4\n      iszero\n      iszero\n      mul\n      or\n      swap1\n      sstore\n      pop\n      swap1\n      pop\n      pop\n        /* \"contracts/userRegistration.sol\":669:679  msg.sender */\n      caller\n        /* \"contracts/userRegistration.sol\":654:691  UserRegistered(msg.sender, _usertype) */\n      0xffffffffffffffffffffffffffffffffffffffff\n      and\n      0x8e18574f8a7333e6a87112742a55853a643e2f0550f4e1a3a2c3f1bb2994441d\n        /* \"contracts/userRegistration.sol\":681:690  _usertype */\n      dup3\n        /* \"contracts/userRegistration.sol\":654:691  UserRegistered(msg.sender, _usertype) */\n      mload(0x40)\n      tag_24\n      swap2\n      swap1\n      tag_25\n      jump\t// in\n    tag_24:\n      mload(0x40)\n      dup1\n      swap2\n      sub\n      swap1\n      log2\n        /* \"contracts/userRegistration.sol\":363:698  function register(UserType _usertype) external {... */\n      pop\n      jump\t// out\n        /* \"contracts/userRegistration.sol\":242:279  mapping(address => User) public users */\n    tag_12:\n      mstore(0x20, 0x00)\n      dup1\n      0x00\n      mstore\n      keccak256(0x00, 0x40)\n      0x00\n      swap2\n      pop\n      swap1\n      pop\n      dup1\n      0x00\n      add\n      0x00\n      swap1\n      sload\n      swap1\n      0x0100\n      exp\n      swap1\n      div\n      0xffffffffffffffffffffffffffffffffffffffff\n      and\n      swap1\n      dup1\n      0x00\n      add\n      0x14\n      swap1\n      sload\n      swap1\n      0x0100\n      exp\n      swap1\n      div\n      0xff\n      and\n      swap1\n      dup1\n      0x00\n      add\n      0x15\n      swap1\n      sload\n      swap1\n      0x0100\n      exp\n      swap1\n      div\n      0xff\n      and\n      swap1\n      pop\n      dup4\n      jump\t// out\n        /* \"#utility.yul\":88:205   */\n    tag_27:\n        /* \"#utility.yul\":197:198   */\n      0x00\n        /* \"#utility.yul\":194:195   */\n      0x00\n        /* \"#utility.yul\":187:199   */\n      revert\n        /* \"#utility.yul\":334:444   */\n    tag_29:\n        /* \"#utility.yul\":418:419   */\n      0x02\n        /* \"#utility.yul\":411:416   */\n      dup2\n        /* \"#utility.yul\":408:420   */\n      lt\n        /* \"#utility.yul\":398:438   */\n      tag_50\n      jumpi\n        /* \"#utility.yul\":434:435   */\n      0x00\n        /* \"#utility.yul\":431:432   */\n      0x00\n        /* \"#utility.yul\":424:436   */\n      revert\n        /* \"#utility.yul\":398:438   */\n    tag_50:\n        /* \"#utility.yul\":334:444   */\n      pop\n      jump\t// out\n        /* \"#utility.yul\":450:611   */\n    tag_30:\n        /* \"#utility.yul\":507:512   */\n      0x00\n        /* \"#utility.yul\":545:551   */\n      dup2\n        /* \"#utility.yul\":532:552   */\n      calldataload\n        /* \"#utility.yul\":523:552   */\n      swap1\n      pop\n        /* \"#utility.yul\":561:605   */\n      tag_52\n        /* \"#utility.yul\":599:604   */\n      dup2\n        /* \"#utility.yul\":561:605   */\n      tag_29\n      jump\t// in\n    tag_52:\n        /* \"#utility.yul\":450:611   */\n      swap3\n      swap2\n      pop\n      pop\n      jump\t// out\n        /* \"#utility.yul\":617:968   */\n    tag_7:\n        /* \"#utility.yul\":687:693   */\n      0x00\n        /* \"#utility.yul\":736:738   */\n      0x20\n        /* \"#utility.yul\":724:733   */\n      dup3\n        /* \"#utility.yul\":715:722   */\n      dup5\n        /* \"#utility.yul\":711:734   */\n      sub\n        /* \"#utility.yul\":707:739   */\n      slt\n        /* \"#utility.yul\":704:823   */\n      iszero\n      tag_54\n      jumpi\n        /* \"#utility.yul\":742:821   */\n      tag_55\n      tag_27\n      jump\t// in\n    tag_55:\n        /* \"#utility.yul\":704:823   */\n    tag_54:\n        /* \"#utility.yul\":862:863   */\n      0x00\n        /* \"#utility.yul\":887:951   */\n      tag_56\n        /* \"#utility.yul\":943:950   */\n      dup5\n        /* \"#utility.yul\":934:940   */\n      dup3\n        /* \"#utility.yul\":923:932   */\n      dup6\n        /* \"#utility.yul\":919:941   */\n      add\n        /* \"#utility.yul\":887:951   */\n      tag_30\n      jump\t// in\n    tag_56:\n        /* \"#utility.yul\":877:951   */\n      swap2\n      pop\n        /* \"#utility.yul\":833:961   */\n      pop\n        /* \"#utility.yul\":617:968   */\n      swap3\n      swap2\n      pop\n      pop\n      jump\t// out\n        /* \"#utility.yul\":974:1100   */\n    tag_31:\n        /* \"#utility.yul\":1011:1018   */\n      0x00\n        /* \"#utility.yul\":1051:1093   */\n      0xffffffffffffffffffffffffffffffffffffffff\n        /* \"#utility.yul\":1044:1049   */\n      dup3\n        /* \"#utility.yul\":1040:1094   */\n      and\n        /* \"#utility.yul\":1029:1094   */\n      swap1\n      pop\n        /* \"#utility.yul\":974:1100   */\n      swap2\n      swap1\n      pop\n      jump\t// out\n        /* \"#utility.yul\":1106:1202   */\n    tag_32:\n        /* \"#utility.yul\":1143:1150   */\n      0x00\n        /* \"#utility.yul\":1172:1196   */\n      tag_59\n        /* \"#utility.yul\":1190:1195   */\n      dup3\n        /* \"#utility.yul\":1172:1196   */\n      tag_31\n      jump\t// in\n    tag_59:\n        /* \"#utility.yul\":1161:1196   */\n      swap1\n      pop\n        /* \"#utility.yul\":1106:1202   */\n      swap2\n      swap1\n      pop\n      jump\t// out\n        /* \"#utility.yul\":1208:1330   */\n    tag_33:\n        /* \"#utility.yul\":1281:1305   */\n      tag_61\n        /* \"#utility.yul\":1299:1304   */\n      dup2\n        /* \"#utility.yul\":1281:1305   */\n      tag_32\n      jump\t// in\n    tag_61:\n        /* \"#utility.yul\":1274:1279   */\n      dup2\n        /* \"#utility.yul\":1271:1306   */\n      eq\n        /* \"#utility.yul\":1261:1324   */\n      tag_62\n      jumpi\n        /* \"#utility.yul\":1320:1321   */\n      0x00\n        /* \"#utility.yul\":1317:1318   */\n      0x00\n        /* \"#utility.yul\":1310:1322   */\n      revert\n        /* \"#utility.yul\":1261:1324   */\n    tag_62:\n        /* \"#utility.yul\":1208:1330   */\n      pop\n      jump\t// out\n        /* \"#utility.yul\":1336:1475   */\n    tag_34:\n        /* \"#utility.yul\":1382:1387   */\n      0x00\n        /* \"#utility.yul\":1420:1426   */\n      dup2\n        /* \"#utility.yul\":1407:1427   */\n      calldataload\n        /* \"#utility.yul\":1398:1427   */\n      swap1\n      pop\n        /* \"#utility.yul\":1436:1469   */\n      tag_64\n        /* \"#utility.yul\":1463:1468   */\n      dup2\n        /* \"#utility.yul\":1436:1469   */\n      tag_33\n      jump\t// in\n    tag_64:\n        /* \"#utility.yul\":1336:1475   */\n      swap3\n      swap2\n      pop\n      pop\n      jump\t// out\n        /* \"#utility.yul\":1481:1810   */\n    tag_11:\n        /* \"#utility.yul\":1540:1546   */\n      0x00\n        /* \"#utility.yul\":1589:1591   */\n      0x20\n        /* \"#utility.yul\":1577:1586   */\n      dup3\n        /* \"#utility.yul\":1568:1575   */\n      dup5\n        /* \"#utility.yul\":1564:1587   */\n      sub\n        /* \"#utility.yul\":1560:1592   */\n      slt\n        /* \"#utility.yul\":1557:1676   */\n      iszero\n      tag_66\n      jumpi\n        /* \"#utility.yul\":1595:1674   */\n      tag_67\n      tag_27\n      jump\t// in\n    tag_67:\n        /* \"#utility.yul\":1557:1676   */\n    tag_66:\n        /* \"#utility.yul\":1715:1716   */\n      0x00\n        /* \"#utility.yul\":1740:1793   */\n      tag_68\n        /* \"#utility.yul\":1785:1792   */\n      dup5\n        /* \"#utility.yul\":1776:1782   */\n      dup3\n        /* \"#utility.yul\":1765:1774   */\n      dup6\n        /* \"#utility.yul\":1761:1783   */\n      add\n        /* \"#utility.yul\":1740:1793   */\n      tag_34\n      jump\t// in\n    tag_68:\n        /* \"#utility.yul\":1730:1793   */\n      swap2\n      pop\n        /* \"#utility.yul\":1686:1803   */\n      pop\n        /* \"#utility.yul\":1481:1810   */\n      swap3\n      swap2\n      pop\n      pop\n      jump\t// out\n        /* \"#utility.yul\":1816:1934   */\n    tag_35:\n        /* \"#utility.yul\":1903:1927   */\n      tag_70\n        /* \"#utility.yul\":1921:1926   */\n      dup2\n        /* \"#utility.yul\":1903:1927   */\n      tag_32\n      jump\t// in\n    tag_70:\n        /* \"#utility.yul\":1898:1901   */\n      dup3\n        /* \"#utility.yul\":1891:1928   */\n      mstore\n        /* \"#utility.yul\":1816:1934   */\n      pop\n      pop\n      jump\t// out\n        /* \"#utility.yul\":1940:2120   */\n    tag_21:\n        /* \"#utility.yul\":1988:2065   */\n      0x4e487b7100000000000000000000000000000000000000000000000000000000\n        /* \"#utility.yul\":1985:1986   */\n      0x00\n        /* \"#utility.yul\":1978:2066   */\n      mstore\n        /* \"#utility.yul\":2085:2089   */\n      0x21\n        /* \"#utility.yul\":2082:2083   */\n      0x04\n        /* \"#utility.yul\":2075:2090   */\n      mstore\n        /* \"#utility.yul\":2109:2113   */\n      0x24\n        /* \"#utility.yul\":2106:2107   */\n      0x00\n        /* \"#utility.yul\":2099:2114   */\n      revert\n        /* \"#utility.yul\":2126:2242   */\n    tag_36:\n        /* \"#utility.yul\":2210:2211   */\n      0x02\n        /* \"#utility.yul\":2203:2208   */\n      dup2\n        /* \"#utility.yul\":2200:2212   */\n      lt\n        /* \"#utility.yul\":2190:2236   */\n      tag_73\n      jumpi\n        /* \"#utility.yul\":2216:2234   */\n      tag_74\n      tag_21\n      jump\t// in\n    tag_74:\n        /* \"#utility.yul\":2190:2236   */\n    tag_73:\n        /* \"#utility.yul\":2126:2242   */\n      pop\n      jump\t// out\n        /* \"#utility.yul\":2248:2381   */\n    tag_37:\n        /* \"#utility.yul\":2296:2303   */\n      0x00\n        /* \"#utility.yul\":2325:2330   */\n      dup2\n        /* \"#utility.yul\":2314:2330   */\n      swap1\n      pop\n        /* \"#utility.yul\":2331:2375   */\n      tag_76\n        /* \"#utility.yul\":2369:2374   */\n      dup3\n        /* \"#utility.yul\":2331:2375   */\n      tag_36\n      jump\t// in\n    tag_76:\n        /* \"#utility.yul\":2248:2381   */\n      swap2\n      swap1\n      pop\n      jump\t// out\n        /* \"#utility.yul\":2387:2520   */\n    tag_38:\n        /* \"#utility.yul\":2446:2455   */\n      0x00\n        /* \"#utility.yul\":2479:2514   */\n      tag_78\n        /* \"#utility.yul\":2508:2513   */\n      dup3\n        /* \"#utility.yul\":2479:2514   */\n      tag_37\n      jump\t// in\n    tag_78:\n        /* \"#utility.yul\":2466:2514   */\n      swap1\n      pop\n        /* \"#utility.yul\":2387:2520   */\n      swap2\n      swap1\n      pop\n      jump\t// out\n        /* \"#utility.yul\":2526:2675   */\n    tag_39:\n        /* \"#utility.yul\":2622:2668   */\n      tag_80\n        /* \"#utility.yul\":2662:2667   */\n      dup2\n        /* \"#utility.yul\":2622:2668   */\n      tag_38\n      jump\t// in\n    tag_80:\n        /* \"#utility.yul\":2617:2620   */\n      dup3\n        /* \"#utility.yul\":2610:2669   */\n      mstore\n        /* \"#utility.yul\":2526:2675   */\n      pop\n      pop\n      jump\t// out\n        /* \"#utility.yul\":2681:2771   */\n    tag_40:\n        /* \"#utility.yul\":2715:2722   */\n      0x00\n        /* \"#utility.yul\":2758:2763   */\n      dup2\n        /* \"#utility.yul\":2751:2764   */\n      iszero\n        /* \"#utility.yul\":2744:2765   */\n      iszero\n        /* \"#utility.yul\":2733:2765   */\n      swap1\n      pop\n        /* \"#utility.yul\":2681:2771   */\n      swap2\n      swap1\n      pop\n      jump\t// out\n        /* \"#utility.yul\":2777:2886   */\n    tag_41:\n        /* \"#utility.yul\":2858:2879   */\n      tag_83\n        /* \"#utility.yul\":2873:2878   */\n      dup2\n        /* \"#utility.yul\":2858:2879   */\n      tag_40\n      jump\t// in\n    tag_83:\n        /* \"#utility.yul\":2853:2856   */\n      dup3\n        /* \"#utility.yul\":2846:2880   */\n      mstore\n        /* \"#utility.yul\":2777:2886   */\n      pop\n      pop\n      jump\t// out\n        /* \"#utility.yul\":2892:3340   */\n    tag_14:\n        /* \"#utility.yul\":3044:3048   */\n      0x00\n        /* \"#utility.yul\":3082:3084   */\n      0x60\n        /* \"#utility.yul\":3071:3080   */\n      dup3\n        /* \"#utility.yul\":3067:3085   */\n      add\n        /* \"#utility.yul\":3059:3085   */\n      swap1\n      pop\n        /* \"#utility.yul\":3095:3166   */\n      tag_85\n        /* \"#utility.yul\":3163:3164   */\n      0x00\n        /* \"#utility.yul\":3152:3161   */\n      dup4\n        /* \"#utility.yul\":3148:3165   */\n      add\n        /* \"#utility.yul\":3139:3145   */\n      dup7\n        /* \"#utility.yul\":3095:3166   */\n      tag_35\n      jump\t// in\n    tag_85:\n        /* \"#utility.yul\":3176:3257   */\n      tag_86\n        /* \"#utility.yul\":3253:3255   */\n      0x20\n        /* \"#utility.yul\":3242:3251   */\n      dup4\n        /* \"#utility.yul\":3238:3256   */\n      add\n        /* \"#utility.yul\":3229:3235   */\n      dup6\n        /* \"#utility.yul\":3176:3257   */\n      tag_39\n      jump\t// in\n    tag_86:\n        /* \"#utility.yul\":3267:3333   */\n      tag_87\n        /* \"#utility.yul\":3329:3331   */\n      0x40\n        /* \"#utility.yul\":3318:3327   */\n      dup4\n        /* \"#utility.yul\":3314:3332   */\n      add\n        /* \"#utility.yul\":3305:3311   */\n      dup5\n        /* \"#utility.yul\":3267:3333   */\n      tag_41\n      jump\t// in\n    tag_87:\n        /* \"#utility.yul\":2892:3340   */\n      swap5\n      swap4\n      pop\n      pop\n      pop\n      pop\n      jump\t// out\n        /* \"#utility.yul\":3346:3515   */\n    tag_42:\n        /* \"#utility.yul\":3430:3441   */\n      0x00\n        /* \"#utility.yul\":3464:3470   */\n      dup3\n        /* \"#utility.yul\":3459:3462   */\n      dup3\n        /* \"#utility.yul\":3452:3471   */\n      mstore\n        /* \"#utility.yul\":3504:3508   */\n      0x20\n        /* \"#utility.yul\":3499:3502   */\n      dup3\n        /* \"#utility.yul\":3495:3509   */\n      add\n        /* \"#utility.yul\":3480:3509   */\n      swap1\n      pop\n        /* \"#utility.yul\":3346:3515   */\n      swap3\n      swap2\n      pop\n      pop\n      jump\t// out\n        /* \"#utility.yul\":3521:3694   */\n    tag_43:\n        /* \"#utility.yul\":3661:3686   */\n      0x7573657220616c72656164792072656769737465726564000000000000000000\n        /* \"#utility.yul\":3657:3658   */\n      0x00\n        /* \"#utility.yul\":3649:3655   */\n      dup3\n        /* \"#utility.yul\":3645:3659   */\n      add\n        /* \"#utility.yul\":3638:3687   */\n      mstore\n        /* \"#utility.yul\":3521:3694   */\n      pop\n      jump\t// out\n        /* \"#utility.yul\":3700:4066   */\n    tag_44:\n        /* \"#utility.yul\":3842:3845   */\n      0x00\n        /* \"#utility.yul\":3863:3930   */\n      tag_91\n        /* \"#utility.yul\":3927:3929   */\n      0x17\n        /* \"#utility.yul\":3922:3925   */\n      dup4\n        /* \"#utility.yul\":3863:3930   */\n      tag_42\n      jump\t// in\n    tag_91:\n        /* \"#utility.yul\":3856:3930   */\n      swap2\n      pop\n        /* \"#utility.yul\":3939:4032   */\n      tag_92\n        /* \"#utility.yul\":4028:4031   */\n      dup3\n        /* \"#utility.yul\":3939:4032   */\n      tag_43\n      jump\t// in\n    tag_92:\n        /* \"#utility.yul\":4057:4059   */\n      0x20\n        /* \"#utility.yul\":4052:4055   */\n      dup3\n        /* \"#utility.yul\":4048:4060   */\n      add\n        /* \"#utility.yul\":4041:4060   */\n      swap1\n      pop\n        /* \"#utility.yul\":3700:4066   */\n      swap2\n      swap1\n      pop\n      jump\t// out\n        /* \"#utility.yul\":4072:4491   */\n    tag_18:\n        /* \"#utility.yul\":4238:4242   */\n      0x00\n        /* \"#utility.yul\":4276:4278   */\n      0x20\n        /* \"#utility.yul\":4265:4274   */\n      dup3\n        /* \"#utility.yul\":4261:4279   */\n      add\n        /* \"#utility.yul\":4253:4279   */\n      swap1\n      pop\n        /* \"#utility.yul\":4325:4334   */\n      dup2\n        /* \"#utility.yul\":4319:4323   */\n      dup2\n        /* \"#utility.yul\":4315:4335   */\n      sub\n        /* \"#utility.yul\":4311:4312   */\n      0x00\n        /* \"#utility.yul\":4300:4309   */\n      dup4\n        /* \"#utility.yul\":4296:4313   */\n      add\n        /* \"#utility.yul\":4289:4336   */\n      mstore\n        /* \"#utility.yul\":4353:4484   */\n      tag_94\n        /* \"#utility.yul\":4479:4483   */\n      dup2\n        /* \"#utility.yul\":4353:4484   */\n      tag_44\n      jump\t// in\n    tag_94:\n        /* \"#utility.yul\":4345:4484   */\n      swap1\n      pop\n        /* \"#utility.yul\":4072:4491   */\n      swap2\n      swap1\n      pop\n      jump\t// out\n        /* \"#utility.yul\":4497:4737   */\n    tag_25:\n        /* \"#utility.yul\":4599:4603   */\n      0x00\n        /* \"#utility.yul\":4637:4639   */\n      0x20\n        /* \"#utility.yul\":4626:4635   */\n      dup3\n        /* \"#utility.yul\":4622:4640   */\n      add\n        /* \"#utility.yul\":4614:4640   */\n      swap1\n      pop\n        /* \"#utility.yul\":4650:4730   */\n      tag_96\n        /* \"#utility.yul\":4727:4728   */\n      0x00\n        /* \"#utility.yul\":4716:4725   */\n      dup4\n        /* \"#utility.yul\":4712:4729   */\n      add\n        /* \"#utility.yul\":4703:4709   */\n      dup5\n        /* \"#utility.yul\":4650:4730   */\n      tag_39\n      jump\t// in\n    tag_96:\n        /* \"#utility.yul\":4497:4737   */\n      swap3\n      swap2\n      pop\n      pop\n      jump\t// out\n\n    auxdata: 0xa26469706673582212201cea0e2934032ddc70d95ae9adb775381f094f672c09112765bcc04cd2c6bbd264736f6c634300081b0033\n}\n",
				"bytecode": {
					"linkReferences": {},
					"object": "6080604052348015600e575f5ffd5b506105458061001c5f395ff3fe608060405234801561000f575f5ffd5b5060043610610034575f3560e01c806361d689fa14610038578063a87430ba14610054575b5f5ffd5b610052600480360381019061004d91906102fd565b610086565b005b61006e60048036038101906100699190610382565b61027a565b60405161007d93929190610449565b60405180910390f35b5f5f3373ffffffffffffffffffffffffffffffffffffffff1673ffffffffffffffffffffffffffffffffffffffff1681526020019081526020015f205f0160159054906101000a900460ff1615610112576040517f08c379a0000000000000000000000000000000000000000000000000000000008152600401610109906104d8565b60405180910390fd5b60405180606001604052803373ffffffffffffffffffffffffffffffffffffffff16815260200182600181111561014c5761014b6103bc565b5b8152602001600115158152505f5f3373ffffffffffffffffffffffffffffffffffffffff1673ffffffffffffffffffffffffffffffffffffffff1681526020019081526020015f205f820151815f015f6101000a81548173ffffffffffffffffffffffffffffffffffffffff021916908373ffffffffffffffffffffffffffffffffffffffff1602179055506020820151815f0160146101000a81548160ff02191690836001811115610202576102016103bc565b5b02179055506040820151815f0160156101000a81548160ff0219169083151502179055509050503373ffffffffffffffffffffffffffffffffffffffff167f8e18574f8a7333e6a87112742a55853a643e2f0550f4e1a3a2c3f1bb2994441d8260405161026f91906104f6565b60405180910390a250565b5f602052805f5260405f205f91509050805f015f9054906101000a900473ffffffffffffffffffffffffffffffffffffffff1690805f0160149054906101000a900460ff1690805f0160159054906101000a900460ff16905083565b5f5ffd5b600281106102e6575f5ffd5b50565b5f813590506102f7816102da565b92915050565b5f60208284031215610312576103116102d6565b5b5f61031f848285016102e9565b91505092915050565b5f73ffffffffffffffffffffffffffffffffffffffff82169050919050565b5f61035182610328565b9050919050565b61036181610347565b811461036b575f5ffd5b50565b5f8135905061037c81610358565b92915050565b5f60208284031215610397576103966102d6565b5b5f6103a48482850161036e565b91505092915050565b6103b681610347565b82525050565b7f4e487b71000000000000000000000000000000000000000000000000000000005f52602160045260245ffd5b600281106103fa576103f96103bc565b5b50565b5f81905061040a826103e9565b919050565b5f610419826103fd565b9050919050565b6104298161040f565b82525050565b5f8115159050919050565b6104438161042f565b82525050565b5f60608201905061045c5f8301866103ad565b6104696020830185610420565b610476604083018461043a565b949350505050565b5f82825260208201905092915050565b7f7573657220616c726561647920726567697374657265640000000000000000005f82015250565b5f6104c260178361047e565b91506104cd8261048e565b602082019050919050565b5f6020820190508181035f8301526104ef816104b6565b9050919050565b5f6020820190506105095f830184610420565b9291505056fea26469706673582212201cea0e2934032ddc70d95ae9adb775381f094f672c09112765bcc04cd2c6bbd264736f6c634300081b0033",
					"opcodes": "PUSH1 0x80 PUSH1 0x40 MSTORE CALLVALUE DUP1 ISZERO PUSH1 0xE JUMPI PUSH0 PUSH0 REVERT JUMPDEST POP PUSH2 0x545 DUP1 PUSH2 0x1C PUSH0 CODECOPY PUSH0 RETURN INVALID PUSH1 0x80 PUSH1 0x40 MSTORE CALLVALUE DUP1 ISZERO PUSH2 0xF JUMPI PUSH0 PUSH0 REVERT JUMPDEST POP PUSH1 0x4 CALLDATASIZE LT PUSH2 0x34 JUMPI PUSH0 CALLDATALOAD PUSH1 0xE0 SHR DUP1 PUSH4 0x61D689FA EQ PUSH2 0x38 JUMPI DUP1 PUSH4 0xA87430BA EQ PUSH2 0x54 JUMPI JUMPDEST PUSH0 PUSH0 REVERT JUMPDEST PUSH2 0x52 PUSH1 0x4 DUP1 CALLDATASIZE SUB DUP2 ADD SWAP1 PUSH2 0x4D SWAP2 SWAP1 PUSH2 0x2FD JUMP JUMPDEST PUSH2 0x86 JUMP JUMPDEST STOP JUMPDEST PUSH2 0x6E PUSH1 0x4 DUP1 CALLDATASIZE SUB DUP2 ADD SWAP1 PUSH2 0x69 SWAP2 SWAP1 PUSH2 0x382 JUMP JUMPDEST PUSH2 0x27A JUMP JUMPDEST PUSH1 0x40 MLOAD PUSH2 0x7D SWAP4 SWAP3 SWAP2 SWAP1 PUSH2 0x449 JUMP JUMPDEST PUSH1 0x40 MLOAD DUP1 SWAP2 SUB SWAP1 RETURN JUMPDEST PUSH0 PUSH0 CALLER PUSH20 0xFFFFFFFFFFFFFFFFFFFFFFFFFFFFFFFFFFFFFFFF AND PUSH20 0xFFFFFFFFFFFFFFFFFFFFFFFFFFFFFFFFFFFFFFFF AND DUP2 MSTORE PUSH1 0x20 ADD SWAP1 DUP2 MSTORE PUSH1 0x20 ADD PUSH0 KECCAK256 PUSH0 ADD PUSH1 0x15 SWAP1 SLOAD SWAP1 PUSH2 0x100 EXP SWAP1 DIV PUSH1 0xFF AND ISZERO PUSH2 0x112 JUMPI PUSH1 0x40 MLOAD PUSH32 0x8C379A000000000000000000000000000000000000000000000000000000000 DUP2 MSTORE PUSH1 0x4 ADD PUSH2 0x109 SWAP1 PUSH2 0x4D8 JUMP JUMPDEST PUSH1 0x40 MLOAD DUP1 SWAP2 SUB SWAP1 REVERT JUMPDEST PUSH1 0x40 MLOAD DUP1 PUSH1 0x60 ADD PUSH1 0x40 MSTORE DUP1 CALLER PUSH20 0xFFFFFFFFFFFFFFFFFFFFFFFFFFFFFFFFFFFFFFFF AND DUP2 MSTORE PUSH1 0x20 ADD DUP3 PUSH1 0x1 DUP2 GT ISZERO PUSH2 0x14C JUMPI PUSH2 0x14B PUSH2 0x3BC JUMP JUMPDEST JUMPDEST DUP2 MSTORE PUSH1 0x20 ADD PUSH1 0x1 ISZERO ISZERO DUP2 MSTORE POP PUSH0 PUSH0 CALLER PUSH20 0xFFFFFFFFFFFFFFFFFFFFFFFFFFFFFFFFFFFFFFFF AND PUSH20 0xFFFFFFFFFFFFFFFFFFFFFFFFFFFFFFFFFFFFFFFF AND DUP2 MSTORE PUSH1 0x20 ADD SWAP1 DUP2 MSTORE PUSH1 0x20 ADD PUSH0 KECCAK256 PUSH0 DUP3 ADD MLOAD DUP2 PUSH0 ADD PUSH0 PUSH2 0x100 EXP DUP2 SLOAD DUP2 PUSH20 0xFFFFFFFFFFFFFFFFFFFFFFFFFFFFFFFFFFFFFFFF MUL NOT AND SWAP1 DUP4 PUSH20 0xFFFFFFFFFFFFFFFFFFFFFFFFFFFFFFFFFFFFFFFF AND MUL OR SWAP1 SSTORE POP PUSH1 0x20 DUP3 ADD MLOAD DUP2 PUSH0 ADD PUSH1 0x14 PUSH2 0x100 EXP DUP2 SLOAD DUP2 PUSH1 0xFF MUL NOT AND SWAP1 DUP4 PUSH1 0x1 DUP2 GT ISZERO PUSH2 0x202 JUMPI PUSH2 0x201 PUSH2 0x3BC JUMP JUMPDEST JUMPDEST MUL OR SWAP1 SSTORE POP PUSH1 0x40 DUP3 ADD MLOAD DUP2 PUSH0 ADD PUSH1 0x15 PUSH2 0x100 EXP DUP2 SLOAD DUP2 PUSH1 0xFF MUL NOT AND SWAP1 DUP4 ISZERO ISZERO MUL OR SWAP1 SSTORE POP SWAP1 POP POP CALLER PUSH20 0xFFFFFFFFFFFFFFFFFFFFFFFFFFFFFFFFFFFFFFFF AND PUSH32 0x8E18574F8A7333E6A87112742A55853A643E2F0550F4E1A3A2C3F1BB2994441D DUP3 PUSH1 0x40 MLOAD PUSH2 0x26F SWAP2 SWAP1 PUSH2 0x4F6 JUMP JUMPDEST PUSH1 0x40 MLOAD DUP1 SWAP2 SUB SWAP1 LOG2 POP JUMP JUMPDEST PUSH0 PUSH1 0x20 MSTORE DUP1 PUSH0 MSTORE PUSH1 0x40 PUSH0 KECCAK256 PUSH0 SWAP2 POP SWAP1 POP DUP1 PUSH0 ADD PUSH0 SWAP1 SLOAD SWAP1 PUSH2 0x100 EXP SWAP1 DIV PUSH20 0xFFFFFFFFFFFFFFFFFFFFFFFFFFFFFFFFFFFFFFFF AND SWAP1 DUP1 PUSH0 ADD PUSH1 0x14 SWAP1 SLOAD SWAP1 PUSH2 0x100 EXP SWAP1 DIV PUSH1 0xFF AND SWAP1 DUP1 PUSH0 ADD PUSH1 0x15 SWAP1 SLOAD SWAP1 PUSH2 0x100 EXP SWAP1 DIV PUSH1 0xFF AND SWAP1 POP DUP4 JUMP JUMPDEST PUSH0 PUSH0 REVERT JUMPDEST PUSH1 0x2 DUP2 LT PUSH2 0x2E6 JUMPI PUSH0 PUSH0 REVERT JUMPDEST POP JUMP JUMPDEST PUSH0 DUP2 CALLDATALOAD SWAP1 POP PUSH2 0x2F7 DUP2 PUSH2 0x2DA JUMP JUMPDEST SWAP3 SWAP2 POP POP JUMP JUMPDEST PUSH0 PUSH1 0x20 DUP3 DUP5 SUB SLT ISZERO PUSH2 0x312 JUMPI PUSH2 0x311 PUSH2 0x2D6 JUMP JUMPDEST JUMPDEST PUSH0 PUSH2 0x31F DUP5 DUP3 DUP6 ADD PUSH2 0x2E9 JUMP JUMPDEST SWAP2 POP POP SWAP3 SWAP2 POP POP JUMP JUMPDEST PUSH0 PUSH20 0xFFFFFFFFFFFFFFFFFFFFFFFFFFFFFFFFFFFFFFFF DUP3 AND SWAP1 POP SWAP2 SWAP1 POP JUMP JUMPDEST PUSH0 PUSH2 0x351 DUP3 PUSH2 0x328 JUMP JUMPDEST SWAP1 POP SWAP2 SWAP1 POP JUMP JUMPDEST PUSH2 0x361 DUP2 PUSH2 0x347 JUMP JUMPDEST DUP2 EQ PUSH2 0x36B JUMPI PUSH0 PUSH0 REVERT JUMPDEST POP JUMP JUMPDEST PUSH0 DUP2 CALLDATALOAD SWAP1 POP PUSH2 0x37C DUP2 PUSH2 0x358 JUMP JUMPDEST SWAP3 SWAP2 POP POP JUMP JUMPDEST PUSH0 PUSH1 0x20 DUP3 DUP5 SUB SLT ISZERO PUSH2 0x397 JUMPI PUSH2 0x396 PUSH2 0x2D6 JUMP JUMPDEST JUMPDEST PUSH0 PUSH2 0x3A4 DUP5 DUP3 DUP6 ADD PUSH2 0x36E JUMP JUMPDEST SWAP2 POP POP SWAP3 SWAP2 POP POP JUMP JUMPDEST PUSH2 0x3B6 DUP2 PUSH2 0x347 JUMP JUMPDEST DUP3 MSTORE POP POP JUMP JUMPDEST PUSH32 0x4E487B7100000000000000000000000000000000000000000000000000000000 PUSH0 MSTORE PUSH1 0x21 PUSH1 0x4 MSTORE PUSH1 0x24 PUSH0 REVERT JUMPDEST PUSH1 0x2 DUP2 LT PUSH2 0x3FA JUMPI PUSH2 0x3F9 PUSH2 0x3BC JUMP JUMPDEST JUMPDEST POP JUMP JUMPDEST PUSH0 DUP2 SWAP1 POP PUSH2 0x40A DUP3 PUSH2 0x3E9 JUMP JUMPDEST SWAP2 SWAP1 POP JUMP JUMPDEST PUSH0 PUSH2 0x419 DUP3 PUSH2 0x3FD JUMP JUMPDEST SWAP1 POP SWAP2 SWAP1 POP JUMP JUMPDEST PUSH2 0x429 DUP2 PUSH2 0x40F JUMP JUMPDEST DUP3 MSTORE POP POP JUMP JUMPDEST PUSH0 DUP2 ISZERO ISZERO SWAP1 POP SWAP2 SWAP1 POP JUMP JUMPDEST PUSH2 0x443 DUP2 PUSH2 0x42F JUMP JUMPDEST DUP3 MSTORE POP POP JUMP JUMPDEST PUSH0 PUSH1 0x60 DUP3 ADD SWAP1 POP PUSH2 0x45C PUSH0 DUP4 ADD DUP7 PUSH2 0x3AD JUMP JUMPDEST PUSH2 0x469 PUSH1 0x20 DUP4 ADD DUP6 PUSH2 0x420 JUMP JUMPDEST PUSH2 0x476 PUSH1 0x40 DUP4 ADD DUP5 PUSH2 0x43A JUMP JUMPDEST SWAP5 SWAP4 POP POP POP POP JUMP JUMPDEST PUSH0 DUP3 DUP3 MSTORE PUSH1 0x20 DUP3 ADD SWAP1 POP SWAP3 SWAP2 POP POP JUMP JUMPDEST PUSH32 0x7573657220616C72656164792072656769737465726564000000000000000000 PUSH0 DUP3 ADD MSTORE POP JUMP JUMPDEST PUSH0 PUSH2 0x4C2 PUSH1 0x17 DUP4 PUSH2 0x47E JUMP JUMPDEST SWAP2 POP PUSH2 0x4CD DUP3 PUSH2 0x48E JUMP JUMPDEST PUSH1 0x20 DUP3 ADD SWAP1 POP SWAP2 SWAP1 POP JUMP JUMPDEST PUSH0 PUSH1 0x20 DUP3 ADD SWAP1 POP DUP2 DUP2 SUB PUSH0 DUP4 ADD MSTORE PUSH2 0x4EF DUP2 PUSH2 0x4B6 JUMP JUMPDEST SWAP1 POP SWAP2 SWAP1 POP JUMP JUMPDEST PUSH0 PUSH1 0x20 DUP3 ADD SWAP1 POP PUSH2 0x509 PUSH0 DUP4 ADD DUP5 PUSH2 0x420 JUMP JUMPDEST SWAP3 SWAP2 POP POP JUMP INVALID LOG2 PUSH5 0x6970667358 0x22 SLT KECCAK256 SHR 0xEA 0xE 0x29 CALLVALUE SUB 0x2D 0xDC PUSH17 0xD95AE9ADB775381F094F672C09112765BC 0xC0 0x4C 0xD2 0xC6 0xBB 0xD2 PUSH5 0x736F6C6343 STOP ADDMOD SHL STOP CALLER "
				},
				"gasEstimates": {
					"creation": {
						"codeDepositCost": "269800",
						"executionCost": "310",
						"totalCost": "270110"
					},
					"external": {
						"register(uint8)": "77467",
						"users(address)": "infinite"
					}
				},
				"methodIdentifiers": {
					"register(uint8)": "61d689fa",
					"users(address)": "a87430ba"
				}
			},
			"storageLayout": {
				"storage": [
					{
						"astId": 37,
						"contract": "contracts/userRegistration.sol:UserRegistration",
						"label": "users",
						"offset": 0,
						"slot": "0",
						"type": "t_mapping(t_address,t_struct(User)32_storage)"
					}
				],
				"types": {
					"t_address": {
						"encoding": "inplace",
						"label": "address",
						"numberOfBytes": "20"
					},
					"t_bool": {
						"encoding": "inplace",
						"label": "bool",
						"numberOfBytes": "1"
					},
					"t_enum(UserType)24": {
						"encoding": "inplace",
						"label": "enum UserRegistration.UserType",
						"numberOfBytes": "1"
					},
					"t_mapping(t_address,t_struct(User)32_storage)": {
						"encoding": "mapping",
						"key": "t_address",
						"label": "mapping(address => struct UserRegistration.User)",
						"numberOfBytes": "32",
						"value": "t_struct(User)32_storage"
					},
					"t_struct(User)32_storage": {
						"encoding": "inplace",
						"label": "struct UserRegistration.User",
						"members": [
							{
								"astId": 26,
								"contract": "contracts/userRegistration.sol:UserRegistration",
								"label": "walletAddress",
								"offset": 0,
								"slot": "0",
								"type": "t_address"
							},
							{
								"astId": 29,
								"contract": "contracts/userRegistration.sol:UserRegistration",
								"label": "userType",
								"offset": 20,
								"slot": "0",
								"type": "t_enum(UserType)24"
							},
							{
								"astId": 31,
								"contract": "contracts/userRegistration.sol:UserRegistration",
								"label": "isRegistered",
								"offset": 21,
								"slot": "0",
								"type": "t_bool"
							}
						],
						"numberOfBytes": "32"
					}
				}
			},
			"userdoc": {
				"kind": "user",
				"methods": {},
				"version": 1
			}
		}
	}
}