{
	"contracts/p2p-lending.sol": {
		"PesabitsCollateralManager": {
			"abi": [
				{
					"inputs": [
						{
							"internalType": "address",
							"name": "_escrowWallet",
							"type": "address"
						}
					],
					"stateMutability": "nonpayable",
					"type": "constructor"
				},
				{
					"inputs": [],
					"name": "InsufficientEscrowBalance",
					"type": "error"
				},
				{
					"inputs": [],
					"name": "InvalidEscrowWallet",
					"type": "error"
				},
				{
					"inputs": [],
					"name": "InvalidTokenAddress",
					"type": "error"
				},
				{
					"inputs": [],
					"name": "NoCollateralToWithdraw",
					"type": "error"
				},
				{
					"inputs": [],
					"name": "NotEnoughCollateral",
					"type": "error"
				},
				{
					"anonymous": false,
					"inputs": [
						{
							"indexed": true,
							"internalType": "address",
							"name": "borrower",
							"type": "address"
						},
						{
							"indexed": false,
							"internalType": "enum PesabitsCollateralManager.CollateralType",
							"name": "tokenType",
							"type": "uint8"
						},
						{
							"indexed": false,
							"internalType": "uint256",
							"name": "amount",
							"type": "uint256"
						}
					],
					"name": "CollateralDeposited",
					"type": "event"
				},
				{
					"anonymous": false,
					"inputs": [
						{
							"indexed": true,
							"internalType": "address",
							"name": "borrower",
							"type": "address"
						},
						{
							"indexed": false,
							"internalType": "enum PesabitsCollateralManager.CollateralType",
							"name": "tokenType",
							"type": "uint8"
						},
						{
							"indexed": false,
							"internalType": "uint256",
							"name": "amount",
							"type": "uint256"
						}
					],
					"name": "CollateralWithdrawn",
					"type": "event"
				},
				{
					"inputs": [
						{
							"internalType": "enum PesabitsCollateralManager.CollateralType",
							"name": "",
							"type": "uint8"
						}
					],
					"name": "approvedTokens",
					"outputs": [
						{
							"internalType": "address",
							"name": "",
							"type": "address"
						}
					],
					"stateMutability": "view",
					"type": "function"
				},
				{
					"inputs": [
						{
							"internalType": "address",
							"name": "",
							"type": "address"
						}
					],
					"name": "borrowerCollateral",
					"outputs": [
						{
							"internalType": "uint256",
							"name": "amount",
							"type": "uint256"
						},
						{
							"internalType": "enum PesabitsCollateralManager.CollateralType",
							"name": "tokenType",
							"type": "uint8"
						}
					],
					"stateMutability": "view",
					"type": "function"
				},
				{
					"inputs": [
						{
							"internalType": "enum PesabitsCollateralManager.CollateralType",
							"name": "_tokenType",
							"type": "uint8"
						},
						{
							"internalType": "uint256",
							"name": "_amount",
							"type": "uint256"
						}
					],
					"name": "depositCollateral",
					"outputs": [],
					"stateMutability": "nonpayable",
					"type": "function"
				},
				{
					"inputs": [],
					"name": "escrowWallet",
					"outputs": [
						{
							"internalType": "address",
							"name": "",
							"type": "address"
						}
					],
					"stateMutability": "view",
					"type": "function"
				},
				{
					"inputs": [],
					"name": "owner",
					"outputs": [
						{
							"internalType": "address",
							"name": "",
							"type": "address"
						}
					],
					"stateMutability": "view",
					"type": "function"
				},
				{
					"inputs": [
						{
							"internalType": "enum PesabitsCollateralManager.CollateralType",
							"name": "_tokenType",
							"type": "uint8"
						},
						{
							"internalType": "address",
							"name": "_tokenAddress",
							"type": "address"
						}
					],
					"name": "setApprovedToken",
					"outputs": [],
					"stateMutability": "nonpayable",
					"type": "function"
				},
				{
					"inputs": [],
					"name": "withdrawCollateral",
					"outputs": [],
					"stateMutability": "nonpayable",
					"type": "function"
				}
			],
			"devdoc": {
				"kind": "dev",
				"methods": {},
				"version": 1
			},
			"evm": {
				"assembly": "    /* \"contracts/p2p-lending.sol\":178:3067  contract PesabitsCollateralManager is ReentrancyGuard {... */\n  mstore(0x40, 0x80)\n    /* \"contracts/p2p-lending.sol\":1053:1232  constructor(address _escrowWallet) {... */\n  callvalue\n  dup1\n  iszero\n  tag_1\n  jumpi\n  revert(0x00, 0x00)\ntag_1:\n  pop\n  mload(0x40)\n  sub(codesize, bytecodeSize)\n  dup1\n  bytecodeSize\n  dup4\n  codecopy\n  dup2\n  dup2\n  add\n  0x40\n  mstore\n  dup2\n  add\n  swap1\n  tag_2\n  swap2\n  swap1\n  tag_3\n  jump\t// in\ntag_2:\n    /* \"@openzeppelin/contracts/security/ReentrancyGuard.sol\":1716:1717  1 */\n  0x01\n    /* \"@openzeppelin/contracts/security/ReentrancyGuard.sol\":1821:1828  _status */\n  0x00\n    /* \"@openzeppelin/contracts/security/ReentrancyGuard.sol\":1821:1843  _status = _NOT_ENTERED */\n  dup2\n  swap1\n  sstore\n  pop\n    /* \"contracts/p2p-lending.sol\":1131:1132  0 */\n  0x00\n    /* \"contracts/p2p-lending.sol\":1106:1133  _escrowWallet != address(0) */\n  0xffffffffffffffffffffffffffffffffffffffff\n  and\n    /* \"contracts/p2p-lending.sol\":1106:1119  _escrowWallet */\n  dup2\n    /* \"contracts/p2p-lending.sol\":1106:1133  _escrowWallet != address(0) */\n  0xffffffffffffffffffffffffffffffffffffffff\n  and\n  sub\n    /* \"contracts/p2p-lending.sol\":1098:1159  require(_escrowWallet != address(0), \"Invalid escrow wallet\") */\n  tag_8\n  jumpi\n  mload(0x40)\n  0x08c379a000000000000000000000000000000000000000000000000000000000\n  dup2\n  mstore\n  0x04\n  add\n  tag_9\n  swap1\n  tag_10\n  jump\t// in\ntag_9:\n  mload(0x40)\n  dup1\n  swap2\n  sub\n  swap1\n  revert\ntag_8:\n    /* \"contracts/p2p-lending.sol\":1177:1187  msg.sender */\n  caller\n    /* \"contracts/p2p-lending.sol\":1169:1174  owner */\n  0x01\n  0x00\n    /* \"contracts/p2p-lending.sol\":1169:1187  owner = msg.sender */\n  0x0100\n  exp\n  dup2\n  sload\n  dup2\n  0xffffffffffffffffffffffffffffffffffffffff\n  mul\n  not\n  and\n  swap1\n  dup4\n  0xffffffffffffffffffffffffffffffffffffffff\n  and\n  mul\n  or\n  swap1\n  sstore\n  pop\n    /* \"contracts/p2p-lending.sol\":1212:1225  _escrowWallet */\n  dup1\n    /* \"contracts/p2p-lending.sol\":1197:1209  escrowWallet */\n  0x02\n  0x00\n    /* \"contracts/p2p-lending.sol\":1197:1225  escrowWallet = _escrowWallet */\n  0x0100\n  exp\n  dup2\n  sload\n  dup2\n  0xffffffffffffffffffffffffffffffffffffffff\n  mul\n  not\n  and\n  swap1\n  dup4\n  0xffffffffffffffffffffffffffffffffffffffff\n  and\n  mul\n  or\n  swap1\n  sstore\n  pop\n    /* \"contracts/p2p-lending.sol\":1053:1232  constructor(address _escrowWallet) {... */\n  pop\n    /* \"contracts/p2p-lending.sol\":178:3067  contract PesabitsCollateralManager is ReentrancyGuard {... */\n  jump(tag_11)\n    /* \"#utility.yul\":88:205   */\ntag_13:\n    /* \"#utility.yul\":197:198   */\n  0x00\n    /* \"#utility.yul\":194:195   */\n  0x00\n    /* \"#utility.yul\":187:199   */\n  revert\n    /* \"#utility.yul\":334:460   */\ntag_15:\n    /* \"#utility.yul\":371:378   */\n  0x00\n    /* \"#utility.yul\":411:453   */\n  0xffffffffffffffffffffffffffffffffffffffff\n    /* \"#utility.yul\":404:409   */\n  dup3\n    /* \"#utility.yul\":400:454   */\n  and\n    /* \"#utility.yul\":389:454   */\n  swap1\n  pop\n    /* \"#utility.yul\":334:460   */\n  swap2\n  swap1\n  pop\n  jump\t// out\n    /* \"#utility.yul\":466:562   */\ntag_16:\n    /* \"#utility.yul\":503:510   */\n  0x00\n    /* \"#utility.yul\":532:556   */\n  tag_28\n    /* \"#utility.yul\":550:555   */\n  dup3\n    /* \"#utility.yul\":532:556   */\n  tag_15\n  jump\t// in\ntag_28:\n    /* \"#utility.yul\":521:556   */\n  swap1\n  pop\n    /* \"#utility.yul\":466:562   */\n  swap2\n  swap1\n  pop\n  jump\t// out\n    /* \"#utility.yul\":568:690   */\ntag_17:\n    /* \"#utility.yul\":641:665   */\n  tag_30\n    /* \"#utility.yul\":659:664   */\n  dup2\n    /* \"#utility.yul\":641:665   */\n  tag_16\n  jump\t// in\ntag_30:\n    /* \"#utility.yul\":634:639   */\n  dup2\n    /* \"#utility.yul\":631:666   */\n  eq\n    /* \"#utility.yul\":621:684   */\n  tag_31\n  jumpi\n    /* \"#utility.yul\":680:681   */\n  0x00\n    /* \"#utility.yul\":677:678   */\n  0x00\n    /* \"#utility.yul\":670:682   */\n  revert\n    /* \"#utility.yul\":621:684   */\ntag_31:\n    /* \"#utility.yul\":568:690   */\n  pop\n  jump\t// out\n    /* \"#utility.yul\":696:839   */\ntag_18:\n    /* \"#utility.yul\":753:758   */\n  0x00\n    /* \"#utility.yul\":784:790   */\n  dup2\n    /* \"#utility.yul\":778:791   */\n  mload\n    /* \"#utility.yul\":769:791   */\n  swap1\n  pop\n    /* \"#utility.yul\":800:833   */\n  tag_33\n    /* \"#utility.yul\":827:832   */\n  dup2\n    /* \"#utility.yul\":800:833   */\n  tag_17\n  jump\t// in\ntag_33:\n    /* \"#utility.yul\":696:839   */\n  swap3\n  swap2\n  pop\n  pop\n  jump\t// out\n    /* \"#utility.yul\":845:1196   */\ntag_3:\n    /* \"#utility.yul\":915:921   */\n  0x00\n    /* \"#utility.yul\":964:966   */\n  0x20\n    /* \"#utility.yul\":952:961   */\n  dup3\n    /* \"#utility.yul\":943:950   */\n  dup5\n    /* \"#utility.yul\":939:962   */\n  sub\n    /* \"#utility.yul\":935:967   */\n  slt\n    /* \"#utility.yul\":932:1051   */\n  iszero\n  tag_35\n  jumpi\n    /* \"#utility.yul\":970:1049   */\n  tag_36\n  tag_13\n  jump\t// in\ntag_36:\n    /* \"#utility.yul\":932:1051   */\ntag_35:\n    /* \"#utility.yul\":1090:1091   */\n  0x00\n    /* \"#utility.yul\":1115:1179   */\n  tag_37\n    /* \"#utility.yul\":1171:1178   */\n  dup5\n    /* \"#utility.yul\":1162:1168   */\n  dup3\n    /* \"#utility.yul\":1151:1160   */\n  dup6\n    /* \"#utility.yul\":1147:1169   */\n  add\n    /* \"#utility.yul\":1115:1179   */\n  tag_18\n  jump\t// in\ntag_37:\n    /* \"#utility.yul\":1105:1179   */\n  swap2\n  pop\n    /* \"#utility.yul\":1061:1189   */\n  pop\n    /* \"#utility.yul\":845:1196   */\n  swap3\n  swap2\n  pop\n  pop\n  jump\t// out\n    /* \"#utility.yul\":1202:1371   */\ntag_19:\n    /* \"#utility.yul\":1286:1297   */\n  0x00\n    /* \"#utility.yul\":1320:1326   */\n  dup3\n    /* \"#utility.yul\":1315:1318   */\n  dup3\n    /* \"#utility.yul\":1308:1327   */\n  mstore\n    /* \"#utility.yul\":1360:1364   */\n  0x20\n    /* \"#utility.yul\":1355:1358   */\n  dup3\n    /* \"#utility.yul\":1351:1365   */\n  add\n    /* \"#utility.yul\":1336:1365   */\n  swap1\n  pop\n    /* \"#utility.yul\":1202:1371   */\n  swap3\n  swap2\n  pop\n  pop\n  jump\t// out\n    /* \"#utility.yul\":1377:1548   */\ntag_20:\n    /* \"#utility.yul\":1517:1540   */\n  0x496e76616c696420657363726f772077616c6c65740000000000000000000000\n    /* \"#utility.yul\":1513:1514   */\n  0x00\n    /* \"#utility.yul\":1505:1511   */\n  dup3\n    /* \"#utility.yul\":1501:1515   */\n  add\n    /* \"#utility.yul\":1494:1541   */\n  mstore\n    /* \"#utility.yul\":1377:1548   */\n  pop\n  jump\t// out\n    /* \"#utility.yul\":1554:1920   */\ntag_21:\n    /* \"#utility.yul\":1696:1699   */\n  0x00\n    /* \"#utility.yul\":1717:1784   */\n  tag_41\n    /* \"#utility.yul\":1781:1783   */\n  0x15\n    /* \"#utility.yul\":1776:1779   */\n  dup4\n    /* \"#utility.yul\":1717:1784   */\n  tag_19\n  jump\t// in\ntag_41:\n    /* \"#utility.yul\":1710:1784   */\n  swap2\n  pop\n    /* \"#utility.yul\":1793:1886   */\n  tag_42\n    /* \"#utility.yul\":1882:1885   */\n  dup3\n    /* \"#utility.yul\":1793:1886   */\n  tag_20\n  jump\t// in\ntag_42:\n    /* \"#utility.yul\":1911:1913   */\n  0x20\n    /* \"#utility.yul\":1906:1909   */\n  dup3\n    /* \"#utility.yul\":1902:1914   */\n  add\n    /* \"#utility.yul\":1895:1914   */\n  swap1\n  pop\n    /* \"#utility.yul\":1554:1920   */\n  swap2\n  swap1\n  pop\n  jump\t// out\n    /* \"#utility.yul\":1926:2345   */\ntag_10:\n    /* \"#utility.yul\":2092:2096   */\n  0x00\n    /* \"#utility.yul\":2130:2132   */\n  0x20\n    /* \"#utility.yul\":2119:2128   */\n  dup3\n    /* \"#utility.yul\":2115:2133   */\n  add\n    /* \"#utility.yul\":2107:2133   */\n  swap1\n  pop\n    /* \"#utility.yul\":2179:2188   */\n  dup2\n    /* \"#utility.yul\":2173:2177   */\n  dup2\n    /* \"#utility.yul\":2169:2189   */\n  sub\n    /* \"#utility.yul\":2165:2166   */\n  0x00\n    /* \"#utility.yul\":2154:2163   */\n  dup4\n    /* \"#utility.yul\":2150:2167   */\n  add\n    /* \"#utility.yul\":2143:2190   */\n  mstore\n    /* \"#utility.yul\":2207:2338   */\n  tag_44\n    /* \"#utility.yul\":2333:2337   */\n  dup2\n    /* \"#utility.yul\":2207:2338   */\n  tag_21\n  jump\t// in\ntag_44:\n    /* \"#utility.yul\":2199:2338   */\n  swap1\n  pop\n    /* \"#utility.yul\":1926:2345   */\n  swap2\n  swap1\n  pop\n  jump\t// out\n    /* \"contracts/p2p-lending.sol\":178:3067  contract PesabitsCollateralManager is ReentrancyGuard {... */\ntag_11:\n  dataSize(sub_0)\n  dup1\n  dataOffset(sub_0)\n  0x00\n  codecopy\n  0x00\n  return\nstop\n\nsub_0: assembly {\n        /* \"contracts/p2p-lending.sol\":178:3067  contract PesabitsCollateralManager is ReentrancyGuard {... */\n      mstore(0x40, 0x80)\n      callvalue\n      dup1\n      iszero\n      tag_1\n      jumpi\n      revert(0x00, 0x00)\n    tag_1:\n      pop\n      jumpi(tag_2, lt(calldatasize, 0x04))\n      shr(0xe0, calldataload(0x00))\n      dup1\n      0x8da5cb5b\n      gt\n      tag_10\n      jumpi\n      dup1\n      0x8da5cb5b\n      eq\n      tag_6\n      jumpi\n      dup1\n      0x92d3be79\n      eq\n      tag_7\n      jumpi\n      dup1\n      0xb059d5c2\n      eq\n      tag_8\n      jumpi\n      dup1\n      0xd95a5aea\n      eq\n      tag_9\n      jumpi\n      jump(tag_2)\n    tag_10:\n      dup1\n      0x429ae236\n      eq\n      tag_3\n      jumpi\n      dup1\n      0x59c153be\n      eq\n      tag_4\n      jumpi\n      dup1\n      0x771568fd\n      eq\n      tag_5\n      jumpi\n    tag_2:\n      revert(0x00, 0x00)\n        /* \"contracts/p2p-lending.sol\":344:400  mapping(CollateralType => address) public approvedTokens */\n    tag_3:\n      tag_11\n      0x04\n      dup1\n      calldatasize\n      sub\n      dup2\n      add\n      swap1\n      tag_12\n      swap2\n      swap1\n      tag_13\n      jump\t// in\n    tag_12:\n      tag_14\n      jump\t// in\n    tag_11:\n      mload(0x40)\n      tag_15\n      swap2\n      swap1\n      tag_16\n      jump\t// in\n    tag_15:\n      mload(0x40)\n      dup1\n      swap2\n      sub\n      swap1\n      return\n        /* \"contracts/p2p-lending.sol\":2238:3065  function withdrawCollateral() external nonReentrant {... */\n    tag_4:\n      tag_17\n      tag_18\n      jump\t// in\n    tag_17:\n      stop\n        /* \"contracts/p2p-lending.sol\":695:751  mapping(address => Collateral) public borrowerCollateral */\n    tag_5:\n      tag_19\n      0x04\n      dup1\n      calldatasize\n      sub\n      dup2\n      add\n      swap1\n      tag_20\n      swap2\n      swap1\n      tag_21\n      jump\t// in\n    tag_20:\n      tag_22\n      jump\t// in\n    tag_19:\n      mload(0x40)\n      tag_23\n      swap3\n      swap2\n      swap1\n      tag_24\n      jump\t// in\n    tag_23:\n      mload(0x40)\n      dup1\n      swap2\n      sub\n      swap1\n      return\n        /* \"contracts/p2p-lending.sol\":239:259  address public owner */\n    tag_6:\n      tag_25\n      tag_26\n      jump\t// in\n    tag_25:\n      mload(0x40)\n      tag_27\n      swap2\n      swap1\n      tag_16\n      jump\t// in\n    tag_27:\n      mload(0x40)\n      dup1\n      swap2\n      sub\n      swap1\n      return\n        /* \"contracts/p2p-lending.sol\":265:292  address public escrowWallet */\n    tag_7:\n      tag_28\n      tag_29\n      jump\t// in\n    tag_28:\n      mload(0x40)\n      tag_30\n      swap2\n      swap1\n      tag_16\n      jump\t// in\n    tag_30:\n      mload(0x40)\n      dup1\n      swap2\n      sub\n      swap1\n      return\n        /* \"contracts/p2p-lending.sol\":1469:2232  function depositCollateral(CollateralType _tokenType, uint256 _amount) external nonReentrant {... */\n    tag_8:\n      tag_31\n      0x04\n      dup1\n      calldatasize\n      sub\n      dup2\n      add\n      swap1\n      tag_32\n      swap2\n      swap1\n      tag_33\n      jump\t// in\n    tag_32:\n      tag_34\n      jump\t// in\n    tag_31:\n      stop\n        /* \"contracts/p2p-lending.sol\":1238:1463  function setApprovedToken(CollateralType _tokenType, address _tokenAddress) external onlyOwner {... */\n    tag_9:\n      tag_35\n      0x04\n      dup1\n      calldatasize\n      sub\n      dup2\n      add\n      swap1\n      tag_36\n      swap2\n      swap1\n      tag_37\n      jump\t// in\n    tag_36:\n      tag_38\n      jump\t// in\n    tag_35:\n      stop\n        /* \"contracts/p2p-lending.sol\":344:400  mapping(CollateralType => address) public approvedTokens */\n    tag_14:\n      mstore(0x20, 0x03)\n      dup1\n      0x00\n      mstore\n      keccak256(0x00, 0x40)\n      0x00\n      swap2\n      pop\n      sload\n      swap1\n      0x0100\n      exp\n      swap1\n      div\n      0xffffffffffffffffffffffffffffffffffffffff\n      and\n      dup2\n      jump\t// out\n        /* \"contracts/p2p-lending.sol\":2238:3065  function withdrawCollateral() external nonReentrant {... */\n    tag_18:\n        /* \"@openzeppelin/contracts/security/ReentrancyGuard.sol\":2261:2282  _nonReentrantBefore() */\n      tag_40\n        /* \"@openzeppelin/contracts/security/ReentrancyGuard.sol\":2261:2280  _nonReentrantBefore */\n      tag_41\n        /* \"@openzeppelin/contracts/security/ReentrancyGuard.sol\":2261:2282  _nonReentrantBefore() */\n      jump\t// in\n    tag_40:\n        /* \"contracts/p2p-lending.sol\":2300:2333  Collateral storage collateralData */\n      0x00\n        /* \"contracts/p2p-lending.sol\":2336:2354  borrowerCollateral */\n      0x04\n        /* \"contracts/p2p-lending.sol\":2336:2366  borrowerCollateral[msg.sender] */\n      0x00\n        /* \"contracts/p2p-lending.sol\":2355:2365  msg.sender */\n      caller\n        /* \"contracts/p2p-lending.sol\":2336:2366  borrowerCollateral[msg.sender] */\n      0xffffffffffffffffffffffffffffffffffffffff\n      and\n      0xffffffffffffffffffffffffffffffffffffffff\n      and\n      dup2\n      mstore\n      0x20\n      add\n      swap1\n      dup2\n      mstore\n      0x20\n      add\n      0x00\n      keccak256\n        /* \"contracts/p2p-lending.sol\":2300:2366  Collateral storage collateralData = borrowerCollateral[msg.sender] */\n      swap1\n      pop\n        /* \"contracts/p2p-lending.sol\":2408:2409  0 */\n      0x00\n        /* \"contracts/p2p-lending.sol\":2384:2398  collateralData */\n      dup2\n        /* \"contracts/p2p-lending.sol\":2384:2405  collateralData.amount */\n      0x00\n      add\n      sload\n        /* \"contracts/p2p-lending.sol\":2384:2409  collateralData.amount > 0 */\n      gt\n        /* \"contracts/p2p-lending.sol\":2376:2439  require(collateralData.amount > 0, \"No collateral to withdraw\") */\n      tag_43\n      jumpi\n      mload(0x40)\n      0x08c379a000000000000000000000000000000000000000000000000000000000\n      dup2\n      mstore\n      0x04\n      add\n      tag_44\n      swap1\n      tag_45\n      jump\t// in\n    tag_44:\n      mload(0x40)\n      dup1\n      swap2\n      sub\n      swap1\n      revert\n    tag_43:\n        /* \"contracts/p2p-lending.sol\":2450:2470  address tokenAddress */\n      0x00\n        /* \"contracts/p2p-lending.sol\":2473:2487  approvedTokens */\n      0x03\n        /* \"contracts/p2p-lending.sol\":2473:2513  approvedTokens[collateralData.tokenType] */\n      0x00\n        /* \"contracts/p2p-lending.sol\":2488:2502  collateralData */\n      dup4\n        /* \"contracts/p2p-lending.sol\":2488:2512  collateralData.tokenType */\n      0x01\n      add\n      0x00\n      swap1\n      sload\n      swap1\n      0x0100\n      exp\n      swap1\n      div\n      0xff\n      and\n        /* \"contracts/p2p-lending.sol\":2473:2513  approvedTokens[collateralData.tokenType] */\n      0x02\n      dup2\n      gt\n      iszero\n      tag_46\n      jumpi\n      tag_47\n      tag_48\n      jump\t// in\n    tag_47:\n    tag_46:\n      0x02\n      dup2\n      gt\n      iszero\n      tag_49\n      jumpi\n      tag_50\n      tag_48\n      jump\t// in\n    tag_50:\n    tag_49:\n      dup2\n      mstore\n      0x20\n      add\n      swap1\n      dup2\n      mstore\n      0x20\n      add\n      0x00\n      keccak256\n      0x00\n      swap1\n      sload\n      swap1\n      0x0100\n      exp\n      swap1\n      div\n      0xffffffffffffffffffffffffffffffffffffffff\n      and\n        /* \"contracts/p2p-lending.sol\":2450:2513  address tokenAddress = approvedTokens[collateralData.tokenType] */\n      swap1\n      pop\n        /* \"contracts/p2p-lending.sol\":2555:2556  0 */\n      0x00\n        /* \"contracts/p2p-lending.sol\":2531:2557  tokenAddress != address(0) */\n      0xffffffffffffffffffffffffffffffffffffffff\n      and\n        /* \"contracts/p2p-lending.sol\":2531:2543  tokenAddress */\n      dup2\n        /* \"contracts/p2p-lending.sol\":2531:2557  tokenAddress != address(0) */\n      0xffffffffffffffffffffffffffffffffffffffff\n      and\n      sub\n        /* \"contracts/p2p-lending.sol\":2523:2586  require(tokenAddress != address(0), \"Invalid collateral token\") */\n      tag_51\n      jumpi\n      mload(0x40)\n      0x08c379a000000000000000000000000000000000000000000000000000000000\n      dup2\n      mstore\n      0x04\n      add\n      tag_52\n      swap1\n      tag_53\n      jump\t// in\n    tag_52:\n      mload(0x40)\n      dup1\n      swap2\n      sub\n      swap1\n      revert\n    tag_51:\n        /* \"contracts/p2p-lending.sol\":2597:2611  uint256 amount */\n      0x00\n        /* \"contracts/p2p-lending.sol\":2614:2628  collateralData */\n      dup3\n        /* \"contracts/p2p-lending.sol\":2614:2635  collateralData.amount */\n      0x00\n      add\n      sload\n        /* \"contracts/p2p-lending.sol\":2597:2635  uint256 amount = collateralData.amount */\n      swap1\n      pop\n        /* \"contracts/p2p-lending.sol\":2669:2670  0 */\n      0x00\n        /* \"contracts/p2p-lending.sol\":2645:2659  collateralData */\n      dup4\n        /* \"contracts/p2p-lending.sol\":2645:2666  collateralData.amount */\n      0x00\n      add\n        /* \"contracts/p2p-lending.sol\":2645:2670  collateralData.amount = 0 */\n      dup2\n      swap1\n      sstore\n      pop\n        /* \"contracts/p2p-lending.sol\":2681:2702  uint256 escrowBalance */\n      0x00\n        /* \"contracts/p2p-lending.sol\":2712:2724  tokenAddress */\n      dup3\n        /* \"contracts/p2p-lending.sol\":2705:2735  IERC20(tokenAddress).balanceOf */\n      0xffffffffffffffffffffffffffffffffffffffff\n      and\n      0x70a08231\n        /* \"contracts/p2p-lending.sol\":2736:2748  escrowWallet */\n      0x02\n      0x00\n      swap1\n      sload\n      swap1\n      0x0100\n      exp\n      swap1\n      div\n      0xffffffffffffffffffffffffffffffffffffffff\n      and\n        /* \"contracts/p2p-lending.sol\":2705:2749  IERC20(tokenAddress).balanceOf(escrowWallet) */\n      mload(0x40)\n      dup3\n      0xffffffff\n      and\n      0xe0\n      shl\n      dup2\n      mstore\n      0x04\n      add\n      tag_54\n      swap2\n      swap1\n      tag_16\n      jump\t// in\n    tag_54:\n      0x20\n      mload(0x40)\n      dup1\n      dup4\n      sub\n      dup2\n      dup7\n      gas\n      staticcall\n      iszero\n      dup1\n      iszero\n      tag_56\n      jumpi\n      returndatacopy(0x00, 0x00, returndatasize)\n      revert(0x00, returndatasize)\n    tag_56:\n      pop\n      pop\n      pop\n      pop\n      mload(0x40)\n      returndatasize\n      not(0x1f)\n      0x1f\n      dup3\n      add\n      and\n      dup3\n      add\n      dup1\n      0x40\n      mstore\n      pop\n      dup2\n      add\n      swap1\n      tag_57\n      swap2\n      swap1\n      tag_58\n      jump\t// in\n    tag_57:\n        /* \"contracts/p2p-lending.sol\":2681:2749  uint256 escrowBalance = IERC20(tokenAddress).balanceOf(escrowWallet) */\n      swap1\n      pop\n        /* \"contracts/p2p-lending.sol\":2784:2790  amount */\n      dup2\n        /* \"contracts/p2p-lending.sol\":2767:2780  escrowBalance */\n      dup2\n        /* \"contracts/p2p-lending.sol\":2767:2790  escrowBalance >= amount */\n      lt\n      iszero\n        /* \"contracts/p2p-lending.sol\":2759:2833  require(escrowBalance >= amount, \"Escrow wallet has insufficient balance\") */\n      tag_59\n      jumpi\n      mload(0x40)\n      0x08c379a000000000000000000000000000000000000000000000000000000000\n      dup2\n      mstore\n      0x04\n      add\n      tag_60\n      swap1\n      tag_61\n      jump\t// in\n    tag_60:\n      mload(0x40)\n      dup1\n      swap2\n      sub\n      swap1\n      revert\n    tag_59:\n        /* \"contracts/p2p-lending.sol\":2844:2856  bool success */\n      0x00\n        /* \"contracts/p2p-lending.sol\":2866:2878  tokenAddress */\n      dup4\n        /* \"contracts/p2p-lending.sol\":2859:2892  IERC20(tokenAddress).transferFrom */\n      0xffffffffffffffffffffffffffffffffffffffff\n      and\n      0x23b872dd\n        /* \"contracts/p2p-lending.sol\":2893:2905  escrowWallet */\n      0x02\n      0x00\n      swap1\n      sload\n      swap1\n      0x0100\n      exp\n      swap1\n      div\n      0xffffffffffffffffffffffffffffffffffffffff\n      and\n        /* \"contracts/p2p-lending.sol\":2907:2917  msg.sender */\n      caller\n        /* \"contracts/p2p-lending.sol\":2919:2925  amount */\n      dup7\n        /* \"contracts/p2p-lending.sol\":2859:2926  IERC20(tokenAddress).transferFrom(escrowWallet, msg.sender, amount) */\n      mload(0x40)\n      dup5\n      0xffffffff\n      and\n      0xe0\n      shl\n      dup2\n      mstore\n      0x04\n      add\n      tag_62\n      swap4\n      swap3\n      swap2\n      swap1\n      tag_63\n      jump\t// in\n    tag_62:\n      0x20\n      mload(0x40)\n      dup1\n      dup4\n      sub\n      dup2\n      0x00\n      dup8\n      gas\n      call\n      iszero\n      dup1\n      iszero\n      tag_65\n      jumpi\n      returndatacopy(0x00, 0x00, returndatasize)\n      revert(0x00, returndatasize)\n    tag_65:\n      pop\n      pop\n      pop\n      pop\n      mload(0x40)\n      returndatasize\n      not(0x1f)\n      0x1f\n      dup3\n      add\n      and\n      dup3\n      add\n      dup1\n      0x40\n      mstore\n      pop\n      dup2\n      add\n      swap1\n      tag_66\n      swap2\n      swap1\n      tag_67\n      jump\t// in\n    tag_66:\n        /* \"contracts/p2p-lending.sol\":2844:2926  bool success = IERC20(tokenAddress).transferFrom(escrowWallet, msg.sender, amount) */\n      swap1\n      pop\n        /* \"contracts/p2p-lending.sol\":2944:2951  success */\n      dup1\n        /* \"contracts/p2p-lending.sol\":2936:2977  require(success, \"Token transfer failed\") */\n      tag_68\n      jumpi\n      mload(0x40)\n      0x08c379a000000000000000000000000000000000000000000000000000000000\n      dup2\n      mstore\n      0x04\n      add\n      tag_69\n      swap1\n      tag_70\n      jump\t// in\n    tag_69:\n      mload(0x40)\n      dup1\n      swap2\n      sub\n      swap1\n      revert\n    tag_68:\n        /* \"contracts/p2p-lending.sol\":3013:3023  msg.sender */\n      caller\n        /* \"contracts/p2p-lending.sol\":2993:3058  CollateralWithdrawn(msg.sender, collateralData.tokenType, amount) */\n      0xffffffffffffffffffffffffffffffffffffffff\n      and\n      0x31566be95af2e42323c22ba842214253b9474227d1faa5c55f6189bda15fc775\n        /* \"contracts/p2p-lending.sol\":3025:3039  collateralData */\n      dup7\n        /* \"contracts/p2p-lending.sol\":3025:3049  collateralData.tokenType */\n      0x01\n      add\n      0x00\n      swap1\n      sload\n      swap1\n      0x0100\n      exp\n      swap1\n      div\n      0xff\n      and\n        /* \"contracts/p2p-lending.sol\":3051:3057  amount */\n      dup6\n        /* \"contracts/p2p-lending.sol\":2993:3058  CollateralWithdrawn(msg.sender, collateralData.tokenType, amount) */\n      mload(0x40)\n      tag_71\n      swap3\n      swap2\n      swap1\n      tag_72\n      jump\t// in\n    tag_71:\n      mload(0x40)\n      dup1\n      swap2\n      sub\n      swap1\n      log2\n        /* \"contracts/p2p-lending.sol\":2290:3065  {... */\n      pop\n      pop\n      pop\n      pop\n      pop\n        /* \"@openzeppelin/contracts/security/ReentrancyGuard.sol\":2303:2323  _nonReentrantAfter() */\n      tag_73\n        /* \"@openzeppelin/contracts/security/ReentrancyGuard.sol\":2303:2321  _nonReentrantAfter */\n      tag_74\n        /* \"@openzeppelin/contracts/security/ReentrancyGuard.sol\":2303:2323  _nonReentrantAfter() */\n      jump\t// in\n    tag_73:\n        /* \"contracts/p2p-lending.sol\":2238:3065  function withdrawCollateral() external nonReentrant {... */\n      jump\t// out\n        /* \"contracts/p2p-lending.sol\":695:751  mapping(address => Collateral) public borrowerCollateral */\n    tag_22:\n      mstore(0x20, 0x04)\n      dup1\n      0x00\n      mstore\n      keccak256(0x00, 0x40)\n      0x00\n      swap2\n      pop\n      swap1\n      pop\n      dup1\n      0x00\n      add\n      sload\n      swap1\n      dup1\n      0x01\n      add\n      0x00\n      swap1\n      sload\n      swap1\n      0x0100\n      exp\n      swap1\n      div\n      0xff\n      and\n      swap1\n      pop\n      dup3\n      jump\t// out\n        /* \"contracts/p2p-lending.sol\":239:259  address public owner */\n    tag_26:\n      0x01\n      0x00\n      swap1\n      sload\n      swap1\n      0x0100\n      exp\n      swap1\n      div\n      0xffffffffffffffffffffffffffffffffffffffff\n      and\n      dup2\n      jump\t// out\n        /* \"contracts/p2p-lending.sol\":265:292  address public escrowWallet */\n    tag_29:\n      0x02\n      0x00\n      swap1\n      sload\n      swap1\n      0x0100\n      exp\n      swap1\n      div\n      0xffffffffffffffffffffffffffffffffffffffff\n      and\n      dup2\n      jump\t// out\n        /* \"contracts/p2p-lending.sol\":1469:2232  function depositCollateral(CollateralType _tokenType, uint256 _amount) external nonReentrant {... */\n    tag_34:\n        /* \"@openzeppelin/contracts/security/ReentrancyGuard.sol\":2261:2282  _nonReentrantBefore() */\n      tag_76\n        /* \"@openzeppelin/contracts/security/ReentrancyGuard.sol\":2261:2280  _nonReentrantBefore */\n      tag_41\n        /* \"@openzeppelin/contracts/security/ReentrancyGuard.sol\":2261:2282  _nonReentrantBefore() */\n      jump\t// in\n    tag_76:\n        /* \"contracts/p2p-lending.sol\":1590:1591  0 */\n      0x00\n        /* \"contracts/p2p-lending.sol\":1580:1587  _amount */\n      dup2\n        /* \"contracts/p2p-lending.sol\":1580:1591  _amount > 0 */\n      gt\n        /* \"contracts/p2p-lending.sol\":1572:1639  require(_amount > 0, \"Collateral amount must be greater than zero\") */\n      tag_78\n      jumpi\n      mload(0x40)\n      0x08c379a000000000000000000000000000000000000000000000000000000000\n      dup2\n      mstore\n      0x04\n      add\n      tag_79\n      swap1\n      tag_80\n      jump\t// in\n    tag_79:\n      mload(0x40)\n      dup1\n      swap2\n      sub\n      swap1\n      revert\n    tag_78:\n        /* \"contracts/p2p-lending.sol\":1650:1670  address tokenAddress */\n      0x00\n        /* \"contracts/p2p-lending.sol\":1673:1687  approvedTokens */\n      0x03\n        /* \"contracts/p2p-lending.sol\":1673:1699  approvedTokens[_tokenType] */\n      0x00\n        /* \"contracts/p2p-lending.sol\":1688:1698  _tokenType */\n      dup5\n        /* \"contracts/p2p-lending.sol\":1673:1699  approvedTokens[_tokenType] */\n      0x02\n      dup2\n      gt\n      iszero\n      tag_81\n      jumpi\n      tag_82\n      tag_48\n      jump\t// in\n    tag_82:\n    tag_81:\n      0x02\n      dup2\n      gt\n      iszero\n      tag_83\n      jumpi\n      tag_84\n      tag_48\n      jump\t// in\n    tag_84:\n    tag_83:\n      dup2\n      mstore\n      0x20\n      add\n      swap1\n      dup2\n      mstore\n      0x20\n      add\n      0x00\n      keccak256\n      0x00\n      swap1\n      sload\n      swap1\n      0x0100\n      exp\n      swap1\n      div\n      0xffffffffffffffffffffffffffffffffffffffff\n      and\n        /* \"contracts/p2p-lending.sol\":1650:1699  address tokenAddress = approvedTokens[_tokenType] */\n      swap1\n      pop\n        /* \"contracts/p2p-lending.sol\":1741:1742  0 */\n      0x00\n        /* \"contracts/p2p-lending.sol\":1717:1743  tokenAddress != address(0) */\n      0xffffffffffffffffffffffffffffffffffffffff\n      and\n        /* \"contracts/p2p-lending.sol\":1717:1729  tokenAddress */\n      dup2\n        /* \"contracts/p2p-lending.sol\":1717:1743  tokenAddress != address(0) */\n      0xffffffffffffffffffffffffffffffffffffffff\n      and\n      sub\n        /* \"contracts/p2p-lending.sol\":1709:1772  require(tokenAddress != address(0), \"Invalid collateral token\") */\n      tag_85\n      jumpi\n      mload(0x40)\n      0x08c379a000000000000000000000000000000000000000000000000000000000\n      dup2\n      mstore\n      0x04\n      add\n      tag_86\n      swap1\n      tag_53\n      jump\t// in\n    tag_86:\n      mload(0x40)\n      dup1\n      swap2\n      sub\n      swap1\n      revert\n    tag_85:\n        /* \"contracts/p2p-lending.sol\":1849:1861  bool success */\n      0x00\n        /* \"contracts/p2p-lending.sol\":1871:1883  tokenAddress */\n      dup2\n        /* \"contracts/p2p-lending.sol\":1864:1897  IERC20(tokenAddress).transferFrom */\n      0xffffffffffffffffffffffffffffffffffffffff\n      and\n      0x23b872dd\n        /* \"contracts/p2p-lending.sol\":1898:1908  msg.sender */\n      caller\n        /* \"contracts/p2p-lending.sol\":1910:1922  escrowWallet */\n      0x02\n      0x00\n      swap1\n      sload\n      swap1\n      0x0100\n      exp\n      swap1\n      div\n      0xffffffffffffffffffffffffffffffffffffffff\n      and\n        /* \"contracts/p2p-lending.sol\":1924:1931  _amount */\n      dup7\n        /* \"contracts/p2p-lending.sol\":1864:1932  IERC20(tokenAddress).transferFrom(msg.sender, escrowWallet, _amount) */\n      mload(0x40)\n      dup5\n      0xffffffff\n      and\n      0xe0\n      shl\n      dup2\n      mstore\n      0x04\n      add\n      tag_87\n      swap4\n      swap3\n      swap2\n      swap1\n      tag_63\n      jump\t// in\n    tag_87:\n      0x20\n      mload(0x40)\n      dup1\n      dup4\n      sub\n      dup2\n      0x00\n      dup8\n      gas\n      call\n      iszero\n      dup1\n      iszero\n      tag_89\n      jumpi\n      returndatacopy(0x00, 0x00, returndatasize)\n      revert(0x00, returndatasize)\n    tag_89:\n      pop\n      pop\n      pop\n      pop\n      mload(0x40)\n      returndatasize\n      not(0x1f)\n      0x1f\n      dup3\n      add\n      and\n      dup3\n      add\n      dup1\n      0x40\n      mstore\n      pop\n      dup2\n      add\n      swap1\n      tag_90\n      swap2\n      swap1\n      tag_67\n      jump\t// in\n    tag_90:\n        /* \"contracts/p2p-lending.sol\":1849:1932  bool success = IERC20(tokenAddress).transferFrom(msg.sender, escrowWallet, _amount) */\n      swap1\n      pop\n        /* \"contracts/p2p-lending.sol\":1950:1957  success */\n      dup1\n        /* \"contracts/p2p-lending.sol\":1942:1983  require(success, \"Token transfer failed\") */\n      tag_91\n      jumpi\n      mload(0x40)\n      0x08c379a000000000000000000000000000000000000000000000000000000000\n      dup2\n      mstore\n      0x04\n      add\n      tag_92\n      swap1\n      tag_70\n      jump\t// in\n    tag_92:\n      mload(0x40)\n      dup1\n      swap2\n      sub\n      swap1\n      revert\n    tag_91:\n        /* \"contracts/p2p-lending.sol\":2071:2157  Collateral({... */\n      mload(0x40)\n      dup1\n      0x40\n      add\n      0x40\n      mstore\n      dup1\n        /* \"contracts/p2p-lending.sol\":2104:2111  _amount */\n      dup5\n        /* \"contracts/p2p-lending.sol\":2071:2157  Collateral({... */\n      dup2\n      mstore\n      0x20\n      add\n        /* \"contracts/p2p-lending.sol\":2136:2146  _tokenType */\n      dup6\n        /* \"contracts/p2p-lending.sol\":2071:2157  Collateral({... */\n      0x02\n      dup2\n      gt\n      iszero\n      tag_93\n      jumpi\n      tag_94\n      tag_48\n      jump\t// in\n    tag_94:\n    tag_93:\n      dup2\n      mstore\n      pop\n        /* \"contracts/p2p-lending.sol\":2038:2056  borrowerCollateral */\n      0x04\n        /* \"contracts/p2p-lending.sol\":2038:2068  borrowerCollateral[msg.sender] */\n      0x00\n        /* \"contracts/p2p-lending.sol\":2057:2067  msg.sender */\n      caller\n        /* \"contracts/p2p-lending.sol\":2038:2068  borrowerCollateral[msg.sender] */\n      0xffffffffffffffffffffffffffffffffffffffff\n      and\n      0xffffffffffffffffffffffffffffffffffffffff\n      and\n      dup2\n      mstore\n      0x20\n      add\n      swap1\n      dup2\n      mstore\n      0x20\n      add\n      0x00\n      keccak256\n        /* \"contracts/p2p-lending.sol\":2038:2157  borrowerCollateral[msg.sender] = Collateral({... */\n      0x00\n      dup3\n      add\n      mload\n      dup2\n      0x00\n      add\n      sstore\n      0x20\n      dup3\n      add\n      mload\n      dup2\n      0x01\n      add\n      exp(0x0100, 0x00)\n      dup2\n      sload\n      dup2\n      0xff\n      mul\n      not\n      and\n      swap1\n      dup4\n      0x02\n      dup2\n      gt\n      iszero\n      tag_95\n      jumpi\n      tag_96\n      tag_48\n      jump\t// in\n    tag_96:\n    tag_95:\n      mul\n      or\n      swap1\n      sstore\n      pop\n      swap1\n      pop\n      pop\n        /* \"contracts/p2p-lending.sol\":2193:2203  msg.sender */\n      caller\n        /* \"contracts/p2p-lending.sol\":2173:2225  CollateralDeposited(msg.sender, _tokenType, _amount) */\n      0xffffffffffffffffffffffffffffffffffffffff\n      and\n      0x49e4eae2bdbf168747336dbc73322b37819a43df549ddf355d2060e6b855d9ab\n        /* \"contracts/p2p-lending.sol\":2205:2215  _tokenType */\n      dup6\n        /* \"contracts/p2p-lending.sol\":2217:2224  _amount */\n      dup6\n        /* \"contracts/p2p-lending.sol\":2173:2225  CollateralDeposited(msg.sender, _tokenType, _amount) */\n      mload(0x40)\n      tag_97\n      swap3\n      swap2\n      swap1\n      tag_72\n      jump\t// in\n    tag_97:\n      mload(0x40)\n      dup1\n      swap2\n      sub\n      swap1\n      log2\n        /* \"contracts/p2p-lending.sol\":1562:2232  {... */\n      pop\n      pop\n        /* \"@openzeppelin/contracts/security/ReentrancyGuard.sol\":2303:2323  _nonReentrantAfter() */\n      tag_98\n        /* \"@openzeppelin/contracts/security/ReentrancyGuard.sol\":2303:2321  _nonReentrantAfter */\n      tag_74\n        /* \"@openzeppelin/contracts/security/ReentrancyGuard.sol\":2303:2323  _nonReentrantAfter() */\n      jump\t// in\n    tag_98:\n        /* \"contracts/p2p-lending.sol\":1469:2232  function depositCollateral(CollateralType _tokenType, uint256 _amount) external nonReentrant {... */\n      pop\n      pop\n      jump\t// out\n        /* \"contracts/p2p-lending.sol\":1238:1463  function setApprovedToken(CollateralType _tokenType, address _tokenAddress) external onlyOwner {... */\n    tag_38:\n        /* \"contracts/p2p-lending.sol\":986:991  owner */\n      0x01\n      0x00\n      swap1\n      sload\n      swap1\n      0x0100\n      exp\n      swap1\n      div\n      0xffffffffffffffffffffffffffffffffffffffff\n      and\n        /* \"contracts/p2p-lending.sol\":972:991  msg.sender == owner */\n      0xffffffffffffffffffffffffffffffffffffffff\n      and\n        /* \"contracts/p2p-lending.sol\":972:982  msg.sender */\n      caller\n        /* \"contracts/p2p-lending.sol\":972:991  msg.sender == owner */\n      0xffffffffffffffffffffffffffffffffffffffff\n      and\n      eq\n        /* \"contracts/p2p-lending.sol\":964:1029  require(msg.sender == owner, \"Only owner can call this function\") */\n      tag_100\n      jumpi\n      mload(0x40)\n      0x08c379a000000000000000000000000000000000000000000000000000000000\n      dup2\n      mstore\n      0x04\n      add\n      tag_101\n      swap1\n      tag_102\n      jump\t// in\n    tag_101:\n      mload(0x40)\n      dup1\n      swap2\n      sub\n      swap1\n      revert\n    tag_100:\n        /* \"contracts/p2p-lending.sol\":1376:1377  0 */\n      0x00\n        /* \"contracts/p2p-lending.sol\":1351:1378  _tokenAddress != address(0) */\n      0xffffffffffffffffffffffffffffffffffffffff\n      and\n        /* \"contracts/p2p-lending.sol\":1351:1364  _tokenAddress */\n      dup2\n        /* \"contracts/p2p-lending.sol\":1351:1378  _tokenAddress != address(0) */\n      0xffffffffffffffffffffffffffffffffffffffff\n      and\n      sub\n        /* \"contracts/p2p-lending.sol\":1343:1404  require(_tokenAddress != address(0), \"Invalid token address\") */\n      tag_104\n      jumpi\n      mload(0x40)\n      0x08c379a000000000000000000000000000000000000000000000000000000000\n      dup2\n      mstore\n      0x04\n      add\n      tag_105\n      swap1\n      tag_106\n      jump\t// in\n    tag_105:\n      mload(0x40)\n      dup1\n      swap2\n      sub\n      swap1\n      revert\n    tag_104:\n        /* \"contracts/p2p-lending.sol\":1443:1456  _tokenAddress */\n      dup1\n        /* \"contracts/p2p-lending.sol\":1414:1428  approvedTokens */\n      0x03\n        /* \"contracts/p2p-lending.sol\":1414:1440  approvedTokens[_tokenType] */\n      0x00\n        /* \"contracts/p2p-lending.sol\":1429:1439  _tokenType */\n      dup5\n        /* \"contracts/p2p-lending.sol\":1414:1440  approvedTokens[_tokenType] */\n      0x02\n      dup2\n      gt\n      iszero\n      tag_107\n      jumpi\n      tag_108\n      tag_48\n      jump\t// in\n    tag_108:\n    tag_107:\n      0x02\n      dup2\n      gt\n      iszero\n      tag_109\n      jumpi\n      tag_110\n      tag_48\n      jump\t// in\n    tag_110:\n    tag_109:\n      dup2\n      mstore\n      0x20\n      add\n      swap1\n      dup2\n      mstore\n      0x20\n      add\n      0x00\n      keccak256\n      0x00\n        /* \"contracts/p2p-lending.sol\":1414:1456  approvedTokens[_tokenType] = _tokenAddress */\n      0x0100\n      exp\n      dup2\n      sload\n      dup2\n      0xffffffffffffffffffffffffffffffffffffffff\n      mul\n      not\n      and\n      swap1\n      dup4\n      0xffffffffffffffffffffffffffffffffffffffff\n      and\n      mul\n      or\n      swap1\n      sstore\n      pop\n        /* \"contracts/p2p-lending.sol\":1238:1463  function setApprovedToken(CollateralType _tokenType, address _tokenAddress) external onlyOwner {... */\n      pop\n      pop\n      jump\t// out\n        /* \"@openzeppelin/contracts/security/ReentrancyGuard.sol\":2336:2623  function _nonReentrantBefore() private {... */\n    tag_41:\n        /* \"@openzeppelin/contracts/security/ReentrancyGuard.sol\":1759:1760  2 */\n      0x02\n        /* \"@openzeppelin/contracts/security/ReentrancyGuard.sol\":2468:2475  _status */\n      sload(0x00)\n        /* \"@openzeppelin/contracts/security/ReentrancyGuard.sol\":2468:2487  _status != _ENTERED */\n      sub\n        /* \"@openzeppelin/contracts/security/ReentrancyGuard.sol\":2460:2523  require(_status != _ENTERED, \"ReentrancyGuard: reentrant call\") */\n      tag_112\n      jumpi\n      mload(0x40)\n      0x08c379a000000000000000000000000000000000000000000000000000000000\n      dup2\n      mstore\n      0x04\n      add\n      tag_113\n      swap1\n      tag_114\n      jump\t// in\n    tag_113:\n      mload(0x40)\n      dup1\n      swap2\n      sub\n      swap1\n      revert\n    tag_112:\n        /* \"@openzeppelin/contracts/security/ReentrancyGuard.sol\":1759:1760  2 */\n      0x02\n        /* \"@openzeppelin/contracts/security/ReentrancyGuard.sol\":2598:2605  _status */\n      0x00\n        /* \"@openzeppelin/contracts/security/ReentrancyGuard.sol\":2598:2616  _status = _ENTERED */\n      dup2\n      swap1\n      sstore\n      pop\n        /* \"@openzeppelin/contracts/security/ReentrancyGuard.sol\":2336:2623  function _nonReentrantBefore() private {... */\n      jump\t// out\n        /* \"@openzeppelin/contracts/security/ReentrancyGuard.sol\":2629:2838  function _nonReentrantAfter() private {... */\n    tag_74:\n        /* \"@openzeppelin/contracts/security/ReentrancyGuard.sol\":1716:1717  1 */\n      0x01\n        /* \"@openzeppelin/contracts/security/ReentrancyGuard.sol\":2809:2816  _status */\n      0x00\n        /* \"@openzeppelin/contracts/security/ReentrancyGuard.sol\":2809:2831  _status = _NOT_ENTERED */\n      dup2\n      swap1\n      sstore\n      pop\n        /* \"@openzeppelin/contracts/security/ReentrancyGuard.sol\":2629:2838  function _nonReentrantAfter() private {... */\n      jump\t// out\n        /* \"#utility.yul\":88:205   */\n    tag_117:\n        /* \"#utility.yul\":197:198   */\n      0x00\n        /* \"#utility.yul\":194:195   */\n      0x00\n        /* \"#utility.yul\":187:199   */\n      revert\n        /* \"#utility.yul\":334:451   */\n    tag_119:\n        /* \"#utility.yul\":425:426   */\n      0x03\n        /* \"#utility.yul\":418:423   */\n      dup2\n        /* \"#utility.yul\":415:427   */\n      lt\n        /* \"#utility.yul\":405:445   */\n      tag_160\n      jumpi\n        /* \"#utility.yul\":441:442   */\n      0x00\n        /* \"#utility.yul\":438:439   */\n      0x00\n        /* \"#utility.yul\":431:443   */\n      revert\n        /* \"#utility.yul\":405:445   */\n    tag_160:\n        /* \"#utility.yul\":334:451   */\n      pop\n      jump\t// out\n        /* \"#utility.yul\":457:632   */\n    tag_120:\n        /* \"#utility.yul\":521:526   */\n      0x00\n        /* \"#utility.yul\":559:565   */\n      dup2\n        /* \"#utility.yul\":546:566   */\n      calldataload\n        /* \"#utility.yul\":537:566   */\n      swap1\n      pop\n        /* \"#utility.yul\":575:626   */\n      tag_162\n        /* \"#utility.yul\":620:625   */\n      dup2\n        /* \"#utility.yul\":575:626   */\n      tag_119\n      jump\t// in\n    tag_162:\n        /* \"#utility.yul\":457:632   */\n      swap3\n      swap2\n      pop\n      pop\n      jump\t// out\n        /* \"#utility.yul\":638:1003   */\n    tag_13:\n        /* \"#utility.yul\":715:721   */\n      0x00\n        /* \"#utility.yul\":764:766   */\n      0x20\n        /* \"#utility.yul\":752:761   */\n      dup3\n        /* \"#utility.yul\":743:750   */\n      dup5\n        /* \"#utility.yul\":739:762   */\n      sub\n        /* \"#utility.yul\":735:767   */\n      slt\n        /* \"#utility.yul\":732:851   */\n      iszero\n      tag_164\n      jumpi\n        /* \"#utility.yul\":770:849   */\n      tag_165\n      tag_117\n      jump\t// in\n    tag_165:\n        /* \"#utility.yul\":732:851   */\n    tag_164:\n        /* \"#utility.yul\":890:891   */\n      0x00\n        /* \"#utility.yul\":915:986   */\n      tag_166\n        /* \"#utility.yul\":978:985   */\n      dup5\n        /* \"#utility.yul\":969:975   */\n      dup3\n        /* \"#utility.yul\":958:967   */\n      dup6\n        /* \"#utility.yul\":954:976   */\n      add\n        /* \"#utility.yul\":915:986   */\n      tag_120\n      jump\t// in\n    tag_166:\n        /* \"#utility.yul\":905:986   */\n      swap2\n      pop\n        /* \"#utility.yul\":861:996   */\n      pop\n        /* \"#utility.yul\":638:1003   */\n      swap3\n      swap2\n      pop\n      pop\n      jump\t// out\n        /* \"#utility.yul\":1009:1135   */\n    tag_121:\n        /* \"#utility.yul\":1046:1053   */\n      0x00\n        /* \"#utility.yul\":1086:1128   */\n      0xffffffffffffffffffffffffffffffffffffffff\n        /* \"#utility.yul\":1079:1084   */\n      dup3\n        /* \"#utility.yul\":1075:1129   */\n      and\n        /* \"#utility.yul\":1064:1129   */\n      swap1\n      pop\n        /* \"#utility.yul\":1009:1135   */\n      swap2\n      swap1\n      pop\n      jump\t// out\n        /* \"#utility.yul\":1141:1237   */\n    tag_122:\n        /* \"#utility.yul\":1178:1185   */\n      0x00\n        /* \"#utility.yul\":1207:1231   */\n      tag_169\n        /* \"#utility.yul\":1225:1230   */\n      dup3\n        /* \"#utility.yul\":1207:1231   */\n      tag_121\n      jump\t// in\n    tag_169:\n        /* \"#utility.yul\":1196:1231   */\n      swap1\n      pop\n        /* \"#utility.yul\":1141:1237   */\n      swap2\n      swap1\n      pop\n      jump\t// out\n        /* \"#utility.yul\":1243:1361   */\n    tag_123:\n        /* \"#utility.yul\":1330:1354   */\n      tag_171\n        /* \"#utility.yul\":1348:1353   */\n      dup2\n        /* \"#utility.yul\":1330:1354   */\n      tag_122\n      jump\t// in\n    tag_171:\n        /* \"#utility.yul\":1325:1328   */\n      dup3\n        /* \"#utility.yul\":1318:1355   */\n      mstore\n        /* \"#utility.yul\":1243:1361   */\n      pop\n      pop\n      jump\t// out\n        /* \"#utility.yul\":1367:1589   */\n    tag_16:\n        /* \"#utility.yul\":1460:1464   */\n      0x00\n        /* \"#utility.yul\":1498:1500   */\n      0x20\n        /* \"#utility.yul\":1487:1496   */\n      dup3\n        /* \"#utility.yul\":1483:1501   */\n      add\n        /* \"#utility.yul\":1475:1501   */\n      swap1\n      pop\n        /* \"#utility.yul\":1511:1582   */\n      tag_173\n        /* \"#utility.yul\":1579:1580   */\n      0x00\n        /* \"#utility.yul\":1568:1577   */\n      dup4\n        /* \"#utility.yul\":1564:1581   */\n      add\n        /* \"#utility.yul\":1555:1561   */\n      dup5\n        /* \"#utility.yul\":1511:1582   */\n      tag_123\n      jump\t// in\n    tag_173:\n        /* \"#utility.yul\":1367:1589   */\n      swap3\n      swap2\n      pop\n      pop\n      jump\t// out\n        /* \"#utility.yul\":1595:1717   */\n    tag_124:\n        /* \"#utility.yul\":1668:1692   */\n      tag_175\n        /* \"#utility.yul\":1686:1691   */\n      dup2\n        /* \"#utility.yul\":1668:1692   */\n      tag_122\n      jump\t// in\n    tag_175:\n        /* \"#utility.yul\":1661:1666   */\n      dup2\n        /* \"#utility.yul\":1658:1693   */\n      eq\n        /* \"#utility.yul\":1648:1711   */\n      tag_176\n      jumpi\n        /* \"#utility.yul\":1707:1708   */\n      0x00\n        /* \"#utility.yul\":1704:1705   */\n      0x00\n        /* \"#utility.yul\":1697:1709   */\n      revert\n        /* \"#utility.yul\":1648:1711   */\n    tag_176:\n        /* \"#utility.yul\":1595:1717   */\n      pop\n      jump\t// out\n        /* \"#utility.yul\":1723:1862   */\n    tag_125:\n        /* \"#utility.yul\":1769:1774   */\n      0x00\n        /* \"#utility.yul\":1807:1813   */\n      dup2\n        /* \"#utility.yul\":1794:1814   */\n      calldataload\n        /* \"#utility.yul\":1785:1814   */\n      swap1\n      pop\n        /* \"#utility.yul\":1823:1856   */\n      tag_178\n        /* \"#utility.yul\":1850:1855   */\n      dup2\n        /* \"#utility.yul\":1823:1856   */\n      tag_124\n      jump\t// in\n    tag_178:\n        /* \"#utility.yul\":1723:1862   */\n      swap3\n      swap2\n      pop\n      pop\n      jump\t// out\n        /* \"#utility.yul\":1868:2197   */\n    tag_21:\n        /* \"#utility.yul\":1927:1933   */\n      0x00\n        /* \"#utility.yul\":1976:1978   */\n      0x20\n        /* \"#utility.yul\":1964:1973   */\n      dup3\n        /* \"#utility.yul\":1955:1962   */\n      dup5\n        /* \"#utility.yul\":1951:1974   */\n      sub\n        /* \"#utility.yul\":1947:1979   */\n      slt\n        /* \"#utility.yul\":1944:2063   */\n      iszero\n      tag_180\n      jumpi\n        /* \"#utility.yul\":1982:2061   */\n      tag_181\n      tag_117\n      jump\t// in\n    tag_181:\n        /* \"#utility.yul\":1944:2063   */\n    tag_180:\n        /* \"#utility.yul\":2102:2103   */\n      0x00\n        /* \"#utility.yul\":2127:2180   */\n      tag_182\n        /* \"#utility.yul\":2172:2179   */\n      dup5\n        /* \"#utility.yul\":2163:2169   */\n      dup3\n        /* \"#utility.yul\":2152:2161   */\n      dup6\n        /* \"#utility.yul\":2148:2170   */\n      add\n        /* \"#utility.yul\":2127:2180   */\n      tag_125\n      jump\t// in\n    tag_182:\n        /* \"#utility.yul\":2117:2180   */\n      swap2\n      pop\n        /* \"#utility.yul\":2073:2190   */\n      pop\n        /* \"#utility.yul\":1868:2197   */\n      swap3\n      swap2\n      pop\n      pop\n      jump\t// out\n        /* \"#utility.yul\":2203:2280   */\n    tag_126:\n        /* \"#utility.yul\":2240:2247   */\n      0x00\n        /* \"#utility.yul\":2269:2274   */\n      dup2\n        /* \"#utility.yul\":2258:2274   */\n      swap1\n      pop\n        /* \"#utility.yul\":2203:2280   */\n      swap2\n      swap1\n      pop\n      jump\t// out\n        /* \"#utility.yul\":2286:2404   */\n    tag_127:\n        /* \"#utility.yul\":2373:2397   */\n      tag_185\n        /* \"#utility.yul\":2391:2396   */\n      dup2\n        /* \"#utility.yul\":2373:2397   */\n      tag_126\n      jump\t// in\n    tag_185:\n        /* \"#utility.yul\":2368:2371   */\n      dup3\n        /* \"#utility.yul\":2361:2398   */\n      mstore\n        /* \"#utility.yul\":2286:2404   */\n      pop\n      pop\n      jump\t// out\n        /* \"#utility.yul\":2410:2590   */\n    tag_48:\n        /* \"#utility.yul\":2458:2535   */\n      0x4e487b7100000000000000000000000000000000000000000000000000000000\n        /* \"#utility.yul\":2455:2456   */\n      0x00\n        /* \"#utility.yul\":2448:2536   */\n      mstore\n        /* \"#utility.yul\":2555:2559   */\n      0x21\n        /* \"#utility.yul\":2552:2553   */\n      0x04\n        /* \"#utility.yul\":2545:2560   */\n      mstore\n        /* \"#utility.yul\":2579:2583   */\n      0x24\n        /* \"#utility.yul\":2576:2577   */\n      0x00\n        /* \"#utility.yul\":2569:2584   */\n      revert\n        /* \"#utility.yul\":2596:2719   */\n    tag_128:\n        /* \"#utility.yul\":2687:2688   */\n      0x03\n        /* \"#utility.yul\":2680:2685   */\n      dup2\n        /* \"#utility.yul\":2677:2689   */\n      lt\n        /* \"#utility.yul\":2667:2713   */\n      tag_188\n      jumpi\n        /* \"#utility.yul\":2693:2711   */\n      tag_189\n      tag_48\n      jump\t// in\n    tag_189:\n        /* \"#utility.yul\":2667:2713   */\n    tag_188:\n        /* \"#utility.yul\":2596:2719   */\n      pop\n      jump\t// out\n        /* \"#utility.yul\":2725:2872   */\n    tag_129:\n        /* \"#utility.yul\":2780:2787   */\n      0x00\n        /* \"#utility.yul\":2809:2814   */\n      dup2\n        /* \"#utility.yul\":2798:2814   */\n      swap1\n      pop\n        /* \"#utility.yul\":2815:2866   */\n      tag_191\n        /* \"#utility.yul\":2860:2865   */\n      dup3\n        /* \"#utility.yul\":2815:2866   */\n      tag_128\n      jump\t// in\n    tag_191:\n        /* \"#utility.yul\":2725:2872   */\n      swap2\n      swap1\n      pop\n      jump\t// out\n        /* \"#utility.yul\":2878:3025   */\n    tag_130:\n        /* \"#utility.yul\":2944:2953   */\n      0x00\n        /* \"#utility.yul\":2977:3019   */\n      tag_193\n        /* \"#utility.yul\":3013:3018   */\n      dup3\n        /* \"#utility.yul\":2977:3019   */\n      tag_129\n      jump\t// in\n    tag_193:\n        /* \"#utility.yul\":2964:3019   */\n      swap1\n      pop\n        /* \"#utility.yul\":2878:3025   */\n      swap2\n      swap1\n      pop\n      jump\t// out\n        /* \"#utility.yul\":3031:3194   */\n    tag_131:\n        /* \"#utility.yul\":3134:3187   */\n      tag_195\n        /* \"#utility.yul\":3181:3186   */\n      dup2\n        /* \"#utility.yul\":3134:3187   */\n      tag_130\n      jump\t// in\n    tag_195:\n        /* \"#utility.yul\":3129:3132   */\n      dup3\n        /* \"#utility.yul\":3122:3188   */\n      mstore\n        /* \"#utility.yul\":3031:3194   */\n      pop\n      pop\n      jump\t// out\n        /* \"#utility.yul\":3200:3564   */\n    tag_24:\n        /* \"#utility.yul\":3337:3341   */\n      0x00\n        /* \"#utility.yul\":3375:3377   */\n      0x40\n        /* \"#utility.yul\":3364:3373   */\n      dup3\n        /* \"#utility.yul\":3360:3378   */\n      add\n        /* \"#utility.yul\":3352:3378   */\n      swap1\n      pop\n        /* \"#utility.yul\":3388:3459   */\n      tag_197\n        /* \"#utility.yul\":3456:3457   */\n      0x00\n        /* \"#utility.yul\":3445:3454   */\n      dup4\n        /* \"#utility.yul\":3441:3458   */\n      add\n        /* \"#utility.yul\":3432:3438   */\n      dup6\n        /* \"#utility.yul\":3388:3459   */\n      tag_127\n      jump\t// in\n    tag_197:\n        /* \"#utility.yul\":3469:3557   */\n      tag_198\n        /* \"#utility.yul\":3553:3555   */\n      0x20\n        /* \"#utility.yul\":3542:3551   */\n      dup4\n        /* \"#utility.yul\":3538:3556   */\n      add\n        /* \"#utility.yul\":3529:3535   */\n      dup5\n        /* \"#utility.yul\":3469:3557   */\n      tag_131\n      jump\t// in\n    tag_198:\n        /* \"#utility.yul\":3200:3564   */\n      swap4\n      swap3\n      pop\n      pop\n      pop\n      jump\t// out\n        /* \"#utility.yul\":3570:3692   */\n    tag_132:\n        /* \"#utility.yul\":3643:3667   */\n      tag_200\n        /* \"#utility.yul\":3661:3666   */\n      dup2\n        /* \"#utility.yul\":3643:3667   */\n      tag_126\n      jump\t// in\n    tag_200:\n        /* \"#utility.yul\":3636:3641   */\n      dup2\n        /* \"#utility.yul\":3633:3668   */\n      eq\n        /* \"#utility.yul\":3623:3686   */\n      tag_201\n      jumpi\n        /* \"#utility.yul\":3682:3683   */\n      0x00\n        /* \"#utility.yul\":3679:3680   */\n      0x00\n        /* \"#utility.yul\":3672:3684   */\n      revert\n        /* \"#utility.yul\":3623:3686   */\n    tag_201:\n        /* \"#utility.yul\":3570:3692   */\n      pop\n      jump\t// out\n        /* \"#utility.yul\":3698:3837   */\n    tag_133:\n        /* \"#utility.yul\":3744:3749   */\n      0x00\n        /* \"#utility.yul\":3782:3788   */\n      dup2\n        /* \"#utility.yul\":3769:3789   */\n      calldataload\n        /* \"#utility.yul\":3760:3789   */\n      swap1\n      pop\n        /* \"#utility.yul\":3798:3831   */\n      tag_203\n        /* \"#utility.yul\":3825:3830   */\n      dup2\n        /* \"#utility.yul\":3798:3831   */\n      tag_132\n      jump\t// in\n    tag_203:\n        /* \"#utility.yul\":3698:3837   */\n      swap3\n      swap2\n      pop\n      pop\n      jump\t// out\n        /* \"#utility.yul\":3843:4353   */\n    tag_33:\n        /* \"#utility.yul\":3929:3935   */\n      0x00\n        /* \"#utility.yul\":3937:3943   */\n      0x00\n        /* \"#utility.yul\":3986:3988   */\n      0x40\n        /* \"#utility.yul\":3974:3983   */\n      dup4\n        /* \"#utility.yul\":3965:3972   */\n      dup6\n        /* \"#utility.yul\":3961:3984   */\n      sub\n        /* \"#utility.yul\":3957:3989   */\n      slt\n        /* \"#utility.yul\":3954:4073   */\n      iszero\n      tag_205\n      jumpi\n        /* \"#utility.yul\":3992:4071   */\n      tag_206\n      tag_117\n      jump\t// in\n    tag_206:\n        /* \"#utility.yul\":3954:4073   */\n    tag_205:\n        /* \"#utility.yul\":4112:4113   */\n      0x00\n        /* \"#utility.yul\":4137:4208   */\n      tag_207\n        /* \"#utility.yul\":4200:4207   */\n      dup6\n        /* \"#utility.yul\":4191:4197   */\n      dup3\n        /* \"#utility.yul\":4180:4189   */\n      dup7\n        /* \"#utility.yul\":4176:4198   */\n      add\n        /* \"#utility.yul\":4137:4208   */\n      tag_120\n      jump\t// in\n    tag_207:\n        /* \"#utility.yul\":4127:4208   */\n      swap3\n      pop\n        /* \"#utility.yul\":4083:4218   */\n      pop\n        /* \"#utility.yul\":4257:4259   */\n      0x20\n        /* \"#utility.yul\":4283:4336   */\n      tag_208\n        /* \"#utility.yul\":4328:4335   */\n      dup6\n        /* \"#utility.yul\":4319:4325   */\n      dup3\n        /* \"#utility.yul\":4308:4317   */\n      dup7\n        /* \"#utility.yul\":4304:4326   */\n      add\n        /* \"#utility.yul\":4283:4336   */\n      tag_133\n      jump\t// in\n    tag_208:\n        /* \"#utility.yul\":4273:4336   */\n      swap2\n      pop\n        /* \"#utility.yul\":4228:4346   */\n      pop\n        /* \"#utility.yul\":3843:4353   */\n      swap3\n      pop\n      swap3\n      swap1\n      pop\n      jump\t// out\n        /* \"#utility.yul\":4359:4869   */\n    tag_37:\n        /* \"#utility.yul\":4445:4451   */\n      0x00\n        /* \"#utility.yul\":4453:4459   */\n      0x00\n        /* \"#utility.yul\":4502:4504   */\n      0x40\n        /* \"#utility.yul\":4490:4499   */\n      dup4\n        /* \"#utility.yul\":4481:4488   */\n      dup6\n        /* \"#utility.yul\":4477:4500   */\n      sub\n        /* \"#utility.yul\":4473:4505   */\n      slt\n        /* \"#utility.yul\":4470:4589   */\n      iszero\n      tag_210\n      jumpi\n        /* \"#utility.yul\":4508:4587   */\n      tag_211\n      tag_117\n      jump\t// in\n    tag_211:\n        /* \"#utility.yul\":4470:4589   */\n    tag_210:\n        /* \"#utility.yul\":4628:4629   */\n      0x00\n        /* \"#utility.yul\":4653:4724   */\n      tag_212\n        /* \"#utility.yul\":4716:4723   */\n      dup6\n        /* \"#utility.yul\":4707:4713   */\n      dup3\n        /* \"#utility.yul\":4696:4705   */\n      dup7\n        /* \"#utility.yul\":4692:4714   */\n      add\n        /* \"#utility.yul\":4653:4724   */\n      tag_120\n      jump\t// in\n    tag_212:\n        /* \"#utility.yul\":4643:4724   */\n      swap3\n      pop\n        /* \"#utility.yul\":4599:4734   */\n      pop\n        /* \"#utility.yul\":4773:4775   */\n      0x20\n        /* \"#utility.yul\":4799:4852   */\n      tag_213\n        /* \"#utility.yul\":4844:4851   */\n      dup6\n        /* \"#utility.yul\":4835:4841   */\n      dup3\n        /* \"#utility.yul\":4824:4833   */\n      dup7\n        /* \"#utility.yul\":4820:4842   */\n      add\n        /* \"#utility.yul\":4799:4852   */\n      tag_125\n      jump\t// in\n    tag_213:\n        /* \"#utility.yul\":4789:4852   */\n      swap2\n      pop\n        /* \"#utility.yul\":4744:4862   */\n      pop\n        /* \"#utility.yul\":4359:4869   */\n      swap3\n      pop\n      swap3\n      swap1\n      pop\n      jump\t// out\n        /* \"#utility.yul\":4875:5044   */\n    tag_134:\n        /* \"#utility.yul\":4959:4970   */\n      0x00\n        /* \"#utility.yul\":4993:4999   */\n      dup3\n        /* \"#utility.yul\":4988:4991   */\n      dup3\n        /* \"#utility.yul\":4981:5000   */\n      mstore\n        /* \"#utility.yul\":5033:5037   */\n      0x20\n        /* \"#utility.yul\":5028:5031   */\n      dup3\n        /* \"#utility.yul\":5024:5038   */\n      add\n        /* \"#utility.yul\":5009:5038   */\n      swap1\n      pop\n        /* \"#utility.yul\":4875:5044   */\n      swap3\n      swap2\n      pop\n      pop\n      jump\t// out\n        /* \"#utility.yul\":5050:5225   */\n    tag_135:\n        /* \"#utility.yul\":5190:5217   */\n      0x4e6f20636f6c6c61746572616c20746f20776974686472617700000000000000\n        /* \"#utility.yul\":5186:5187   */\n      0x00\n        /* \"#utility.yul\":5178:5184   */\n      dup3\n        /* \"#utility.yul\":5174:5188   */\n      add\n        /* \"#utility.yul\":5167:5218   */\n      mstore\n        /* \"#utility.yul\":5050:5225   */\n      pop\n      jump\t// out\n        /* \"#utility.yul\":5231:5597   */\n    tag_136:\n        /* \"#utility.yul\":5373:5376   */\n      0x00\n        /* \"#utility.yul\":5394:5461   */\n      tag_217\n        /* \"#utility.yul\":5458:5460   */\n      0x19\n        /* \"#utility.yul\":5453:5456   */\n      dup4\n        /* \"#utility.yul\":5394:5461   */\n      tag_134\n      jump\t// in\n    tag_217:\n        /* \"#utility.yul\":5387:5461   */\n      swap2\n      pop\n        /* \"#utility.yul\":5470:5563   */\n      tag_218\n        /* \"#utility.yul\":5559:5562   */\n      dup3\n        /* \"#utility.yul\":5470:5563   */\n      tag_135\n      jump\t// in\n    tag_218:\n        /* \"#utility.yul\":5588:5590   */\n      0x20\n        /* \"#utility.yul\":5583:5586   */\n      dup3\n        /* \"#utility.yul\":5579:5591   */\n      add\n        /* \"#utility.yul\":5572:5591   */\n      swap1\n      pop\n        /* \"#utility.yul\":5231:5597   */\n      swap2\n      swap1\n      pop\n      jump\t// out\n        /* \"#utility.yul\":5603:6022   */\n    tag_45:\n        /* \"#utility.yul\":5769:5773   */\n      0x00\n        /* \"#utility.yul\":5807:5809   */\n      0x20\n        /* \"#utility.yul\":5796:5805   */\n      dup3\n        /* \"#utility.yul\":5792:5810   */\n      add\n        /* \"#utility.yul\":5784:5810   */\n      swap1\n      pop\n        /* \"#utility.yul\":5856:5865   */\n      dup2\n        /* \"#utility.yul\":5850:5854   */\n      dup2\n        /* \"#utility.yul\":5846:5866   */\n      sub\n        /* \"#utility.yul\":5842:5843   */\n      0x00\n        /* \"#utility.yul\":5831:5840   */\n      dup4\n        /* \"#utility.yul\":5827:5844   */\n      add\n        /* \"#utility.yul\":5820:5867   */\n      mstore\n        /* \"#utility.yul\":5884:6015   */\n      tag_220\n        /* \"#utility.yul\":6010:6014   */\n      dup2\n        /* \"#utility.yul\":5884:6015   */\n      tag_136\n      jump\t// in\n    tag_220:\n        /* \"#utility.yul\":5876:6015   */\n      swap1\n      pop\n        /* \"#utility.yul\":5603:6022   */\n      swap2\n      swap1\n      pop\n      jump\t// out\n        /* \"#utility.yul\":6028:6202   */\n    tag_137:\n        /* \"#utility.yul\":6168:6194   */\n      0x496e76616c696420636f6c6c61746572616c20746f6b656e0000000000000000\n        /* \"#utility.yul\":6164:6165   */\n      0x00\n        /* \"#utility.yul\":6156:6162   */\n      dup3\n        /* \"#utility.yul\":6152:6166   */\n      add\n        /* \"#utility.yul\":6145:6195   */\n      mstore\n        /* \"#utility.yul\":6028:6202   */\n      pop\n      jump\t// out\n        /* \"#utility.yul\":6208:6574   */\n    tag_138:\n        /* \"#utility.yul\":6350:6353   */\n      0x00\n        /* \"#utility.yul\":6371:6438   */\n      tag_223\n        /* \"#utility.yul\":6435:6437   */\n      0x18\n        /* \"#utility.yul\":6430:6433   */\n      dup4\n        /* \"#utility.yul\":6371:6438   */\n      tag_134\n      jump\t// in\n    tag_223:\n        /* \"#utility.yul\":6364:6438   */\n      swap2\n      pop\n        /* \"#utility.yul\":6447:6540   */\n      tag_224\n        /* \"#utility.yul\":6536:6539   */\n      dup3\n        /* \"#utility.yul\":6447:6540   */\n      tag_137\n      jump\t// in\n    tag_224:\n        /* \"#utility.yul\":6565:6567   */\n      0x20\n        /* \"#utility.yul\":6560:6563   */\n      dup3\n        /* \"#utility.yul\":6556:6568   */\n      add\n        /* \"#utility.yul\":6549:6568   */\n      swap1\n      pop\n        /* \"#utility.yul\":6208:6574   */\n      swap2\n      swap1\n      pop\n      jump\t// out\n        /* \"#utility.yul\":6580:6999   */\n    tag_53:\n        /* \"#utility.yul\":6746:6750   */\n      0x00\n        /* \"#utility.yul\":6784:6786   */\n      0x20\n        /* \"#utility.yul\":6773:6782   */\n      dup3\n        /* \"#utility.yul\":6769:6787   */\n      add\n        /* \"#utility.yul\":6761:6787   */\n      swap1\n      pop\n        /* \"#utility.yul\":6833:6842   */\n      dup2\n        /* \"#utility.yul\":6827:6831   */\n      dup2\n        /* \"#utility.yul\":6823:6843   */\n      sub\n        /* \"#utility.yul\":6819:6820   */\n      0x00\n        /* \"#utility.yul\":6808:6817   */\n      dup4\n        /* \"#utility.yul\":6804:6821   */\n      add\n        /* \"#utility.yul\":6797:6844   */\n      mstore\n        /* \"#utility.yul\":6861:6992   */\n      tag_226\n        /* \"#utility.yul\":6987:6991   */\n      dup2\n        /* \"#utility.yul\":6861:6992   */\n      tag_138\n      jump\t// in\n    tag_226:\n        /* \"#utility.yul\":6853:6992   */\n      swap1\n      pop\n        /* \"#utility.yul\":6580:6999   */\n      swap2\n      swap1\n      pop\n      jump\t// out\n        /* \"#utility.yul\":7005:7148   */\n    tag_139:\n        /* \"#utility.yul\":7062:7067   */\n      0x00\n        /* \"#utility.yul\":7093:7099   */\n      dup2\n        /* \"#utility.yul\":7087:7100   */\n      mload\n        /* \"#utility.yul\":7078:7100   */\n      swap1\n      pop\n        /* \"#utility.yul\":7109:7142   */\n      tag_228\n        /* \"#utility.yul\":7136:7141   */\n      dup2\n        /* \"#utility.yul\":7109:7142   */\n      tag_132\n      jump\t// in\n    tag_228:\n        /* \"#utility.yul\":7005:7148   */\n      swap3\n      swap2\n      pop\n      pop\n      jump\t// out\n        /* \"#utility.yul\":7154:7505   */\n    tag_58:\n        /* \"#utility.yul\":7224:7230   */\n      0x00\n        /* \"#utility.yul\":7273:7275   */\n      0x20\n        /* \"#utility.yul\":7261:7270   */\n      dup3\n        /* \"#utility.yul\":7252:7259   */\n      dup5\n        /* \"#utility.yul\":7248:7271   */\n      sub\n        /* \"#utility.yul\":7244:7276   */\n      slt\n        /* \"#utility.yul\":7241:7360   */\n      iszero\n      tag_230\n      jumpi\n        /* \"#utility.yul\":7279:7358   */\n      tag_231\n      tag_117\n      jump\t// in\n    tag_231:\n        /* \"#utility.yul\":7241:7360   */\n    tag_230:\n        /* \"#utility.yul\":7399:7400   */\n      0x00\n        /* \"#utility.yul\":7424:7488   */\n      tag_232\n        /* \"#utility.yul\":7480:7487   */\n      dup5\n        /* \"#utility.yul\":7471:7477   */\n      dup3\n        /* \"#utility.yul\":7460:7469   */\n      dup6\n        /* \"#utility.yul\":7456:7478   */\n      add\n        /* \"#utility.yul\":7424:7488   */\n      tag_139\n      jump\t// in\n    tag_232:\n        /* \"#utility.yul\":7414:7488   */\n      swap2\n      pop\n        /* \"#utility.yul\":7370:7498   */\n      pop\n        /* \"#utility.yul\":7154:7505   */\n      swap3\n      swap2\n      pop\n      pop\n      jump\t// out\n        /* \"#utility.yul\":7511:7736   */\n    tag_140:\n        /* \"#utility.yul\":7651:7685   */\n      0x457363726f772077616c6c65742068617320696e73756666696369656e742062\n        /* \"#utility.yul\":7647:7648   */\n      0x00\n        /* \"#utility.yul\":7639:7645   */\n      dup3\n        /* \"#utility.yul\":7635:7649   */\n      add\n        /* \"#utility.yul\":7628:7686   */\n      mstore\n        /* \"#utility.yul\":7720:7728   */\n      0x616c616e63650000000000000000000000000000000000000000000000000000\n        /* \"#utility.yul\":7715:7717   */\n      0x20\n        /* \"#utility.yul\":7707:7713   */\n      dup3\n        /* \"#utility.yul\":7703:7718   */\n      add\n        /* \"#utility.yul\":7696:7729   */\n      mstore\n        /* \"#utility.yul\":7511:7736   */\n      pop\n      jump\t// out\n        /* \"#utility.yul\":7742:8108   */\n    tag_141:\n        /* \"#utility.yul\":7884:7887   */\n      0x00\n        /* \"#utility.yul\":7905:7972   */\n      tag_235\n        /* \"#utility.yul\":7969:7971   */\n      0x26\n        /* \"#utility.yul\":7964:7967   */\n      dup4\n        /* \"#utility.yul\":7905:7972   */\n      tag_134\n      jump\t// in\n    tag_235:\n        /* \"#utility.yul\":7898:7972   */\n      swap2\n      pop\n        /* \"#utility.yul\":7981:8074   */\n      tag_236\n        /* \"#utility.yul\":8070:8073   */\n      dup3\n        /* \"#utility.yul\":7981:8074   */\n      tag_140\n      jump\t// in\n    tag_236:\n        /* \"#utility.yul\":8099:8101   */\n      0x40\n        /* \"#utility.yul\":8094:8097   */\n      dup3\n        /* \"#utility.yul\":8090:8102   */\n      add\n        /* \"#utility.yul\":8083:8102   */\n      swap1\n      pop\n        /* \"#utility.yul\":7742:8108   */\n      swap2\n      swap1\n      pop\n      jump\t// out\n        /* \"#utility.yul\":8114:8533   */\n    tag_61:\n        /* \"#utility.yul\":8280:8284   */\n      0x00\n        /* \"#utility.yul\":8318:8320   */\n      0x20\n        /* \"#utility.yul\":8307:8316   */\n      dup3\n        /* \"#utility.yul\":8303:8321   */\n      add\n        /* \"#utility.yul\":8295:8321   */\n      swap1\n      pop\n        /* \"#utility.yul\":8367:8376   */\n      dup2\n        /* \"#utility.yul\":8361:8365   */\n      dup2\n        /* \"#utility.yul\":8357:8377   */\n      sub\n        /* \"#utility.yul\":8353:8354   */\n      0x00\n        /* \"#utility.yul\":8342:8351   */\n      dup4\n        /* \"#utility.yul\":8338:8355   */\n      add\n        /* \"#utility.yul\":8331:8378   */\n      mstore\n        /* \"#utility.yul\":8395:8526   */\n      tag_238\n        /* \"#utility.yul\":8521:8525   */\n      dup2\n        /* \"#utility.yul\":8395:8526   */\n      tag_141\n      jump\t// in\n    tag_238:\n        /* \"#utility.yul\":8387:8526   */\n      swap1\n      pop\n        /* \"#utility.yul\":8114:8533   */\n      swap2\n      swap1\n      pop\n      jump\t// out\n        /* \"#utility.yul\":8539:8981   */\n    tag_63:\n        /* \"#utility.yul\":8688:8692   */\n      0x00\n        /* \"#utility.yul\":8726:8728   */\n      0x60\n        /* \"#utility.yul\":8715:8724   */\n      dup3\n        /* \"#utility.yul\":8711:8729   */\n      add\n        /* \"#utility.yul\":8703:8729   */\n      swap1\n      pop\n        /* \"#utility.yul\":8739:8810   */\n      tag_240\n        /* \"#utility.yul\":8807:8808   */\n      0x00\n        /* \"#utility.yul\":8796:8805   */\n      dup4\n        /* \"#utility.yul\":8792:8809   */\n      add\n        /* \"#utility.yul\":8783:8789   */\n      dup7\n        /* \"#utility.yul\":8739:8810   */\n      tag_123\n      jump\t// in\n    tag_240:\n        /* \"#utility.yul\":8820:8892   */\n      tag_241\n        /* \"#utility.yul\":8888:8890   */\n      0x20\n        /* \"#utility.yul\":8877:8886   */\n      dup4\n        /* \"#utility.yul\":8873:8891   */\n      add\n        /* \"#utility.yul\":8864:8870   */\n      dup6\n        /* \"#utility.yul\":8820:8892   */\n      tag_123\n      jump\t// in\n    tag_241:\n        /* \"#utility.yul\":8902:8974   */\n      tag_242\n        /* \"#utility.yul\":8970:8972   */\n      0x40\n        /* \"#utility.yul\":8959:8968   */\n      dup4\n        /* \"#utility.yul\":8955:8973   */\n      add\n        /* \"#utility.yul\":8946:8952   */\n      dup5\n        /* \"#utility.yul\":8902:8974   */\n      tag_127\n      jump\t// in\n    tag_242:\n        /* \"#utility.yul\":8539:8981   */\n      swap5\n      swap4\n      pop\n      pop\n      pop\n      pop\n      jump\t// out\n        /* \"#utility.yul\":8987:9077   */\n    tag_142:\n        /* \"#utility.yul\":9021:9028   */\n      0x00\n        /* \"#utility.yul\":9064:9069   */\n      dup2\n        /* \"#utility.yul\":9057:9070   */\n      iszero\n        /* \"#utility.yul\":9050:9071   */\n      iszero\n        /* \"#utility.yul\":9039:9071   */\n      swap1\n      pop\n        /* \"#utility.yul\":8987:9077   */\n      swap2\n      swap1\n      pop\n      jump\t// out\n        /* \"#utility.yul\":9083:9199   */\n    tag_143:\n        /* \"#utility.yul\":9153:9174   */\n      tag_245\n        /* \"#utility.yul\":9168:9173   */\n      dup2\n        /* \"#utility.yul\":9153:9174   */\n      tag_142\n      jump\t// in\n    tag_245:\n        /* \"#utility.yul\":9146:9151   */\n      dup2\n        /* \"#utility.yul\":9143:9175   */\n      eq\n        /* \"#utility.yul\":9133:9193   */\n      tag_246\n      jumpi\n        /* \"#utility.yul\":9189:9190   */\n      0x00\n        /* \"#utility.yul\":9186:9187   */\n      0x00\n        /* \"#utility.yul\":9179:9191   */\n      revert\n        /* \"#utility.yul\":9133:9193   */\n    tag_246:\n        /* \"#utility.yul\":9083:9199   */\n      pop\n      jump\t// out\n        /* \"#utility.yul\":9205:9342   */\n    tag_144:\n        /* \"#utility.yul\":9259:9264   */\n      0x00\n        /* \"#utility.yul\":9290:9296   */\n      dup2\n        /* \"#utility.yul\":9284:9297   */\n      mload\n        /* \"#utility.yul\":9275:9297   */\n      swap1\n      pop\n        /* \"#utility.yul\":9306:9336   */\n      tag_248\n        /* \"#utility.yul\":9330:9335   */\n      dup2\n        /* \"#utility.yul\":9306:9336   */\n      tag_143\n      jump\t// in\n    tag_248:\n        /* \"#utility.yul\":9205:9342   */\n      swap3\n      swap2\n      pop\n      pop\n      jump\t// out\n        /* \"#utility.yul\":9348:9693   */\n    tag_67:\n        /* \"#utility.yul\":9415:9421   */\n      0x00\n        /* \"#utility.yul\":9464:9466   */\n      0x20\n        /* \"#utility.yul\":9452:9461   */\n      dup3\n        /* \"#utility.yul\":9443:9450   */\n      dup5\n        /* \"#utility.yul\":9439:9462   */\n      sub\n        /* \"#utility.yul\":9435:9467   */\n      slt\n        /* \"#utility.yul\":9432:9551   */\n      iszero\n      tag_250\n      jumpi\n        /* \"#utility.yul\":9470:9549   */\n      tag_251\n      tag_117\n      jump\t// in\n    tag_251:\n        /* \"#utility.yul\":9432:9551   */\n    tag_250:\n        /* \"#utility.yul\":9590:9591   */\n      0x00\n        /* \"#utility.yul\":9615:9676   */\n      tag_252\n        /* \"#utility.yul\":9668:9675   */\n      dup5\n        /* \"#utility.yul\":9659:9665   */\n      dup3\n        /* \"#utility.yul\":9648:9657   */\n      dup6\n        /* \"#utility.yul\":9644:9666   */\n      add\n        /* \"#utility.yul\":9615:9676   */\n      tag_144\n      jump\t// in\n    tag_252:\n        /* \"#utility.yul\":9605:9676   */\n      swap2\n      pop\n        /* \"#utility.yul\":9561:9686   */\n      pop\n        /* \"#utility.yul\":9348:9693   */\n      swap3\n      swap2\n      pop\n      pop\n      jump\t// out\n        /* \"#utility.yul\":9699:9870   */\n    tag_145:\n        /* \"#utility.yul\":9839:9862   */\n      0x546f6b656e207472616e73666572206661696c65640000000000000000000000\n        /* \"#utility.yul\":9835:9836   */\n      0x00\n        /* \"#utility.yul\":9827:9833   */\n      dup3\n        /* \"#utility.yul\":9823:9837   */\n      add\n        /* \"#utility.yul\":9816:9863   */\n      mstore\n        /* \"#utility.yul\":9699:9870   */\n      pop\n      jump\t// out\n        /* \"#utility.yul\":9876:10242   */\n    tag_146:\n        /* \"#utility.yul\":10018:10021   */\n      0x00\n        /* \"#utility.yul\":10039:10106   */\n      tag_255\n        /* \"#utility.yul\":10103:10105   */\n      0x15\n        /* \"#utility.yul\":10098:10101   */\n      dup4\n        /* \"#utility.yul\":10039:10106   */\n      tag_134\n      jump\t// in\n    tag_255:\n        /* \"#utility.yul\":10032:10106   */\n      swap2\n      pop\n        /* \"#utility.yul\":10115:10208   */\n      tag_256\n        /* \"#utility.yul\":10204:10207   */\n      dup3\n        /* \"#utility.yul\":10115:10208   */\n      tag_145\n      jump\t// in\n    tag_256:\n        /* \"#utility.yul\":10233:10235   */\n      0x20\n        /* \"#utility.yul\":10228:10231   */\n      dup3\n        /* \"#utility.yul\":10224:10236   */\n      add\n        /* \"#utility.yul\":10217:10236   */\n      swap1\n      pop\n        /* \"#utility.yul\":9876:10242   */\n      swap2\n      swap1\n      pop\n      jump\t// out\n        /* \"#utility.yul\":10248:10667   */\n    tag_70:\n        /* \"#utility.yul\":10414:10418   */\n      0x00\n        /* \"#utility.yul\":10452:10454   */\n      0x20\n        /* \"#utility.yul\":10441:10450   */\n      dup3\n        /* \"#utility.yul\":10437:10455   */\n      add\n        /* \"#utility.yul\":10429:10455   */\n      swap1\n      pop\n        /* \"#utility.yul\":10501:10510   */\n      dup2\n        /* \"#utility.yul\":10495:10499   */\n      dup2\n        /* \"#utility.yul\":10491:10511   */\n      sub\n        /* \"#utility.yul\":10487:10488   */\n      0x00\n        /* \"#utility.yul\":10476:10485   */\n      dup4\n        /* \"#utility.yul\":10472:10489   */\n      add\n        /* \"#utility.yul\":10465:10512   */\n      mstore\n        /* \"#utility.yul\":10529:10660   */\n      tag_258\n        /* \"#utility.yul\":10655:10659   */\n      dup2\n        /* \"#utility.yul\":10529:10660   */\n      tag_146\n      jump\t// in\n    tag_258:\n        /* \"#utility.yul\":10521:10660   */\n      swap1\n      pop\n        /* \"#utility.yul\":10248:10667   */\n      swap2\n      swap1\n      pop\n      jump\t// out\n        /* \"#utility.yul\":10673:11037   */\n    tag_72:\n        /* \"#utility.yul\":10810:10814   */\n      0x00\n        /* \"#utility.yul\":10848:10850   */\n      0x40\n        /* \"#utility.yul\":10837:10846   */\n      dup3\n        /* \"#utility.yul\":10833:10851   */\n      add\n        /* \"#utility.yul\":10825:10851   */\n      swap1\n      pop\n        /* \"#utility.yul\":10861:10948   */\n      tag_260\n        /* \"#utility.yul\":10945:10946   */\n      0x00\n        /* \"#utility.yul\":10934:10943   */\n      dup4\n        /* \"#utility.yul\":10930:10947   */\n      add\n        /* \"#utility.yul\":10921:10927   */\n      dup6\n        /* \"#utility.yul\":10861:10948   */\n      tag_131\n      jump\t// in\n    tag_260:\n        /* \"#utility.yul\":10958:11030   */\n      tag_261\n        /* \"#utility.yul\":11026:11028   */\n      0x20\n        /* \"#utility.yul\":11015:11024   */\n      dup4\n        /* \"#utility.yul\":11011:11029   */\n      add\n        /* \"#utility.yul\":11002:11008   */\n      dup5\n        /* \"#utility.yul\":10958:11030   */\n      tag_127\n      jump\t// in\n    tag_261:\n        /* \"#utility.yul\":10673:11037   */\n      swap4\n      swap3\n      pop\n      pop\n      pop\n      jump\t// out\n        /* \"#utility.yul\":11043:11273   */\n    tag_147:\n        /* \"#utility.yul\":11183:11217   */\n      0x436f6c6c61746572616c20616d6f756e74206d75737420626520677265617465\n        /* \"#utility.yul\":11179:11180   */\n      0x00\n        /* \"#utility.yul\":11171:11177   */\n      dup3\n        /* \"#utility.yul\":11167:11181   */\n      add\n        /* \"#utility.yul\":11160:11218   */\n      mstore\n        /* \"#utility.yul\":11252:11265   */\n      0x72207468616e207a65726f000000000000000000000000000000000000000000\n        /* \"#utility.yul\":11247:11249   */\n      0x20\n        /* \"#utility.yul\":11239:11245   */\n      dup3\n        /* \"#utility.yul\":11235:11250   */\n      add\n        /* \"#utility.yul\":11228:11266   */\n      mstore\n        /* \"#utility.yul\":11043:11273   */\n      pop\n      jump\t// out\n        /* \"#utility.yul\":11279:11645   */\n    tag_148:\n        /* \"#utility.yul\":11421:11424   */\n      0x00\n        /* \"#utility.yul\":11442:11509   */\n      tag_264\n        /* \"#utility.yul\":11506:11508   */\n      0x2b\n        /* \"#utility.yul\":11501:11504   */\n      dup4\n        /* \"#utility.yul\":11442:11509   */\n      tag_134\n      jump\t// in\n    tag_264:\n        /* \"#utility.yul\":11435:11509   */\n      swap2\n      pop\n        /* \"#utility.yul\":11518:11611   */\n      tag_265\n        /* \"#utility.yul\":11607:11610   */\n      dup3\n        /* \"#utility.yul\":11518:11611   */\n      tag_147\n      jump\t// in\n    tag_265:\n        /* \"#utility.yul\":11636:11638   */\n      0x40\n        /* \"#utility.yul\":11631:11634   */\n      dup3\n        /* \"#utility.yul\":11627:11639   */\n      add\n        /* \"#utility.yul\":11620:11639   */\n      swap1\n      pop\n        /* \"#utility.yul\":11279:11645   */\n      swap2\n      swap1\n      pop\n      jump\t// out\n        /* \"#utility.yul\":11651:12070   */\n    tag_80:\n        /* \"#utility.yul\":11817:11821   */\n      0x00\n        /* \"#utility.yul\":11855:11857   */\n      0x20\n        /* \"#utility.yul\":11844:11853   */\n      dup3\n        /* \"#utility.yul\":11840:11858   */\n      add\n        /* \"#utility.yul\":11832:11858   */\n      swap1\n      pop\n        /* \"#utility.yul\":11904:11913   */\n      dup2\n        /* \"#utility.yul\":11898:11902   */\n      dup2\n        /* \"#utility.yul\":11894:11914   */\n      sub\n        /* \"#utility.yul\":11890:11891   */\n      0x00\n        /* \"#utility.yul\":11879:11888   */\n      dup4\n        /* \"#utility.yul\":11875:11892   */\n      add\n        /* \"#utility.yul\":11868:11915   */\n      mstore\n        /* \"#utility.yul\":11932:12063   */\n      tag_267\n        /* \"#utility.yul\":12058:12062   */\n      dup2\n        /* \"#utility.yul\":11932:12063   */\n      tag_148\n      jump\t// in\n    tag_267:\n        /* \"#utility.yul\":11924:12063   */\n      swap1\n      pop\n        /* \"#utility.yul\":11651:12070   */\n      swap2\n      swap1\n      pop\n      jump\t// out\n        /* \"#utility.yul\":12076:12296   */\n    tag_149:\n        /* \"#utility.yul\":12216:12250   */\n      0x4f6e6c79206f776e65722063616e2063616c6c20746869732066756e6374696f\n        /* \"#utility.yul\":12212:12213   */\n      0x00\n        /* \"#utility.yul\":12204:12210   */\n      dup3\n        /* \"#utility.yul\":12200:12214   */\n      add\n        /* \"#utility.yul\":12193:12251   */\n      mstore\n        /* \"#utility.yul\":12285:12288   */\n      0x6e00000000000000000000000000000000000000000000000000000000000000\n        /* \"#utility.yul\":12280:12282   */\n      0x20\n        /* \"#utility.yul\":12272:12278   */\n      dup3\n        /* \"#utility.yul\":12268:12283   */\n      add\n        /* \"#utility.yul\":12261:12289   */\n      mstore\n        /* \"#utility.yul\":12076:12296   */\n      pop\n      jump\t// out\n        /* \"#utility.yul\":12302:12668   */\n    tag_150:\n        /* \"#utility.yul\":12444:12447   */\n      0x00\n        /* \"#utility.yul\":12465:12532   */\n      tag_270\n        /* \"#utility.yul\":12529:12531   */\n      0x21\n        /* \"#utility.yul\":12524:12527   */\n      dup4\n        /* \"#utility.yul\":12465:12532   */\n      tag_134\n      jump\t// in\n    tag_270:\n        /* \"#utility.yul\":12458:12532   */\n      swap2\n      pop\n        /* \"#utility.yul\":12541:12634   */\n      tag_271\n        /* \"#utility.yul\":12630:12633   */\n      dup3\n        /* \"#utility.yul\":12541:12634   */\n      tag_149\n      jump\t// in\n    tag_271:\n        /* \"#utility.yul\":12659:12661   */\n      0x40\n        /* \"#utility.yul\":12654:12657   */\n      dup3\n        /* \"#utility.yul\":12650:12662   */\n      add\n        /* \"#utility.yul\":12643:12662   */\n      swap1\n      pop\n        /* \"#utility.yul\":12302:12668   */\n      swap2\n      swap1\n      pop\n      jump\t// out\n        /* \"#utility.yul\":12674:13093   */\n    tag_102:\n        /* \"#utility.yul\":12840:12844   */\n      0x00\n        /* \"#utility.yul\":12878:12880   */\n      0x20\n        /* \"#utility.yul\":12867:12876   */\n      dup3\n        /* \"#utility.yul\":12863:12881   */\n      add\n        /* \"#utility.yul\":12855:12881   */\n      swap1\n      pop\n        /* \"#utility.yul\":12927:12936   */\n      dup2\n        /* \"#utility.yul\":12921:12925   */\n      dup2\n        /* \"#utility.yul\":12917:12937   */\n      sub\n        /* \"#utility.yul\":12913:12914   */\n      0x00\n        /* \"#utility.yul\":12902:12911   */\n      dup4\n        /* \"#utility.yul\":12898:12915   */\n      add\n        /* \"#utility.yul\":12891:12938   */\n      mstore\n        /* \"#utility.yul\":12955:13086   */\n      tag_273\n        /* \"#utility.yul\":13081:13085   */\n      dup2\n        /* \"#utility.yul\":12955:13086   */\n      tag_150\n      jump\t// in\n    tag_273:\n        /* \"#utility.yul\":12947:13086   */\n      swap1\n      pop\n        /* \"#utility.yul\":12674:13093   */\n      swap2\n      swap1\n      pop\n      jump\t// out\n        /* \"#utility.yul\":13099:13270   */\n    tag_151:\n        /* \"#utility.yul\":13239:13262   */\n      0x496e76616c696420746f6b656e20616464726573730000000000000000000000\n        /* \"#utility.yul\":13235:13236   */\n      0x00\n        /* \"#utility.yul\":13227:13233   */\n      dup3\n        /* \"#utility.yul\":13223:13237   */\n      add\n        /* \"#utility.yul\":13216:13263   */\n      mstore\n        /* \"#utility.yul\":13099:13270   */\n      pop\n      jump\t// out\n        /* \"#utility.yul\":13276:13642   */\n    tag_152:\n        /* \"#utility.yul\":13418:13421   */\n      0x00\n        /* \"#utility.yul\":13439:13506   */\n      tag_276\n        /* \"#utility.yul\":13503:13505   */\n      0x15\n        /* \"#utility.yul\":13498:13501   */\n      dup4\n        /* \"#utility.yul\":13439:13506   */\n      tag_134\n      jump\t// in\n    tag_276:\n        /* \"#utility.yul\":13432:13506   */\n      swap2\n      pop\n        /* \"#utility.yul\":13515:13608   */\n      tag_277\n        /* \"#utility.yul\":13604:13607   */\n      dup3\n        /* \"#utility.yul\":13515:13608   */\n      tag_151\n      jump\t// in\n    tag_277:\n        /* \"#utility.yul\":13633:13635   */\n      0x20\n        /* \"#utility.yul\":13628:13631   */\n      dup3\n        /* \"#utility.yul\":13624:13636   */\n      add\n        /* \"#utility.yul\":13617:13636   */\n      swap1\n      pop\n        /* \"#utility.yul\":13276:13642   */\n      swap2\n      swap1\n      pop\n      jump\t// out\n        /* \"#utility.yul\":13648:14067   */\n    tag_106:\n        /* \"#utility.yul\":13814:13818   */\n      0x00\n        /* \"#utility.yul\":13852:13854   */\n      0x20\n        /* \"#utility.yul\":13841:13850   */\n      dup3\n        /* \"#utility.yul\":13837:13855   */\n      add\n        /* \"#utility.yul\":13829:13855   */\n      swap1\n      pop\n        /* \"#utility.yul\":13901:13910   */\n      dup2\n        /* \"#utility.yul\":13895:13899   */\n      dup2\n        /* \"#utility.yul\":13891:13911   */\n      sub\n        /* \"#utility.yul\":13887:13888   */\n      0x00\n        /* \"#utility.yul\":13876:13885   */\n      dup4\n        /* \"#utility.yul\":13872:13889   */\n      add\n        /* \"#utility.yul\":13865:13912   */\n      mstore\n        /* \"#utility.yul\":13929:14060   */\n      tag_279\n        /* \"#utility.yul\":14055:14059   */\n      dup2\n        /* \"#utility.yul\":13929:14060   */\n      tag_152\n      jump\t// in\n    tag_279:\n        /* \"#utility.yul\":13921:14060   */\n      swap1\n      pop\n        /* \"#utility.yul\":13648:14067   */\n      swap2\n      swap1\n      pop\n      jump\t// out\n        /* \"#utility.yul\":14073:14254   */\n    tag_153:\n        /* \"#utility.yul\":14213:14246   */\n      0x5265656e7472616e637947756172643a207265656e7472616e742063616c6c00\n        /* \"#utility.yul\":14209:14210   */\n      0x00\n        /* \"#utility.yul\":14201:14207   */\n      dup3\n        /* \"#utility.yul\":14197:14211   */\n      add\n        /* \"#utility.yul\":14190:14247   */\n      mstore\n        /* \"#utility.yul\":14073:14254   */\n      pop\n      jump\t// out\n        /* \"#utility.yul\":14260:14626   */\n    tag_154:\n        /* \"#utility.yul\":14402:14405   */\n      0x00\n        /* \"#utility.yul\":14423:14490   */\n      tag_282\n        /* \"#utility.yul\":14487:14489   */\n      0x1f\n        /* \"#utility.yul\":14482:14485   */\n      dup4\n        /* \"#utility.yul\":14423:14490   */\n      tag_134\n      jump\t// in\n    tag_282:\n        /* \"#utility.yul\":14416:14490   */\n      swap2\n      pop\n        /* \"#utility.yul\":14499:14592   */\n      tag_283\n        /* \"#utility.yul\":14588:14591   */\n      dup3\n        /* \"#utility.yul\":14499:14592   */\n      tag_153\n      jump\t// in\n    tag_283:\n        /* \"#utility.yul\":14617:14619   */\n      0x20\n        /* \"#utility.yul\":14612:14615   */\n      dup3\n        /* \"#utility.yul\":14608:14620   */\n      add\n        /* \"#utility.yul\":14601:14620   */\n      swap1\n      pop\n        /* \"#utility.yul\":14260:14626   */\n      swap2\n      swap1\n      pop\n      jump\t// out\n        /* \"#utility.yul\":14632:15051   */\n    tag_114:\n        /* \"#utility.yul\":14798:14802   */\n      0x00\n        /* \"#utility.yul\":14836:14838   */\n      0x20\n        /* \"#utility.yul\":14825:14834   */\n      dup3\n        /* \"#utility.yul\":14821:14839   */\n      add\n        /* \"#utility.yul\":14813:14839   */\n      swap1\n      pop\n        /* \"#utility.yul\":14885:14894   */\n      dup2\n        /* \"#utility.yul\":14879:14883   */\n      dup2\n        /* \"#utility.yul\":14875:14895   */\n      sub\n        /* \"#utility.yul\":14871:14872   */\n      0x00\n        /* \"#utility.yul\":14860:14869   */\n      dup4\n        /* \"#utility.yul\":14856:14873   */\n      add\n        /* \"#utility.yul\":14849:14896   */\n      mstore\n        /* \"#utility.yul\":14913:15044   */\n      tag_285\n        /* \"#utility.yul\":15039:15043   */\n      dup2\n        /* \"#utility.yul\":14913:15044   */\n      tag_154\n      jump\t// in\n    tag_285:\n        /* \"#utility.yul\":14905:15044   */\n      swap1\n      pop\n        /* \"#utility.yul\":14632:15051   */\n      swap2\n      swap1\n      pop\n      jump\t// out\n\n    auxdata: 0xa264697066735822122091a1447629de4eb6d2daa172483c099f21b0d59767fcd9c7224d2185f7c8378664736f6c634300081b0033\n}\n",
				"bytecode": {
					"linkReferences": {},
					"object": "608060405234801561000f575f5ffd5b506040516113e03803806113e08339818101604052810190610031919061018a565b60015f819055505f73ffffffffffffffffffffffffffffffffffffffff168173ffffffffffffffffffffffffffffffffffffffff16036100a6576040517f08c379a000000000000000000000000000000000000000000000000000000000815260040161009d9061020f565b60405180910390fd5b3360015f6101000a81548173ffffffffffffffffffffffffffffffffffffffff021916908373ffffffffffffffffffffffffffffffffffffffff1602179055508060025f6101000a81548173ffffffffffffffffffffffffffffffffffffffff021916908373ffffffffffffffffffffffffffffffffffffffff1602179055505061022d565b5f5ffd5b5f73ffffffffffffffffffffffffffffffffffffffff82169050919050565b5f61015982610130565b9050919050565b6101698161014f565b8114610173575f5ffd5b50565b5f8151905061018481610160565b92915050565b5f6020828403121561019f5761019e61012c565b5b5f6101ac84828501610176565b91505092915050565b5f82825260208201905092915050565b7f496e76616c696420657363726f772077616c6c657400000000000000000000005f82015250565b5f6101f96015836101b5565b9150610204826101c5565b602082019050919050565b5f6020820190508181035f830152610226816101ed565b9050919050565b6111a68061023a5f395ff3fe608060405234801561000f575f5ffd5b506004361061007b575f3560e01c80638da5cb5b116100595780638da5cb5b146100ea57806392d3be7914610108578063b059d5c214610126578063d95a5aea146101425761007b565b8063429ae2361461007f57806359c153be146100af578063771568fd146100b9575b5f5ffd5b61009960048036038101906100949190610a83565b61015e565b6040516100a69190610aed565b60405180910390f35b6100b761018e565b005b6100d360048036038101906100ce9190610b30565b61052f565b6040516100e1929190610be6565b60405180910390f35b6100f261055b565b6040516100ff9190610aed565b60405180910390f35b610110610580565b60405161011d9190610aed565b60405180910390f35b610140600480360381019061013b9190610c37565b6105a5565b005b61015c60048036038101906101579190610c75565b610892565b005b6003602052805f5260405f205f915054906101000a900473ffffffffffffffffffffffffffffffffffffffff1681565b610196610a06565b5f60045f3373ffffffffffffffffffffffffffffffffffffffff1673ffffffffffffffffffffffffffffffffffffffff1681526020019081526020015f2090505f815f01541161021b576040517f08c379a000000000000000000000000000000000000000000000000000000000815260040161021290610d0d565b60405180910390fd5b5f60035f836001015f9054906101000a900460ff16600281111561024257610241610b73565b5b600281111561025457610253610b73565b5b81526020019081526020015f205f9054906101000a900473ffffffffffffffffffffffffffffffffffffffff1690505f73ffffffffffffffffffffffffffffffffffffffff168173ffffffffffffffffffffffffffffffffffffffff16036102f1576040517f08c379a00000000000000000000000000000000000000000000000000000000081526004016102e890610d75565b60405180910390fd5b5f825f015490505f835f01819055505f8273ffffffffffffffffffffffffffffffffffffffff166370a0823160025f9054906101000a900473ffffffffffffffffffffffffffffffffffffffff166040518263ffffffff1660e01b815260040161035b9190610aed565b602060405180830381865afa158015610376573d5f5f3e3d5ffd5b505050506040513d601f19601f8201168201806040525081019061039a9190610da7565b9050818110156103df576040517f08c379a00000000000000000000000000000000000000000000000000000000081526004016103d690610e42565b60405180910390fd5b5f8373ffffffffffffffffffffffffffffffffffffffff166323b872dd60025f9054906101000a900473ffffffffffffffffffffffffffffffffffffffff1633866040518463ffffffff1660e01b815260040161043e93929190610e60565b6020604051808303815f875af115801561045a573d5f5f3e3d5ffd5b505050506040513d601f19601f8201168201806040525081019061047e9190610eca565b9050806104c0576040517f08c379a00000000000000000000000000000000000000000000000000000000081526004016104b790610f3f565b60405180910390fd5b3373ffffffffffffffffffffffffffffffffffffffff167f31566be95af2e42323c22ba842214253b9474227d1faa5c55f6189bda15fc775866001015f9054906101000a900460ff1685604051610518929190610f5d565b60405180910390a2505050505061052d610a53565b565b6004602052805f5260405f205f91509050805f015490806001015f9054906101000a900460ff16905082565b60015f9054906101000a900473ffffffffffffffffffffffffffffffffffffffff1681565b60025f9054906101000a900473ffffffffffffffffffffffffffffffffffffffff1681565b6105ad610a06565b5f81116105ef576040517f08c379a00000000000000000000000000000000000000000000000000000000081526004016105e690610ff4565b60405180910390fd5b5f60035f84600281111561060657610605610b73565b5b600281111561061857610617610b73565b5b81526020019081526020015f205f9054906101000a900473ffffffffffffffffffffffffffffffffffffffff1690505f73ffffffffffffffffffffffffffffffffffffffff168173ffffffffffffffffffffffffffffffffffffffff16036106b5576040517f08c379a00000000000000000000000000000000000000000000000000000000081526004016106ac90610d75565b60405180910390fd5b5f8173ffffffffffffffffffffffffffffffffffffffff166323b872dd3360025f9054906101000a900473ffffffffffffffffffffffffffffffffffffffff16866040518463ffffffff1660e01b815260040161071493929190610e60565b6020604051808303815f875af1158015610730573d5f5f3e3d5ffd5b505050506040513d601f19601f820116820180604052508101906107549190610eca565b905080610796576040517f08c379a000000000000000000000000000000000000000000000000000000000815260040161078d90610f3f565b60405180910390fd5b60405180604001604052808481526020018560028111156107ba576107b9610b73565b5b81525060045f3373ffffffffffffffffffffffffffffffffffffffff1673ffffffffffffffffffffffffffffffffffffffff1681526020019081526020015f205f820151815f01556020820151816001015f6101000a81548160ff0219169083600281111561082c5761082b610b73565b5b02179055509050503373ffffffffffffffffffffffffffffffffffffffff167f49e4eae2bdbf168747336dbc73322b37819a43df549ddf355d2060e6b855d9ab858560405161087c929190610f5d565b60405180910390a2505061088e610a53565b5050565b60015f9054906101000a900473ffffffffffffffffffffffffffffffffffffffff1673ffffffffffffffffffffffffffffffffffffffff163373ffffffffffffffffffffffffffffffffffffffff1614610921576040517f08c379a000000000000000000000000000000000000000000000000000000000815260040161091890611082565b60405180910390fd5b5f73ffffffffffffffffffffffffffffffffffffffff168173ffffffffffffffffffffffffffffffffffffffff160361098f576040517f08c379a0000000000000000000000000000000000000000000000000000000008152600401610986906110ea565b60405180910390fd5b8060035f8460028111156109a6576109a5610b73565b5b60028111156109b8576109b7610b73565b5b81526020019081526020015f205f6101000a81548173ffffffffffffffffffffffffffffffffffffffff021916908373ffffffffffffffffffffffffffffffffffffffff1602179055505050565b60025f5403610a4a576040517f08c379a0000000000000000000000000000000000000000000000000000000008152600401610a4190611152565b60405180910390fd5b60025f81905550565b60015f81905550565b5f5ffd5b60038110610a6c575f5ffd5b50565b5f81359050610a7d81610a60565b92915050565b5f60208284031215610a9857610a97610a5c565b5b5f610aa584828501610a6f565b91505092915050565b5f73ffffffffffffffffffffffffffffffffffffffff82169050919050565b5f610ad782610aae565b9050919050565b610ae781610acd565b82525050565b5f602082019050610b005f830184610ade565b92915050565b610b0f81610acd565b8114610b19575f5ffd5b50565b5f81359050610b2a81610b06565b92915050565b5f60208284031215610b4557610b44610a5c565b5b5f610b5284828501610b1c565b91505092915050565b5f819050919050565b610b6d81610b5b565b82525050565b7f4e487b71000000000000000000000000000000000000000000000000000000005f52602160045260245ffd5b60038110610bb157610bb0610b73565b5b50565b5f819050610bc182610ba0565b919050565b5f610bd082610bb4565b9050919050565b610be081610bc6565b82525050565b5f604082019050610bf95f830185610b64565b610c066020830184610bd7565b9392505050565b610c1681610b5b565b8114610c20575f5ffd5b50565b5f81359050610c3181610c0d565b92915050565b5f5f60408385031215610c4d57610c4c610a5c565b5b5f610c5a85828601610a6f565b9250506020610c6b85828601610c23565b9150509250929050565b5f5f60408385031215610c8b57610c8a610a5c565b5b5f610c9885828601610a6f565b9250506020610ca985828601610b1c565b9150509250929050565b5f82825260208201905092915050565b7f4e6f20636f6c6c61746572616c20746f207769746864726177000000000000005f82015250565b5f610cf7601983610cb3565b9150610d0282610cc3565b602082019050919050565b5f6020820190508181035f830152610d2481610ceb565b9050919050565b7f496e76616c696420636f6c6c61746572616c20746f6b656e00000000000000005f82015250565b5f610d5f601883610cb3565b9150610d6a82610d2b565b602082019050919050565b5f6020820190508181035f830152610d8c81610d53565b9050919050565b5f81519050610da181610c0d565b92915050565b5f60208284031215610dbc57610dbb610a5c565b5b5f610dc984828501610d93565b91505092915050565b7f457363726f772077616c6c65742068617320696e73756666696369656e7420625f8201527f616c616e63650000000000000000000000000000000000000000000000000000602082015250565b5f610e2c602683610cb3565b9150610e3782610dd2565b604082019050919050565b5f6020820190508181035f830152610e5981610e20565b9050919050565b5f606082019050610e735f830186610ade565b610e806020830185610ade565b610e8d6040830184610b64565b949350505050565b5f8115159050919050565b610ea981610e95565b8114610eb3575f5ffd5b50565b5f81519050610ec481610ea0565b92915050565b5f60208284031215610edf57610ede610a5c565b5b5f610eec84828501610eb6565b91505092915050565b7f546f6b656e207472616e73666572206661696c656400000000000000000000005f82015250565b5f610f29601583610cb3565b9150610f3482610ef5565b602082019050919050565b5f6020820190508181035f830152610f5681610f1d565b9050919050565b5f604082019050610f705f830185610bd7565b610f7d6020830184610b64565b9392505050565b7f436f6c6c61746572616c20616d6f756e74206d757374206265206772656174655f8201527f72207468616e207a65726f000000000000000000000000000000000000000000602082015250565b5f610fde602b83610cb3565b9150610fe982610f84565b604082019050919050565b5f6020820190508181035f83015261100b81610fd2565b9050919050565b7f4f6e6c79206f776e65722063616e2063616c6c20746869732066756e6374696f5f8201527f6e00000000000000000000000000000000000000000000000000000000000000602082015250565b5f61106c602183610cb3565b915061107782611012565b604082019050919050565b5f6020820190508181035f83015261109981611060565b9050919050565b7f496e76616c696420746f6b656e206164647265737300000000000000000000005f82015250565b5f6110d4601583610cb3565b91506110df826110a0565b602082019050919050565b5f6020820190508181035f830152611101816110c8565b9050919050565b7f5265656e7472616e637947756172643a207265656e7472616e742063616c6c005f82015250565b5f61113c601f83610cb3565b915061114782611108565b602082019050919050565b5f6020820190508181035f83015261116981611130565b905091905056fea264697066735822122091a1447629de4eb6d2daa172483c099f21b0d59767fcd9c7224d2185f7c8378664736f6c634300081b0033",
					"opcodes": "PUSH1 0x80 PUSH1 0x40 MSTORE CALLVALUE DUP1 ISZERO PUSH2 0xF JUMPI PUSH0 PUSH0 REVERT JUMPDEST POP PUSH1 0x40 MLOAD PUSH2 0x13E0 CODESIZE SUB DUP1 PUSH2 0x13E0 DUP4 CODECOPY DUP2 DUP2 ADD PUSH1 0x40 MSTORE DUP2 ADD SWAP1 PUSH2 0x31 SWAP2 SWAP1 PUSH2 0x18A JUMP JUMPDEST PUSH1 0x1 PUSH0 DUP2 SWAP1 SSTORE POP PUSH0 PUSH20 0xFFFFFFFFFFFFFFFFFFFFFFFFFFFFFFFFFFFFFFFF AND DUP2 PUSH20 0xFFFFFFFFFFFFFFFFFFFFFFFFFFFFFFFFFFFFFFFF AND SUB PUSH2 0xA6 JUMPI PUSH1 0x40 MLOAD PUSH32 0x8C379A000000000000000000000000000000000000000000000000000000000 DUP2 MSTORE PUSH1 0x4 ADD PUSH2 0x9D SWAP1 PUSH2 0x20F JUMP JUMPDEST PUSH1 0x40 MLOAD DUP1 SWAP2 SUB SWAP1 REVERT JUMPDEST CALLER PUSH1 0x1 PUSH0 PUSH2 0x100 EXP DUP2 SLOAD DUP2 PUSH20 0xFFFFFFFFFFFFFFFFFFFFFFFFFFFFFFFFFFFFFFFF MUL NOT AND SWAP1 DUP4 PUSH20 0xFFFFFFFFFFFFFFFFFFFFFFFFFFFFFFFFFFFFFFFF AND MUL OR SWAP1 SSTORE POP DUP1 PUSH1 0x2 PUSH0 PUSH2 0x100 EXP DUP2 SLOAD DUP2 PUSH20 0xFFFFFFFFFFFFFFFFFFFFFFFFFFFFFFFFFFFFFFFF MUL NOT AND SWAP1 DUP4 PUSH20 0xFFFFFFFFFFFFFFFFFFFFFFFFFFFFFFFFFFFFFFFF AND MUL OR SWAP1 SSTORE POP POP PUSH2 0x22D JUMP JUMPDEST PUSH0 PUSH0 REVERT JUMPDEST PUSH0 PUSH20 0xFFFFFFFFFFFFFFFFFFFFFFFFFFFFFFFFFFFFFFFF DUP3 AND SWAP1 POP SWAP2 SWAP1 POP JUMP JUMPDEST PUSH0 PUSH2 0x159 DUP3 PUSH2 0x130 JUMP JUMPDEST SWAP1 POP SWAP2 SWAP1 POP JUMP JUMPDEST PUSH2 0x169 DUP2 PUSH2 0x14F JUMP JUMPDEST DUP2 EQ PUSH2 0x173 JUMPI PUSH0 PUSH0 REVERT JUMPDEST POP JUMP JUMPDEST PUSH0 DUP2 MLOAD SWAP1 POP PUSH2 0x184 DUP2 PUSH2 0x160 JUMP JUMPDEST SWAP3 SWAP2 POP POP JUMP JUMPDEST PUSH0 PUSH1 0x20 DUP3 DUP5 SUB SLT ISZERO PUSH2 0x19F JUMPI PUSH2 0x19E PUSH2 0x12C JUMP JUMPDEST JUMPDEST PUSH0 PUSH2 0x1AC DUP5 DUP3 DUP6 ADD PUSH2 0x176 JUMP JUMPDEST SWAP2 POP POP SWAP3 SWAP2 POP POP JUMP JUMPDEST PUSH0 DUP3 DUP3 MSTORE PUSH1 0x20 DUP3 ADD SWAP1 POP SWAP3 SWAP2 POP POP JUMP JUMPDEST PUSH32 0x496E76616C696420657363726F772077616C6C65740000000000000000000000 PUSH0 DUP3 ADD MSTORE POP JUMP JUMPDEST PUSH0 PUSH2 0x1F9 PUSH1 0x15 DUP4 PUSH2 0x1B5 JUMP JUMPDEST SWAP2 POP PUSH2 0x204 DUP3 PUSH2 0x1C5 JUMP JUMPDEST PUSH1 0x20 DUP3 ADD SWAP1 POP SWAP2 SWAP1 POP JUMP JUMPDEST PUSH0 PUSH1 0x20 DUP3 ADD SWAP1 POP DUP2 DUP2 SUB PUSH0 DUP4 ADD MSTORE PUSH2 0x226 DUP2 PUSH2 0x1ED JUMP JUMPDEST SWAP1 POP SWAP2 SWAP1 POP JUMP JUMPDEST PUSH2 0x11A6 DUP1 PUSH2 0x23A PUSH0 CODECOPY PUSH0 RETURN INVALID PUSH1 0x80 PUSH1 0x40 MSTORE CALLVALUE DUP1 ISZERO PUSH2 0xF JUMPI PUSH0 PUSH0 REVERT JUMPDEST POP PUSH1 0x4 CALLDATASIZE LT PUSH2 0x7B JUMPI PUSH0 CALLDATALOAD PUSH1 0xE0 SHR DUP1 PUSH4 0x8DA5CB5B GT PUSH2 0x59 JUMPI DUP1 PUSH4 0x8DA5CB5B EQ PUSH2 0xEA JUMPI DUP1 PUSH4 0x92D3BE79 EQ PUSH2 0x108 JUMPI DUP1 PUSH4 0xB059D5C2 EQ PUSH2 0x126 JUMPI DUP1 PUSH4 0xD95A5AEA EQ PUSH2 0x142 JUMPI PUSH2 0x7B JUMP JUMPDEST DUP1 PUSH4 0x429AE236 EQ PUSH2 0x7F JUMPI DUP1 PUSH4 0x59C153BE EQ PUSH2 0xAF JUMPI DUP1 PUSH4 0x771568FD EQ PUSH2 0xB9 JUMPI JUMPDEST PUSH0 PUSH0 REVERT JUMPDEST PUSH2 0x99 PUSH1 0x4 DUP1 CALLDATASIZE SUB DUP2 ADD SWAP1 PUSH2 0x94 SWAP2 SWAP1 PUSH2 0xA83 JUMP JUMPDEST PUSH2 0x15E JUMP JUMPDEST PUSH1 0x40 MLOAD PUSH2 0xA6 SWAP2 SWAP1 PUSH2 0xAED JUMP JUMPDEST PUSH1 0x40 MLOAD DUP1 SWAP2 SUB SWAP1 RETURN JUMPDEST PUSH2 0xB7 PUSH2 0x18E JUMP JUMPDEST STOP JUMPDEST PUSH2 0xD3 PUSH1 0x4 DUP1 CALLDATASIZE SUB DUP2 ADD SWAP1 PUSH2 0xCE SWAP2 SWAP1 PUSH2 0xB30 JUMP JUMPDEST PUSH2 0x52F JUMP JUMPDEST PUSH1 0x40 MLOAD PUSH2 0xE1 SWAP3 SWAP2 SWAP1 PUSH2 0xBE6 JUMP JUMPDEST PUSH1 0x40 MLOAD DUP1 SWAP2 SUB SWAP1 RETURN JUMPDEST PUSH2 0xF2 PUSH2 0x55B JUMP JUMPDEST PUSH1 0x40 MLOAD PUSH2 0xFF SWAP2 SWAP1 PUSH2 0xAED JUMP JUMPDEST PUSH1 0x40 MLOAD DUP1 SWAP2 SUB SWAP1 RETURN JUMPDEST PUSH2 0x110 PUSH2 0x580 JUMP JUMPDEST PUSH1 0x40 MLOAD PUSH2 0x11D SWAP2 SWAP1 PUSH2 0xAED JUMP JUMPDEST PUSH1 0x40 MLOAD DUP1 SWAP2 SUB SWAP1 RETURN JUMPDEST PUSH2 0x140 PUSH1 0x4 DUP1 CALLDATASIZE SUB DUP2 ADD SWAP1 PUSH2 0x13B SWAP2 SWAP1 PUSH2 0xC37 JUMP JUMPDEST PUSH2 0x5A5 JUMP JUMPDEST STOP JUMPDEST PUSH2 0x15C PUSH1 0x4 DUP1 CALLDATASIZE SUB DUP2 ADD SWAP1 PUSH2 0x157 SWAP2 SWAP1 PUSH2 0xC75 JUMP JUMPDEST PUSH2 0x892 JUMP JUMPDEST STOP JUMPDEST PUSH1 0x3 PUSH1 0x20 MSTORE DUP1 PUSH0 MSTORE PUSH1 0x40 PUSH0 KECCAK256 PUSH0 SWAP2 POP SLOAD SWAP1 PUSH2 0x100 EXP SWAP1 DIV PUSH20 0xFFFFFFFFFFFFFFFFFFFFFFFFFFFFFFFFFFFFFFFF AND DUP2 JUMP JUMPDEST PUSH2 0x196 PUSH2 0xA06 JUMP JUMPDEST PUSH0 PUSH1 0x4 PUSH0 CALLER PUSH20 0xFFFFFFFFFFFFFFFFFFFFFFFFFFFFFFFFFFFFFFFF AND PUSH20 0xFFFFFFFFFFFFFFFFFFFFFFFFFFFFFFFFFFFFFFFF AND DUP2 MSTORE PUSH1 0x20 ADD SWAP1 DUP2 MSTORE PUSH1 0x20 ADD PUSH0 KECCAK256 SWAP1 POP PUSH0 DUP2 PUSH0 ADD SLOAD GT PUSH2 0x21B JUMPI PUSH1 0x40 MLOAD PUSH32 0x8C379A000000000000000000000000000000000000000000000000000000000 DUP2 MSTORE PUSH1 0x4 ADD PUSH2 0x212 SWAP1 PUSH2 0xD0D JUMP JUMPDEST PUSH1 0x40 MLOAD DUP1 SWAP2 SUB SWAP1 REVERT JUMPDEST PUSH0 PUSH1 0x3 PUSH0 DUP4 PUSH1 0x1 ADD PUSH0 SWAP1 SLOAD SWAP1 PUSH2 0x100 EXP SWAP1 DIV PUSH1 0xFF AND PUSH1 0x2 DUP2 GT ISZERO PUSH2 0x242 JUMPI PUSH2 0x241 PUSH2 0xB73 JUMP JUMPDEST JUMPDEST PUSH1 0x2 DUP2 GT ISZERO PUSH2 0x254 JUMPI PUSH2 0x253 PUSH2 0xB73 JUMP JUMPDEST JUMPDEST DUP2 MSTORE PUSH1 0x20 ADD SWAP1 DUP2 MSTORE PUSH1 0x20 ADD PUSH0 KECCAK256 PUSH0 SWAP1 SLOAD SWAP1 PUSH2 0x100 EXP SWAP1 DIV PUSH20 0xFFFFFFFFFFFFFFFFFFFFFFFFFFFFFFFFFFFFFFFF AND SWAP1 POP PUSH0 PUSH20 0xFFFFFFFFFFFFFFFFFFFFFFFFFFFFFFFFFFFFFFFF AND DUP2 PUSH20 0xFFFFFFFFFFFFFFFFFFFFFFFFFFFFFFFFFFFFFFFF AND SUB PUSH2 0x2F1 JUMPI PUSH1 0x40 MLOAD PUSH32 0x8C379A000000000000000000000000000000000000000000000000000000000 DUP2 MSTORE PUSH1 0x4 ADD PUSH2 0x2E8 SWAP1 PUSH2 0xD75 JUMP JUMPDEST PUSH1 0x40 MLOAD DUP1 SWAP2 SUB SWAP1 REVERT JUMPDEST PUSH0 DUP3 PUSH0 ADD SLOAD SWAP1 POP PUSH0 DUP4 PUSH0 ADD DUP2 SWAP1 SSTORE POP PUSH0 DUP3 PUSH20 0xFFFFFFFFFFFFFFFFFFFFFFFFFFFFFFFFFFFFFFFF AND PUSH4 0x70A08231 PUSH1 0x2 PUSH0 SWAP1 SLOAD SWAP1 PUSH2 0x100 EXP SWAP1 DIV PUSH20 0xFFFFFFFFFFFFFFFFFFFFFFFFFFFFFFFFFFFFFFFF AND PUSH1 0x40 MLOAD DUP3 PUSH4 0xFFFFFFFF AND PUSH1 0xE0 SHL DUP2 MSTORE PUSH1 0x4 ADD PUSH2 0x35B SWAP2 SWAP1 PUSH2 0xAED JUMP JUMPDEST PUSH1 0x20 PUSH1 0x40 MLOAD DUP1 DUP4 SUB DUP2 DUP7 GAS STATICCALL ISZERO DUP1 ISZERO PUSH2 0x376 JUMPI RETURNDATASIZE PUSH0 PUSH0 RETURNDATACOPY RETURNDATASIZE PUSH0 REVERT JUMPDEST POP POP POP POP PUSH1 0x40 MLOAD RETURNDATASIZE PUSH1 0x1F NOT PUSH1 0x1F DUP3 ADD AND DUP3 ADD DUP1 PUSH1 0x40 MSTORE POP DUP2 ADD SWAP1 PUSH2 0x39A SWAP2 SWAP1 PUSH2 0xDA7 JUMP JUMPDEST SWAP1 POP DUP2 DUP2 LT ISZERO PUSH2 0x3DF JUMPI PUSH1 0x40 MLOAD PUSH32 0x8C379A000000000000000000000000000000000000000000000000000000000 DUP2 MSTORE PUSH1 0x4 ADD PUSH2 0x3D6 SWAP1 PUSH2 0xE42 JUMP JUMPDEST PUSH1 0x40 MLOAD DUP1 SWAP2 SUB SWAP1 REVERT JUMPDEST PUSH0 DUP4 PUSH20 0xFFFFFFFFFFFFFFFFFFFFFFFFFFFFFFFFFFFFFFFF AND PUSH4 0x23B872DD PUSH1 0x2 PUSH0 SWAP1 SLOAD SWAP1 PUSH2 0x100 EXP SWAP1 DIV PUSH20 0xFFFFFFFFFFFFFFFFFFFFFFFFFFFFFFFFFFFFFFFF AND CALLER DUP7 PUSH1 0x40 MLOAD DUP5 PUSH4 0xFFFFFFFF AND PUSH1 0xE0 SHL DUP2 MSTORE PUSH1 0x4 ADD PUSH2 0x43E SWAP4 SWAP3 SWAP2 SWAP1 PUSH2 0xE60 JUMP JUMPDEST PUSH1 0x20 PUSH1 0x40 MLOAD DUP1 DUP4 SUB DUP2 PUSH0 DUP8 GAS CALL ISZERO DUP1 ISZERO PUSH2 0x45A JUMPI RETURNDATASIZE PUSH0 PUSH0 RETURNDATACOPY RETURNDATASIZE PUSH0 REVERT JUMPDEST POP POP POP POP PUSH1 0x40 MLOAD RETURNDATASIZE PUSH1 0x1F NOT PUSH1 0x1F DUP3 ADD AND DUP3 ADD DUP1 PUSH1 0x40 MSTORE POP DUP2 ADD SWAP1 PUSH2 0x47E SWAP2 SWAP1 PUSH2 0xECA JUMP JUMPDEST SWAP1 POP DUP1 PUSH2 0x4C0 JUMPI PUSH1 0x40 MLOAD PUSH32 0x8C379A000000000000000000000000000000000000000000000000000000000 DUP2 MSTORE PUSH1 0x4 ADD PUSH2 0x4B7 SWAP1 PUSH2 0xF3F JUMP JUMPDEST PUSH1 0x40 MLOAD DUP1 SWAP2 SUB SWAP1 REVERT JUMPDEST CALLER PUSH20 0xFFFFFFFFFFFFFFFFFFFFFFFFFFFFFFFFFFFFFFFF AND PUSH32 0x31566BE95AF2E42323C22BA842214253B9474227D1FAA5C55F6189BDA15FC775 DUP7 PUSH1 0x1 ADD PUSH0 SWAP1 SLOAD SWAP1 PUSH2 0x100 EXP SWAP1 DIV PUSH1 0xFF AND DUP6 PUSH1 0x40 MLOAD PUSH2 0x518 SWAP3 SWAP2 SWAP1 PUSH2 0xF5D JUMP JUMPDEST PUSH1 0x40 MLOAD DUP1 SWAP2 SUB SWAP1 LOG2 POP POP POP POP POP PUSH2 0x52D PUSH2 0xA53 JUMP JUMPDEST JUMP JUMPDEST PUSH1 0x4 PUSH1 0x20 MSTORE DUP1 PUSH0 MSTORE PUSH1 0x40 PUSH0 KECCAK256 PUSH0 SWAP2 POP SWAP1 POP DUP1 PUSH0 ADD SLOAD SWAP1 DUP1 PUSH1 0x1 ADD PUSH0 SWAP1 SLOAD SWAP1 PUSH2 0x100 EXP SWAP1 DIV PUSH1 0xFF AND SWAP1 POP DUP3 JUMP JUMPDEST PUSH1 0x1 PUSH0 SWAP1 SLOAD SWAP1 PUSH2 0x100 EXP SWAP1 DIV PUSH20 0xFFFFFFFFFFFFFFFFFFFFFFFFFFFFFFFFFFFFFFFF AND DUP2 JUMP JUMPDEST PUSH1 0x2 PUSH0 SWAP1 SLOAD SWAP1 PUSH2 0x100 EXP SWAP1 DIV PUSH20 0xFFFFFFFFFFFFFFFFFFFFFFFFFFFFFFFFFFFFFFFF AND DUP2 JUMP JUMPDEST PUSH2 0x5AD PUSH2 0xA06 JUMP JUMPDEST PUSH0 DUP2 GT PUSH2 0x5EF JUMPI PUSH1 0x40 MLOAD PUSH32 0x8C379A000000000000000000000000000000000000000000000000000000000 DUP2 MSTORE PUSH1 0x4 ADD PUSH2 0x5E6 SWAP1 PUSH2 0xFF4 JUMP JUMPDEST PUSH1 0x40 MLOAD DUP1 SWAP2 SUB SWAP1 REVERT JUMPDEST PUSH0 PUSH1 0x3 PUSH0 DUP5 PUSH1 0x2 DUP2 GT ISZERO PUSH2 0x606 JUMPI PUSH2 0x605 PUSH2 0xB73 JUMP JUMPDEST JUMPDEST PUSH1 0x2 DUP2 GT ISZERO PUSH2 0x618 JUMPI PUSH2 0x617 PUSH2 0xB73 JUMP JUMPDEST JUMPDEST DUP2 MSTORE PUSH1 0x20 ADD SWAP1 DUP2 MSTORE PUSH1 0x20 ADD PUSH0 KECCAK256 PUSH0 SWAP1 SLOAD SWAP1 PUSH2 0x100 EXP SWAP1 DIV PUSH20 0xFFFFFFFFFFFFFFFFFFFFFFFFFFFFFFFFFFFFFFFF AND SWAP1 POP PUSH0 PUSH20 0xFFFFFFFFFFFFFFFFFFFFFFFFFFFFFFFFFFFFFFFF AND DUP2 PUSH20 0xFFFFFFFFFFFFFFFFFFFFFFFFFFFFFFFFFFFFFFFF AND SUB PUSH2 0x6B5 JUMPI PUSH1 0x40 MLOAD PUSH32 0x8C379A000000000000000000000000000000000000000000000000000000000 DUP2 MSTORE PUSH1 0x4 ADD PUSH2 0x6AC SWAP1 PUSH2 0xD75 JUMP JUMPDEST PUSH1 0x40 MLOAD DUP1 SWAP2 SUB SWAP1 REVERT JUMPDEST PUSH0 DUP2 PUSH20 0xFFFFFFFFFFFFFFFFFFFFFFFFFFFFFFFFFFFFFFFF AND PUSH4 0x23B872DD CALLER PUSH1 0x2 PUSH0 SWAP1 SLOAD SWAP1 PUSH2 0x100 EXP SWAP1 DIV PUSH20 0xFFFFFFFFFFFFFFFFFFFFFFFFFFFFFFFFFFFFFFFF AND DUP7 PUSH1 0x40 MLOAD DUP5 PUSH4 0xFFFFFFFF AND PUSH1 0xE0 SHL DUP2 MSTORE PUSH1 0x4 ADD PUSH2 0x714 SWAP4 SWAP3 SWAP2 SWAP1 PUSH2 0xE60 JUMP JUMPDEST PUSH1 0x20 PUSH1 0x40 MLOAD DUP1 DUP4 SUB DUP2 PUSH0 DUP8 GAS CALL ISZERO DUP1 ISZERO PUSH2 0x730 JUMPI RETURNDATASIZE PUSH0 PUSH0 RETURNDATACOPY RETURNDATASIZE PUSH0 REVERT JUMPDEST POP POP POP POP PUSH1 0x40 MLOAD RETURNDATASIZE PUSH1 0x1F NOT PUSH1 0x1F DUP3 ADD AND DUP3 ADD DUP1 PUSH1 0x40 MSTORE POP DUP2 ADD SWAP1 PUSH2 0x754 SWAP2 SWAP1 PUSH2 0xECA JUMP JUMPDEST SWAP1 POP DUP1 PUSH2 0x796 JUMPI PUSH1 0x40 MLOAD PUSH32 0x8C379A000000000000000000000000000000000000000000000000000000000 DUP2 MSTORE PUSH1 0x4 ADD PUSH2 0x78D SWAP1 PUSH2 0xF3F JUMP JUMPDEST PUSH1 0x40 MLOAD DUP1 SWAP2 SUB SWAP1 REVERT JUMPDEST PUSH1 0x40 MLOAD DUP1 PUSH1 0x40 ADD PUSH1 0x40 MSTORE DUP1 DUP5 DUP2 MSTORE PUSH1 0x20 ADD DUP6 PUSH1 0x2 DUP2 GT ISZERO PUSH2 0x7BA JUMPI PUSH2 0x7B9 PUSH2 0xB73 JUMP JUMPDEST JUMPDEST DUP2 MSTORE POP PUSH1 0x4 PUSH0 CALLER PUSH20 0xFFFFFFFFFFFFFFFFFFFFFFFFFFFFFFFFFFFFFFFF AND PUSH20 0xFFFFFFFFFFFFFFFFFFFFFFFFFFFFFFFFFFFFFFFF AND DUP2 MSTORE PUSH1 0x20 ADD SWAP1 DUP2 MSTORE PUSH1 0x20 ADD PUSH0 KECCAK256 PUSH0 DUP3 ADD MLOAD DUP2 PUSH0 ADD SSTORE PUSH1 0x20 DUP3 ADD MLOAD DUP2 PUSH1 0x1 ADD PUSH0 PUSH2 0x100 EXP DUP2 SLOAD DUP2 PUSH1 0xFF MUL NOT AND SWAP1 DUP4 PUSH1 0x2 DUP2 GT ISZERO PUSH2 0x82C JUMPI PUSH2 0x82B PUSH2 0xB73 JUMP JUMPDEST JUMPDEST MUL OR SWAP1 SSTORE POP SWAP1 POP POP CALLER PUSH20 0xFFFFFFFFFFFFFFFFFFFFFFFFFFFFFFFFFFFFFFFF AND PUSH32 0x49E4EAE2BDBF168747336DBC73322B37819A43DF549DDF355D2060E6B855D9AB DUP6 DUP6 PUSH1 0x40 MLOAD PUSH2 0x87C SWAP3 SWAP2 SWAP1 PUSH2 0xF5D JUMP JUMPDEST PUSH1 0x40 MLOAD DUP1 SWAP2 SUB SWAP1 LOG2 POP POP PUSH2 0x88E PUSH2 0xA53 JUMP JUMPDEST POP POP JUMP JUMPDEST PUSH1 0x1 PUSH0 SWAP1 SLOAD SWAP1 PUSH2 0x100 EXP SWAP1 DIV PUSH20 0xFFFFFFFFFFFFFFFFFFFFFFFFFFFFFFFFFFFFFFFF AND PUSH20 0xFFFFFFFFFFFFFFFFFFFFFFFFFFFFFFFFFFFFFFFF AND CALLER PUSH20 0xFFFFFFFFFFFFFFFFFFFFFFFFFFFFFFFFFFFFFFFF AND EQ PUSH2 0x921 JUMPI PUSH1 0x40 MLOAD PUSH32 0x8C379A000000000000000000000000000000000000000000000000000000000 DUP2 MSTORE PUSH1 0x4 ADD PUSH2 0x918 SWAP1 PUSH2 0x1082 JUMP JUMPDEST PUSH1 0x40 MLOAD DUP1 SWAP2 SUB SWAP1 REVERT JUMPDEST PUSH0 PUSH20 0xFFFFFFFFFFFFFFFFFFFFFFFFFFFFFFFFFFFFFFFF AND DUP2 PUSH20 0xFFFFFFFFFFFFFFFFFFFFFFFFFFFFFFFFFFFFFFFF AND SUB PUSH2 0x98F JUMPI PUSH1 0x40 MLOAD PUSH32 0x8C379A000000000000000000000000000000000000000000000000000000000 DUP2 MSTORE PUSH1 0x4 ADD PUSH2 0x986 SWAP1 PUSH2 0x10EA JUMP JUMPDEST PUSH1 0x40 MLOAD DUP1 SWAP2 SUB SWAP1 REVERT JUMPDEST DUP1 PUSH1 0x3 PUSH0 DUP5 PUSH1 0x2 DUP2 GT ISZERO PUSH2 0x9A6 JUMPI PUSH2 0x9A5 PUSH2 0xB73 JUMP JUMPDEST JUMPDEST PUSH1 0x2 DUP2 GT ISZERO PUSH2 0x9B8 JUMPI PUSH2 0x9B7 PUSH2 0xB73 JUMP JUMPDEST JUMPDEST DUP2 MSTORE PUSH1 0x20 ADD SWAP1 DUP2 MSTORE PUSH1 0x20 ADD PUSH0 KECCAK256 PUSH0 PUSH2 0x100 EXP DUP2 SLOAD DUP2 PUSH20 0xFFFFFFFFFFFFFFFFFFFFFFFFFFFFFFFFFFFFFFFF MUL NOT AND SWAP1 DUP4 PUSH20 0xFFFFFFFFFFFFFFFFFFFFFFFFFFFFFFFFFFFFFFFF AND MUL OR SWAP1 SSTORE POP POP POP JUMP JUMPDEST PUSH1 0x2 PUSH0 SLOAD SUB PUSH2 0xA4A JUMPI PUSH1 0x40 MLOAD PUSH32 0x8C379A000000000000000000000000000000000000000000000000000000000 DUP2 MSTORE PUSH1 0x4 ADD PUSH2 0xA41 SWAP1 PUSH2 0x1152 JUMP JUMPDEST PUSH1 0x40 MLOAD DUP1 SWAP2 SUB SWAP1 REVERT JUMPDEST PUSH1 0x2 PUSH0 DUP2 SWAP1 SSTORE POP JUMP JUMPDEST PUSH1 0x1 PUSH0 DUP2 SWAP1 SSTORE POP JUMP JUMPDEST PUSH0 PUSH0 REVERT JUMPDEST PUSH1 0x3 DUP2 LT PUSH2 0xA6C JUMPI PUSH0 PUSH0 REVERT JUMPDEST POP JUMP JUMPDEST PUSH0 DUP2 CALLDATALOAD SWAP1 POP PUSH2 0xA7D DUP2 PUSH2 0xA60 JUMP JUMPDEST SWAP3 SWAP2 POP POP JUMP JUMPDEST PUSH0 PUSH1 0x20 DUP3 DUP5 SUB SLT ISZERO PUSH2 0xA98 JUMPI PUSH2 0xA97 PUSH2 0xA5C JUMP JUMPDEST JUMPDEST PUSH0 PUSH2 0xAA5 DUP5 DUP3 DUP6 ADD PUSH2 0xA6F JUMP JUMPDEST SWAP2 POP POP SWAP3 SWAP2 POP POP JUMP JUMPDEST PUSH0 PUSH20 0xFFFFFFFFFFFFFFFFFFFFFFFFFFFFFFFFFFFFFFFF DUP3 AND SWAP1 POP SWAP2 SWAP1 POP JUMP JUMPDEST PUSH0 PUSH2 0xAD7 DUP3 PUSH2 0xAAE JUMP JUMPDEST SWAP1 POP SWAP2 SWAP1 POP JUMP JUMPDEST PUSH2 0xAE7 DUP2 PUSH2 0xACD JUMP JUMPDEST DUP3 MSTORE POP POP JUMP JUMPDEST PUSH0 PUSH1 0x20 DUP3 ADD SWAP1 POP PUSH2 0xB00 PUSH0 DUP4 ADD DUP5 PUSH2 0xADE JUMP JUMPDEST SWAP3 SWAP2 POP POP JUMP JUMPDEST PUSH2 0xB0F DUP2 PUSH2 0xACD JUMP JUMPDEST DUP2 EQ PUSH2 0xB19 JUMPI PUSH0 PUSH0 REVERT JUMPDEST POP JUMP JUMPDEST PUSH0 DUP2 CALLDATALOAD SWAP1 POP PUSH2 0xB2A DUP2 PUSH2 0xB06 JUMP JUMPDEST SWAP3 SWAP2 POP POP JUMP JUMPDEST PUSH0 PUSH1 0x20 DUP3 DUP5 SUB SLT ISZERO PUSH2 0xB45 JUMPI PUSH2 0xB44 PUSH2 0xA5C JUMP JUMPDEST JUMPDEST PUSH0 PUSH2 0xB52 DUP5 DUP3 DUP6 ADD PUSH2 0xB1C JUMP JUMPDEST SWAP2 POP POP SWAP3 SWAP2 POP POP JUMP JUMPDEST PUSH0 DUP2 SWAP1 POP SWAP2 SWAP1 POP JUMP JUMPDEST PUSH2 0xB6D DUP2 PUSH2 0xB5B JUMP JUMPDEST DUP3 MSTORE POP POP JUMP JUMPDEST PUSH32 0x4E487B7100000000000000000000000000000000000000000000000000000000 PUSH0 MSTORE PUSH1 0x21 PUSH1 0x4 MSTORE PUSH1 0x24 PUSH0 REVERT JUMPDEST PUSH1 0x3 DUP2 LT PUSH2 0xBB1 JUMPI PUSH2 0xBB0 PUSH2 0xB73 JUMP JUMPDEST JUMPDEST POP JUMP JUMPDEST PUSH0 DUP2 SWAP1 POP PUSH2 0xBC1 DUP3 PUSH2 0xBA0 JUMP JUMPDEST SWAP2 SWAP1 POP JUMP JUMPDEST PUSH0 PUSH2 0xBD0 DUP3 PUSH2 0xBB4 JUMP JUMPDEST SWAP1 POP SWAP2 SWAP1 POP JUMP JUMPDEST PUSH2 0xBE0 DUP2 PUSH2 0xBC6 JUMP JUMPDEST DUP3 MSTORE POP POP JUMP JUMPDEST PUSH0 PUSH1 0x40 DUP3 ADD SWAP1 POP PUSH2 0xBF9 PUSH0 DUP4 ADD DUP6 PUSH2 0xB64 JUMP JUMPDEST PUSH2 0xC06 PUSH1 0x20 DUP4 ADD DUP5 PUSH2 0xBD7 JUMP JUMPDEST SWAP4 SWAP3 POP POP POP JUMP JUMPDEST PUSH2 0xC16 DUP2 PUSH2 0xB5B JUMP JUMPDEST DUP2 EQ PUSH2 0xC20 JUMPI PUSH0 PUSH0 REVERT JUMPDEST POP JUMP JUMPDEST PUSH0 DUP2 CALLDATALOAD SWAP1 POP PUSH2 0xC31 DUP2 PUSH2 0xC0D JUMP JUMPDEST SWAP3 SWAP2 POP POP JUMP JUMPDEST PUSH0 PUSH0 PUSH1 0x40 DUP4 DUP6 SUB SLT ISZERO PUSH2 0xC4D JUMPI PUSH2 0xC4C PUSH2 0xA5C JUMP JUMPDEST JUMPDEST PUSH0 PUSH2 0xC5A DUP6 DUP3 DUP7 ADD PUSH2 0xA6F JUMP JUMPDEST SWAP3 POP POP PUSH1 0x20 PUSH2 0xC6B DUP6 DUP3 DUP7 ADD PUSH2 0xC23 JUMP JUMPDEST SWAP2 POP POP SWAP3 POP SWAP3 SWAP1 POP JUMP JUMPDEST PUSH0 PUSH0 PUSH1 0x40 DUP4 DUP6 SUB SLT ISZERO PUSH2 0xC8B JUMPI PUSH2 0xC8A PUSH2 0xA5C JUMP JUMPDEST JUMPDEST PUSH0 PUSH2 0xC98 DUP6 DUP3 DUP7 ADD PUSH2 0xA6F JUMP JUMPDEST SWAP3 POP POP PUSH1 0x20 PUSH2 0xCA9 DUP6 DUP3 DUP7 ADD PUSH2 0xB1C JUMP JUMPDEST SWAP2 POP POP SWAP3 POP SWAP3 SWAP1 POP JUMP JUMPDEST PUSH0 DUP3 DUP3 MSTORE PUSH1 0x20 DUP3 ADD SWAP1 POP SWAP3 SWAP2 POP POP JUMP JUMPDEST PUSH32 0x4E6F20636F6C6C61746572616C20746F20776974686472617700000000000000 PUSH0 DUP3 ADD MSTORE POP JUMP JUMPDEST PUSH0 PUSH2 0xCF7 PUSH1 0x19 DUP4 PUSH2 0xCB3 JUMP JUMPDEST SWAP2 POP PUSH2 0xD02 DUP3 PUSH2 0xCC3 JUMP JUMPDEST PUSH1 0x20 DUP3 ADD SWAP1 POP SWAP2 SWAP1 POP JUMP JUMPDEST PUSH0 PUSH1 0x20 DUP3 ADD SWAP1 POP DUP2 DUP2 SUB PUSH0 DUP4 ADD MSTORE PUSH2 0xD24 DUP2 PUSH2 0xCEB JUMP JUMPDEST SWAP1 POP SWAP2 SWAP1 POP JUMP JUMPDEST PUSH32 0x496E76616C696420636F6C6C61746572616C20746F6B656E0000000000000000 PUSH0 DUP3 ADD MSTORE POP JUMP JUMPDEST PUSH0 PUSH2 0xD5F PUSH1 0x18 DUP4 PUSH2 0xCB3 JUMP JUMPDEST SWAP2 POP PUSH2 0xD6A DUP3 PUSH2 0xD2B JUMP JUMPDEST PUSH1 0x20 DUP3 ADD SWAP1 POP SWAP2 SWAP1 POP JUMP JUMPDEST PUSH0 PUSH1 0x20 DUP3 ADD SWAP1 POP DUP2 DUP2 SUB PUSH0 DUP4 ADD MSTORE PUSH2 0xD8C DUP2 PUSH2 0xD53 JUMP JUMPDEST SWAP1 POP SWAP2 SWAP1 POP JUMP JUMPDEST PUSH0 DUP2 MLOAD SWAP1 POP PUSH2 0xDA1 DUP2 PUSH2 0xC0D JUMP JUMPDEST SWAP3 SWAP2 POP POP JUMP JUMPDEST PUSH0 PUSH1 0x20 DUP3 DUP5 SUB SLT ISZERO PUSH2 0xDBC JUMPI PUSH2 0xDBB PUSH2 0xA5C JUMP JUMPDEST JUMPDEST PUSH0 PUSH2 0xDC9 DUP5 DUP3 DUP6 ADD PUSH2 0xD93 JUMP JUMPDEST SWAP2 POP POP SWAP3 SWAP2 POP POP JUMP JUMPDEST PUSH32 0x457363726F772077616C6C65742068617320696E73756666696369656E742062 PUSH0 DUP3 ADD MSTORE PUSH32 0x616C616E63650000000000000000000000000000000000000000000000000000 PUSH1 0x20 DUP3 ADD MSTORE POP JUMP JUMPDEST PUSH0 PUSH2 0xE2C PUSH1 0x26 DUP4 PUSH2 0xCB3 JUMP JUMPDEST SWAP2 POP PUSH2 0xE37 DUP3 PUSH2 0xDD2 JUMP JUMPDEST PUSH1 0x40 DUP3 ADD SWAP1 POP SWAP2 SWAP1 POP JUMP JUMPDEST PUSH0 PUSH1 0x20 DUP3 ADD SWAP1 POP DUP2 DUP2 SUB PUSH0 DUP4 ADD MSTORE PUSH2 0xE59 DUP2 PUSH2 0xE20 JUMP JUMPDEST SWAP1 POP SWAP2 SWAP1 POP JUMP JUMPDEST PUSH0 PUSH1 0x60 DUP3 ADD SWAP1 POP PUSH2 0xE73 PUSH0 DUP4 ADD DUP7 PUSH2 0xADE JUMP JUMPDEST PUSH2 0xE80 PUSH1 0x20 DUP4 ADD DUP6 PUSH2 0xADE JUMP JUMPDEST PUSH2 0xE8D PUSH1 0x40 DUP4 ADD DUP5 PUSH2 0xB64 JUMP JUMPDEST SWAP5 SWAP4 POP POP POP POP JUMP JUMPDEST PUSH0 DUP2 ISZERO ISZERO SWAP1 POP SWAP2 SWAP1 POP JUMP JUMPDEST PUSH2 0xEA9 DUP2 PUSH2 0xE95 JUMP JUMPDEST DUP2 EQ PUSH2 0xEB3 JUMPI PUSH0 PUSH0 REVERT JUMPDEST POP JUMP JUMPDEST PUSH0 DUP2 MLOAD SWAP1 POP PUSH2 0xEC4 DUP2 PUSH2 0xEA0 JUMP JUMPDEST SWAP3 SWAP2 POP POP JUMP JUMPDEST PUSH0 PUSH1 0x20 DUP3 DUP5 SUB SLT ISZERO PUSH2 0xEDF JUMPI PUSH2 0xEDE PUSH2 0xA5C JUMP JUMPDEST JUMPDEST PUSH0 PUSH2 0xEEC DUP5 DUP3 DUP6 ADD PUSH2 0xEB6 JUMP JUMPDEST SWAP2 POP POP SWAP3 SWAP2 POP POP JUMP JUMPDEST PUSH32 0x546F6B656E207472616E73666572206661696C65640000000000000000000000 PUSH0 DUP3 ADD MSTORE POP JUMP JUMPDEST PUSH0 PUSH2 0xF29 PUSH1 0x15 DUP4 PUSH2 0xCB3 JUMP JUMPDEST SWAP2 POP PUSH2 0xF34 DUP3 PUSH2 0xEF5 JUMP JUMPDEST PUSH1 0x20 DUP3 ADD SWAP1 POP SWAP2 SWAP1 POP JUMP JUMPDEST PUSH0 PUSH1 0x20 DUP3 ADD SWAP1 POP DUP2 DUP2 SUB PUSH0 DUP4 ADD MSTORE PUSH2 0xF56 DUP2 PUSH2 0xF1D JUMP JUMPDEST SWAP1 POP SWAP2 SWAP1 POP JUMP JUMPDEST PUSH0 PUSH1 0x40 DUP3 ADD SWAP1 POP PUSH2 0xF70 PUSH0 DUP4 ADD DUP6 PUSH2 0xBD7 JUMP JUMPDEST PUSH2 0xF7D PUSH1 0x20 DUP4 ADD DUP5 PUSH2 0xB64 JUMP JUMPDEST SWAP4 SWAP3 POP POP POP JUMP JUMPDEST PUSH32 0x436F6C6C61746572616C20616D6F756E74206D75737420626520677265617465 PUSH0 DUP3 ADD MSTORE PUSH32 0x72207468616E207A65726F000000000000000000000000000000000000000000 PUSH1 0x20 DUP3 ADD MSTORE POP JUMP JUMPDEST PUSH0 PUSH2 0xFDE PUSH1 0x2B DUP4 PUSH2 0xCB3 JUMP JUMPDEST SWAP2 POP PUSH2 0xFE9 DUP3 PUSH2 0xF84 JUMP JUMPDEST PUSH1 0x40 DUP3 ADD SWAP1 POP SWAP2 SWAP1 POP JUMP JUMPDEST PUSH0 PUSH1 0x20 DUP3 ADD SWAP1 POP DUP2 DUP2 SUB PUSH0 DUP4 ADD MSTORE PUSH2 0x100B DUP2 PUSH2 0xFD2 JUMP JUMPDEST SWAP1 POP SWAP2 SWAP1 POP JUMP JUMPDEST PUSH32 0x4F6E6C79206F776E65722063616E2063616C6C20746869732066756E6374696F PUSH0 DUP3 ADD MSTORE PUSH32 0x6E00000000000000000000000000000000000000000000000000000000000000 PUSH1 0x20 DUP3 ADD MSTORE POP JUMP JUMPDEST PUSH0 PUSH2 0x106C PUSH1 0x21 DUP4 PUSH2 0xCB3 JUMP JUMPDEST SWAP2 POP PUSH2 0x1077 DUP3 PUSH2 0x1012 JUMP JUMPDEST PUSH1 0x40 DUP3 ADD SWAP1 POP SWAP2 SWAP1 POP JUMP JUMPDEST PUSH0 PUSH1 0x20 DUP3 ADD SWAP1 POP DUP2 DUP2 SUB PUSH0 DUP4 ADD MSTORE PUSH2 0x1099 DUP2 PUSH2 0x1060 JUMP JUMPDEST SWAP1 POP SWAP2 SWAP1 POP JUMP JUMPDEST PUSH32 0x496E76616C696420746F6B656E20616464726573730000000000000000000000 PUSH0 DUP3 ADD MSTORE POP JUMP JUMPDEST PUSH0 PUSH2 0x10D4 PUSH1 0x15 DUP4 PUSH2 0xCB3 JUMP JUMPDEST SWAP2 POP PUSH2 0x10DF DUP3 PUSH2 0x10A0 JUMP JUMPDEST PUSH1 0x20 DUP3 ADD SWAP1 POP SWAP2 SWAP1 POP JUMP JUMPDEST PUSH0 PUSH1 0x20 DUP3 ADD SWAP1 POP DUP2 DUP2 SUB PUSH0 DUP4 ADD MSTORE PUSH2 0x1101 DUP2 PUSH2 0x10C8 JUMP JUMPDEST SWAP1 POP SWAP2 SWAP1 POP JUMP JUMPDEST PUSH32 0x5265656E7472616E637947756172643A207265656E7472616E742063616C6C00 PUSH0 DUP3 ADD MSTORE POP JUMP JUMPDEST PUSH0 PUSH2 0x113C PUSH1 0x1F DUP4 PUSH2 0xCB3 JUMP JUMPDEST SWAP2 POP PUSH2 0x1147 DUP3 PUSH2 0x1108 JUMP JUMPDEST PUSH1 0x20 DUP3 ADD SWAP1 POP SWAP2 SWAP1 POP JUMP JUMPDEST PUSH0 PUSH1 0x20 DUP3 ADD SWAP1 POP DUP2 DUP2 SUB PUSH0 DUP4 ADD MSTORE PUSH2 0x1169 DUP2 PUSH2 0x1130 JUMP JUMPDEST SWAP1 POP SWAP2 SWAP1 POP JUMP INVALID LOG2 PUSH5 0x6970667358 0x22 SLT KECCAK256 SWAP2 LOG1 PREVRANDAO PUSH23 0x29DE4EB6D2DAA172483C099F21B0D59767FCD9C7224D21 DUP6 0xF7 0xC8 CALLDATACOPY DUP7 PUSH5 0x736F6C6343 STOP ADDMOD SHL STOP CALLER "
				},
				"gasEstimates": {
					"creation": {
						"codeDepositCost": "903600",
						"executionCost": "infinite",
						"totalCost": "infinite"
					},
					"external": {
						"approvedTokens(uint8)": "2786",
						"borrowerCollateral(address)": "5200",
						"depositCollateral(uint8,uint256)": "infinite",
						"escrowWallet()": "2530",
						"owner()": "2508",
						"setApprovedToken(uint8,address)": "27240",
						"withdrawCollateral()": "infinite"
					}
				},
				"methodIdentifiers": {
					"approvedTokens(uint8)": "429ae236",
					"borrowerCollateral(address)": "771568fd",
					"depositCollateral(uint8,uint256)": "b059d5c2",
					"escrowWallet()": "92d3be79",
					"owner()": "8da5cb5b",
					"setApprovedToken(uint8,address)": "d95a5aea",
					"withdrawCollateral()": "59c153be"
				}
			},
			"storageLayout": {
				"storage": [
					{
						"astId": 10,
						"contract": "contracts/p2p-lending.sol:PesabitsCollateralManager",
						"label": "_status",
						"offset": 0,
						"slot": "0",
						"type": "t_uint256"
					},
					{
						"astId": 150,
						"contract": "contracts/p2p-lending.sol:PesabitsCollateralManager",
						"label": "owner",
						"offset": 0,
						"slot": "1",
						"type": "t_address"
					},
					{
						"astId": 152,
						"contract": "contracts/p2p-lending.sol:PesabitsCollateralManager",
						"label": "escrowWallet",
						"offset": 0,
						"slot": "2",
						"type": "t_address"
					},
					{
						"astId": 161,
						"contract": "contracts/p2p-lending.sol:PesabitsCollateralManager",
						"label": "approvedTokens",
						"offset": 0,
						"slot": "3",
						"type": "t_mapping(t_enum(CollateralType)156,t_address)"
					},
					{
						"astId": 190,
						"contract": "contracts/p2p-lending.sol:PesabitsCollateralManager",
						"label": "borrowerCollateral",
						"offset": 0,
						"slot": "4",
						"type": "t_mapping(t_address,t_struct(Collateral)185_storage)"
					}
				],
				"types": {
					"t_address": {
						"encoding": "inplace",
						"label": "address",
						"numberOfBytes": "20"
					},
					"t_enum(CollateralType)156": {
						"encoding": "inplace",
						"label": "enum PesabitsCollateralManager.CollateralType",
						"numberOfBytes": "1"
					},
					"t_mapping(t_address,t_struct(Collateral)185_storage)": {
						"encoding": "mapping",
						"key": "t_address",
						"label": "mapping(address => struct PesabitsCollateralManager.Collateral)",
						"numberOfBytes": "32",
						"value": "t_struct(Collateral)185_storage"
					},
					"t_mapping(t_enum(CollateralType)156,t_address)": {
						"encoding": "mapping",
						"key": "t_enum(CollateralType)156",
						"label": "mapping(enum PesabitsCollateralManager.CollateralType => address)",
						"numberOfBytes": "32",
						"value": "t_address"
					},
					"t_struct(Collateral)185_storage": {
						"encoding": "inplace",
						"label": "struct PesabitsCollateralManager.Collateral",
						"members": [
							{
								"astId": 181,
								"contract": "contracts/p2p-lending.sol:PesabitsCollateralManager",
								"label": "amount",
								"offset": 0,
								"slot": "0",
								"type": "t_uint256"
							},
							{
								"astId": 184,
								"contract": "contracts/p2p-lending.sol:PesabitsCollateralManager",
								"label": "tokenType",
								"offset": 0,
								"slot": "1",
								"type": "t_enum(CollateralType)156"
							}
						],
						"numberOfBytes": "64"
					},
					"t_uint256": {
						"encoding": "inplace",
						"label": "uint256",
						"numberOfBytes": "32"
					}
				}
			},
			"userdoc": {
				"kind": "user",
				"methods": {},
				"version": 1
			}
		}
	}
}